{
  "_format": "hh3-artifact-1",
  "contractName": "ShineTicket",
  "sourceName": "contracts/ShineTicket.sol",
  "abi": [
    {
      "inputs": [
        {
          "internalType": "address",
          "name": "defaultAdmin",
          "type": "address"
        },
        {
          "internalType": "address",
          "name": "_usdtToken",
          "type": "address"
        }
      ],
      "stateMutability": "nonpayable",
      "type": "constructor"
    },
    {
      "inputs": [],
      "name": "AccessControlBadConfirmation",
      "type": "error"
    },
    {
      "inputs": [
        {
          "internalType": "address",
          "name": "account",
          "type": "address"
        },
        {
          "internalType": "bytes32",
          "name": "neededRole",
          "type": "bytes32"
        }
      ],
      "name": "AccessControlUnauthorizedAccount",
      "type": "error"
    },
    {
      "inputs": [],
      "name": "ApprovalCallerNotOwnerNorApproved",
      "type": "error"
    },
    {
      "inputs": [],
      "name": "ApprovalQueryForNonexistentToken",
      "type": "error"
    },
    {
      "inputs": [],
      "name": "BalanceQueryForZeroAddress",
      "type": "error"
    },
    {
      "inputs": [],
      "name": "ECDSAInvalidSignature",
      "type": "error"
    },
    {
      "inputs": [
        {
          "internalType": "uint256",
          "name": "length",
          "type": "uint256"
        }
      ],
      "name": "ECDSAInvalidSignatureLength",
      "type": "error"
    },
    {
      "inputs": [
        {
          "internalType": "bytes32",
          "name": "s",
          "type": "bytes32"
        }
      ],
      "name": "ECDSAInvalidSignatureS",
      "type": "error"
    },
    {
      "inputs": [],
      "name": "EnforcedPause",
      "type": "error"
    },
    {
      "inputs": [],
      "name": "ExpectedPause",
      "type": "error"
    },
    {
      "inputs": [],
      "name": "InvalidShortString",
      "type": "error"
    },
    {
      "inputs": [],
      "name": "MintERC2309QuantityExceedsLimit",
      "type": "error"
    },
    {
      "inputs": [],
      "name": "MintToZeroAddress",
      "type": "error"
    },
    {
      "inputs": [],
      "name": "MintZeroQuantity",
      "type": "error"
    },
    {
      "inputs": [],
      "name": "NotCompatibleWithSpotMints",
      "type": "error"
    },
    {
      "inputs": [],
      "name": "OwnerQueryForNonexistentToken",
      "type": "error"
    },
    {
      "inputs": [],
      "name": "OwnershipNotInitializedForExtraData",
      "type": "error"
    },
    {
      "inputs": [],
      "name": "ReentrancyGuardReentrantCall",
      "type": "error"
    },
    {
      "inputs": [],
      "name": "SequentialMintExceedsLimit",
      "type": "error"
    },
    {
      "inputs": [],
      "name": "SequentialUpToTooSmall",
      "type": "error"
    },
    {
      "inputs": [],
      "name": "SpotMintTokenIdTooSmall",
      "type": "error"
    },
    {
      "inputs": [
        {
          "internalType": "string",
          "name": "str",
          "type": "string"
        }
      ],
      "name": "StringTooLong",
      "type": "error"
    },
    {
      "inputs": [],
      "name": "TokenAlreadyExists",
      "type": "error"
    },
    {
      "inputs": [],
      "name": "TransferCallerNotOwnerNorApproved",
      "type": "error"
    },
    {
      "inputs": [],
      "name": "TransferFromIncorrectOwner",
      "type": "error"
    },
    {
      "inputs": [],
      "name": "TransferToNonERC721ReceiverImplementer",
      "type": "error"
    },
    {
      "inputs": [],
      "name": "TransferToZeroAddress",
      "type": "error"
    },
    {
      "inputs": [],
      "name": "URIQueryForNonexistentToken",
      "type": "error"
    },
    {
      "anonymous": false,
      "inputs": [
        {
          "indexed": true,
          "internalType": "address",
          "name": "owner",
          "type": "address"
        },
        {
          "indexed": true,
          "internalType": "address",
          "name": "approved",
          "type": "address"
        },
        {
          "indexed": true,
          "internalType": "uint256",
          "name": "tokenId",
          "type": "uint256"
        }
      ],
      "name": "Approval",
      "type": "event"
    },
    {
      "anonymous": false,
      "inputs": [
        {
          "indexed": true,
          "internalType": "address",
          "name": "owner",
          "type": "address"
        },
        {
          "indexed": true,
          "internalType": "address",
          "name": "operator",
          "type": "address"
        },
        {
          "indexed": false,
          "internalType": "bool",
          "name": "approved",
          "type": "bool"
        }
      ],
      "name": "ApprovalForAll",
      "type": "event"
    },
    {
      "anonymous": false,
      "inputs": [
        {
          "indexed": true,
          "internalType": "uint256",
          "name": "fromTokenId",
          "type": "uint256"
        },
        {
          "indexed": false,
          "internalType": "uint256",
          "name": "toTokenId",
          "type": "uint256"
        },
        {
          "indexed": true,
          "internalType": "address",
          "name": "from",
          "type": "address"
        },
        {
          "indexed": true,
          "internalType": "address",
          "name": "to",
          "type": "address"
        }
      ],
      "name": "ConsecutiveTransfer",
      "type": "event"
    },
    {
      "anonymous": false,
      "inputs": [],
      "name": "EIP712DomainChanged",
      "type": "event"
    },
    {
      "anonymous": false,
      "inputs": [
        {
          "indexed": true,
          "internalType": "uint256",
          "name": "eventId",
          "type": "uint256"
        },
        {
          "indexed": true,
          "internalType": "address",
          "name": "recipient",
          "type": "address"
        },
        {
          "indexed": false,
          "internalType": "uint256",
          "name": "startTokenId",
          "type": "uint256"
        },
        {
          "indexed": false,
          "internalType": "uint256",
          "name": "quantity",
          "type": "uint256"
        }
      ],
      "name": "EventTicketsMinted",
      "type": "event"
    },
    {
      "anonymous": false,
      "inputs": [
        {
          "indexed": false,
          "internalType": "address",
          "name": "account",
          "type": "address"
        }
      ],
      "name": "Paused",
      "type": "event"
    },
    {
      "anonymous": false,
      "inputs": [
        {
          "indexed": true,
          "internalType": "bytes32",
          "name": "role",
          "type": "bytes32"
        },
        {
          "indexed": true,
          "internalType": "bytes32",
          "name": "previousAdminRole",
          "type": "bytes32"
        },
        {
          "indexed": true,
          "internalType": "bytes32",
          "name": "newAdminRole",
          "type": "bytes32"
        }
      ],
      "name": "RoleAdminChanged",
      "type": "event"
    },
    {
      "anonymous": false,
      "inputs": [
        {
          "indexed": true,
          "internalType": "bytes32",
          "name": "role",
          "type": "bytes32"
        },
        {
          "indexed": true,
          "internalType": "address",
          "name": "account",
          "type": "address"
        },
        {
          "indexed": true,
          "internalType": "address",
          "name": "sender",
          "type": "address"
        }
      ],
      "name": "RoleGranted",
      "type": "event"
    },
    {
      "anonymous": false,
      "inputs": [
        {
          "indexed": true,
          "internalType": "bytes32",
          "name": "role",
          "type": "bytes32"
        },
        {
          "indexed": true,
          "internalType": "address",
          "name": "account",
          "type": "address"
        },
        {
          "indexed": true,
          "internalType": "address",
          "name": "sender",
          "type": "address"
        }
      ],
      "name": "RoleRevoked",
      "type": "event"
    },
    {
      "anonymous": false,
      "inputs": [
        {
          "indexed": false,
          "internalType": "uint256[]",
          "name": "tokenIds",
          "type": "uint256[]"
        },
        {
          "indexed": false,
          "internalType": "uint256",
          "name": "timestamp",
          "type": "uint256"
        }
      ],
      "name": "TicketsCheckedIn",
      "type": "event"
    },
    {
      "anonymous": false,
      "inputs": [
        {
          "indexed": true,
          "internalType": "address",
          "name": "from",
          "type": "address"
        },
        {
          "indexed": true,
          "internalType": "address",
          "name": "to",
          "type": "address"
        },
        {
          "indexed": true,
          "internalType": "uint256",
          "name": "tokenId",
          "type": "uint256"
        }
      ],
      "name": "Transfer",
      "type": "event"
    },
    {
      "anonymous": false,
      "inputs": [
        {
          "indexed": false,
          "internalType": "address",
          "name": "account",
          "type": "address"
        }
      ],
      "name": "Unpaused",
      "type": "event"
    },
    {
      "inputs": [],
      "name": "DEFAULT_ADMIN_ROLE",
      "outputs": [
        {
          "internalType": "bytes32",
          "name": "",
          "type": "bytes32"
        }
      ],
      "stateMutability": "view",
      "type": "function"
    },
    {
      "inputs": [],
      "name": "MARKETPLACE_ROLE",
      "outputs": [
        {
          "internalType": "bytes32",
          "name": "",
          "type": "bytes32"
        }
      ],
      "stateMutability": "view",
      "type": "function"
    },
    {
      "inputs": [],
      "name": "OPERATOR_ROLE",
      "outputs": [
        {
          "internalType": "bytes32",
          "name": "",
          "type": "bytes32"
        }
      ],
      "stateMutability": "view",
      "type": "function"
    },
    {
      "inputs": [],
      "name": "ORGANIZER_ROLE",
      "outputs": [
        {
          "internalType": "bytes32",
          "name": "",
          "type": "bytes32"
        }
      ],
      "stateMutability": "view",
      "type": "function"
    },
    {
      "inputs": [],
      "name": "VOUCHER_TYPEHASH",
      "outputs": [
        {
          "internalType": "bytes32",
          "name": "",
          "type": "bytes32"
        }
      ],
      "stateMutability": "view",
      "type": "function"
    },
    {
      "inputs": [],
      "name": "adminTreasury",
      "outputs": [
        {
          "internalType": "address",
          "name": "",
          "type": "address"
        }
      ],
      "stateMutability": "view",
      "type": "function"
    },
    {
      "inputs": [
        {
          "internalType": "address",
          "name": "to",
          "type": "address"
        },
        {
          "internalType": "uint256",
          "name": "tokenId",
          "type": "uint256"
        }
      ],
      "name": "approve",
      "outputs": [],
      "stateMutability": "payable",
      "type": "function"
    },
    {
      "inputs": [
        {
          "internalType": "address",
          "name": "owner",
          "type": "address"
        }
      ],
      "name": "balanceOf",
      "outputs": [
        {
          "internalType": "uint256",
          "name": "",
          "type": "uint256"
        }
      ],
      "stateMutability": "view",
      "type": "function"
    },
    {
      "inputs": [
        {
          "internalType": "uint256[]",
          "name": "eventIds",
          "type": "uint256[]"
        },
        {
          "internalType": "uint256[]",
          "name": "quantities",
          "type": "uint256[]"
        },
        {
          "internalType": "address",
          "name": "recipient",
          "type": "address"
        }
      ],
      "name": "batchBuyTickets",
      "outputs": [
        {
          "internalType": "uint256[]",
          "name": "",
          "type": "uint256[]"
        }
      ],
      "stateMutability": "nonpayable",
      "type": "function"
    },
    {
      "inputs": [
        {
          "internalType": "uint256[]",
          "name": "tokenIds",
          "type": "uint256[]"
        }
      ],
      "name": "batchCheckIn",
      "outputs": [],
      "stateMutability": "nonpayable",
      "type": "function"
    },
    {
      "inputs": [
        {
          "internalType": "uint256[]",
          "name": "onChainIds",
          "type": "uint256[]"
        }
      ],
      "name": "batchClaimFunds",
      "outputs": [],
      "stateMutability": "nonpayable",
      "type": "function"
    },
    {
      "inputs": [
        {
          "components": [
            {
              "internalType": "uint256",
              "name": "eventId",
              "type": "uint256"
            },
            {
              "internalType": "uint256",
              "name": "quantity",
              "type": "uint256"
            },
            {
              "internalType": "uint256",
              "name": "price",
              "type": "uint256"
            },
            {
              "internalType": "uint256",
              "name": "commissionRateBps",
              "type": "uint256"
            },
            {
              "internalType": "uint256",
              "name": "relayerGasPerTicket",
              "type": "uint256"
            },
            {
              "internalType": "uint256",
              "name": "checkinGasPerTicket",
              "type": "uint256"
            },
            {
              "internalType": "uint64",
              "name": "expiryTime",
              "type": "uint64"
            },
            {
              "internalType": "uint256",
              "name": "nonce",
              "type": "uint256"
            }
          ],
          "internalType": "struct ShineTicket.MintVoucher[]",
          "name": "vouchers",
          "type": "tuple[]"
        },
        {
          "internalType": "bytes[]",
          "name": "signatures",
          "type": "bytes[]"
        }
      ],
      "name": "batchMintEventTickets",
      "outputs": [
        {
          "internalType": "uint256[]",
          "name": "",
          "type": "uint256[]"
        }
      ],
      "stateMutability": "nonpayable",
      "type": "function"
    },
    {
      "inputs": [
        {
          "internalType": "uint256[]",
          "name": "eventIds",
          "type": "uint256[]"
        },
        {
          "internalType": "uint256[]",
          "name": "quantities",
          "type": "uint256[]"
        },
        {
          "internalType": "address",
          "name": "buyerAddress",
          "type": "address"
        }
      ],
      "name": "batchRelayerBuyTicket",
      "outputs": [
        {
          "internalType": "uint256[]",
          "name": "",
          "type": "uint256[]"
        }
      ],
      "stateMutability": "nonpayable",
      "type": "function"
    },
    {
      "inputs": [
        {
          "internalType": "uint256",
          "name": "eventId",
          "type": "uint256"
        },
        {
          "internalType": "uint256",
          "name": "quantity",
          "type": "uint256"
        },
        {
          "internalType": "address",
          "name": "recipient",
          "type": "address"
        }
      ],
      "name": "buyTicket",
      "outputs": [
        {
          "internalType": "uint256",
          "name": "",
          "type": "uint256"
        }
      ],
      "stateMutability": "nonpayable",
      "type": "function"
    },
    {
      "inputs": [
        {
          "internalType": "uint256",
          "name": "tokenId",
          "type": "uint256"
        }
      ],
      "name": "checkIn",
      "outputs": [],
      "stateMutability": "nonpayable",
      "type": "function"
    },
    {
      "inputs": [
        {
          "internalType": "uint256",
          "name": "eventId",
          "type": "uint256"
        }
      ],
      "name": "claimFunds",
      "outputs": [],
      "stateMutability": "nonpayable",
      "type": "function"
    },
    {
      "inputs": [],
      "name": "eip712Domain",
      "outputs": [
        {
          "internalType": "bytes1",
          "name": "fields",
          "type": "bytes1"
        },
        {
          "internalType": "string",
          "name": "name",
          "type": "string"
        },
        {
          "internalType": "string",
          "name": "version",
          "type": "string"
        },
        {
          "internalType": "uint256",
          "name": "chainId",
          "type": "uint256"
        },
        {
          "internalType": "address",
          "name": "verifyingContract",
          "type": "address"
        },
        {
          "internalType": "bytes32",
          "name": "salt",
          "type": "bytes32"
        },
        {
          "internalType": "uint256[]",
          "name": "extensions",
          "type": "uint256[]"
        }
      ],
      "stateMutability": "view",
      "type": "function"
    },
    {
      "inputs": [
        {
          "internalType": "uint256",
          "name": "",
          "type": "uint256"
        }
      ],
      "name": "eventCheckedInCount",
      "outputs": [
        {
          "internalType": "uint256",
          "name": "",
          "type": "uint256"
        }
      ],
      "stateMutability": "view",
      "type": "function"
    },
    {
      "inputs": [
        {
          "internalType": "uint256",
          "name": "",
          "type": "uint256"
        }
      ],
      "name": "eventCheckinGasPerTicket",
      "outputs": [
        {
          "internalType": "uint256",
          "name": "",
          "type": "uint256"
        }
      ],
      "stateMutability": "view",
      "type": "function"
    },
    {
      "inputs": [
        {
          "internalType": "uint256",
          "name": "",
          "type": "uint256"
        }
      ],
      "name": "eventCommissionRateBps",
      "outputs": [
        {
          "internalType": "uint256",
          "name": "",
          "type": "uint256"
        }
      ],
      "stateMutability": "view",
      "type": "function"
    },
    {
      "inputs": [
        {
          "internalType": "uint256",
          "name": "",
          "type": "uint256"
        }
      ],
      "name": "eventMintedCount",
      "outputs": [
        {
          "internalType": "uint256",
          "name": "",
          "type": "uint256"
        }
      ],
      "stateMutability": "view",
      "type": "function"
    },
    {
      "inputs": [
        {
          "internalType": "uint256",
          "name": "",
          "type": "uint256"
        }
      ],
      "name": "eventRelayerGasPerTicket",
      "outputs": [
        {
          "internalType": "uint256",
          "name": "",
          "type": "uint256"
        }
      ],
      "stateMutability": "view",
      "type": "function"
    },
    {
      "inputs": [
        {
          "internalType": "uint256",
          "name": "",
          "type": "uint256"
        }
      ],
      "name": "eventRelayerSoldCount",
      "outputs": [
        {
          "internalType": "uint256",
          "name": "",
          "type": "uint256"
        }
      ],
      "stateMutability": "view",
      "type": "function"
    },
    {
      "inputs": [
        {
          "internalType": "uint256",
          "name": "",
          "type": "uint256"
        }
      ],
      "name": "eventRevenue",
      "outputs": [
        {
          "internalType": "uint256",
          "name": "",
          "type": "uint256"
        }
      ],
      "stateMutability": "view",
      "type": "function"
    },
    {
      "inputs": [
        {
          "internalType": "uint256",
          "name": "",
          "type": "uint256"
        }
      ],
      "name": "events",
      "outputs": [
        {
          "internalType": "address",
          "name": "organizer",
          "type": "address"
        },
        {
          "internalType": "uint64",
          "name": "expiryTime",
          "type": "uint64"
        },
        {
          "internalType": "uint32",
          "name": "maxCapacity",
          "type": "uint32"
        },
        {
          "internalType": "uint256",
          "name": "price",
          "type": "uint256"
        },
        {
          "internalType": "bool",
          "name": "isActive",
          "type": "bool"
        }
      ],
      "stateMutability": "view",
      "type": "function"
    },
    {
      "inputs": [
        {
          "internalType": "uint256",
          "name": "eventId",
          "type": "uint256"
        },
        {
          "internalType": "uint64",
          "name": "newExpiry",
          "type": "uint64"
        }
      ],
      "name": "extendEventExpiry",
      "outputs": [],
      "stateMutability": "nonpayable",
      "type": "function"
    },
    {
      "inputs": [
        {
          "internalType": "uint256",
          "name": "",
          "type": "uint256"
        }
      ],
      "name": "fundsClaimed",
      "outputs": [
        {
          "internalType": "bool",
          "name": "",
          "type": "bool"
        }
      ],
      "stateMutability": "view",
      "type": "function"
    },
    {
      "inputs": [
        {
          "internalType": "uint256",
          "name": "tokenId",
          "type": "uint256"
        }
      ],
      "name": "getApproved",
      "outputs": [
        {
          "internalType": "address",
          "name": "",
          "type": "address"
        }
      ],
      "stateMutability": "view",
      "type": "function"
    },
    {
      "inputs": [
        {
          "internalType": "uint256[]",
          "name": "tokenIds",
          "type": "uint256[]"
        }
      ],
      "name": "getBatchTicketStatus",
      "outputs": [
        {
          "internalType": "bool[]",
          "name": "",
          "type": "bool[]"
        }
      ],
      "stateMutability": "view",
      "type": "function"
    },
    {
      "inputs": [
        {
          "internalType": "bytes32",
          "name": "role",
          "type": "bytes32"
        }
      ],
      "name": "getRoleAdmin",
      "outputs": [
        {
          "internalType": "bytes32",
          "name": "",
          "type": "bytes32"
        }
      ],
      "stateMutability": "view",
      "type": "function"
    },
    {
      "inputs": [
        {
          "internalType": "bytes32",
          "name": "role",
          "type": "bytes32"
        },
        {
          "internalType": "address",
          "name": "account",
          "type": "address"
        }
      ],
      "name": "grantRole",
      "outputs": [],
      "stateMutability": "nonpayable",
      "type": "function"
    },
    {
      "inputs": [
        {
          "internalType": "bytes32",
          "name": "role",
          "type": "bytes32"
        },
        {
          "internalType": "address",
          "name": "account",
          "type": "address"
        }
      ],
      "name": "hasRole",
      "outputs": [
        {
          "internalType": "bool",
          "name": "",
          "type": "bool"
        }
      ],
      "stateMutability": "view",
      "type": "function"
    },
    {
      "inputs": [
        {
          "internalType": "address",
          "name": "owner",
          "type": "address"
        },
        {
          "internalType": "address",
          "name": "operator",
          "type": "address"
        }
      ],
      "name": "isApprovedForAll",
      "outputs": [
        {
          "internalType": "bool",
          "name": "",
          "type": "bool"
        }
      ],
      "stateMutability": "view",
      "type": "function"
    },
    {
      "inputs": [
        {
          "internalType": "address[]",
          "name": "recipients",
          "type": "address[]"
        },
        {
          "internalType": "uint256[]",
          "name": "quantities",
          "type": "uint256[]"
        }
      ],
      "name": "mintBatchUsers",
      "outputs": [],
      "stateMutability": "nonpayable",
      "type": "function"
    },
    {
      "inputs": [
        {
          "components": [
            {
              "internalType": "uint256",
              "name": "eventId",
              "type": "uint256"
            },
            {
              "internalType": "uint256",
              "name": "quantity",
              "type": "uint256"
            },
            {
              "internalType": "uint256",
              "name": "price",
              "type": "uint256"
            },
            {
              "internalType": "uint256",
              "name": "commissionRateBps",
              "type": "uint256"
            },
            {
              "internalType": "uint256",
              "name": "relayerGasPerTicket",
              "type": "uint256"
            },
            {
              "internalType": "uint256",
              "name": "checkinGasPerTicket",
              "type": "uint256"
            },
            {
              "internalType": "uint64",
              "name": "expiryTime",
              "type": "uint64"
            },
            {
              "internalType": "uint256",
              "name": "nonce",
              "type": "uint256"
            }
          ],
          "internalType": "struct ShineTicket.MintVoucher",
          "name": "voucher",
          "type": "tuple"
        },
        {
          "internalType": "bytes",
          "name": "signature",
          "type": "bytes"
        }
      ],
      "name": "mintEventTickets",
      "outputs": [
        {
          "internalType": "uint256",
          "name": "",
          "type": "uint256"
        }
      ],
      "stateMutability": "nonpayable",
      "type": "function"
    },
    {
      "inputs": [],
      "name": "name",
      "outputs": [
        {
          "internalType": "string",
          "name": "",
          "type": "string"
        }
      ],
      "stateMutability": "view",
      "type": "function"
    },
    {
      "inputs": [
        {
          "internalType": "uint256",
          "name": "tokenId",
          "type": "uint256"
        }
      ],
      "name": "ownerOf",
      "outputs": [
        {
          "internalType": "address",
          "name": "",
          "type": "address"
        }
      ],
      "stateMutability": "view",
      "type": "function"
    },
    {
      "inputs": [],
      "name": "pause",
      "outputs": [],
      "stateMutability": "nonpayable",
      "type": "function"
    },
    {
      "inputs": [],
      "name": "paused",
      "outputs": [
        {
          "internalType": "bool",
          "name": "",
          "type": "bool"
        }
      ],
      "stateMutability": "view",
      "type": "function"
    },
    {
      "inputs": [
        {
          "internalType": "uint256",
          "name": "eventId",
          "type": "uint256"
        },
        {
          "internalType": "uint256",
          "name": "quantity",
          "type": "uint256"
        },
        {
          "internalType": "address",
          "name": "buyerAddress",
          "type": "address"
        }
      ],
      "name": "relayerBuyTicket",
      "outputs": [
        {
          "internalType": "uint256",
          "name": "",
          "type": "uint256"
        }
      ],
      "stateMutability": "nonpayable",
      "type": "function"
    },
    {
      "inputs": [
        {
          "internalType": "bytes32",
          "name": "role",
          "type": "bytes32"
        },
        {
          "internalType": "address",
          "name": "callerConfirmation",
          "type": "address"
        }
      ],
      "name": "renounceRole",
      "outputs": [],
      "stateMutability": "nonpayable",
      "type": "function"
    },
    {
      "inputs": [
        {
          "internalType": "bytes32",
          "name": "role",
          "type": "bytes32"
        },
        {
          "internalType": "address",
          "name": "account",
          "type": "address"
        }
      ],
      "name": "revokeRole",
      "outputs": [],
      "stateMutability": "nonpayable",
      "type": "function"
    },
    {
      "inputs": [
        {
          "internalType": "uint256",
          "name": "tokenId",
          "type": "uint256"
        }
      ],
      "name": "revokeTicket",
      "outputs": [],
      "stateMutability": "nonpayable",
      "type": "function"
    },
    {
      "inputs": [
        {
          "internalType": "address",
          "name": "from",
          "type": "address"
        },
        {
          "internalType": "address",
          "name": "to",
          "type": "address"
        },
        {
          "internalType": "uint256",
          "name": "tokenId",
          "type": "uint256"
        }
      ],
      "name": "safeTransferFrom",
      "outputs": [],
      "stateMutability": "payable",
      "type": "function"
    },
    {
      "inputs": [
        {
          "internalType": "address",
          "name": "from",
          "type": "address"
        },
        {
          "internalType": "address",
          "name": "to",
          "type": "address"
        },
        {
          "internalType": "uint256",
          "name": "tokenId",
          "type": "uint256"
        },
        {
          "internalType": "bytes",
          "name": "_data",
          "type": "bytes"
        }
      ],
      "name": "safeTransferFrom",
      "outputs": [],
      "stateMutability": "payable",
      "type": "function"
    },
    {
      "inputs": [
        {
          "internalType": "address",
          "name": "operator",
          "type": "address"
        },
        {
          "internalType": "bool",
          "name": "approved",
          "type": "bool"
        }
      ],
      "name": "setApprovalForAll",
      "outputs": [],
      "stateMutability": "nonpayable",
      "type": "function"
    },
    {
      "inputs": [
        {
          "internalType": "string",
          "name": "baseURI",
          "type": "string"
        }
      ],
      "name": "setBaseURI",
      "outputs": [],
      "stateMutability": "nonpayable",
      "type": "function"
    },
    {
      "inputs": [
        {
          "internalType": "uint256",
          "name": "eventId",
          "type": "uint256"
        },
        {
          "internalType": "uint256",
          "name": "commissionRateBps",
          "type": "uint256"
        },
        {
          "internalType": "uint256",
          "name": "relayerGasPerTicket",
          "type": "uint256"
        },
        {
          "internalType": "uint256",
          "name": "checkinGasPerTicket",
          "type": "uint256"
        }
      ],
      "name": "setEventCostConfig",
      "outputs": [],
      "stateMutability": "nonpayable",
      "type": "function"
    },
    {
      "inputs": [
        {
          "internalType": "uint256",
          "name": "eventId",
          "type": "uint256"
        },
        {
          "internalType": "uint256",
          "name": "price",
          "type": "uint256"
        }
      ],
      "name": "setEventPrice",
      "outputs": [],
      "stateMutability": "nonpayable",
      "type": "function"
    },
    {
      "inputs": [
        {
          "internalType": "bytes4",
          "name": "interfaceId",
          "type": "bytes4"
        }
      ],
      "name": "supportsInterface",
      "outputs": [
        {
          "internalType": "bool",
          "name": "",
          "type": "bool"
        }
      ],
      "stateMutability": "view",
      "type": "function"
    },
    {
      "inputs": [],
      "name": "symbol",
      "outputs": [
        {
          "internalType": "string",
          "name": "",
          "type": "string"
        }
      ],
      "stateMutability": "view",
      "type": "function"
    },
    {
      "inputs": [
        {
          "internalType": "uint256",
          "name": "",
          "type": "uint256"
        }
      ],
      "name": "ticketToEvent",
      "outputs": [
        {
          "internalType": "uint256",
          "name": "",
          "type": "uint256"
        }
      ],
      "stateMutability": "view",
      "type": "function"
    },
    {
      "inputs": [
        {
          "internalType": "uint256",
          "name": "",
          "type": "uint256"
        }
      ],
      "name": "ticketUsed",
      "outputs": [
        {
          "internalType": "bool",
          "name": "",
          "type": "bool"
        }
      ],
      "stateMutability": "view",
      "type": "function"
    },
    {
      "inputs": [
        {
          "internalType": "uint256",
          "name": "tokenId",
          "type": "uint256"
        }
      ],
      "name": "tokenURI",
      "outputs": [
        {
          "internalType": "string",
          "name": "",
          "type": "string"
        }
      ],
      "stateMutability": "view",
      "type": "function"
    },
    {
      "inputs": [],
      "name": "totalSupply",
      "outputs": [
        {
          "internalType": "uint256",
          "name": "result",
          "type": "uint256"
        }
      ],
      "stateMutability": "view",
      "type": "function"
    },
    {
      "inputs": [
        {
          "internalType": "address",
          "name": "from",
          "type": "address"
        },
        {
          "internalType": "address",
          "name": "to",
          "type": "address"
        },
        {
          "internalType": "uint256",
          "name": "tokenId",
          "type": "uint256"
        }
      ],
      "name": "transferFrom",
      "outputs": [],
      "stateMutability": "payable",
      "type": "function"
    },
    {
      "inputs": [],
      "name": "unpause",
      "outputs": [],
      "stateMutability": "nonpayable",
      "type": "function"
    },
    {
      "inputs": [],
      "name": "usdtToken",
      "outputs": [
        {
          "internalType": "contract IERC20",
          "name": "",
          "type": "address"
        }
      ],
      "stateMutability": "view",
      "type": "function"
    },
    {
      "inputs": [
        {
          "internalType": "uint256",
          "name": "",
          "type": "uint256"
        }
      ],
      "name": "usedNonces",
      "outputs": [
        {
          "internalType": "bool",
          "name": "",
          "type": "bool"
        }
      ],
      "stateMutability": "view",
      "type": "function"
    }
  ],
  "bytecode": "0x6101a0604052348015610010575f5ffd5b5060405161550a38038061550a83398101604081905261002f91610372565b604080518082018252600b8082526a14da1a5b99551a58dad95d60aa1b60208084018290528451808601865260018152603160f81b818301528551808701875293845283820192909252845180860190955260058552645348494e4560d81b90850152919260026100a0838261043b565b5060036100ad828261043b565b505060015f55506100bf82600b61023d565b610120526100ce81600c61023d565b61014052815160208084019190912060e052815190820120610100524660a05261015a60e05161010051604080517f8b73c3c69bb8fe3d512ecc4cf759cc79239f7b179b0ffacaa9a75d522b39400f60208201529081019290925260608201524660808201523060a08201525f9060c00160405160208183030381529060405280519060200120905090565b60805250503060c0526001600d556001600160a01b0381166101c35760405162461bcd60e51b815260206004820152601460248201527f496e76616c69642055534454206164647265737300000000000000000000000060448201526064015b60405180910390fd5b6001600160a01b0382166102195760405162461bcd60e51b815260206004820152601560248201527f496e76616c69642061646d696e2061646472657373000000000000000000000060448201526064016101ba565b6102235f8361026f565b506001600160a01b0390811661016052166101805261054d565b5f602083511015610258576102518361031a565b9050610269565b81610263848261043b565b5060ff90505b92915050565b5f8281526009602090815260408083206001600160a01b038516845290915281205460ff16610313575f8381526009602090815260408083206001600160a01b03861684529091529020805460ff191660011790556102cb3390565b6001600160a01b0316826001600160a01b0316847f2f8788117e7eff1d82e926ec794901d17c78024a50270940304540a733656f0d60405160405180910390a4506001610269565b505f610269565b5f5f829050601f81511115610344578260405163305a27a960e01b81526004016101ba91906104f5565b805161034f8261052a565b179392505050565b80516001600160a01b038116811461036d575f5ffd5b919050565b5f5f60408385031215610383575f5ffd5b61038c83610357565b915061039a60208401610357565b90509250929050565b634e487b7160e01b5f52604160045260245ffd5b600181811c908216806103cb57607f821691505b6020821081036103e957634e487b7160e01b5f52602260045260245ffd5b50919050565b601f82111561043657805f5260205f20601f840160051c810160208510156104145750805b601f840160051c820191505b81811015610433575f8155600101610420565b50505b505050565b81516001600160401b03811115610454576104546103a3565b6104688161046284546103b7565b846103ef565b6020601f82116001811461049a575f83156104835750848201515b5f19600385901b1c1916600184901b178455610433565b5f84815260208120601f198516915b828110156104c957878501518255602094850194600190920191016104a9565b50848210156104e657868401515f19600387901b60f8161c191681555b50505050600190811b01905550565b602081525f82518060208401528060208501604085015e5f604082850101526040601f19601f83011684010191505092915050565b805160208083015191908110156103e9575f1960209190910360031b1b16919050565b60805160a05160c05160e0516101005161012051610140516101605161018051614f126105f85f395f818161095a015281816114170152612acc01525f8181610a0901528181610d850152818161134001528181611446015281816118e601528181611d6c01528181612180015281816129f50152612afb01525f613aa501525f613a7301525f61409e01525f61407601525f613fd101525f613ffb01525f6140250152614f125ff3fe60806040526004361061037b575f3560e01c80638456cb59116101d3578063afc573b1116100fd578063d29ab4d11161009d578063e95a644f1161006d578063e95a644f14610b8d578063e985e9c514610bac578063f5b541a614610bf3578063f6ac04da14610c26575f5ffd5b8063d29ab4d114610b05578063d547741f14610b30578063dbf56d1914610b4f578063dc68cba514610b6e575f5ffd5b8063b955e4ad116100d8578063b955e4ad14610a7c578063c3439f3f14610aa7578063c87b56dd14610ac7578063cb0c800514610ae6575f5ffd5b8063afc573b114610a2b578063b0ce37d714610a4a578063b88d4fde14610a69575f5ffd5b8063947e59b411610173578063a1e234d311610143578063a1e234d31461099b578063a217fddf146109c6578063a22cb465146109d9578063a98ad46c146109f8575f5ffd5b8063947e59b41461091657806395d89b411461093557806396cad0db146109495780639b9ac6c31461097c575f5ffd5b80638bc1344b116101ae5780638bc1344b1461087a5780638d7dba3a146108a557806391d14854146108c457806394739e87146108e3575f5ffd5b80638456cb591461081357806384b0196e14610827578063874b4c8e1461084e575f5ffd5b80632f2ff15d116102b45780635c975abb11610254578063672342541161022457806367234254146107775780636fa605e31461079657806370a08231146107c15780637909cb59146107e0575f5ffd5b80635c975abb146106e55780636352211e146106fc578063642b5f9b1461071b5780636717e41c14610749575f5ffd5b80633f4ba83a1161028f5780633f4ba83a1461067457806342842e0e1461068857806355f804b31461069b57806357b9bae8146106ba575f5ffd5b80632f2ff15d1461061757806334c588611461063657806336568abe14610655575f5ffd5b806318160ddd1161031f57806323b872dd116102fa57806323b872dd1461058c578063248a9ca31461059f57806326abfeba146105cd5780632b07ee8a146105f8575f5ffd5b806318160ddd1461052657806319fcf7cb146105415780631b55e3381461056d575f5ffd5b8063081812fc1161035a578063081812fc14610401578063095ea7b3146104385780630b7914301461044d578063157285b9146104f8575f5ffd5b80628e68651461037f57806301ffc9a7146103b157806306fdde03146103e0575b5f5ffd5b34801561038a575f5ffd5b5061039e610399366004614331565b610c51565b6040519081526020015b60405180910390f35b3480156103bc575f5ffd5b506103d06103cb366004614378565b610ec1565b60405190151581526020016103a8565b3480156103eb575f5ffd5b506103f4610ed1565b6040516103a891906143c1565b34801561040c575f5ffd5b5061042061041b3660046143d3565b610f61565b6040516001600160a01b0390911681526020016103a8565b61044b6104463660046143ea565b610f9a565b005b348015610458575f5ffd5b506104b16104673660046143d3565b600e6020525f90815260409020805460018201546002909201546001600160a01b03821692600160a01b83046001600160401b031692600160e01b900463ffffffff169160ff1685565b604080516001600160a01b0390961686526001600160401b03909416602086015263ffffffff9092169284019290925260608301919091521515608082015260a0016103a8565b348015610503575f5ffd5b506103d06105123660046143d3565b60196020525f908152604090205460ff1681565b348015610531575f5ffd5b5061039e6001545f54035f190190565b34801561054c575f5ffd5b5061056061055b366004614459565b610faa565b6040516103a89190614497565b348015610578575f5ffd5b5061044b6105873660046143d3565b6110b1565b61044b61059a3660046144db565b611515565b3480156105aa575f5ffd5b5061039e6105b93660046143d3565b5f9081526009602052604090206001015490565b3480156105d8575f5ffd5b5061039e6105e73660046143d3565b60166020525f908152604090205481565b348015610603575f5ffd5b5061044b61061236600461452b565b611686565b348015610622575f5ffd5b5061044b610631366004614555565b61172c565b348015610641575f5ffd5b5061039e6106503660046145b3565b611756565b348015610660575f5ffd5b5061044b61066f366004614555565b611772565b34801561067f575f5ffd5b5061044b6117aa565b61044b6106963660046144db565b6117bc565b3480156106a6575f5ffd5b5061044b6106b536600461460b565b6117d6565b3480156106c5575f5ffd5b5061039e6106d43660046143d3565b60176020525f908152604090205481565b3480156106f0575f5ffd5b50600a5460ff166103d0565b348015610707575f5ffd5b506104206107163660046143d3565b6117ed565b348015610726575f5ffd5b506103d06107353660046143d3565b600f6020525f908152604090205460ff1681565b348015610754575f5ffd5b506103d06107633660046143d3565b60106020525f908152604090205460ff1681565b348015610782575f5ffd5b5061039e610791366004614331565b6117f7565b3480156107a1575f5ffd5b5061039e6107b03660046143d3565b60126020525f908152604090205481565b3480156107cc575f5ffd5b5061039e6107db36600461463d565b611a3d565b3480156107eb575f5ffd5b5061039e7f4d2e7a1e3f5dd6e203f087b15756ccf0e4ccd947fe1b639a38540089a1e47f6381565b34801561081e575f5ffd5b5061044b611a80565b348015610832575f5ffd5b5061083b611a92565b6040516103a89796959493929190614690565b348015610859575f5ffd5b5061086d6108683660046146ff565b611ad4565b6040516103a8919061477d565b348015610885575f5ffd5b5061039e6108943660046143d3565b60146020525f908152604090205481565b3480156108b0575f5ffd5b5061086d6108bf3660046146ff565b611f46565b3480156108cf575f5ffd5b506103d06108de366004614555565b61237d565b3480156108ee575f5ffd5b5061039e7f7e2428746ba19547783fa5b02cf073095822dfdcab967abd9d179be86d792b0981565b348015610921575f5ffd5b5061044b6109303660046143d3565b6123a7565b348015610940575f5ffd5b506103f46123c2565b348015610954575f5ffd5b506104207f000000000000000000000000000000000000000000000000000000000000000081565b348015610987575f5ffd5b5061044b610996366004614459565b6123d1565b3480156109a6575f5ffd5b5061039e6109b53660046143d3565b60156020525f908152604090205481565b3480156109d1575f5ffd5b5061039e5f81565b3480156109e4575f5ffd5b5061044b6109f336600461479c565b61255c565b348015610a03575f5ffd5b506104207f000000000000000000000000000000000000000000000000000000000000000081565b348015610a36575f5ffd5b5061044b610a453660046147d1565b6125c7565b348015610a55575f5ffd5b5061044b610a64366004614459565b6126d5565b61044b610a7736600461484f565b612bb5565b348015610a87575f5ffd5b5061039e610a963660046143d3565b60136020525f908152604090205481565b348015610ab2575f5ffd5b5061039e5f516020614e9d5f395f51905f5281565b348015610ad2575f5ffd5b506103f4610ae13660046143d3565b612bf0565b348015610af1575f5ffd5b5061044b610b00366004614929565b612c67565b348015610b10575f5ffd5b5061039e610b1f3660046143d3565b60186020525f908152604090205481565b348015610b3b575f5ffd5b5061044b610b4a366004614555565b612d53565b348015610b5a575f5ffd5b5061086d610b69366004614958565b612d77565b348015610b79575f5ffd5b5061044b610b883660046149d8565b612ec7565b348015610b98575f5ffd5b5061044b610ba73660046143d3565b612f38565b348015610bb7575f5ffd5b506103d0610bc63660046149f8565b6001600160a01b039182165f90815260076020908152604080832093909416825291909152205460ff1690565b348015610bfe575f5ffd5b5061039e7f97667070c54ef182b0f5858b034beac1b6f3089aa2d3188bb1e8929f4fa9b92981565b348015610c31575f5ffd5b5061039e610c403660046143d3565b60116020525f908152604090205481565b5f610c5a613144565b610c6261316a565b6001600160a01b038216610cb15760405162461bcd60e51b8152602060048201526011602482015270125b9d985b1a59081c9958da5c1a595b9d607a1b60448201526064015b60405180910390fd5b5f848152600e6020908152604091829020825160a08101845281546001600160a01b0381168252600160a01b81046001600160401b031693820193909352600160e01b90920463ffffffff16928201929092526001820154606082015260029091015460ff16151560808201819052610d3c5760405162461bcd60e51b8152600401610ca890614a20565b5f848260600151610d4d9190614a61565b90505f8111610d6e5760405162461bcd60e51b8152600401610ca890614a78565b6040516323b872dd60e01b81526001600160a01b037f000000000000000000000000000000000000000000000000000000000000000016906323b872dd90610dbe90339030908690600401614aaf565b6020604051808303815f875af1158015610dda573d5f5f3e3d5ffd5b505050506040513d601f19601f82011682018060405250810190610dfe9190614ad3565b610e1a5760405162461bcd60e51b8152600401610ca890614aee565b5f8681526012602052604081208054839290610e37908490614b1c565b90915550505f54610e488587613194565b5f5b86811015610e78578760115f610e608486614b1c565b815260208101919091526040015f2055600101610e4a565b5060408051828152602081018890526001600160a01b0387169189915f516020614ebd5f395f51905f52910160405180910390a392505050610eba6001600d55565b9392505050565b5f610ecb826131b4565b92915050565b606060028054610ee090614b2f565b80601f0160208091040260200160405190810160405280929190818152602001828054610f0c90614b2f565b8015610f575780601f10610f2e57610100808354040283529160200191610f57565b820191905f5260205f20905b815481529060010190602001808311610f3a57829003601f168201915b5050505050905090565b5f610f6b826131e8565b610f7f57610f7f6333d1c03960e21b613232565b505f908152600660205260409020546001600160a01b031690565b610fa68282600161323a565b5050565b60605f826001600160401b03811115610fc557610fc561483b565b604051908082528060200260200182016040528015610fee578160200160208202803683370190505b5090505f5b838110156110a95761101c85858381811061101057611010614b67565b905060200201356131e8565b611048575f82828151811061103357611033614b67565b911515602092830291909101909101526110a1565b600f5f86868481811061105d5761105d614b67565b9050602002013581526020019081526020015f205f9054906101000a900460ff1682828151811061109057611090614b67565b911515602092830291909101909101525b600101610ff3565b509392505050565b6110b961316a565b6110c1613144565b5f818152600e6020908152604091829020825160a08101845281546001600160a01b038116808352600160a01b82046001600160401b031694830194909452600160e01b900463ffffffff1693810193909352600181015460608401526002015460ff1615156080830152331461117a5760405162461bcd60e51b815260206004820152601860248201527f4f6e6c79206f7267616e697a65722063616e20636c61696d00000000000000006044820152606401610ca8565b5f8281526019602052604090205460ff16156111d05760405162461bcd60e51b8152602060048201526015602482015274119d5b991cc8185b1c9958591e4818db185a5b5959605a1b6044820152606401610ca8565b5f828152601960209081526040808320805460ff191660011790556012909152902054806112365760405162461bcd60e51b81526020600482015260136024820152724e6f20726576656e756520746f20636c61696d60681b6044820152606401610ca8565b5f83815260136020526040812054612710906112529084614a61565b61125c9190614b7b565b5f85815260156020908152604080832054601890925282205492935090916112849190614a61565b5f868152601460209081526040808320546017909252909120546112a89190614a61565b6112b29190614b1c565b90505f6112bf8284614b1c565b9050808410156113115760405162461bcd60e51b815260206004820181905260248201527f526576656e7565206973206c657373207468616e2073797374656d20666565736044820152606401610ca8565b5f61131c8286614b9a565b905080156113fa5760405163a9059cbb60e01b8152336004820152602481018290527f00000000000000000000000000000000000000000000000000000000000000006001600160a01b03169063a9059cbb906044016020604051808303815f875af115801561138e573d5f5f3e3d5ffd5b505050506040513d601f19601f820116820180604052508101906113b29190614ad3565b6113fa5760405162461bcd60e51b815260206004820152601960248201527813dc99d85b9a5e995c881d1c985b9cd9995c8819985a5b1959603a1b6044820152606401610ca8565b81156114f45760405163a9059cbb60e01b81526001600160a01b037f000000000000000000000000000000000000000000000000000000000000000081166004830152602482018490527f0000000000000000000000000000000000000000000000000000000000000000169063a9059cbb906044016020604051808303815f875af115801561148c573d5f5f3e3d5ffd5b505050506040513d601f19601f820116820180604052508101906114b09190614ad3565b6114f45760405162461bcd60e51b815260206004820152601560248201527410591b5a5b881d1c985b9cd9995c8819985a5b1959605a1b6044820152606401610ca8565b5050505f848152601260205260408120555061151291506131ad9050565b50565b5f61151f826132db565b6001600160a01b0394851694909150811684146115455761154562a1148160e81b613232565b5f82815260066020526040902080546115708187335b6001600160a01b039081169116811491141790565b6115925761157e8633610bc6565b61159257611592632ce44b5f60e11b613232565b61159f8686866001613374565b80156115a9575f82555b6001600160a01b038681165f9081526005602052604080822080545f19019055918716808252919020805460010190554260a01b17600160e11b175f85815260046020526040812091909155600160e11b8416900361163557600184015f818152600460205260408120549003611633575f548114611633575f8181526004602052604090208490555b505b6001600160a01b0385168481887fddf252ad1be2c89b69c2b068fc378daa952ba7f163c4a11628f55a4df523b3ef5f80a4805f0361167d5761167d633a954ecd60e21b613232565b50505050505050565b5f6116908161350e565b611698613144565b5f838152600e60205260409020546001600160a01b03166116f25760405162461bcd60e51b8152602060048201526014602482015273115d995b9d08191bd95cc81b9bdd08195e1a5cdd60621b6044820152606401610ca8565b505f918252600e602052604090912080546001600160401b03909216600160a01b0267ffffffffffffffff60a01b19909216919091179055565b5f828152600960205260409020600101546117468161350e565b6117508383613518565b50505050565b5f61175f613144565b61176a8484846135a9565b949350505050565b6001600160a01b038116331461179b5760405163334bd91960e11b815260040160405180910390fd5b6117a58282613972565b505050565b5f6117b48161350e565b6115126139dd565b6117a583838360405180602001604052805f815250612bb5565b5f6117e08161350e565b601a611750838583614bf1565b5f610ecb826132db565b5f806118028161350e565b61180a613144565b61181261316a565b5f858152600e6020908152604091829020825160a08101845281546001600160a01b0381168252600160a01b81046001600160401b031693820193909352600160e01b90920463ffffffff16928201929092526001820154606082015260029091015460ff1615156080820181905261189d5760405162461bcd60e51b8152600401610ca890614a20565b5f8582606001516118ae9190614a61565b90505f81116118cf5760405162461bcd60e51b8152600401610ca890614a78565b6040516323b872dd60e01b81526001600160a01b037f000000000000000000000000000000000000000000000000000000000000000016906323b872dd9061191f90339030908690600401614aaf565b6020604051808303815f875af115801561193b573d5f5f3e3d5ffd5b505050506040513d601f19601f8201168201806040525081019061195f9190614ad3565b61197b5760405162461bcd60e51b8152600401610ca890614aee565b5f8781526012602052604081208054839290611998908490614b1c565b90915550505f546119a98688613194565b5f5b878110156119d9578860115f6119c18486614b1c565b815260208101919091526040015f20556001016119ab565b505f88815260176020526040812080548992906119f7908490614b1c565b909155505060408051828152602081018990526001600160a01b038816918a915f516020614ebd5f395f51905f52910160405180910390a3935050506110a96001600d55565b5f6001600160a01b038216611a5c57611a5c6323d3ad8160e21b613232565b506001600160a01b03165f908152600560205260409020546001600160401b031690565b5f611a8a8161350e565b611512613a2f565b5f6060805f5f5f6060611aa3613a6c565b611aab613a9e565b604080515f80825260208201909252600f60f81b9b939a50919850469750309650945092509050565b6060611ade613144565b611ae661316a565b84611b035760405162461bcd60e51b8152600401610ca890614caa565b848314611b225760405162461bcd60e51b8152600401610ca890614cd0565b6001600160a01b038216611b6c5760405162461bcd60e51b8152602060048201526011602482015270125b9d985b1a59081c9958da5c1a595b9d607a1b6044820152606401610ca8565b5f80866001600160401b03811115611b8657611b8661483b565b604051908082528060200260200182016040528015611baf578160200160208202803683370190505b5090505f5b87811015611d54575f898983818110611bcf57611bcf614b67565b9050602002013590505f888884818110611beb57611beb614b67565b5f858152600e6020908152604091829020825160a08101845281546001600160a01b0381168252600160a01b81046001600160401b031682850152600160e01b900463ffffffff1693810193909352600181015460608401526002015460ff161515608083018190529202939093013593509050611cab5760405162461bcd60e51b815260206004820152601f60248201527f4f6e65206f6620746865206576656e7473206973206e6f7420616374697665006044820152606401610ca8565b5f8211611cca5760405162461bcd60e51b8152600401610ca890614cf7565b5f828260600151611cdb9190614a61565b90505f8111611d385760405162461bcd60e51b815260206004820152602360248201527f5072696365206e6f742073657420666f72206f6e65206f6620746865206576656044820152626e747360e81b6064820152608401610ca8565b611d428188614b1c565b96505060019093019250611bb4915050565b506040516323b872dd60e01b81526001600160a01b037f000000000000000000000000000000000000000000000000000000000000000016906323b872dd90611da590339030908790600401614aaf565b6020604051808303815f875af1158015611dc1573d5f5f3e3d5ffd5b505050506040513d601f19601f82011682018060405250810190611de59190614ad3565b611e015760405162461bcd60e51b8152600401610ca890614aee565b5f5b87811015611f2f575f898983818110611e1e57611e1e614b67565b9050602002013590505f888884818110611e3a57611e3a614b67565b5f858152600e60209081526040822060010154920293909301359350611e6291508390614a61565b90508060125f8581526020019081526020015f205f828254611e849190614b1c565b90915550505f54611e958984613194565b5f5b83811015611ec5578460115f611ead8486614b1c565b815260208101919091526040015f2055600101611e97565b5080868681518110611ed957611ed9614b67565b602002602001018181525050886001600160a01b0316845f516020614ebd5f395f51905f528386604051611f17929190918252602082015260400190565b60405180910390a3505060019092019150611e039050565b50915050611f3d6001600d55565b95945050505050565b60605f611f528161350e565b611f5a613144565b611f6261316a565b85611f7f5760405162461bcd60e51b8152600401610ca890614caa565b858414611f9e5760405162461bcd60e51b8152600401610ca890614cd0565b6001600160a01b038316611fec5760405162461bcd60e51b8152602060048201526015602482015274496e76616c6964206275796572206164647265737360581b6044820152606401610ca8565b5f80876001600160401b038111156120065761200661483b565b60405190808252806020026020018201604052801561202f578160200160208202803683370190505b5090505f5b88811015612168575f8a8a8381811061204f5761204f614b67565b9050602002013590505f89898481811061206b5761206b614b67565b5f858152600e6020908152604091829020825160a08101845281546001600160a01b0381168252600160a01b81046001600160401b031682850152600160e01b900463ffffffff1693810193909352600181015460608401526002015460ff1615156080830181905292029390930135935090506120fb5760405162461bcd60e51b8152600401610ca890614a20565b5f821161211a5760405162461bcd60e51b8152600401610ca890614cf7565b5f82826060015161212b9190614a61565b90505f811161214c5760405162461bcd60e51b8152600401610ca890614a78565b6121568188614b1c565b96505060019093019250612034915050565b506040516323b872dd60e01b81526001600160a01b037f000000000000000000000000000000000000000000000000000000000000000016906323b872dd906121b990339030908790600401614aaf565b6020604051808303815f875af11580156121d5573d5f5f3e3d5ffd5b505050506040513d601f19601f820116820180604052508101906121f99190614ad3565b6122155760405162461bcd60e51b8152600401610ca890614aee565b5f5b88811015612365575f8a8a8381811061223257612232614b67565b9050602002013590505f89898481811061224e5761224e614b67565b5f858152600e6020908152604082206001015492029390930135935061227691508390614a61565b90508060125f8581526020019081526020015f205f8282546122989190614b1c565b90915550505f83815260176020526040812080548492906122ba908490614b1c565b90915550505f546122cb8a84613194565b5f5b838110156122fb578460115f6122e38486614b1c565b815260208101919091526040015f20556001016122cd565b508086868151811061230f5761230f614b67565b602002602001018181525050896001600160a01b0316845f516020614ebd5f395f51905f52838660405161234d929190918252602082015260400190565b60405180910390a35050600190920191506122179050565b509250506123736001600d55565b5095945050505050565b5f9182526009602090815260408084206001600160a01b0393909316845291905290205460ff1690565b5f6123b18161350e565b6123b9613144565b610fa682613acb565b606060038054610ee090614b2f565b7f97667070c54ef182b0f5858b034beac1b6f3089aa2d3188bb1e8929f4fa9b9296123fb8161350e565b612403613144565b5f5b8281101561251b575f84848381811061242057612420614b67565b602090810292909201355f81815260119093526040909220549192505080156124a7575f818152600e6020526040902054600160a01b90046001600160401b03164211156124a75760405162461bcd60e51b8152602060048201526014602482015273115d995b9d081d1a58dad95d08195e1c1a5c995960621b6044820152606401610ca8565b6124b0826131e8565b80156124ca57505f828152600f602052604090205460ff16155b15612511575f828152600f60205260409020805460ff191660011790558015612511575f81815260186020526040812080546001929061250b908490614b1c565b90915550505b5050600101612405565b507f0e862c2630b0e020ea8c569930ac577d3c103fdb452386c869484d2b2cb7388183834260405161254f93929190614d39565b60405180910390a1505050565b335f8181526007602090815260408083206001600160a01b03871680855290835292819020805460ff191686151590811790915590519081529192917f17307eab39ab6107e8899845ad3d59bd9653f200f220920489ca2b5937696c31910160405180910390a35050565b5f6125d18161350e565b6125d9613144565b8382146125f85760405162461bcd60e51b8152600401610ca890614cd0565b5f5b848110156126cd575f5461264c87878481811061261957612619614b67565b905060200201602081019061262e919061463d565b86868581811061264057612640614b67565b90506020020135613194565b86868381811061265e5761265e614b67565b9050602002016020810190612673919061463d565b6001600160a01b03165f5f516020614ebd5f395f51905f528388888781811061269e5761269e614b67565b905060200201356040516126bc929190918252602082015260400190565b60405180910390a3506001016125fa565b505050505050565b6126dd61316a565b6126e5613144565b806127205760405162461bcd60e51b815260206004820152600b60248201526a456d70747920617272617960a81b6044820152606401610ca8565b5f80805b8381101561296e575f85858381811061273f5761273f614b67565b602090810292909201355f818152600e8452604090819020815160a08101835281546001600160a01b038116808352600160a01b82046001600160401b031697830197909752600160e01b900463ffffffff1692810192909252600181015460608301526002015460ff161515608082015290935091331490506128055760405162461bcd60e51b815260206004820152601c60248201527f4e6f74206f7267616e697a6572206f6620616c6c207469636b657473000000006044820152606401610ca8565b5f8281526019602052604090205460ff168061282c57505f82815260126020526040902054155b15612838575050612966565b5f828152601960209081526040808320805460ff1916600117905560128252808320546013909252822054909190612710906128749084614a61565b61287e9190614b7b565b5f85815260156020908152604080832054601890925282205492935090916128a69190614a61565b5f868152601460209081526040808320546017909252909120546128ca9190614a61565b6128d49190614b1c565b90505f6128e18284614b1c565b90508084101561292c5760405162461bcd60e51b8152602060048201526016602482015275526576656e7565206c657373207468616e206665657360501b6044820152606401610ca8565b6129368185614b9a565b612940908a614b1c565b985061294c8189614b1c565b5f9687526012602052604087209690965550939550505050505b600101612724565b505f82118061297c57505f81115b6129d35760405162461bcd60e51b815260206004820152602260248201527f4e6f2076616c696420726576656e756520746f20636c61696d20696e206261746044820152610c6d60f31b6064820152608401610ca8565b8115612aaf5760405163a9059cbb60e01b8152336004820152602481018390527f00000000000000000000000000000000000000000000000000000000000000006001600160a01b03169063a9059cbb906044016020604051808303815f875af1158015612a43573d5f5f3e3d5ffd5b505050506040513d601f19601f82011682018060405250810190612a679190614ad3565b612aaf5760405162461bcd60e51b815260206004820152601960248201527813dc99d85b9a5e995c881d1c985b9cd9995c8819985a5b1959603a1b6044820152606401610ca8565b8015612ba95760405163a9059cbb60e01b81526001600160a01b037f000000000000000000000000000000000000000000000000000000000000000081166004830152602482018390527f0000000000000000000000000000000000000000000000000000000000000000169063a9059cbb906044016020604051808303815f875af1158015612b41573d5f5f3e3d5ffd5b505050506040513d601f19601f82011682018060405250810190612b659190614ad3565b612ba95760405162461bcd60e51b815260206004820152601560248201527410591b5a5b881d1c985b9cd9995c8819985a5b1959605a1b6044820152606401610ca8565b5050610fa66001600d55565b612bc0848484611515565b6001600160a01b0383163b1561175057612bdc84848484613ad5565b611750576117506368d2bf6b60e11b613232565b6060612bfb826131e8565b612c0f57612c0f630a14c4b560e41b613232565b5f612c18613bb0565b905080515f03612c365760405180602001604052805f815250610eba565b80612c4084613bbf565b604051602001612c51929190614d8c565b6040516020818303038152906040529392505050565b5f612c718161350e565b612c79613144565b5f858152600e60205260409020546001600160a01b0316612cd35760405162461bcd60e51b8152602060048201526014602482015273115d995b9d08191bd95cc81b9bdd08195e1a5cdd60621b6044820152606401610ca8565b5f8581526019602052604090205460ff1615612d295760405162461bcd60e51b8152602060048201526015602482015274119d5b991cc8185b1c9958591e4818db185a5b5959605a1b6044820152606401610ca8565b505f9384526013602090815260408086209490945560148152838520929092556015909152912055565b5f82815260096020526040902060010154612d6d8161350e565b6117508383613972565b6060612d81613144565b83612d9e5760405162461bcd60e51b8152600401610ca890614caa565b838214612dbd5760405162461bcd60e51b8152600401610ca890614cd0565b6032841115612e0e5760405162461bcd60e51b815260206004820152601860248201527f42617463682073697a652065786365656473206c696d697400000000000000006044820152606401610ca8565b5f846001600160401b03811115612e2757612e2761483b565b604051908082528060200260200182016040528015612e50578160200160208202803683370190505b5090505f5b8581101561237357612ea2878783818110612e7257612e72614b67565b90506101000201868684818110612e8b57612e8b614b67565b9050602002810190612e9d9190614da0565b6135a9565b828281518110612eb457612eb4614b67565b6020908102919091010152600101612e55565b612ecf613144565b5f828152600e60205260409020546001600160a01b03163314612f245760405162461bcd60e51b815260206004820152600d60248201526c2737ba1037b933b0b734bd32b960991b6044820152606401610ca8565b5f918252600e602052604090912060010155565b7f97667070c54ef182b0f5858b034beac1b6f3089aa2d3188bb1e8929f4fa9b929612f628161350e565b612f6a613144565b5f828152601160205260409020548015612fe2575f818152600e6020526040902054600160a01b90046001600160401b0316421115612fe25760405162461bcd60e51b8152602060048201526014602482015273115d995b9d081d1a58dad95d08195e1c1a5c995960621b6044820152606401610ca8565b612feb836131e8565b61302f5760405162461bcd60e51b8152602060048201526015602482015274151a58dad95d08191bd95cc81b9bdd08195e1a5cdd605a1b6044820152606401610ca8565b5f838152600f602052604090205460ff16156130835760405162461bcd60e51b8152602060048201526013602482015272151a58dad95d08185b1c9958591e481d5cd959606a1b6044820152606401610ca8565b5f838152600f60205260409020805460ff1916600117905580156130c5575f8181526018602052604081208054600192906130bf908490614b1c565b90915550505b6040805160018082528183019092525f916020808301908036833701905050905083815f815181106130f9576130f9614b67565b6020026020010181815250507f0e862c2630b0e020ea8c569930ac577d3c103fdb452386c869484d2b2cb738818142604051613136929190614de2565b60405180910390a150505050565b600a5460ff16156131685760405163d93c066560e01b815260040160405180910390fd5b565b6002600d540361318d57604051633ee5aeb560e01b815260040160405180910390fd5b6002600d55565b610fa6828260405180602001604052805f815250613c02565b6001600d55565b5f6001600160e01b03198216637965db0b60e01b1480610ecb57506301ffc9a760e01b6001600160e01b0319831614610ecb565b5f8160011161322d575f5482101561322d575f5b505f82815260046020526040812054908190036132235761321c83614e03565b92506131fc565b600160e01b161590505b919050565b805f5260045ffd5b5f613244836117ed565b905081801561325c5750336001600160a01b03821614155b1561327f5761326b8133610bc6565b61327f5761327f6367d9dca160e11b613232565b5f8381526006602052604080822080546001600160a01b0319166001600160a01b0388811691821790925591518693918516917f8c5be1e5ebec7d5bd14f71427d1e84f3dd0314c0f7b2291e5b200ac8c7c3b92591a450505050565b5f8160011161336457505f81815260046020526040902054805f03613352575f54821061331257613312636f96cda160e11b613232565b5b505f19015f81815260046020526040902054801561331357600160e01b81165f0361333d57919050565b61334d636f96cda160e11b613232565b613313565b600160e01b81165f0361336457919050565b61322d636f96cda160e11b613232565b61337c613144565b6001600160a01b0384161580159061339c57506001600160a01b03831615155b15613509575f6133ac818661237d565b806133bc57506133bc5f8561237d565b806133d957506133d95f516020614e9d5f395f51905f528661237d565b806133f657506133f65f516020614e9d5f395f51905f528561237d565b8061341357506134135f516020614e9d5f395f51905f523361237d565b90508061347d5760405162461bcd60e51b815260206004820152603260248201527f5472616e73666572206c6f636b65643a204f6e6c79204f6666696369616c204d604482015271185c9ad95d1c1b1858d948185b1b1bddd95960721b6064820152608401610ca8565b5f5b8281101561350657600f5f6134948387614b1c565b815260208101919091526040015f205460ff16156134fe5760405162461bcd60e51b815260206004820152602160248201527f55736564207469636b65742063616e6e6f74206265207472616e7366657272656044820152601960fa1b6064820152608401610ca8565b60010161347f565b50505b611750565b6115128133613c62565b5f613523838361237d565b6135a2575f8381526009602090815260408083206001600160a01b03861684529091529020805460ff1916600117905561355a3390565b6001600160a01b0316826001600160a01b0316847f2f8788117e7eff1d82e926ec794901d17c78024a50270940304540a733656f0d60405160405180910390a4506001610ecb565b505f610ecb565b60e08301355f9081526010602052604081205460ff161561360c5760405162461bcd60e51b815260206004820152601d60248201527f566f75636865722068617320616c7265616479206265656e20757365640000006044820152606401610ca8565b60e0840180355f908152601060209081526040808320805460ff1916600117905591926136ee927f7e2428746ba19547783fa5b02cf073095822dfdcab967abd9d179be86d792b0992893592908a0135918a01359060608b01359060808c01359060a08d0135906136809060c08f01614e18565b6040805160208101999099528801969096526060870194909452608086019290925260a085015260c084015260e0838101919091526001600160401b039091166101008301528701356101208201526101400160405160208183030381529060405280519060200120613c9b565b90505f6137308286868080601f0160208091040260200160405190810160405280939291908181526020018383808284375f92019190915250613cc792505050565b905061373c5f8261237d565b6137885760405162461bcd60e51b815260206004820152601c60248201527f496e76616c6964207369676e61747572652066726f6d2041646d696e000000006044820152606401610ca8565b85355f908152600e60205260409020546001600160a01b03166138595785355f908152600e60205260409081902080546001600160a01b03191633178155908701356001909101556137e060e0870160c08801614e18565b86355f908152600e6020908152604080832080546001600160401b0395909516600160a01b0267ffffffffffffffff60a01b199095169490941784556002909301805460ff191660011790556013815282822060608a013590556014815282822060808a01359055601590522060a087013590556138ca565b85355f908152600e60205260409020546001600160a01b031633146138ca5760405162461bcd60e51b815260206004820152602160248201527f43616c6c6572206973206e6f7420746865206576656e74206f7267616e697a656044820152603960f91b6064820152608401610ca8565b5f546138da336020890135613194565b5f5b876020013581101561390f57873560115f6138f78486614b1c565b815260208101919091526040015f20556001016138dc565b5086355f90815260166020908152604082208054918a0135929091613935908490614b1c565b9091555050604080518281526020808a01359082015233918935915f516020614ebd5f395f51905f52910160405180910390a39695505050505050565b5f61397d838361237d565b156135a2575f8381526009602090815260408083206001600160a01b0386168085529252808320805460ff1916905551339286917ff6391f5c32d9c69d2a47ea670b442974b53935d1edc7fd64eb21e047a839171b9190a4506001610ecb565b6139e5613cef565b600a805460ff191690557f5db9ee0a495bf2e6ff9c91a7834c1ba4fdd244a5e8aa4e537bd38aeae4b073aa335b6040516001600160a01b03909116815260200160405180910390a1565b613a37613144565b600a805460ff191660011790557f62e78cea01bee320cd4e420270b5ea74000d11b0c9f74754ebdbfc544b05a258613a123390565b6060613a997f0000000000000000000000000000000000000000000000000000000000000000600b613d12565b905090565b6060613a997f0000000000000000000000000000000000000000000000000000000000000000600c613d12565b611512815f613dbb565b604051630a85bd0160e11b81525f906001600160a01b0385169063150b7a0290613b09903390899088908890600401614e31565b6020604051808303815f875af1925050508015613b43575060408051601f3d908101601f19168201909252613b4091810190614e6d565b60015b613b96573d808015613b70576040519150601f19603f3d011682016040523d82523d5f602084013e613b75565b606091505b5080515f03613b8e57613b8e6368d2bf6b60e11b613232565b805181602001fd5b6001600160e01b031916630a85bd0160e11b14905061176a565b6060601a8054610ee090614b2f565b606060a06040510180604052602081039150505f815280825b600183039250600a81066030018353600a900480613bd85750819003601f19909101908152919050565b613c0c8383613eff565b6001600160a01b0383163b156117a5575f548281035b613c345f868380600101945086613ad5565b613c4857613c486368d2bf6b60e11b613232565b818110613c2257815f5414613c5b575f5ffd5b5050505050565b613c6c828261237d565b610fa65760405163e2517d3f60e01b81526001600160a01b038216600482015260248101839052604401610ca8565b5f610ecb613ca7613fc5565b8360405161190160f01b8152600281019290925260228201526042902090565b5f5f5f5f613cd586866140ee565b925092509250613ce58282614137565b5090949350505050565b600a5460ff1661316857604051638dfc202b60e01b815260040160405180910390fd5b606060ff8314613d2c57613d25836141ef565b9050610ecb565b818054613d3890614b2f565b80601f0160208091040260200160405190810160405280929190818152602001828054613d6490614b2f565b8015613daf5780601f10613d8657610100808354040283529160200191613daf565b820191905f5260205f20905b815481529060010190602001808311613d9257829003601f168201915b50505050509050610ecb565b5f613dc5836132db565b9050805f80613de1865f90815260066020526040902080549091565b915091508415613e1857613df681843361155b565b613e1857613e048333610bc6565b613e1857613e18632ce44b5f60e11b613232565b613e25835f886001613374565b8015613e2f575f82555b6001600160a01b0383165f81815260056020526040902080546fffffffffffffffffffffffffffffffff0190554260a01b17600360e01b175f87815260046020526040812091909155600160e11b85169003613eb857600186015f818152600460205260408120549003613eb6575f548114613eb6575f8181526004602052604090208590555b505b60405186905f906001600160a01b038616907fddf252ad1be2c89b69c2b068fc378daa952ba7f163c4a11628f55a4df523b3ef908390a45050600180548101905550505050565b5f805490829003613f1a57613f1a63b562e8dd60e01b613232565b613f265f848385613374565b5f8181526004602090815260408083206001600160a01b0387164260a01b6001881460e11b17811790915580845260059092528220805468010000000000000001860201905590819003613f8357613f83622e076360e81b613232565b818301825b80835f7fddf252ad1be2c89b69c2b068fc378daa952ba7f163c4a11628f55a4df523b3ef5f5fa4818160010191508103613f8857505f5550505050565b5f306001600160a01b037f00000000000000000000000000000000000000000000000000000000000000001614801561401d57507f000000000000000000000000000000000000000000000000000000000000000046145b1561404757507f000000000000000000000000000000000000000000000000000000000000000090565b613a99604080517f8b73c3c69bb8fe3d512ecc4cf759cc79239f7b179b0ffacaa9a75d522b39400f60208201527f0000000000000000000000000000000000000000000000000000000000000000918101919091527f000000000000000000000000000000000000000000000000000000000000000060608201524660808201523060a08201525f9060c00160405160208183030381529060405280519060200120905090565b5f5f5f8351604103614125576020840151604085015160608601515f1a6141178882858561422c565b955095509550505050614130565b505081515f91506002905b9250925092565b5f82600381111561414a5761414a614e88565b03614153575050565b600182600381111561416757614167614e88565b036141855760405163f645eedf60e01b815260040160405180910390fd5b600282600381111561419957614199614e88565b036141ba5760405163fce698f760e01b815260048101829052602401610ca8565b60038260038111156141ce576141ce614e88565b03610fa6576040516335e2f38360e21b815260048101829052602401610ca8565b60605f6141fb836142f4565b6040805160208082528183019092529192505f91906020820181803683375050509182525060208101929092525090565b5f80807f7fffffffffffffffffffffffffffffff5d576e7357a4501ddfe92f46681b20a084111561426557505f915060039050826142ea565b604080515f808252602082018084528a905260ff891692820192909252606081018790526080810186905260019060a0016020604051602081039080840390855afa1580156142b6573d5f5f3e3d5ffd5b5050604051601f1901519150506001600160a01b0381166142e157505f9250600191508290506142ea565b92505f91508190505b9450945094915050565b5f60ff8216601f811115610ecb57604051632cd44ac360e21b815260040160405180910390fd5b80356001600160a01b038116811461322d575f5ffd5b5f5f5f60608486031215614343575f5ffd5b833592506020840135915061435a6040850161431b565b90509250925092565b6001600160e01b031981168114611512575f5ffd5b5f60208284031215614388575f5ffd5b8135610eba81614363565b5f81518084528060208401602086015e5f602082860101526020601f19601f83011685010191505092915050565b602081525f610eba6020830184614393565b5f602082840312156143e3575f5ffd5b5035919050565b5f5f604083850312156143fb575f5ffd5b6144048361431b565b946020939093013593505050565b5f5f83601f840112614422575f5ffd5b5081356001600160401b03811115614438575f5ffd5b6020830191508360208260051b8501011115614452575f5ffd5b9250929050565b5f5f6020838503121561446a575f5ffd5b82356001600160401b0381111561447f575f5ffd5b61448b85828601614412565b90969095509350505050565b602080825282518282018190525f918401906040840190835b818110156144d057835115158352602093840193909201916001016144b0565b509095945050505050565b5f5f5f606084860312156144ed575f5ffd5b6144f68461431b565b92506145046020850161431b565b929592945050506040919091013590565b80356001600160401b038116811461322d575f5ffd5b5f5f6040838503121561453c575f5ffd5b8235915061454c60208401614515565b90509250929050565b5f5f60408385031215614566575f5ffd5b8235915061454c6020840161431b565b5f5f83601f840112614586575f5ffd5b5081356001600160401b0381111561459c575f5ffd5b602083019150836020828501011115614452575f5ffd5b5f5f5f8385036101208112156145c7575f5ffd5b6101008112156145d5575f5ffd5b508392506101008401356001600160401b038111156145f2575f5ffd5b6145fe86828701614576565b9497909650939450505050565b5f5f6020838503121561461c575f5ffd5b82356001600160401b03811115614631575f5ffd5b61448b85828601614576565b5f6020828403121561464d575f5ffd5b610eba8261431b565b5f8151808452602084019350602083015f5b82811015614686578151865260209586019590910190600101614668565b5093949350505050565b60ff60f81b8816815260e060208201525f6146ae60e0830189614393565b82810360408401526146c08189614393565b606084018890526001600160a01b038716608085015260a0840186905283810360c085015290506146f18185614656565b9a9950505050505050505050565b5f5f5f5f5f60608688031215614713575f5ffd5b85356001600160401b03811115614728575f5ffd5b61473488828901614412565b90965094505060208601356001600160401b03811115614752575f5ffd5b61475e88828901614412565b909450925061477190506040870161431b565b90509295509295909350565b602081525f610eba6020830184614656565b8015158114611512575f5ffd5b5f5f604083850312156147ad575f5ffd5b6147b68361431b565b915060208301356147c68161478f565b809150509250929050565b5f5f5f5f604085870312156147e4575f5ffd5b84356001600160401b038111156147f9575f5ffd5b61480587828801614412565b90955093505060208501356001600160401b03811115614823575f5ffd5b61482f87828801614412565b95989497509550505050565b634e487b7160e01b5f52604160045260245ffd5b5f5f5f5f60808587031215614862575f5ffd5b61486b8561431b565b93506148796020860161431b565b92506040850135915060608501356001600160401b0381111561489a575f5ffd5b8501601f810187136148aa575f5ffd5b80356001600160401b038111156148c3576148c361483b565b604051601f8201601f19908116603f011681016001600160401b03811182821017156148f1576148f161483b565b604052818152828201602001891015614908575f5ffd5b816020840160208301375f6020838301015280935050505092959194509250565b5f5f5f5f6080858703121561493c575f5ffd5b5050823594602084013594506040840135936060013592509050565b5f5f5f5f6040858703121561496b575f5ffd5b84356001600160401b03811115614980575f5ffd5b8501601f81018713614990575f5ffd5b80356001600160401b038111156149a5575f5ffd5b8760208260081b84010111156149b9575f5ffd5b6020918201955093508501356001600160401b03811115614823575f5ffd5b5f5f604083850312156149e9575f5ffd5b50508035926020909101359150565b5f5f60408385031215614a09575f5ffd5b614a128361431b565b915061454c6020840161431b565b6020808252601390820152724576656e74206973206e6f742061637469766560681b604082015260600190565b634e487b7160e01b5f52601160045260245ffd5b8082028115828204841417610ecb57610ecb614a4d565b6020808252601e908201527f5072696365206e6f7420736574206f72207175616e74697479207a65726f0000604082015260600190565b6001600160a01b039384168152919092166020820152604081019190915260600190565b5f60208284031215614ae3575f5ffd5b8151610eba8161478f565b6020808252601490820152731554d115081d1c985b9cd9995c8819985a5b195960621b604082015260600190565b80820180821115610ecb57610ecb614a4d565b600181811c90821680614b4357607f821691505b602082108103614b6157634e487b7160e01b5f52602260045260245ffd5b50919050565b634e487b7160e01b5f52603260045260245ffd5b5f82614b9557634e487b7160e01b5f52601260045260245ffd5b500490565b81810381811115610ecb57610ecb614a4d565b601f8211156117a557805f5260205f20601f840160051c81016020851015614bd25750805b601f840160051c820191505b81811015613c5b575f8155600101614bde565b6001600160401b03831115614c0857614c0861483b565b614c1c83614c168354614b2f565b83614bad565b5f601f841160018114614c4d575f8515614c365750838201355b5f19600387901b1c1916600186901b178355613c5b565b5f83815260208120601f198716915b82811015614c7c5786850135825560209485019460019092019101614c5c565b5086821015614c98575f1960f88860031b161c19848701351681555b505060018560011b0183555050505050565b6020808252600c908201526b456d7074792061727261797360a01b604082015260600190565b6020808252600d908201526c088c2e8c240dad2e6dac2e8c6d609b1b604082015260600190565b60208082526022908201527f5175616e74697479206d7573742062652067726561746572207468616e207a65604082015261726f60f01b606082015260800190565b604080825281018390525f6001600160fb1b03841115614d57575f5ffd5b8360051b808660608501376020830193909352500160600192915050565b5f81518060208401855e5f93019283525090919050565b5f61176a614d9a8386614d75565b84614d75565b5f5f8335601e19843603018112614db5575f5ffd5b8301803591506001600160401b03821115614dce575f5ffd5b602001915036819003821315614452575f5ffd5b604081525f614df46040830185614656565b90508260208301529392505050565b5f81614e1157614e11614a4d565b505f190190565b5f60208284031215614e28575f5ffd5b610eba82614515565b6001600160a01b03858116825284166020820152604081018390526080606082018190525f90614e6390830184614393565b9695505050505050565b5f60208284031215614e7d575f5ffd5b8151610eba81614363565b634e487b7160e01b5f52602160045260245ffdfe0ea61da3a8a09ad801432653699f8c1860b1ae9d2ea4a141fadfd63227717bc8fca299aba08069d2d3cb077242f16b2ee054dd28b704b3729fb9b3cb8aea0beea26469706673582212203f8a4400209abe6750cf0ad5cda74098f2fb1f05b220e4ffb1e1c0986b531e8564736f6c634300081c0033",
  "linkReferences": {},
  "deployedLinkReferences": {},
  "immutableReferences": {
    "3796": [
      {
        "length": 32,
        "start": 16421
      }
    ],
    "3798": [
      {
        "length": 32,
        "start": 16379
      }
    ],
    "3800": [
      {
        "length": 32,
        "start": 16337
      }
    ],
    "3802": [
      {
        "length": 32,
        "start": 16502
      }
    ],
    "3804": [
      {
        "length": 32,
        "start": 16542
      }
    ],
    "3807": [
      {
        "length": 32,
        "start": 14963
      }
    ],
    "3810": [
      {
        "length": 32,
        "start": 15013
      }
    ],
    "10890": [
      {
        "length": 32,
        "start": 2569
      },
      {
        "length": 32,
        "start": 3461
      },
      {
        "length": 32,
        "start": 4928
      },
      {
        "length": 32,
        "start": 5190
      },
      {
        "length": 32,
        "start": 6374
      },
      {
        "length": 32,
        "start": 7532
      },
      {
        "length": 32,
        "start": 8576
      },
      {
        "length": 32,
        "start": 10741
      },
      {
        "length": 32,
        "start": 11003
      }
    ],
    "10892": [
      {
        "length": 32,
        "start": 2394
      },
      {
        "length": 32,
        "start": 5143
      },
      {
        "length": 32,
        "start": 10956
      }
    ]
  },
  "inputSourceName": "project/contracts/ShineTicket.sol",
  "buildInfoId": "solc-0_8_28-657da38740a393939ae30f1dd0a16fecad1dc313"
}