{
  "_format": "hh3-artifact-1",
  "contractName": "ShineTicket",
  "sourceName": "contracts/ShineTicket.sol",
  "abi": [
    {
      "inputs": [
        {
          "internalType": "address",
          "name": "defaultAdmin",
          "type": "address"
        },
        {
          "internalType": "address",
          "name": "_usdtToken",
          "type": "address"
        }
      ],
      "stateMutability": "nonpayable",
      "type": "constructor"
    },
    {
      "inputs": [],
      "name": "AccessControlBadConfirmation",
      "type": "error"
    },
    {
      "inputs": [
        {
          "internalType": "address",
          "name": "account",
          "type": "address"
        },
        {
          "internalType": "bytes32",
          "name": "neededRole",
          "type": "bytes32"
        }
      ],
      "name": "AccessControlUnauthorizedAccount",
      "type": "error"
    },
    {
      "inputs": [],
      "name": "ApprovalCallerNotOwnerNorApproved",
      "type": "error"
    },
    {
      "inputs": [],
      "name": "ApprovalQueryForNonexistentToken",
      "type": "error"
    },
    {
      "inputs": [],
      "name": "BalanceQueryForZeroAddress",
      "type": "error"
    },
    {
      "inputs": [],
      "name": "ECDSAInvalidSignature",
      "type": "error"
    },
    {
      "inputs": [
        {
          "internalType": "uint256",
          "name": "length",
          "type": "uint256"
        }
      ],
      "name": "ECDSAInvalidSignatureLength",
      "type": "error"
    },
    {
      "inputs": [
        {
          "internalType": "bytes32",
          "name": "s",
          "type": "bytes32"
        }
      ],
      "name": "ECDSAInvalidSignatureS",
      "type": "error"
    },
    {
      "inputs": [],
      "name": "EnforcedPause",
      "type": "error"
    },
    {
      "inputs": [],
      "name": "ExpectedPause",
      "type": "error"
    },
    {
      "inputs": [],
      "name": "InvalidShortString",
      "type": "error"
    },
    {
      "inputs": [],
      "name": "MintERC2309QuantityExceedsLimit",
      "type": "error"
    },
    {
      "inputs": [],
      "name": "MintToZeroAddress",
      "type": "error"
    },
    {
      "inputs": [],
      "name": "MintZeroQuantity",
      "type": "error"
    },
    {
      "inputs": [],
      "name": "NotCompatibleWithSpotMints",
      "type": "error"
    },
    {
      "inputs": [],
      "name": "OwnerQueryForNonexistentToken",
      "type": "error"
    },
    {
      "inputs": [],
      "name": "OwnershipNotInitializedForExtraData",
      "type": "error"
    },
    {
      "inputs": [],
      "name": "ReentrancyGuardReentrantCall",
      "type": "error"
    },
    {
      "inputs": [],
      "name": "SequentialMintExceedsLimit",
      "type": "error"
    },
    {
      "inputs": [],
      "name": "SequentialUpToTooSmall",
      "type": "error"
    },
    {
      "inputs": [],
      "name": "SpotMintTokenIdTooSmall",
      "type": "error"
    },
    {
      "inputs": [
        {
          "internalType": "string",
          "name": "str",
          "type": "string"
        }
      ],
      "name": "StringTooLong",
      "type": "error"
    },
    {
      "inputs": [],
      "name": "TokenAlreadyExists",
      "type": "error"
    },
    {
      "inputs": [],
      "name": "TransferCallerNotOwnerNorApproved",
      "type": "error"
    },
    {
      "inputs": [],
      "name": "TransferFromIncorrectOwner",
      "type": "error"
    },
    {
      "inputs": [],
      "name": "TransferToNonERC721ReceiverImplementer",
      "type": "error"
    },
    {
      "inputs": [],
      "name": "TransferToZeroAddress",
      "type": "error"
    },
    {
      "inputs": [],
      "name": "URIQueryForNonexistentToken",
      "type": "error"
    },
    {
      "anonymous": false,
      "inputs": [
        {
          "indexed": true,
          "internalType": "address",
          "name": "owner",
          "type": "address"
        },
        {
          "indexed": true,
          "internalType": "address",
          "name": "approved",
          "type": "address"
        },
        {
          "indexed": true,
          "internalType": "uint256",
          "name": "tokenId",
          "type": "uint256"
        }
      ],
      "name": "Approval",
      "type": "event"
    },
    {
      "anonymous": false,
      "inputs": [
        {
          "indexed": true,
          "internalType": "address",
          "name": "owner",
          "type": "address"
        },
        {
          "indexed": true,
          "internalType": "address",
          "name": "operator",
          "type": "address"
        },
        {
          "indexed": false,
          "internalType": "bool",
          "name": "approved",
          "type": "bool"
        }
      ],
      "name": "ApprovalForAll",
      "type": "event"
    },
    {
      "anonymous": false,
      "inputs": [
        {
          "indexed": true,
          "internalType": "uint256",
          "name": "fromTokenId",
          "type": "uint256"
        },
        {
          "indexed": false,
          "internalType": "uint256",
          "name": "toTokenId",
          "type": "uint256"
        },
        {
          "indexed": true,
          "internalType": "address",
          "name": "from",
          "type": "address"
        },
        {
          "indexed": true,
          "internalType": "address",
          "name": "to",
          "type": "address"
        }
      ],
      "name": "ConsecutiveTransfer",
      "type": "event"
    },
    {
      "anonymous": false,
      "inputs": [],
      "name": "EIP712DomainChanged",
      "type": "event"
    },
    {
      "anonymous": false,
      "inputs": [
        {
          "indexed": false,
          "internalType": "address",
          "name": "account",
          "type": "address"
        }
      ],
      "name": "Paused",
      "type": "event"
    },
    {
      "anonymous": false,
      "inputs": [
        {
          "indexed": true,
          "internalType": "bytes32",
          "name": "role",
          "type": "bytes32"
        },
        {
          "indexed": true,
          "internalType": "bytes32",
          "name": "previousAdminRole",
          "type": "bytes32"
        },
        {
          "indexed": true,
          "internalType": "bytes32",
          "name": "newAdminRole",
          "type": "bytes32"
        }
      ],
      "name": "RoleAdminChanged",
      "type": "event"
    },
    {
      "anonymous": false,
      "inputs": [
        {
          "indexed": true,
          "internalType": "bytes32",
          "name": "role",
          "type": "bytes32"
        },
        {
          "indexed": true,
          "internalType": "address",
          "name": "account",
          "type": "address"
        },
        {
          "indexed": true,
          "internalType": "address",
          "name": "sender",
          "type": "address"
        }
      ],
      "name": "RoleGranted",
      "type": "event"
    },
    {
      "anonymous": false,
      "inputs": [
        {
          "indexed": true,
          "internalType": "bytes32",
          "name": "role",
          "type": "bytes32"
        },
        {
          "indexed": true,
          "internalType": "address",
          "name": "account",
          "type": "address"
        },
        {
          "indexed": true,
          "internalType": "address",
          "name": "sender",
          "type": "address"
        }
      ],
      "name": "RoleRevoked",
      "type": "event"
    },
    {
      "anonymous": false,
      "inputs": [
        {
          "indexed": false,
          "internalType": "uint256[]",
          "name": "tokenIds",
          "type": "uint256[]"
        },
        {
          "indexed": false,
          "internalType": "uint256",
          "name": "timestamp",
          "type": "uint256"
        }
      ],
      "name": "TicketsCheckedIn",
      "type": "event"
    },
    {
      "anonymous": false,
      "inputs": [
        {
          "indexed": true,
          "internalType": "address",
          "name": "from",
          "type": "address"
        },
        {
          "indexed": true,
          "internalType": "address",
          "name": "to",
          "type": "address"
        },
        {
          "indexed": true,
          "internalType": "uint256",
          "name": "tokenId",
          "type": "uint256"
        }
      ],
      "name": "Transfer",
      "type": "event"
    },
    {
      "anonymous": false,
      "inputs": [
        {
          "indexed": false,
          "internalType": "address",
          "name": "account",
          "type": "address"
        }
      ],
      "name": "Unpaused",
      "type": "event"
    },
    {
      "inputs": [],
      "name": "DEFAULT_ADMIN_ROLE",
      "outputs": [
        {
          "internalType": "bytes32",
          "name": "",
          "type": "bytes32"
        }
      ],
      "stateMutability": "view",
      "type": "function"
    },
    {
      "inputs": [],
      "name": "MARKETPLACE_ROLE",
      "outputs": [
        {
          "internalType": "bytes32",
          "name": "",
          "type": "bytes32"
        }
      ],
      "stateMutability": "view",
      "type": "function"
    },
    {
      "inputs": [],
      "name": "OPERATOR_ROLE",
      "outputs": [
        {
          "internalType": "bytes32",
          "name": "",
          "type": "bytes32"
        }
      ],
      "stateMutability": "view",
      "type": "function"
    },
    {
      "inputs": [],
      "name": "ORGANIZER_ROLE",
      "outputs": [
        {
          "internalType": "bytes32",
          "name": "",
          "type": "bytes32"
        }
      ],
      "stateMutability": "view",
      "type": "function"
    },
    {
      "inputs": [],
      "name": "VOUCHER_TYPEHASH",
      "outputs": [
        {
          "internalType": "bytes32",
          "name": "",
          "type": "bytes32"
        }
      ],
      "stateMutability": "view",
      "type": "function"
    },
    {
      "inputs": [],
      "name": "adminTreasury",
      "outputs": [
        {
          "internalType": "address",
          "name": "",
          "type": "address"
        }
      ],
      "stateMutability": "view",
      "type": "function"
    },
    {
      "inputs": [
        {
          "internalType": "address",
          "name": "to",
          "type": "address"
        },
        {
          "internalType": "uint256",
          "name": "tokenId",
          "type": "uint256"
        }
      ],
      "name": "approve",
      "outputs": [],
      "stateMutability": "payable",
      "type": "function"
    },
    {
      "inputs": [
        {
          "internalType": "address",
          "name": "owner",
          "type": "address"
        }
      ],
      "name": "balanceOf",
      "outputs": [
        {
          "internalType": "uint256",
          "name": "",
          "type": "uint256"
        }
      ],
      "stateMutability": "view",
      "type": "function"
    },
    {
      "inputs": [
        {
          "internalType": "uint256[]",
          "name": "tokenIds",
          "type": "uint256[]"
        }
      ],
      "name": "batchCheckIn",
      "outputs": [],
      "stateMutability": "nonpayable",
      "type": "function"
    },
    {
      "inputs": [
        {
          "components": [
            {
              "internalType": "uint256",
              "name": "eventId",
              "type": "uint256"
            },
            {
              "internalType": "uint256",
              "name": "quantity",
              "type": "uint256"
            },
            {
              "internalType": "uint256",
              "name": "commissionRateBps",
              "type": "uint256"
            },
            {
              "internalType": "uint256",
              "name": "relayerGasPerTicket",
              "type": "uint256"
            },
            {
              "internalType": "uint256",
              "name": "checkinGasPerTicket",
              "type": "uint256"
            },
            {
              "internalType": "uint64",
              "name": "expiryTime",
              "type": "uint64"
            },
            {
              "internalType": "uint256",
              "name": "nonce",
              "type": "uint256"
            }
          ],
          "internalType": "struct ShineTicket.MintVoucher[]",
          "name": "vouchers",
          "type": "tuple[]"
        },
        {
          "internalType": "bytes[]",
          "name": "signatures",
          "type": "bytes[]"
        }
      ],
      "name": "batchMintEventTickets",
      "outputs": [],
      "stateMutability": "nonpayable",
      "type": "function"
    },
    {
      "inputs": [
        {
          "internalType": "uint256",
          "name": "eventId",
          "type": "uint256"
        },
        {
          "internalType": "uint256",
          "name": "quantity",
          "type": "uint256"
        }
      ],
      "name": "buyTicket",
      "outputs": [],
      "stateMutability": "nonpayable",
      "type": "function"
    },
    {
      "inputs": [
        {
          "internalType": "uint256",
          "name": "tokenId",
          "type": "uint256"
        }
      ],
      "name": "checkIn",
      "outputs": [],
      "stateMutability": "nonpayable",
      "type": "function"
    },
    {
      "inputs": [
        {
          "internalType": "uint256",
          "name": "eventId",
          "type": "uint256"
        }
      ],
      "name": "claimFunds",
      "outputs": [],
      "stateMutability": "nonpayable",
      "type": "function"
    },
    {
      "inputs": [],
      "name": "eip712Domain",
      "outputs": [
        {
          "internalType": "bytes1",
          "name": "fields",
          "type": "bytes1"
        },
        {
          "internalType": "string",
          "name": "name",
          "type": "string"
        },
        {
          "internalType": "string",
          "name": "version",
          "type": "string"
        },
        {
          "internalType": "uint256",
          "name": "chainId",
          "type": "uint256"
        },
        {
          "internalType": "address",
          "name": "verifyingContract",
          "type": "address"
        },
        {
          "internalType": "bytes32",
          "name": "salt",
          "type": "bytes32"
        },
        {
          "internalType": "uint256[]",
          "name": "extensions",
          "type": "uint256[]"
        }
      ],
      "stateMutability": "view",
      "type": "function"
    },
    {
      "inputs": [
        {
          "internalType": "uint256",
          "name": "",
          "type": "uint256"
        }
      ],
      "name": "eventCheckedInCount",
      "outputs": [
        {
          "internalType": "uint256",
          "name": "",
          "type": "uint256"
        }
      ],
      "stateMutability": "view",
      "type": "function"
    },
    {
      "inputs": [
        {
          "internalType": "uint256",
          "name": "",
          "type": "uint256"
        }
      ],
      "name": "eventCheckinGasPerTicket",
      "outputs": [
        {
          "internalType": "uint256",
          "name": "",
          "type": "uint256"
        }
      ],
      "stateMutability": "view",
      "type": "function"
    },
    {
      "inputs": [
        {
          "internalType": "uint256",
          "name": "",
          "type": "uint256"
        }
      ],
      "name": "eventCommissionRateBps",
      "outputs": [
        {
          "internalType": "uint256",
          "name": "",
          "type": "uint256"
        }
      ],
      "stateMutability": "view",
      "type": "function"
    },
    {
      "inputs": [
        {
          "internalType": "uint256",
          "name": "",
          "type": "uint256"
        }
      ],
      "name": "eventMintedCount",
      "outputs": [
        {
          "internalType": "uint256",
          "name": "",
          "type": "uint256"
        }
      ],
      "stateMutability": "view",
      "type": "function"
    },
    {
      "inputs": [
        {
          "internalType": "uint256",
          "name": "",
          "type": "uint256"
        }
      ],
      "name": "eventRelayerGasPerTicket",
      "outputs": [
        {
          "internalType": "uint256",
          "name": "",
          "type": "uint256"
        }
      ],
      "stateMutability": "view",
      "type": "function"
    },
    {
      "inputs": [
        {
          "internalType": "uint256",
          "name": "",
          "type": "uint256"
        }
      ],
      "name": "eventRelayerSoldCount",
      "outputs": [
        {
          "internalType": "uint256",
          "name": "",
          "type": "uint256"
        }
      ],
      "stateMutability": "view",
      "type": "function"
    },
    {
      "inputs": [
        {
          "internalType": "uint256",
          "name": "",
          "type": "uint256"
        }
      ],
      "name": "eventRevenue",
      "outputs": [
        {
          "internalType": "uint256",
          "name": "",
          "type": "uint256"
        }
      ],
      "stateMutability": "view",
      "type": "function"
    },
    {
      "inputs": [
        {
          "internalType": "uint256",
          "name": "",
          "type": "uint256"
        }
      ],
      "name": "events",
      "outputs": [
        {
          "internalType": "address",
          "name": "organizer",
          "type": "address"
        },
        {
          "internalType": "uint64",
          "name": "expiryTime",
          "type": "uint64"
        },
        {
          "internalType": "uint32",
          "name": "maxCapacity",
          "type": "uint32"
        },
        {
          "internalType": "uint256",
          "name": "price",
          "type": "uint256"
        },
        {
          "internalType": "bool",
          "name": "isActive",
          "type": "bool"
        }
      ],
      "stateMutability": "view",
      "type": "function"
    },
    {
      "inputs": [
        {
          "internalType": "uint256",
          "name": "eventId",
          "type": "uint256"
        },
        {
          "internalType": "uint64",
          "name": "newExpiry",
          "type": "uint64"
        }
      ],
      "name": "extendEventExpiry",
      "outputs": [],
      "stateMutability": "nonpayable",
      "type": "function"
    },
    {
      "inputs": [
        {
          "internalType": "uint256",
          "name": "",
          "type": "uint256"
        }
      ],
      "name": "fundsClaimed",
      "outputs": [
        {
          "internalType": "bool",
          "name": "",
          "type": "bool"
        }
      ],
      "stateMutability": "view",
      "type": "function"
    },
    {
      "inputs": [
        {
          "internalType": "uint256",
          "name": "tokenId",
          "type": "uint256"
        }
      ],
      "name": "getApproved",
      "outputs": [
        {
          "internalType": "address",
          "name": "",
          "type": "address"
        }
      ],
      "stateMutability": "view",
      "type": "function"
    },
    {
      "inputs": [
        {
          "internalType": "uint256[]",
          "name": "tokenIds",
          "type": "uint256[]"
        }
      ],
      "name": "getBatchTicketStatus",
      "outputs": [
        {
          "internalType": "bool[]",
          "name": "",
          "type": "bool[]"
        }
      ],
      "stateMutability": "view",
      "type": "function"
    },
    {
      "inputs": [
        {
          "internalType": "bytes32",
          "name": "role",
          "type": "bytes32"
        }
      ],
      "name": "getRoleAdmin",
      "outputs": [
        {
          "internalType": "bytes32",
          "name": "",
          "type": "bytes32"
        }
      ],
      "stateMutability": "view",
      "type": "function"
    },
    {
      "inputs": [
        {
          "internalType": "bytes32",
          "name": "role",
          "type": "bytes32"
        },
        {
          "internalType": "address",
          "name": "account",
          "type": "address"
        }
      ],
      "name": "grantRole",
      "outputs": [],
      "stateMutability": "nonpayable",
      "type": "function"
    },
    {
      "inputs": [
        {
          "internalType": "bytes32",
          "name": "role",
          "type": "bytes32"
        },
        {
          "internalType": "address",
          "name": "account",
          "type": "address"
        }
      ],
      "name": "hasRole",
      "outputs": [
        {
          "internalType": "bool",
          "name": "",
          "type": "bool"
        }
      ],
      "stateMutability": "view",
      "type": "function"
    },
    {
      "inputs": [
        {
          "internalType": "address",
          "name": "owner",
          "type": "address"
        },
        {
          "internalType": "address",
          "name": "operator",
          "type": "address"
        }
      ],
      "name": "isApprovedForAll",
      "outputs": [
        {
          "internalType": "bool",
          "name": "",
          "type": "bool"
        }
      ],
      "stateMutability": "view",
      "type": "function"
    },
    {
      "inputs": [
        {
          "internalType": "address[]",
          "name": "recipients",
          "type": "address[]"
        },
        {
          "internalType": "uint256[]",
          "name": "quantities",
          "type": "uint256[]"
        }
      ],
      "name": "mintBatchUsers",
      "outputs": [],
      "stateMutability": "nonpayable",
      "type": "function"
    },
    {
      "inputs": [
        {
          "components": [
            {
              "internalType": "uint256",
              "name": "eventId",
              "type": "uint256"
            },
            {
              "internalType": "uint256",
              "name": "quantity",
              "type": "uint256"
            },
            {
              "internalType": "uint256",
              "name": "commissionRateBps",
              "type": "uint256"
            },
            {
              "internalType": "uint256",
              "name": "relayerGasPerTicket",
              "type": "uint256"
            },
            {
              "internalType": "uint256",
              "name": "checkinGasPerTicket",
              "type": "uint256"
            },
            {
              "internalType": "uint64",
              "name": "expiryTime",
              "type": "uint64"
            },
            {
              "internalType": "uint256",
              "name": "nonce",
              "type": "uint256"
            }
          ],
          "internalType": "struct ShineTicket.MintVoucher",
          "name": "voucher",
          "type": "tuple"
        },
        {
          "internalType": "bytes",
          "name": "signature",
          "type": "bytes"
        }
      ],
      "name": "mintEventTickets",
      "outputs": [],
      "stateMutability": "nonpayable",
      "type": "function"
    },
    {
      "inputs": [],
      "name": "name",
      "outputs": [
        {
          "internalType": "string",
          "name": "",
          "type": "string"
        }
      ],
      "stateMutability": "view",
      "type": "function"
    },
    {
      "inputs": [
        {
          "internalType": "uint256",
          "name": "tokenId",
          "type": "uint256"
        }
      ],
      "name": "ownerOf",
      "outputs": [
        {
          "internalType": "address",
          "name": "",
          "type": "address"
        }
      ],
      "stateMutability": "view",
      "type": "function"
    },
    {
      "inputs": [],
      "name": "pause",
      "outputs": [],
      "stateMutability": "nonpayable",
      "type": "function"
    },
    {
      "inputs": [],
      "name": "paused",
      "outputs": [
        {
          "internalType": "bool",
          "name": "",
          "type": "bool"
        }
      ],
      "stateMutability": "view",
      "type": "function"
    },
    {
      "inputs": [
        {
          "internalType": "uint256",
          "name": "eventId",
          "type": "uint256"
        },
        {
          "internalType": "uint256",
          "name": "quantity",
          "type": "uint256"
        },
        {
          "internalType": "address",
          "name": "buyerAddress",
          "type": "address"
        }
      ],
      "name": "relayerBuyTicket",
      "outputs": [],
      "stateMutability": "nonpayable",
      "type": "function"
    },
    {
      "inputs": [
        {
          "internalType": "bytes32",
          "name": "role",
          "type": "bytes32"
        },
        {
          "internalType": "address",
          "name": "callerConfirmation",
          "type": "address"
        }
      ],
      "name": "renounceRole",
      "outputs": [],
      "stateMutability": "nonpayable",
      "type": "function"
    },
    {
      "inputs": [
        {
          "internalType": "bytes32",
          "name": "role",
          "type": "bytes32"
        },
        {
          "internalType": "address",
          "name": "account",
          "type": "address"
        }
      ],
      "name": "revokeRole",
      "outputs": [],
      "stateMutability": "nonpayable",
      "type": "function"
    },
    {
      "inputs": [
        {
          "internalType": "uint256",
          "name": "tokenId",
          "type": "uint256"
        }
      ],
      "name": "revokeTicket",
      "outputs": [],
      "stateMutability": "nonpayable",
      "type": "function"
    },
    {
      "inputs": [
        {
          "internalType": "address",
          "name": "from",
          "type": "address"
        },
        {
          "internalType": "address",
          "name": "to",
          "type": "address"
        },
        {
          "internalType": "uint256",
          "name": "tokenId",
          "type": "uint256"
        }
      ],
      "name": "safeTransferFrom",
      "outputs": [],
      "stateMutability": "payable",
      "type": "function"
    },
    {
      "inputs": [
        {
          "internalType": "address",
          "name": "from",
          "type": "address"
        },
        {
          "internalType": "address",
          "name": "to",
          "type": "address"
        },
        {
          "internalType": "uint256",
          "name": "tokenId",
          "type": "uint256"
        },
        {
          "internalType": "bytes",
          "name": "_data",
          "type": "bytes"
        }
      ],
      "name": "safeTransferFrom",
      "outputs": [],
      "stateMutability": "payable",
      "type": "function"
    },
    {
      "inputs": [
        {
          "internalType": "address",
          "name": "operator",
          "type": "address"
        },
        {
          "internalType": "bool",
          "name": "approved",
          "type": "bool"
        }
      ],
      "name": "setApprovalForAll",
      "outputs": [],
      "stateMutability": "nonpayable",
      "type": "function"
    },
    {
      "inputs": [
        {
          "internalType": "string",
          "name": "baseURI",
          "type": "string"
        }
      ],
      "name": "setBaseURI",
      "outputs": [],
      "stateMutability": "nonpayable",
      "type": "function"
    },
    {
      "inputs": [
        {
          "internalType": "uint256",
          "name": "eventId",
          "type": "uint256"
        },
        {
          "internalType": "uint256",
          "name": "commissionRateBps",
          "type": "uint256"
        },
        {
          "internalType": "uint256",
          "name": "relayerGasPerTicket",
          "type": "uint256"
        },
        {
          "internalType": "uint256",
          "name": "checkinGasPerTicket",
          "type": "uint256"
        }
      ],
      "name": "setEventCostConfig",
      "outputs": [],
      "stateMutability": "nonpayable",
      "type": "function"
    },
    {
      "inputs": [
        {
          "internalType": "uint256",
          "name": "eventId",
          "type": "uint256"
        },
        {
          "internalType": "uint256",
          "name": "price",
          "type": "uint256"
        }
      ],
      "name": "setEventPrice",
      "outputs": [],
      "stateMutability": "nonpayable",
      "type": "function"
    },
    {
      "inputs": [
        {
          "internalType": "bytes4",
          "name": "interfaceId",
          "type": "bytes4"
        }
      ],
      "name": "supportsInterface",
      "outputs": [
        {
          "internalType": "bool",
          "name": "",
          "type": "bool"
        }
      ],
      "stateMutability": "view",
      "type": "function"
    },
    {
      "inputs": [],
      "name": "symbol",
      "outputs": [
        {
          "internalType": "string",
          "name": "",
          "type": "string"
        }
      ],
      "stateMutability": "view",
      "type": "function"
    },
    {
      "inputs": [
        {
          "internalType": "uint256",
          "name": "",
          "type": "uint256"
        }
      ],
      "name": "ticketToEvent",
      "outputs": [
        {
          "internalType": "uint256",
          "name": "",
          "type": "uint256"
        }
      ],
      "stateMutability": "view",
      "type": "function"
    },
    {
      "inputs": [
        {
          "internalType": "uint256",
          "name": "",
          "type": "uint256"
        }
      ],
      "name": "ticketUsed",
      "outputs": [
        {
          "internalType": "bool",
          "name": "",
          "type": "bool"
        }
      ],
      "stateMutability": "view",
      "type": "function"
    },
    {
      "inputs": [
        {
          "internalType": "uint256",
          "name": "tokenId",
          "type": "uint256"
        }
      ],
      "name": "tokenURI",
      "outputs": [
        {
          "internalType": "string",
          "name": "",
          "type": "string"
        }
      ],
      "stateMutability": "view",
      "type": "function"
    },
    {
      "inputs": [],
      "name": "totalSupply",
      "outputs": [
        {
          "internalType": "uint256",
          "name": "result",
          "type": "uint256"
        }
      ],
      "stateMutability": "view",
      "type": "function"
    },
    {
      "inputs": [
        {
          "internalType": "address",
          "name": "from",
          "type": "address"
        },
        {
          "internalType": "address",
          "name": "to",
          "type": "address"
        },
        {
          "internalType": "uint256",
          "name": "tokenId",
          "type": "uint256"
        }
      ],
      "name": "transferFrom",
      "outputs": [],
      "stateMutability": "payable",
      "type": "function"
    },
    {
      "inputs": [],
      "name": "unpause",
      "outputs": [],
      "stateMutability": "nonpayable",
      "type": "function"
    },
    {
      "inputs": [],
      "name": "usdtToken",
      "outputs": [
        {
          "internalType": "contract IERC20",
          "name": "",
          "type": "address"
        }
      ],
      "stateMutability": "view",
      "type": "function"
    },
    {
      "inputs": [
        {
          "internalType": "uint256",
          "name": "",
          "type": "uint256"
        }
      ],
      "name": "usedNonces",
      "outputs": [
        {
          "internalType": "bool",
          "name": "",
          "type": "bool"
        }
      ],
      "stateMutability": "view",
      "type": "function"
    }
  ],
  "bytecode": "0x6101a0604052348015610010575f5ffd5b506040516144ad3803806144ad83398101604081905261002f91610372565b604080518082018252600b8082526a14da1a5b99551a58dad95d60aa1b60208084018290528451808601865260018152603160f81b818301528551808701875293845283820192909252845180860190955260058552645348494e4560d81b90850152919260026100a0838261043b565b5060036100ad828261043b565b505060015f55506100bf82600b61023d565b610120526100ce81600c61023d565b61014052815160208084019190912060e052815190820120610100524660a05261015a60e05161010051604080517f8b73c3c69bb8fe3d512ecc4cf759cc79239f7b179b0ffacaa9a75d522b39400f60208201529081019290925260608201524660808201523060a08201525f9060c00160405160208183030381529060405280519060200120905090565b60805250503060c0526001600d556001600160a01b0381166101c35760405162461bcd60e51b815260206004820152601460248201527f496e76616c69642055534454206164647265737300000000000000000000000060448201526064015b60405180910390fd5b6001600160a01b0382166102195760405162461bcd60e51b815260206004820152601560248201527f496e76616c69642061646d696e2061646472657373000000000000000000000060448201526064016101ba565b6102235f8361026f565b506001600160a01b0390811661016052166101805261054d565b5f602083511015610258576102518361031a565b9050610269565b81610263848261043b565b5060ff90505b92915050565b5f8281526009602090815260408083206001600160a01b038516845290915281205460ff16610313575f8381526009602090815260408083206001600160a01b03861684529091529020805460ff191660011790556102cb3390565b6001600160a01b0316826001600160a01b0316847f2f8788117e7eff1d82e926ec794901d17c78024a50270940304540a733656f0d60405160405180910390a4506001610269565b505f610269565b5f5f829050601f81511115610344578260405163305a27a960e01b81526004016101ba91906104f5565b805161034f8261052a565b179392505050565b80516001600160a01b038116811461036d575f5ffd5b919050565b5f5f60408385031215610383575f5ffd5b61038c83610357565b915061039a60208401610357565b90509250929050565b634e487b7160e01b5f52604160045260245ffd5b600181811c908216806103cb57607f821691505b6020821081036103e957634e487b7160e01b5f52602260045260245ffd5b50919050565b601f82111561043657805f5260205f20601f840160051c810160208510156104145750805b601f840160051c820191505b81811015610433575f8155600101610420565b50505b505050565b81516001600160401b03811115610454576104546103a3565b6104688161046284546103b7565b846103ef565b6020601f82116001811461049a575f83156104835750848201515b5f19600385901b1c1916600184901b178455610433565b5f84815260208120601f198516915b828110156104c957878501518255602094850194600190920191016104a9565b50848210156104e657868401515f19600387901b60f8161c191681555b50505050600190811b01905550565b602081525f82518060208401528060208501604085015e5f604082850101526040601f19601f83011684010191505092915050565b805160208083015191908110156103e9575f1960209190910360031b1b16919050565b60805160a05160c05160e0516101005161012051610140516101605161018051613ed86105d55f395f81816108ef015261117801525f818161099e0152818161109d015281816111a70152818161152c015261190401525f612c6501525f612c3301525f61325b01525f61323301525f61318e01525f6131b801525f6131e20152613ed85ff3fe60806040526004361061035b575f3560e01c80637909cb59116101bd578063ad7eb667116100f2578063d29ab4d111610092578063e95a644f1161006d578063e95a644f14610b03578063e985e9c514610b22578063f5b541a614610b69578063f6ac04da14610b9c575f5ffd5b8063d29ab4d114610a9a578063d547741f14610ac5578063dc68cba514610ae4575f5ffd5b8063b955e4ad116100cd578063b955e4ad14610a11578063c3439f3f14610a3c578063c87b56dd14610a5c578063cb0c800514610a7b575f5ffd5b8063ad7eb667146109c0578063afc573b1146109df578063b88d4fde146109fe575f5ffd5b806395d89b411161015d578063a1e234d311610138578063a1e234d314610930578063a217fddf1461095b578063a22cb4651461096e578063a98ad46c1461098d575f5ffd5b806395d89b41146108ca57806396cad0db146108de5780639b9ac6c314610911575f5ffd5b80638bc1344b116101985780638bc1344b1461082e57806391d148541461085957806394739e8714610878578063947e59b4146108ab575f5ffd5b80637909cb59146107c05780638456cb59146107f357806384b0196e14610807575f5ffd5b80632f2ff15d116102935780635c975abb116102335780636717e41c1161020e5780636717e41c1461072957806367234254146107575780636fa605e31461077657806370a08231146107a1575f5ffd5b80635c975abb146106c55780636352211e146106dc578063642b5f9b146106fb575f5ffd5b806342842e0e1161026e57806342842e0e1461064957806353d49cc71461065c57806355f804b31461067b57806357b9bae81461069a575f5ffd5b80632f2ff15d146105f757806336568abe146106165780633f4ba83a14610635575f5ffd5b806319fcf7cb116102fe578063248a9ca3116102d9578063248a9ca31461056057806326abfeba1461058e578063298ec208146105b95780632b07ee8a146105d8575f5ffd5b806319fcf7cb146105025780631b55e3381461052e57806323b872dd1461054d575f5ffd5b8063095ea7b311610339578063095ea7b3146103eb5780630b79143014610400578063157285b9146104ab57806318160ddd146104d9575f5ffd5b806301ffc9a71461035f57806306fdde0314610393578063081812fc146103b4575b5f5ffd5b34801561036a575f5ffd5b5061037e6103793660046134ed565b610bc7565b60405190151581526020015b60405180910390f35b34801561039e575f5ffd5b506103a7610bd7565b60405161038a9190613536565b3480156103bf575f5ffd5b506103d36103ce366004613548565b610c67565b6040516001600160a01b03909116815260200161038a565b6103fe6103f9366004613575565b610ca0565b005b34801561040b575f5ffd5b5061046461041a366004613548565b600e6020525f90815260409020805460018201546002909201546001600160a01b03821692600160a01b83046001600160401b031692600160e01b900463ffffffff169160ff1685565b604080516001600160a01b0390961686526001600160401b03909416602086015263ffffffff9092169284019290925260608301919091521515608082015260a00161038a565b3480156104b6575f5ffd5b5061037e6104c5366004613548565b60196020525f908152604090205460ff1681565b3480156104e4575f5ffd5b506104f46001545f54035f190190565b60405190815260200161038a565b34801561050d575f5ffd5b5061052161051c3660046135e4565b610cb0565b60405161038a9190613622565b348015610539575f5ffd5b506103fe610548366004613548565b610db7565b6103fe61055b366004613666565b611276565b34801561056b575f5ffd5b506104f461057a366004613548565b5f9081526009602052604090206001015490565b348015610599575f5ffd5b506104f46105a8366004613548565b60166020525f908152604090205481565b3480156105c4575f5ffd5b506103fe6105d33660046136a0565b6113e7565b3480156105e3575f5ffd5b506103fe6105f23660046136d6565b61164d565b348015610602575f5ffd5b506103fe610611366004613700565b6116f3565b348015610621575f5ffd5b506103fe610630366004613700565b61171d565b348015610640575f5ffd5b506103fe611755565b6103fe610657366004613666565b611767565b348015610667575f5ffd5b506103fe61067636600461375e565b611781565b348015610686575f5ffd5b506103fe6106953660046137b4565b611794565b3480156106a5575f5ffd5b506104f46106b4366004613548565b60176020525f908152604090205481565b3480156106d0575f5ffd5b50600a5460ff1661037e565b3480156106e7575f5ffd5b506103d36106f6366004613548565b6117ab565b348015610706575f5ffd5b5061037e610715366004613548565b600f6020525f908152604090205460ff1681565b348015610734575f5ffd5b5061037e610743366004613548565b60106020525f908152604090205460ff1681565b348015610762575f5ffd5b506103fe6107713660046137e6565b6117b5565b348015610781575f5ffd5b506104f4610790366004613548565b60126020525f908152604090205481565b3480156107ac575f5ffd5b506104f46107bb366004613818565b611a48565b3480156107cb575f5ffd5b506104f47f4d2e7a1e3f5dd6e203f087b15756ccf0e4ccd947fe1b639a38540089a1e47f6381565b3480156107fe575f5ffd5b506103fe611a8b565b348015610812575f5ffd5b5061081b611a9d565b60405161038a979695949392919061386b565b348015610839575f5ffd5b506104f4610848366004613548565b60146020525f908152604090205481565b348015610864575f5ffd5b5061037e610873366004613700565b611adf565b348015610883575f5ffd5b506104f47f747f22a7468bc4d84db260e0727783c637ad885a807bc25fd862064290d45b8c81565b3480156108b6575f5ffd5b506103fe6108c5366004613548565b611b09565b3480156108d5575f5ffd5b506103a7611b24565b3480156108e9575f5ffd5b506103d37f000000000000000000000000000000000000000000000000000000000000000081565b34801561091c575f5ffd5b506103fe61092b3660046135e4565b611b33565b34801561093b575f5ffd5b506104f461094a366004613548565b60156020525f908152604090205481565b348015610966575f5ffd5b506104f45f81565b348015610979575f5ffd5b506103fe6109883660046138e7565b611cbe565b348015610998575f5ffd5b506103d37f000000000000000000000000000000000000000000000000000000000000000081565b3480156109cb575f5ffd5b506103fe6109da36600461391c565b611d29565b3480156109ea575f5ffd5b506103fe6109f93660046139b4565b611e5a565b6103fe610a0c366004613a1a565b611f0d565b348015610a1c575f5ffd5b506104f4610a2b366004613548565b60136020525f908152604090205481565b348015610a47575f5ffd5b506104f45f516020613e835f395f51905f5281565b348015610a67575f5ffd5b506103a7610a76366004613548565b611f48565b348015610a86575f5ffd5b506103fe610a95366004613af4565b611fc0565b348015610aa5575f5ffd5b506104f4610ab4366004613548565b60186020525f908152604090205481565b348015610ad0575f5ffd5b506103fe610adf366004613700565b6120ac565b348015610aef575f5ffd5b506103fe610afe3660046136a0565b6120d0565b348015610b0e575f5ffd5b506103fe610b1d366004613548565b612141565b348015610b2d575f5ffd5b5061037e610b3c366004613b23565b6001600160a01b039182165f90815260076020908152604080832093909416825291909152205460ff1690565b348015610b74575f5ffd5b506104f47f97667070c54ef182b0f5858b034beac1b6f3089aa2d3188bb1e8929f4fa9b92981565b348015610ba7575f5ffd5b506104f4610bb6366004613548565b60116020525f908152604090205481565b5f610bd18261234d565b92915050565b606060028054610be690613b4b565b80601f0160208091040260200160405190810160405280929190818152602001828054610c1290613b4b565b8015610c5d5780601f10610c3457610100808354040283529160200191610c5d565b820191905f5260205f20905b815481529060010190602001808311610c4057829003601f168201915b5050505050905090565b5f610c7182612381565b610c8557610c856333d1c03960e21b6123cb565b505f908152600660205260409020546001600160a01b031690565b610cac828260016123d3565b5050565b60605f826001600160401b03811115610ccb57610ccb613a06565b604051908082528060200260200182016040528015610cf4578160200160208202803683370190505b5090505f5b83811015610daf57610d22858583818110610d1657610d16613b83565b90506020020135612381565b610d4e575f828281518110610d3957610d39613b83565b91151560209283029190910190910152610da7565b600f5f868684818110610d6357610d63613b83565b9050602002013581526020019081526020015f205f9054906101000a900460ff16828281518110610d9657610d96613b83565b911515602092830291909101909101525b600101610cf9565b509392505050565b610dbf612474565b610dc761249e565b5f818152600e6020908152604091829020825160a08101845281546001600160a01b038116808352600160a01b82046001600160401b031694830194909452600160e01b900463ffffffff1693810193909352600181015460608401526002015460ff16151560808301523314610e855760405162461bcd60e51b815260206004820152601860248201527f4f6e6c79206f7267616e697a65722063616e20636c61696d000000000000000060448201526064015b60405180910390fd5b80602001516001600160401b03164211610ed75760405162461bcd60e51b8152602060048201526013602482015272115d995b9d081b9bdd08195b991959081e595d606a1b6044820152606401610e7c565b5f8281526019602052604090205460ff1615610f2d5760405162461bcd60e51b8152602060048201526015602482015274119d5b991cc8185b1c9958591e4818db185a5b5959605a1b6044820152606401610e7c565b5f828152601960209081526040808320805460ff19166001179055601290915290205480610f935760405162461bcd60e51b81526020600482015260136024820152724e6f20726576656e756520746f20636c61696d60681b6044820152606401610e7c565b5f8381526013602052604081205461271090610faf9084613bab565b610fb99190613bc2565b5f8581526015602090815260408083205460189092528220549293509091610fe19190613bab565b5f868152601460209081526040808320546017909252909120546110059190613bab565b61100f9190613be1565b90505f61101c8284613be1565b90508084101561106e5760405162461bcd60e51b815260206004820181905260248201527f526576656e7565206973206c657373207468616e2073797374656d20666565736044820152606401610e7c565b5f6110798286613bf4565b9050801561115b5760405163a9059cbb60e01b8152336004820152602481018290527f00000000000000000000000000000000000000000000000000000000000000006001600160a01b03169063a9059cbb906044016020604051808303815f875af11580156110eb573d5f5f3e3d5ffd5b505050506040513d601f19601f8201168201806040525081019061110f9190613c07565b61115b5760405162461bcd60e51b815260206004820152601960248201527f4f7267616e697a6572207472616e73666572206661696c6564000000000000006044820152606401610e7c565b81156112555760405163a9059cbb60e01b81526001600160a01b037f000000000000000000000000000000000000000000000000000000000000000081166004830152602482018490527f0000000000000000000000000000000000000000000000000000000000000000169063a9059cbb906044016020604051808303815f875af11580156111ed573d5f5f3e3d5ffd5b505050506040513d601f19601f820116820180604052508101906112119190613c07565b6112555760405162461bcd60e51b815260206004820152601560248201527410591b5a5b881d1c985b9cd9995c8819985a5b1959605a1b6044820152606401610e7c565b5050505f848152601260205260408120555061127391506124c49050565b50565b5f611280826124cb565b6001600160a01b0394851694909150811684146112a6576112a662a1148160e81b6123cb565b5f82815260066020526040902080546112d18187335b6001600160a01b039081169116811491141790565b6112f3576112df8633610b3c565b6112f3576112f3632ce44b5f60e11b6123cb565b6113008686866001612564565b801561130a575f82555b6001600160a01b038681165f9081526005602052604080822080545f19019055918716808252919020805460010190554260a01b17600160e11b175f85815260046020526040812091909155600160e11b8416900361139657600184015f818152600460205260408120549003611394575f548114611394575f8181526004602052604090208490555b505b6001600160a01b0385168481887fddf252ad1be2c89b69c2b068fc378daa952ba7f163c4a11628f55a4df523b3ef5f80a4805f036113de576113de633a954ecd60e21b6123cb565b50505050505050565b6113ef61249e565b6113f7612474565b5f828152600e6020908152604091829020825160a08101845281546001600160a01b0381168252600160a01b81046001600160401b031693820193909352600160e01b90920463ffffffff16928201929092526001820154606082015260029091015460ff161515608082018190526114a85760405162461bcd60e51b81526020600482015260136024820152724576656e74206973206e6f742061637469766560681b6044820152606401610e7c565b5f8282606001516114b99190613bab565b90505f811161150a5760405162461bcd60e51b815260206004820152601e60248201527f5072696365206e6f7420736574206f72207175616e74697479207a65726f00006044820152606401610e7c565b6040516323b872dd60e01b8152336004820152306024820152604481018290527f00000000000000000000000000000000000000000000000000000000000000006001600160a01b0316906323b872dd906064016020604051808303815f875af115801561157a573d5f5f3e3d5ffd5b505050506040513d601f19601f8201168201806040525081019061159e9190613c07565b6115e15760405162461bcd60e51b81526020600482015260146024820152731554d115081d1c985b9cd9995c8819985a5b195960621b6044820152606401610e7c565b5f84815260126020526040812080548392906115fe908490613be1565b90915550505f5461160f33856126fe565b5f5b8481101561163f578560115f6116278486613be1565b815260208101919091526040015f2055600101611611565b50505050610cac6001600d55565b5f61165781612717565b61165f61249e565b5f838152600e60205260409020546001600160a01b03166116b95760405162461bcd60e51b8152602060048201526014602482015273115d995b9d08191bd95cc81b9bdd08195e1a5cdd60621b6044820152606401610e7c565b505f918252600e602052604090912080546001600160401b03909216600160a01b0267ffffffffffffffff60a01b19909216919091179055565b5f8281526009602052604090206001015461170d81612717565b6117178383612721565b50505050565b6001600160a01b03811633146117465760405163334bd91960e11b815260040160405180910390fd5b61175082826127b2565b505050565b5f61175f81612717565b61127361281d565b61175083838360405180602001604052805f815250611f0d565b61178961249e565b61175083838361286f565b5f61179e81612717565b601a611717838583613c66565b5f610bd1826124cb565b5f6117bf81612717565b6117c761249e565b6117cf612474565b5f848152600e6020908152604091829020825160a08101845281546001600160a01b0381168252600160a01b81046001600160401b031693820193909352600160e01b90920463ffffffff16928201929092526001820154606082015260029091015460ff161515608082018190526118805760405162461bcd60e51b81526020600482015260136024820152724576656e74206973206e6f742061637469766560681b6044820152606401610e7c565b5f8482606001516118919190613bab565b90505f81116118e25760405162461bcd60e51b815260206004820152601e60248201527f5072696365206e6f7420736574206f72207175616e74697479207a65726f00006044820152606401610e7c565b6040516323b872dd60e01b8152336004820152306024820152604481018290527f00000000000000000000000000000000000000000000000000000000000000006001600160a01b0316906323b872dd906064016020604051808303815f875af1158015611952573d5f5f3e3d5ffd5b505050506040513d601f19601f820116820180604052508101906119769190613c07565b6119b95760405162461bcd60e51b81526020600482015260146024820152731554d115081d1c985b9cd9995c8819985a5b195960621b6044820152606401610e7c565b5f86815260126020526040812080548392906119d6908490613be1565b90915550505f546119e785876126fe565b5f5b86811015611a17578760115f6119ff8486613be1565b815260208101919091526040015f20556001016119e9565b505f8781526017602052604081208054889290611a35908490613be1565b90915550506001600d5550611717915050565b5f6001600160a01b038216611a6757611a676323d3ad8160e21b6123cb565b506001600160a01b03165f908152600560205260409020546001600160401b031690565b5f611a9581612717565b611273612bef565b5f6060805f5f5f6060611aae612c2c565b611ab6612c5e565b604080515f80825260208201909252600f60f81b9b939a50919850469750309650945092509050565b5f9182526009602090815260408084206001600160a01b0393909316845291905290205460ff1690565b5f611b1381612717565b611b1b61249e565b610cac82612c8b565b606060038054610be690613b4b565b7f97667070c54ef182b0f5858b034beac1b6f3089aa2d3188bb1e8929f4fa9b929611b5d81612717565b611b6561249e565b5f5b82811015611c7d575f848483818110611b8257611b82613b83565b602090810292909201355f8181526011909352604090922054919250508015611c09575f818152600e6020526040902054600160a01b90046001600160401b0316421115611c095760405162461bcd60e51b8152602060048201526014602482015273115d995b9d081d1a58dad95d08195e1c1a5c995960621b6044820152606401610e7c565b611c1282612381565b8015611c2c57505f828152600f602052604090205460ff16155b15611c73575f828152600f60205260409020805460ff191660011790558015611c73575f818152601860205260408120805460019290611c6d908490613be1565b90915550505b5050600101611b67565b507f0e862c2630b0e020ea8c569930ac577d3c103fdb452386c869484d2b2cb73881838342604051611cb193929190613d1f565b60405180910390a1505050565b335f8181526007602090815260408083206001600160a01b03871680855290835292819020805460ff191686151590811790915590519081529192917f17307eab39ab6107e8899845ad3d59bd9653f200f220920489ca2b5937696c31910160405180910390a35050565b611d3161249e565b82611d6d5760405162461bcd60e51b815260206004820152600c60248201526b456d7074792061727261797360a01b6044820152606401610e7c565b828114611dac5760405162461bcd60e51b815260206004820152600d60248201526c088c2e8c240dad2e6dac2e8c6d609b1b6044820152606401610e7c565b6032831115611dfd5760405162461bcd60e51b815260206004820152601860248201527f42617463682073697a652065786365656473206c696d697400000000000000006044820152606401610e7c565b5f5b83811015611e5357611e4b858583818110611e1c57611e1c613b83565b905060e00201848484818110611e3457611e34613b83565b9050602002810190611e469190613d5b565b61286f565b600101611dff565b5050505050565b5f611e6481612717565b611e6c61249e565b838214611eab5760405162461bcd60e51b815260206004820152600d60248201526c088c2e8c240dad2e6dac2e8c6d609b1b6044820152606401610e7c565b5f5b84811015611f0557611efd868683818110611eca57611eca613b83565b9050602002016020810190611edf9190613818565b858584818110611ef157611ef1613b83565b905060200201356126fe565b600101611ead565b505050505050565b611f18848484611276565b6001600160a01b0383163b1561171757611f3484848484612c95565b611717576117176368d2bf6b60e11b6123cb565b6060611f5382612381565b611f6757611f67630a14c4b560e41b6123cb565b5f611f70612d74565b905080515f03611f8e5760405180602001604052805f815250611fb9565b80611f9884612d83565b604051602001611fa9929190613db4565b6040516020818303038152906040525b9392505050565b5f611fca81612717565b611fd261249e565b5f858152600e60205260409020546001600160a01b031661202c5760405162461bcd60e51b8152602060048201526014602482015273115d995b9d08191bd95cc81b9bdd08195e1a5cdd60621b6044820152606401610e7c565b5f8581526019602052604090205460ff16156120825760405162461bcd60e51b8152602060048201526015602482015274119d5b991cc8185b1c9958591e4818db185a5b5959605a1b6044820152606401610e7c565b505f9384526013602090815260408086209490945560148152838520929092556015909152912055565b5f828152600960205260409020600101546120c681612717565b61171783836127b2565b6120d861249e565b5f828152600e60205260409020546001600160a01b0316331461212d5760405162461bcd60e51b815260206004820152600d60248201526c2737ba1037b933b0b734bd32b960991b6044820152606401610e7c565b5f918252600e602052604090912060010155565b7f97667070c54ef182b0f5858b034beac1b6f3089aa2d3188bb1e8929f4fa9b92961216b81612717565b61217361249e565b5f8281526011602052604090205480156121eb575f818152600e6020526040902054600160a01b90046001600160401b03164211156121eb5760405162461bcd60e51b8152602060048201526014602482015273115d995b9d081d1a58dad95d08195e1c1a5c995960621b6044820152606401610e7c565b6121f483612381565b6122385760405162461bcd60e51b8152602060048201526015602482015274151a58dad95d08191bd95cc81b9bdd08195e1a5cdd605a1b6044820152606401610e7c565b5f838152600f602052604090205460ff161561228c5760405162461bcd60e51b8152602060048201526013602482015272151a58dad95d08185b1c9958591e481d5cd959606a1b6044820152606401610e7c565b5f838152600f60205260409020805460ff1916600117905580156122ce575f8181526018602052604081208054600192906122c8908490613be1565b90915550505b6040805160018082528183019092525f916020808301908036833701905050905083815f8151811061230257612302613b83565b6020026020010181815250507f0e862c2630b0e020ea8c569930ac577d3c103fdb452386c869484d2b2cb73881814260405161233f929190613dc8565b60405180910390a150505050565b5f6001600160e01b03198216637965db0b60e01b1480610bd157506301ffc9a760e01b6001600160e01b0319831614610bd1565b5f816001116123c6575f548210156123c6575f5b505f82815260046020526040812054908190036123bc576123b583613de9565b9250612395565b600160e01b161590505b919050565b805f5260045ffd5b5f6123dd836117ab565b90508180156123f55750336001600160a01b03821614155b15612418576124048133610b3c565b612418576124186367d9dca160e11b6123cb565b5f8381526006602052604080822080546001600160a01b0319166001600160a01b0388811691821790925591518693918516917f8c5be1e5ebec7d5bd14f71427d1e84f3dd0314c0f7b2291e5b200ac8c7c3b92591a450505050565b6002600d540361249757604051633ee5aeb560e01b815260040160405180910390fd5b6002600d55565b600a5460ff16156124c25760405163d93c066560e01b815260040160405180910390fd5b565b6001600d55565b5f8160011161255457505f81815260046020526040902054805f03612542575f54821061250257612502636f96cda160e11b6123cb565b5b505f19015f81815260046020526040902054801561250357600160e01b81165f0361252d57919050565b61253d636f96cda160e11b6123cb565b612503565b600160e01b81165f0361255457919050565b6123c6636f96cda160e11b6123cb565b61256c61249e565b6001600160a01b0384161580159061258c57506001600160a01b03831615155b156126f9575f61259c8186611adf565b806125ac57506125ac5f85611adf565b806125c957506125c95f516020613e835f395f51905f5286611adf565b806125e657506125e65f516020613e835f395f51905f5285611adf565b8061260357506126035f516020613e835f395f51905f5233611adf565b90508061266d5760405162461bcd60e51b815260206004820152603260248201527f5472616e73666572206c6f636b65643a204f6e6c79204f6666696369616c204d604482015271185c9ad95d1c1b1858d948185b1b1bddd95960721b6064820152608401610e7c565b5f5b828110156126f657600f5f6126848387613be1565b815260208101919091526040015f205460ff16156126ee5760405162461bcd60e51b815260206004820152602160248201527f55736564207469636b65742063616e6e6f74206265207472616e7366657272656044820152601960fa1b6064820152608401610e7c565b60010161266f565b50505b611717565b610cac828260405180602001604052805f815250612dc6565b6112738133612e1f565b5f61272c8383611adf565b6127ab575f8381526009602090815260408083206001600160a01b03861684529091529020805460ff191660011790556127633390565b6001600160a01b0316826001600160a01b0316847f2f8788117e7eff1d82e926ec794901d17c78024a50270940304540a733656f0d60405160405180910390a4506001610bd1565b505f610bd1565b5f6127bd8383611adf565b156127ab575f8381526009602090815260408083206001600160a01b0386168085529252808320805460ff1916905551339286917ff6391f5c32d9c69d2a47ea670b442974b53935d1edc7fd64eb21e047a839171b9190a4506001610bd1565b612825612e58565b600a805460ff191690557f5db9ee0a495bf2e6ff9c91a7834c1ba4fdd244a5e8aa4e537bd38aeae4b073aa335b6040516001600160a01b03909116815260200160405180910390a1565b60c08301355f9081526010602052604090205460ff16156128d25760405162461bcd60e51b815260206004820152601d60248201527f566f75636865722068617320616c7265616479206265656e20757365640000006044820152606401610e7c565b60c0830180355f908152601060209081526040808320805460ff1916600117905591926129a8927f747f22a7468bc4d84db260e0727783c637ad885a807bc25fd862064290d45b8c9288359290890135918901359060608a01359060808b0135906129409060a08d01613dfe565b6040805160208101989098528701959095526060860193909352608085019190915260a084015260c0838101919091526001600160401b0390911660e08301528601356101008201526101200160405160208183030381529060405280519060200120612e7b565b90505f6129ea8285858080601f0160208091040260200160405190810160405280939291908181526020018383808284375f92019190915250612ea792505050565b90506129f65f82611adf565b612a425760405162461bcd60e51b815260206004820152601c60248201527f496e76616c6964207369676e61747572652066726f6d2041646d696e000000006044820152606401610e7c565b84355f908152600e60205260409020546001600160a01b0316612b065784355f908152600e6020526040902080546001600160a01b03191633179055612a8e60c0860160a08701613dfe565b85355f908152600e6020908152604080832080546001600160401b0395909516600160a01b0267ffffffffffffffff60a01b199095169490941784556002909301805460ff19166001179055601381528282208389013590556014815282822060608901359055601590522060808601359055612b77565b84355f908152600e60205260409020546001600160a01b03163314612b775760405162461bcd60e51b815260206004820152602160248201527f43616c6c6572206973206e6f7420746865206576656e74206f7267616e697a656044820152603960f91b6064820152608401610e7c565b5f54612b873360208801356126fe565b5f5b8660200135811015612bbc57863560115f612ba48486613be1565b815260208101919091526040015f2055600101612b89565b5085355f9081526016602090815260408220805491890135929091612be2908490613be1565b9091555050505050505050565b612bf761249e565b600a805460ff191660011790557f62e78cea01bee320cd4e420270b5ea74000d11b0c9f74754ebdbfc544b05a2586128523390565b6060612c597f0000000000000000000000000000000000000000000000000000000000000000600b612ecf565b905090565b6060612c597f0000000000000000000000000000000000000000000000000000000000000000600c612ecf565b611273815f612f78565b604051630a85bd0160e11b81525f906001600160a01b0385169063150b7a0290612cc9903390899088908890600401613e17565b6020604051808303815f875af1925050508015612d03575060408051601f3d908101601f19168201909252612d0091810190613e53565b60015b612d56573d808015612d30576040519150601f19603f3d011682016040523d82523d5f602084013e612d35565b606091505b5080515f03612d4e57612d4e6368d2bf6b60e11b6123cb565b805181602001fd5b6001600160e01b031916630a85bd0160e11b1490505b949350505050565b6060601a8054610be690613b4b565b606060a06040510180604052602081039150505f815280825b600183039250600a81066030018353600a900480612d9c5750819003601f19909101908152919050565b612dd083836130bc565b6001600160a01b0383163b15611750575f548281035b612df85f868380600101945086612c95565b612e0c57612e0c6368d2bf6b60e11b6123cb565b818110612de657815f5414611e53575f5ffd5b612e298282611adf565b610cac5760405163e2517d3f60e01b81526001600160a01b038216600482015260248101839052604401610e7c565b600a5460ff166124c257604051638dfc202b60e01b815260040160405180910390fd5b5f610bd1612e87613182565b8360405161190160f01b8152600281019290925260228201526042902090565b5f5f5f5f612eb586866132ab565b925092509250612ec582826132f4565b5090949350505050565b606060ff8314612ee957612ee2836133ac565b9050610bd1565b818054612ef590613b4b565b80601f0160208091040260200160405190810160405280929190818152602001828054612f2190613b4b565b8015612f6c5780601f10612f4357610100808354040283529160200191612f6c565b820191905f5260205f20905b815481529060010190602001808311612f4f57829003601f168201915b50505050509050610bd1565b5f612f82836124cb565b9050805f80612f9e865f90815260066020526040902080549091565b915091508415612fd557612fb38184336112bc565b612fd557612fc18333610b3c565b612fd557612fd5632ce44b5f60e11b6123cb565b612fe2835f886001612564565b8015612fec575f82555b6001600160a01b0383165f81815260056020526040902080546fffffffffffffffffffffffffffffffff0190554260a01b17600360e01b175f87815260046020526040812091909155600160e11b8516900361307557600186015f818152600460205260408120549003613073575f548114613073575f8181526004602052604090208590555b505b60405186905f906001600160a01b038616907fddf252ad1be2c89b69c2b068fc378daa952ba7f163c4a11628f55a4df523b3ef908390a45050600180548101905550505050565b5f8054908290036130d7576130d763b562e8dd60e01b6123cb565b6130e35f848385612564565b5f8181526004602090815260408083206001600160a01b0387164260a01b6001881460e11b1781179091558084526005909252822080546801000000000000000186020190559081900361314057613140622e076360e81b6123cb565b818301825b80835f7fddf252ad1be2c89b69c2b068fc378daa952ba7f163c4a11628f55a4df523b3ef5f5fa481816001019150810361314557505f5550505050565b5f306001600160a01b037f0000000000000000000000000000000000000000000000000000000000000000161480156131da57507f000000000000000000000000000000000000000000000000000000000000000046145b1561320457507f000000000000000000000000000000000000000000000000000000000000000090565b612c59604080517f8b73c3c69bb8fe3d512ecc4cf759cc79239f7b179b0ffacaa9a75d522b39400f60208201527f0000000000000000000000000000000000000000000000000000000000000000918101919091527f000000000000000000000000000000000000000000000000000000000000000060608201524660808201523060a08201525f9060c00160405160208183030381529060405280519060200120905090565b5f5f5f83516041036132e2576020840151604085015160608601515f1a6132d4888285856133e9565b9550955095505050506132ed565b505081515f91506002905b9250925092565b5f82600381111561330757613307613e6e565b03613310575050565b600182600381111561332457613324613e6e565b036133425760405163f645eedf60e01b815260040160405180910390fd5b600282600381111561335657613356613e6e565b036133775760405163fce698f760e01b815260048101829052602401610e7c565b600382600381111561338b5761338b613e6e565b03610cac576040516335e2f38360e21b815260048101829052602401610e7c565b60605f6133b8836134b1565b6040805160208082528183019092529192505f91906020820181803683375050509182525060208101929092525090565b5f80807f7fffffffffffffffffffffffffffffff5d576e7357a4501ddfe92f46681b20a084111561342257505f915060039050826134a7565b604080515f808252602082018084528a905260ff891692820192909252606081018790526080810186905260019060a0016020604051602081039080840390855afa158015613473573d5f5f3e3d5ffd5b5050604051601f1901519150506001600160a01b03811661349e57505f9250600191508290506134a7565b92505f91508190505b9450945094915050565b5f60ff8216601f811115610bd157604051632cd44ac360e21b815260040160405180910390fd5b6001600160e01b031981168114611273575f5ffd5b5f602082840312156134fd575f5ffd5b8135611fb9816134d8565b5f81518084528060208401602086015e5f602082860101526020601f19601f83011685010191505092915050565b602081525f611fb96020830184613508565b5f60208284031215613558575f5ffd5b5035919050565b80356001600160a01b03811681146123c6575f5ffd5b5f5f60408385031215613586575f5ffd5b61358f8361355f565b946020939093013593505050565b5f5f83601f8401126135ad575f5ffd5b5081356001600160401b038111156135c3575f5ffd5b6020830191508360208260051b85010111156135dd575f5ffd5b9250929050565b5f5f602083850312156135f5575f5ffd5b82356001600160401b0381111561360a575f5ffd5b6136168582860161359d565b90969095509350505050565b602080825282518282018190525f918401906040840190835b8181101561365b578351151583526020938401939092019160010161363b565b509095945050505050565b5f5f5f60608486031215613678575f5ffd5b6136818461355f565b925061368f6020850161355f565b929592945050506040919091013590565b5f5f604083850312156136b1575f5ffd5b50508035926020909101359150565b80356001600160401b03811681146123c6575f5ffd5b5f5f604083850312156136e7575f5ffd5b823591506136f7602084016136c0565b90509250929050565b5f5f60408385031215613711575f5ffd5b823591506136f76020840161355f565b5f5f83601f840112613731575f5ffd5b5081356001600160401b03811115613747575f5ffd5b6020830191508360208285010111156135dd575f5ffd5b5f5f5f838503610100811215613772575f5ffd5b60e081121561377f575f5ffd5b5083925060e08401356001600160401b0381111561379b575f5ffd5b6137a786828701613721565b9497909650939450505050565b5f5f602083850312156137c5575f5ffd5b82356001600160401b038111156137da575f5ffd5b61361685828601613721565b5f5f5f606084860312156137f8575f5ffd5b833592506020840135915061380f6040850161355f565b90509250925092565b5f60208284031215613828575f5ffd5b611fb98261355f565b5f8151808452602084019350602083015f5b82811015613861578151865260209586019590910190600101613843565b5093949350505050565b60ff60f81b8816815260e060208201525f61388960e0830189613508565b828103604084015261389b8189613508565b606084018890526001600160a01b038716608085015260a0840186905283810360c085015290506138cc8185613831565b9a9950505050505050505050565b8015158114611273575f5ffd5b5f5f604083850312156138f8575f5ffd5b6139018361355f565b91506020830135613911816138da565b809150509250929050565b5f5f5f5f6040858703121561392f575f5ffd5b84356001600160401b03811115613944575f5ffd5b8501601f81018713613954575f5ffd5b80356001600160401b03811115613969575f5ffd5b87602060e08302840101111561397d575f5ffd5b6020918201955093508501356001600160401b0381111561399c575f5ffd5b6139a88782880161359d565b95989497509550505050565b5f5f5f5f604085870312156139c7575f5ffd5b84356001600160401b038111156139dc575f5ffd5b6139e88782880161359d565b90955093505060208501356001600160401b0381111561399c575f5ffd5b634e487b7160e01b5f52604160045260245ffd5b5f5f5f5f60808587031215613a2d575f5ffd5b613a368561355f565b9350613a446020860161355f565b92506040850135915060608501356001600160401b03811115613a65575f5ffd5b8501601f81018713613a75575f5ffd5b80356001600160401b03811115613a8e57613a8e613a06565b604051601f8201601f19908116603f011681016001600160401b0381118282101715613abc57613abc613a06565b604052818152828201602001891015613ad3575f5ffd5b816020840160208301375f6020838301015280935050505092959194509250565b5f5f5f5f60808587031215613b07575f5ffd5b5050823594602084013594506040840135936060013592509050565b5f5f60408385031215613b34575f5ffd5b613b3d8361355f565b91506136f76020840161355f565b600181811c90821680613b5f57607f821691505b602082108103613b7d57634e487b7160e01b5f52602260045260245ffd5b50919050565b634e487b7160e01b5f52603260045260245ffd5b634e487b7160e01b5f52601160045260245ffd5b8082028115828204841417610bd157610bd1613b97565b5f82613bdc57634e487b7160e01b5f52601260045260245ffd5b500490565b80820180821115610bd157610bd1613b97565b81810381811115610bd157610bd1613b97565b5f60208284031215613c17575f5ffd5b8151611fb9816138da565b601f82111561175057805f5260205f20601f840160051c81016020851015613c475750805b601f840160051c820191505b81811015611e53575f8155600101613c53565b6001600160401b03831115613c7d57613c7d613a06565b613c9183613c8b8354613b4b565b83613c22565b5f601f841160018114613cc2575f8515613cab5750838201355b5f19600387901b1c1916600186901b178355611e53565b5f83815260208120601f198716915b82811015613cf15786850135825560209485019460019092019101613cd1565b5086821015613d0d575f1960f88860031b161c19848701351681555b505060018560011b0183555050505050565b604080825281018390525f6001600160fb1b03841115613d3d575f5ffd5b8360051b808660608501376020830193909352500160600192915050565b5f5f8335601e19843603018112613d70575f5ffd5b8301803591506001600160401b03821115613d89575f5ffd5b6020019150368190038213156135dd575f5ffd5b5f81518060208401855e5f93019283525090919050565b5f612d6c613dc28386613d9d565b84613d9d565b604081525f613dda6040830185613831565b90508260208301529392505050565b5f81613df757613df7613b97565b505f190190565b5f60208284031215613e0e575f5ffd5b611fb9826136c0565b6001600160a01b03858116825284166020820152604081018390526080606082018190525f90613e4990830184613508565b9695505050505050565b5f60208284031215613e63575f5ffd5b8151611fb9816134d8565b634e487b7160e01b5f52602160045260245ffdfe0ea61da3a8a09ad801432653699f8c1860b1ae9d2ea4a141fadfd63227717bc8a2646970667358221220c46080838f926e10e2232daa26124ef9a92ec36778b9eb018df72f3b7e952d0464736f6c634300081c0033",
  "linkReferences": {},
  "deployedLinkReferences": {},
  "immutableReferences": {
    "2853": [
      {
        "length": 32,
        "start": 12770
      }
    ],
    "2855": [
      {
        "length": 32,
        "start": 12728
      }
    ],
    "2857": [
      {
        "length": 32,
        "start": 12686
      }
    ],
    "2859": [
      {
        "length": 32,
        "start": 12851
      }
    ],
    "2861": [
      {
        "length": 32,
        "start": 12891
      }
    ],
    "2864": [
      {
        "length": 32,
        "start": 11315
      }
    ],
    "2867": [
      {
        "length": 32,
        "start": 11365
      }
    ],
    "9100": [
      {
        "length": 32,
        "start": 2462
      },
      {
        "length": 32,
        "start": 4253
      },
      {
        "length": 32,
        "start": 4519
      },
      {
        "length": 32,
        "start": 5420
      },
      {
        "length": 32,
        "start": 6404
      }
    ],
    "9102": [
      {
        "length": 32,
        "start": 2287
      },
      {
        "length": 32,
        "start": 4472
      }
    ]
  },
  "inputSourceName": "project/contracts/ShineTicket.sol",
  "buildInfoId": "solc-0_8_28-ff519db3cf4f573fbfbb56007cfeed6756b792e5"
}