{
  "_format": "hh3-artifact-1",
  "contractName": "ShineTicket",
  "sourceName": "contracts/ShineTicket.sol",
  "abi": [
    {
      "inputs": [
        {
          "internalType": "address",
          "name": "defaultAdmin",
          "type": "address"
        },
        {
          "internalType": "address",
          "name": "_usdtToken",
          "type": "address"
        }
      ],
      "stateMutability": "nonpayable",
      "type": "constructor"
    },
    {
      "inputs": [],
      "name": "AccessControlBadConfirmation",
      "type": "error"
    },
    {
      "inputs": [
        {
          "internalType": "address",
          "name": "account",
          "type": "address"
        },
        {
          "internalType": "bytes32",
          "name": "neededRole",
          "type": "bytes32"
        }
      ],
      "name": "AccessControlUnauthorizedAccount",
      "type": "error"
    },
    {
      "inputs": [],
      "name": "ApprovalCallerNotOwnerNorApproved",
      "type": "error"
    },
    {
      "inputs": [],
      "name": "ApprovalQueryForNonexistentToken",
      "type": "error"
    },
    {
      "inputs": [],
      "name": "BalanceQueryForZeroAddress",
      "type": "error"
    },
    {
      "inputs": [],
      "name": "ECDSAInvalidSignature",
      "type": "error"
    },
    {
      "inputs": [
        {
          "internalType": "uint256",
          "name": "length",
          "type": "uint256"
        }
      ],
      "name": "ECDSAInvalidSignatureLength",
      "type": "error"
    },
    {
      "inputs": [
        {
          "internalType": "bytes32",
          "name": "s",
          "type": "bytes32"
        }
      ],
      "name": "ECDSAInvalidSignatureS",
      "type": "error"
    },
    {
      "inputs": [],
      "name": "EnforcedPause",
      "type": "error"
    },
    {
      "inputs": [],
      "name": "ExpectedPause",
      "type": "error"
    },
    {
      "inputs": [],
      "name": "InvalidShortString",
      "type": "error"
    },
    {
      "inputs": [],
      "name": "MintERC2309QuantityExceedsLimit",
      "type": "error"
    },
    {
      "inputs": [],
      "name": "MintToZeroAddress",
      "type": "error"
    },
    {
      "inputs": [],
      "name": "MintZeroQuantity",
      "type": "error"
    },
    {
      "inputs": [],
      "name": "NotCompatibleWithSpotMints",
      "type": "error"
    },
    {
      "inputs": [],
      "name": "OwnerQueryForNonexistentToken",
      "type": "error"
    },
    {
      "inputs": [],
      "name": "OwnershipNotInitializedForExtraData",
      "type": "error"
    },
    {
      "inputs": [],
      "name": "ReentrancyGuardReentrantCall",
      "type": "error"
    },
    {
      "inputs": [],
      "name": "SequentialMintExceedsLimit",
      "type": "error"
    },
    {
      "inputs": [],
      "name": "SequentialUpToTooSmall",
      "type": "error"
    },
    {
      "inputs": [],
      "name": "SpotMintTokenIdTooSmall",
      "type": "error"
    },
    {
      "inputs": [
        {
          "internalType": "string",
          "name": "str",
          "type": "string"
        }
      ],
      "name": "StringTooLong",
      "type": "error"
    },
    {
      "inputs": [],
      "name": "TokenAlreadyExists",
      "type": "error"
    },
    {
      "inputs": [],
      "name": "TransferCallerNotOwnerNorApproved",
      "type": "error"
    },
    {
      "inputs": [],
      "name": "TransferFromIncorrectOwner",
      "type": "error"
    },
    {
      "inputs": [],
      "name": "TransferToNonERC721ReceiverImplementer",
      "type": "error"
    },
    {
      "inputs": [],
      "name": "TransferToZeroAddress",
      "type": "error"
    },
    {
      "inputs": [],
      "name": "URIQueryForNonexistentToken",
      "type": "error"
    },
    {
      "anonymous": false,
      "inputs": [
        {
          "indexed": true,
          "internalType": "address",
          "name": "owner",
          "type": "address"
        },
        {
          "indexed": true,
          "internalType": "address",
          "name": "approved",
          "type": "address"
        },
        {
          "indexed": true,
          "internalType": "uint256",
          "name": "tokenId",
          "type": "uint256"
        }
      ],
      "name": "Approval",
      "type": "event"
    },
    {
      "anonymous": false,
      "inputs": [
        {
          "indexed": true,
          "internalType": "address",
          "name": "owner",
          "type": "address"
        },
        {
          "indexed": true,
          "internalType": "address",
          "name": "operator",
          "type": "address"
        },
        {
          "indexed": false,
          "internalType": "bool",
          "name": "approved",
          "type": "bool"
        }
      ],
      "name": "ApprovalForAll",
      "type": "event"
    },
    {
      "anonymous": false,
      "inputs": [
        {
          "indexed": true,
          "internalType": "uint256",
          "name": "fromTokenId",
          "type": "uint256"
        },
        {
          "indexed": false,
          "internalType": "uint256",
          "name": "toTokenId",
          "type": "uint256"
        },
        {
          "indexed": true,
          "internalType": "address",
          "name": "from",
          "type": "address"
        },
        {
          "indexed": true,
          "internalType": "address",
          "name": "to",
          "type": "address"
        }
      ],
      "name": "ConsecutiveTransfer",
      "type": "event"
    },
    {
      "anonymous": false,
      "inputs": [],
      "name": "EIP712DomainChanged",
      "type": "event"
    },
    {
      "anonymous": false,
      "inputs": [
        {
          "indexed": true,
          "internalType": "uint256",
          "name": "eventId",
          "type": "uint256"
        },
        {
          "indexed": true,
          "internalType": "address",
          "name": "recipient",
          "type": "address"
        },
        {
          "indexed": false,
          "internalType": "uint256",
          "name": "startTokenId",
          "type": "uint256"
        },
        {
          "indexed": false,
          "internalType": "uint256",
          "name": "quantity",
          "type": "uint256"
        }
      ],
      "name": "EventTicketsMinted",
      "type": "event"
    },
    {
      "anonymous": false,
      "inputs": [
        {
          "indexed": false,
          "internalType": "address",
          "name": "account",
          "type": "address"
        }
      ],
      "name": "Paused",
      "type": "event"
    },
    {
      "anonymous": false,
      "inputs": [
        {
          "indexed": true,
          "internalType": "bytes32",
          "name": "role",
          "type": "bytes32"
        },
        {
          "indexed": true,
          "internalType": "bytes32",
          "name": "previousAdminRole",
          "type": "bytes32"
        },
        {
          "indexed": true,
          "internalType": "bytes32",
          "name": "newAdminRole",
          "type": "bytes32"
        }
      ],
      "name": "RoleAdminChanged",
      "type": "event"
    },
    {
      "anonymous": false,
      "inputs": [
        {
          "indexed": true,
          "internalType": "bytes32",
          "name": "role",
          "type": "bytes32"
        },
        {
          "indexed": true,
          "internalType": "address",
          "name": "account",
          "type": "address"
        },
        {
          "indexed": true,
          "internalType": "address",
          "name": "sender",
          "type": "address"
        }
      ],
      "name": "RoleGranted",
      "type": "event"
    },
    {
      "anonymous": false,
      "inputs": [
        {
          "indexed": true,
          "internalType": "bytes32",
          "name": "role",
          "type": "bytes32"
        },
        {
          "indexed": true,
          "internalType": "address",
          "name": "account",
          "type": "address"
        },
        {
          "indexed": true,
          "internalType": "address",
          "name": "sender",
          "type": "address"
        }
      ],
      "name": "RoleRevoked",
      "type": "event"
    },
    {
      "anonymous": false,
      "inputs": [
        {
          "indexed": false,
          "internalType": "uint256[]",
          "name": "tokenIds",
          "type": "uint256[]"
        },
        {
          "indexed": false,
          "internalType": "uint256",
          "name": "timestamp",
          "type": "uint256"
        }
      ],
      "name": "TicketsCheckedIn",
      "type": "event"
    },
    {
      "anonymous": false,
      "inputs": [
        {
          "indexed": true,
          "internalType": "address",
          "name": "from",
          "type": "address"
        },
        {
          "indexed": true,
          "internalType": "address",
          "name": "to",
          "type": "address"
        },
        {
          "indexed": true,
          "internalType": "uint256",
          "name": "tokenId",
          "type": "uint256"
        }
      ],
      "name": "Transfer",
      "type": "event"
    },
    {
      "anonymous": false,
      "inputs": [
        {
          "indexed": false,
          "internalType": "address",
          "name": "account",
          "type": "address"
        }
      ],
      "name": "Unpaused",
      "type": "event"
    },
    {
      "inputs": [],
      "name": "DEFAULT_ADMIN_ROLE",
      "outputs": [
        {
          "internalType": "bytes32",
          "name": "",
          "type": "bytes32"
        }
      ],
      "stateMutability": "view",
      "type": "function"
    },
    {
      "inputs": [],
      "name": "MARKETPLACE_ROLE",
      "outputs": [
        {
          "internalType": "bytes32",
          "name": "",
          "type": "bytes32"
        }
      ],
      "stateMutability": "view",
      "type": "function"
    },
    {
      "inputs": [],
      "name": "OPERATOR_ROLE",
      "outputs": [
        {
          "internalType": "bytes32",
          "name": "",
          "type": "bytes32"
        }
      ],
      "stateMutability": "view",
      "type": "function"
    },
    {
      "inputs": [],
      "name": "ORGANIZER_ROLE",
      "outputs": [
        {
          "internalType": "bytes32",
          "name": "",
          "type": "bytes32"
        }
      ],
      "stateMutability": "view",
      "type": "function"
    },
    {
      "inputs": [],
      "name": "VOUCHER_TYPEHASH",
      "outputs": [
        {
          "internalType": "bytes32",
          "name": "",
          "type": "bytes32"
        }
      ],
      "stateMutability": "view",
      "type": "function"
    },
    {
      "inputs": [],
      "name": "adminTreasury",
      "outputs": [
        {
          "internalType": "address",
          "name": "",
          "type": "address"
        }
      ],
      "stateMutability": "view",
      "type": "function"
    },
    {
      "inputs": [
        {
          "internalType": "address",
          "name": "to",
          "type": "address"
        },
        {
          "internalType": "uint256",
          "name": "tokenId",
          "type": "uint256"
        }
      ],
      "name": "approve",
      "outputs": [],
      "stateMutability": "payable",
      "type": "function"
    },
    {
      "inputs": [
        {
          "internalType": "address",
          "name": "owner",
          "type": "address"
        }
      ],
      "name": "balanceOf",
      "outputs": [
        {
          "internalType": "uint256",
          "name": "",
          "type": "uint256"
        }
      ],
      "stateMutability": "view",
      "type": "function"
    },
    {
      "inputs": [
        {
          "internalType": "uint256[]",
          "name": "eventIds",
          "type": "uint256[]"
        },
        {
          "internalType": "uint256[]",
          "name": "quantities",
          "type": "uint256[]"
        },
        {
          "internalType": "address",
          "name": "recipient",
          "type": "address"
        }
      ],
      "name": "batchBuyTickets",
      "outputs": [
        {
          "internalType": "uint256[]",
          "name": "",
          "type": "uint256[]"
        }
      ],
      "stateMutability": "nonpayable",
      "type": "function"
    },
    {
      "inputs": [
        {
          "internalType": "uint256[]",
          "name": "tokenIds",
          "type": "uint256[]"
        }
      ],
      "name": "batchCheckIn",
      "outputs": [],
      "stateMutability": "nonpayable",
      "type": "function"
    },
    {
      "inputs": [
        {
          "components": [
            {
              "internalType": "uint256",
              "name": "eventId",
              "type": "uint256"
            },
            {
              "internalType": "uint256",
              "name": "quantity",
              "type": "uint256"
            },
            {
              "internalType": "uint256",
              "name": "price",
              "type": "uint256"
            },
            {
              "internalType": "uint256",
              "name": "commissionRateBps",
              "type": "uint256"
            },
            {
              "internalType": "uint256",
              "name": "relayerGasPerTicket",
              "type": "uint256"
            },
            {
              "internalType": "uint256",
              "name": "checkinGasPerTicket",
              "type": "uint256"
            },
            {
              "internalType": "uint64",
              "name": "expiryTime",
              "type": "uint64"
            },
            {
              "internalType": "uint256",
              "name": "nonce",
              "type": "uint256"
            }
          ],
          "internalType": "struct ShineTicket.MintVoucher[]",
          "name": "vouchers",
          "type": "tuple[]"
        },
        {
          "internalType": "bytes[]",
          "name": "signatures",
          "type": "bytes[]"
        }
      ],
      "name": "batchMintEventTickets",
      "outputs": [
        {
          "internalType": "uint256[]",
          "name": "",
          "type": "uint256[]"
        }
      ],
      "stateMutability": "nonpayable",
      "type": "function"
    },
    {
      "inputs": [
        {
          "internalType": "uint256[]",
          "name": "eventIds",
          "type": "uint256[]"
        },
        {
          "internalType": "uint256[]",
          "name": "quantities",
          "type": "uint256[]"
        },
        {
          "internalType": "address",
          "name": "buyerAddress",
          "type": "address"
        }
      ],
      "name": "batchRelayerBuyTicket",
      "outputs": [
        {
          "internalType": "uint256[]",
          "name": "",
          "type": "uint256[]"
        }
      ],
      "stateMutability": "nonpayable",
      "type": "function"
    },
    {
      "inputs": [
        {
          "internalType": "uint256",
          "name": "eventId",
          "type": "uint256"
        },
        {
          "internalType": "uint256",
          "name": "quantity",
          "type": "uint256"
        },
        {
          "internalType": "address",
          "name": "recipient",
          "type": "address"
        }
      ],
      "name": "buyTicket",
      "outputs": [
        {
          "internalType": "uint256",
          "name": "",
          "type": "uint256"
        }
      ],
      "stateMutability": "nonpayable",
      "type": "function"
    },
    {
      "inputs": [
        {
          "internalType": "uint256",
          "name": "tokenId",
          "type": "uint256"
        }
      ],
      "name": "checkIn",
      "outputs": [],
      "stateMutability": "nonpayable",
      "type": "function"
    },
    {
      "inputs": [
        {
          "internalType": "uint256",
          "name": "eventId",
          "type": "uint256"
        }
      ],
      "name": "claimFunds",
      "outputs": [],
      "stateMutability": "nonpayable",
      "type": "function"
    },
    {
      "inputs": [],
      "name": "eip712Domain",
      "outputs": [
        {
          "internalType": "bytes1",
          "name": "fields",
          "type": "bytes1"
        },
        {
          "internalType": "string",
          "name": "name",
          "type": "string"
        },
        {
          "internalType": "string",
          "name": "version",
          "type": "string"
        },
        {
          "internalType": "uint256",
          "name": "chainId",
          "type": "uint256"
        },
        {
          "internalType": "address",
          "name": "verifyingContract",
          "type": "address"
        },
        {
          "internalType": "bytes32",
          "name": "salt",
          "type": "bytes32"
        },
        {
          "internalType": "uint256[]",
          "name": "extensions",
          "type": "uint256[]"
        }
      ],
      "stateMutability": "view",
      "type": "function"
    },
    {
      "inputs": [
        {
          "internalType": "uint256",
          "name": "",
          "type": "uint256"
        }
      ],
      "name": "eventCheckedInCount",
      "outputs": [
        {
          "internalType": "uint256",
          "name": "",
          "type": "uint256"
        }
      ],
      "stateMutability": "view",
      "type": "function"
    },
    {
      "inputs": [
        {
          "internalType": "uint256",
          "name": "",
          "type": "uint256"
        }
      ],
      "name": "eventCheckinGasPerTicket",
      "outputs": [
        {
          "internalType": "uint256",
          "name": "",
          "type": "uint256"
        }
      ],
      "stateMutability": "view",
      "type": "function"
    },
    {
      "inputs": [
        {
          "internalType": "uint256",
          "name": "",
          "type": "uint256"
        }
      ],
      "name": "eventCommissionRateBps",
      "outputs": [
        {
          "internalType": "uint256",
          "name": "",
          "type": "uint256"
        }
      ],
      "stateMutability": "view",
      "type": "function"
    },
    {
      "inputs": [
        {
          "internalType": "uint256",
          "name": "",
          "type": "uint256"
        }
      ],
      "name": "eventMintedCount",
      "outputs": [
        {
          "internalType": "uint256",
          "name": "",
          "type": "uint256"
        }
      ],
      "stateMutability": "view",
      "type": "function"
    },
    {
      "inputs": [
        {
          "internalType": "uint256",
          "name": "",
          "type": "uint256"
        }
      ],
      "name": "eventRelayerGasPerTicket",
      "outputs": [
        {
          "internalType": "uint256",
          "name": "",
          "type": "uint256"
        }
      ],
      "stateMutability": "view",
      "type": "function"
    },
    {
      "inputs": [
        {
          "internalType": "uint256",
          "name": "",
          "type": "uint256"
        }
      ],
      "name": "eventRelayerSoldCount",
      "outputs": [
        {
          "internalType": "uint256",
          "name": "",
          "type": "uint256"
        }
      ],
      "stateMutability": "view",
      "type": "function"
    },
    {
      "inputs": [
        {
          "internalType": "uint256",
          "name": "",
          "type": "uint256"
        }
      ],
      "name": "eventRevenue",
      "outputs": [
        {
          "internalType": "uint256",
          "name": "",
          "type": "uint256"
        }
      ],
      "stateMutability": "view",
      "type": "function"
    },
    {
      "inputs": [
        {
          "internalType": "uint256",
          "name": "",
          "type": "uint256"
        }
      ],
      "name": "events",
      "outputs": [
        {
          "internalType": "address",
          "name": "organizer",
          "type": "address"
        },
        {
          "internalType": "uint64",
          "name": "expiryTime",
          "type": "uint64"
        },
        {
          "internalType": "uint32",
          "name": "maxCapacity",
          "type": "uint32"
        },
        {
          "internalType": "uint256",
          "name": "price",
          "type": "uint256"
        },
        {
          "internalType": "bool",
          "name": "isActive",
          "type": "bool"
        }
      ],
      "stateMutability": "view",
      "type": "function"
    },
    {
      "inputs": [
        {
          "internalType": "uint256",
          "name": "eventId",
          "type": "uint256"
        },
        {
          "internalType": "uint64",
          "name": "newExpiry",
          "type": "uint64"
        }
      ],
      "name": "extendEventExpiry",
      "outputs": [],
      "stateMutability": "nonpayable",
      "type": "function"
    },
    {
      "inputs": [
        {
          "internalType": "uint256",
          "name": "",
          "type": "uint256"
        }
      ],
      "name": "fundsClaimed",
      "outputs": [
        {
          "internalType": "bool",
          "name": "",
          "type": "bool"
        }
      ],
      "stateMutability": "view",
      "type": "function"
    },
    {
      "inputs": [
        {
          "internalType": "uint256",
          "name": "tokenId",
          "type": "uint256"
        }
      ],
      "name": "getApproved",
      "outputs": [
        {
          "internalType": "address",
          "name": "",
          "type": "address"
        }
      ],
      "stateMutability": "view",
      "type": "function"
    },
    {
      "inputs": [
        {
          "internalType": "uint256[]",
          "name": "tokenIds",
          "type": "uint256[]"
        }
      ],
      "name": "getBatchTicketStatus",
      "outputs": [
        {
          "internalType": "bool[]",
          "name": "",
          "type": "bool[]"
        }
      ],
      "stateMutability": "view",
      "type": "function"
    },
    {
      "inputs": [
        {
          "internalType": "bytes32",
          "name": "role",
          "type": "bytes32"
        }
      ],
      "name": "getRoleAdmin",
      "outputs": [
        {
          "internalType": "bytes32",
          "name": "",
          "type": "bytes32"
        }
      ],
      "stateMutability": "view",
      "type": "function"
    },
    {
      "inputs": [
        {
          "internalType": "bytes32",
          "name": "role",
          "type": "bytes32"
        },
        {
          "internalType": "address",
          "name": "account",
          "type": "address"
        }
      ],
      "name": "grantRole",
      "outputs": [],
      "stateMutability": "nonpayable",
      "type": "function"
    },
    {
      "inputs": [
        {
          "internalType": "bytes32",
          "name": "role",
          "type": "bytes32"
        },
        {
          "internalType": "address",
          "name": "account",
          "type": "address"
        }
      ],
      "name": "hasRole",
      "outputs": [
        {
          "internalType": "bool",
          "name": "",
          "type": "bool"
        }
      ],
      "stateMutability": "view",
      "type": "function"
    },
    {
      "inputs": [
        {
          "internalType": "address",
          "name": "owner",
          "type": "address"
        },
        {
          "internalType": "address",
          "name": "operator",
          "type": "address"
        }
      ],
      "name": "isApprovedForAll",
      "outputs": [
        {
          "internalType": "bool",
          "name": "",
          "type": "bool"
        }
      ],
      "stateMutability": "view",
      "type": "function"
    },
    {
      "inputs": [
        {
          "internalType": "address[]",
          "name": "recipients",
          "type": "address[]"
        },
        {
          "internalType": "uint256[]",
          "name": "quantities",
          "type": "uint256[]"
        }
      ],
      "name": "mintBatchUsers",
      "outputs": [],
      "stateMutability": "nonpayable",
      "type": "function"
    },
    {
      "inputs": [
        {
          "components": [
            {
              "internalType": "uint256",
              "name": "eventId",
              "type": "uint256"
            },
            {
              "internalType": "uint256",
              "name": "quantity",
              "type": "uint256"
            },
            {
              "internalType": "uint256",
              "name": "price",
              "type": "uint256"
            },
            {
              "internalType": "uint256",
              "name": "commissionRateBps",
              "type": "uint256"
            },
            {
              "internalType": "uint256",
              "name": "relayerGasPerTicket",
              "type": "uint256"
            },
            {
              "internalType": "uint256",
              "name": "checkinGasPerTicket",
              "type": "uint256"
            },
            {
              "internalType": "uint64",
              "name": "expiryTime",
              "type": "uint64"
            },
            {
              "internalType": "uint256",
              "name": "nonce",
              "type": "uint256"
            }
          ],
          "internalType": "struct ShineTicket.MintVoucher",
          "name": "voucher",
          "type": "tuple"
        },
        {
          "internalType": "bytes",
          "name": "signature",
          "type": "bytes"
        }
      ],
      "name": "mintEventTickets",
      "outputs": [
        {
          "internalType": "uint256",
          "name": "",
          "type": "uint256"
        }
      ],
      "stateMutability": "nonpayable",
      "type": "function"
    },
    {
      "inputs": [],
      "name": "name",
      "outputs": [
        {
          "internalType": "string",
          "name": "",
          "type": "string"
        }
      ],
      "stateMutability": "view",
      "type": "function"
    },
    {
      "inputs": [
        {
          "internalType": "uint256",
          "name": "tokenId",
          "type": "uint256"
        }
      ],
      "name": "ownerOf",
      "outputs": [
        {
          "internalType": "address",
          "name": "",
          "type": "address"
        }
      ],
      "stateMutability": "view",
      "type": "function"
    },
    {
      "inputs": [],
      "name": "pause",
      "outputs": [],
      "stateMutability": "nonpayable",
      "type": "function"
    },
    {
      "inputs": [],
      "name": "paused",
      "outputs": [
        {
          "internalType": "bool",
          "name": "",
          "type": "bool"
        }
      ],
      "stateMutability": "view",
      "type": "function"
    },
    {
      "inputs": [
        {
          "internalType": "uint256",
          "name": "eventId",
          "type": "uint256"
        },
        {
          "internalType": "uint256",
          "name": "quantity",
          "type": "uint256"
        },
        {
          "internalType": "address",
          "name": "buyerAddress",
          "type": "address"
        }
      ],
      "name": "relayerBuyTicket",
      "outputs": [
        {
          "internalType": "uint256",
          "name": "",
          "type": "uint256"
        }
      ],
      "stateMutability": "nonpayable",
      "type": "function"
    },
    {
      "inputs": [
        {
          "internalType": "bytes32",
          "name": "role",
          "type": "bytes32"
        },
        {
          "internalType": "address",
          "name": "callerConfirmation",
          "type": "address"
        }
      ],
      "name": "renounceRole",
      "outputs": [],
      "stateMutability": "nonpayable",
      "type": "function"
    },
    {
      "inputs": [
        {
          "internalType": "bytes32",
          "name": "role",
          "type": "bytes32"
        },
        {
          "internalType": "address",
          "name": "account",
          "type": "address"
        }
      ],
      "name": "revokeRole",
      "outputs": [],
      "stateMutability": "nonpayable",
      "type": "function"
    },
    {
      "inputs": [
        {
          "internalType": "uint256",
          "name": "tokenId",
          "type": "uint256"
        }
      ],
      "name": "revokeTicket",
      "outputs": [],
      "stateMutability": "nonpayable",
      "type": "function"
    },
    {
      "inputs": [
        {
          "internalType": "address",
          "name": "from",
          "type": "address"
        },
        {
          "internalType": "address",
          "name": "to",
          "type": "address"
        },
        {
          "internalType": "uint256",
          "name": "tokenId",
          "type": "uint256"
        }
      ],
      "name": "safeTransferFrom",
      "outputs": [],
      "stateMutability": "payable",
      "type": "function"
    },
    {
      "inputs": [
        {
          "internalType": "address",
          "name": "from",
          "type": "address"
        },
        {
          "internalType": "address",
          "name": "to",
          "type": "address"
        },
        {
          "internalType": "uint256",
          "name": "tokenId",
          "type": "uint256"
        },
        {
          "internalType": "bytes",
          "name": "_data",
          "type": "bytes"
        }
      ],
      "name": "safeTransferFrom",
      "outputs": [],
      "stateMutability": "payable",
      "type": "function"
    },
    {
      "inputs": [
        {
          "internalType": "address",
          "name": "operator",
          "type": "address"
        },
        {
          "internalType": "bool",
          "name": "approved",
          "type": "bool"
        }
      ],
      "name": "setApprovalForAll",
      "outputs": [],
      "stateMutability": "nonpayable",
      "type": "function"
    },
    {
      "inputs": [
        {
          "internalType": "string",
          "name": "baseURI",
          "type": "string"
        }
      ],
      "name": "setBaseURI",
      "outputs": [],
      "stateMutability": "nonpayable",
      "type": "function"
    },
    {
      "inputs": [
        {
          "internalType": "uint256",
          "name": "eventId",
          "type": "uint256"
        },
        {
          "internalType": "uint256",
          "name": "commissionRateBps",
          "type": "uint256"
        },
        {
          "internalType": "uint256",
          "name": "relayerGasPerTicket",
          "type": "uint256"
        },
        {
          "internalType": "uint256",
          "name": "checkinGasPerTicket",
          "type": "uint256"
        }
      ],
      "name": "setEventCostConfig",
      "outputs": [],
      "stateMutability": "nonpayable",
      "type": "function"
    },
    {
      "inputs": [
        {
          "internalType": "uint256",
          "name": "eventId",
          "type": "uint256"
        },
        {
          "internalType": "uint256",
          "name": "price",
          "type": "uint256"
        }
      ],
      "name": "setEventPrice",
      "outputs": [],
      "stateMutability": "nonpayable",
      "type": "function"
    },
    {
      "inputs": [
        {
          "internalType": "bytes4",
          "name": "interfaceId",
          "type": "bytes4"
        }
      ],
      "name": "supportsInterface",
      "outputs": [
        {
          "internalType": "bool",
          "name": "",
          "type": "bool"
        }
      ],
      "stateMutability": "view",
      "type": "function"
    },
    {
      "inputs": [],
      "name": "symbol",
      "outputs": [
        {
          "internalType": "string",
          "name": "",
          "type": "string"
        }
      ],
      "stateMutability": "view",
      "type": "function"
    },
    {
      "inputs": [
        {
          "internalType": "uint256",
          "name": "",
          "type": "uint256"
        }
      ],
      "name": "ticketToEvent",
      "outputs": [
        {
          "internalType": "uint256",
          "name": "",
          "type": "uint256"
        }
      ],
      "stateMutability": "view",
      "type": "function"
    },
    {
      "inputs": [
        {
          "internalType": "uint256",
          "name": "",
          "type": "uint256"
        }
      ],
      "name": "ticketUsed",
      "outputs": [
        {
          "internalType": "bool",
          "name": "",
          "type": "bool"
        }
      ],
      "stateMutability": "view",
      "type": "function"
    },
    {
      "inputs": [
        {
          "internalType": "uint256",
          "name": "tokenId",
          "type": "uint256"
        }
      ],
      "name": "tokenURI",
      "outputs": [
        {
          "internalType": "string",
          "name": "",
          "type": "string"
        }
      ],
      "stateMutability": "view",
      "type": "function"
    },
    {
      "inputs": [],
      "name": "totalSupply",
      "outputs": [
        {
          "internalType": "uint256",
          "name": "result",
          "type": "uint256"
        }
      ],
      "stateMutability": "view",
      "type": "function"
    },
    {
      "inputs": [
        {
          "internalType": "address",
          "name": "from",
          "type": "address"
        },
        {
          "internalType": "address",
          "name": "to",
          "type": "address"
        },
        {
          "internalType": "uint256",
          "name": "tokenId",
          "type": "uint256"
        }
      ],
      "name": "transferFrom",
      "outputs": [],
      "stateMutability": "payable",
      "type": "function"
    },
    {
      "inputs": [],
      "name": "unpause",
      "outputs": [],
      "stateMutability": "nonpayable",
      "type": "function"
    },
    {
      "inputs": [],
      "name": "usdtToken",
      "outputs": [
        {
          "internalType": "contract IERC20",
          "name": "",
          "type": "address"
        }
      ],
      "stateMutability": "view",
      "type": "function"
    },
    {
      "inputs": [
        {
          "internalType": "uint256",
          "name": "",
          "type": "uint256"
        }
      ],
      "name": "usedNonces",
      "outputs": [
        {
          "internalType": "bool",
          "name": "",
          "type": "bool"
        }
      ],
      "stateMutability": "view",
      "type": "function"
    }
  ],
  "bytecode": "0x6101a0604052348015610010575f5ffd5b5060405161504138038061504183398101604081905261002f91610372565b604080518082018252600b8082526a14da1a5b99551a58dad95d60aa1b60208084018290528451808601865260018152603160f81b818301528551808701875293845283820192909252845180860190955260058552645348494e4560d81b90850152919260026100a0838261043b565b5060036100ad828261043b565b505060015f55506100bf82600b61023d565b610120526100ce81600c61023d565b61014052815160208084019190912060e052815190820120610100524660a05261015a60e05161010051604080517f8b73c3c69bb8fe3d512ecc4cf759cc79239f7b179b0ffacaa9a75d522b39400f60208201529081019290925260608201524660808201523060a08201525f9060c00160405160208183030381529060405280519060200120905090565b60805250503060c0526001600d556001600160a01b0381166101c35760405162461bcd60e51b815260206004820152601460248201527f496e76616c69642055534454206164647265737300000000000000000000000060448201526064015b60405180910390fd5b6001600160a01b0382166102195760405162461bcd60e51b815260206004820152601560248201527f496e76616c69642061646d696e2061646472657373000000000000000000000060448201526064016101ba565b6102235f8361026f565b506001600160a01b0390811661016052166101805261054d565b5f602083511015610258576102518361031a565b9050610269565b81610263848261043b565b5060ff90505b92915050565b5f8281526009602090815260408083206001600160a01b038516845290915281205460ff16610313575f8381526009602090815260408083206001600160a01b03861684529091529020805460ff191660011790556102cb3390565b6001600160a01b0316826001600160a01b0316847f2f8788117e7eff1d82e926ec794901d17c78024a50270940304540a733656f0d60405160405180910390a4506001610269565b505f610269565b5f5f829050601f81511115610344578260405163305a27a960e01b81526004016101ba91906104f5565b805161034f8261052a565b179392505050565b80516001600160a01b038116811461036d575f5ffd5b919050565b5f5f60408385031215610383575f5ffd5b61038c83610357565b915061039a60208401610357565b90509250929050565b634e487b7160e01b5f52604160045260245ffd5b600181811c908216806103cb57607f821691505b6020821081036103e957634e487b7160e01b5f52602260045260245ffd5b50919050565b601f82111561043657805f5260205f20601f840160051c810160208510156104145750805b601f840160051c820191505b81811015610433575f8155600101610420565b50505b505050565b81516001600160401b03811115610454576104546103a3565b6104688161046284546103b7565b846103ef565b6020601f82116001811461049a575f83156104835750848201515b5f19600385901b1c1916600184901b178455610433565b5f84815260208120601f198516915b828110156104c957878501518255602094850194600190920191016104a9565b50848210156104e657868401515f19600387901b60f8161c191681555b50505050600190811b01905550565b602081525f82518060208401528060208501604085015e5f604082850101526040601f19601f83011684010191505092915050565b805160208083015191908110156103e9575f1960209190910360031b1b16919050565b60805160a05160c05160e0516101005161012051610140516101605161018051614a5e6105e35f395f818161094f015261144301525f81816109fe01528181610d5b01528181611368015281816114720152818161191201528181611d9801526121ac01525f6135f101525f6135bf01525f613bea01525f613bc201525f613b1d01525f613b4701525f613b710152614a5e5ff3fe608060405260043610610370575f3560e01c80638456cb59116101c8578063a98ad46c116100fd578063d29ab4d11161009d578063e95a644f1161006d578063e95a644f14610b63578063e985e9c514610b82578063f5b541a614610bc9578063f6ac04da14610bfc575f5ffd5b8063d29ab4d114610adb578063d547741f14610b06578063dbf56d1914610b25578063dc68cba514610b44575f5ffd5b8063b955e4ad116100d8578063b955e4ad14610a52578063c3439f3f14610a7d578063c87b56dd14610a9d578063cb0c800514610abc575f5ffd5b8063a98ad46c146109ed578063afc573b114610a20578063b88d4fde14610a3f575f5ffd5b8063947e59b4116101685780639b9ac6c3116101435780639b9ac6c314610971578063a1e234d314610990578063a217fddf146109bb578063a22cb465146109ce575f5ffd5b8063947e59b41461090b57806395d89b411461092a57806396cad0db1461093e575f5ffd5b80638bc1344b116101a35780638bc1344b1461086f5780638d7dba3a1461089a57806391d14854146108b957806394739e87146108d8575f5ffd5b80638456cb591461080857806384b0196e1461081c578063874b4c8e14610843575f5ffd5b80632f2ff15d116102a95780635c975abb116102495780636723425411610219578063672342541461076c5780636fa605e31461078b57806370a08231146107b65780637909cb59146107d5575f5ffd5b80635c975abb146106da5780636352211e146106f1578063642b5f9b146107105780636717e41c1461073e575f5ffd5b80633f4ba83a116102845780633f4ba83a1461066957806342842e0e1461067d57806355f804b31461069057806357b9bae8146106af575f5ffd5b80632f2ff15d1461060c57806334c588611461062b57806336568abe1461064a575f5ffd5b806318160ddd1161031457806323b872dd116102ef57806323b872dd14610581578063248a9ca31461059457806326abfeba146105c25780632b07ee8a146105ed575f5ffd5b806318160ddd1461051b57806319fcf7cb146105365780631b55e33814610562575f5ffd5b8063081812fc1161034f578063081812fc146103f6578063095ea7b31461042d5780630b79143014610442578063157285b9146104ed575f5ffd5b80628e68651461037457806301ffc9a7146103a657806306fdde03146103d5575b5f5ffd5b34801561037f575f5ffd5b5061039361038e366004613e7d565b610c27565b6040519081526020015b60405180910390f35b3480156103b1575f5ffd5b506103c56103c0366004613ec4565b610e97565b604051901515815260200161039d565b3480156103e0575f5ffd5b506103e9610ea7565b60405161039d9190613f0d565b348015610401575f5ffd5b50610415610410366004613f1f565b610f37565b6040516001600160a01b03909116815260200161039d565b61044061043b366004613f36565b610f70565b005b34801561044d575f5ffd5b506104a661045c366004613f1f565b600e6020525f90815260409020805460018201546002909201546001600160a01b03821692600160a01b83046001600160401b031692600160e01b900463ffffffff169160ff1685565b604080516001600160a01b0390961686526001600160401b03909416602086015263ffffffff9092169284019290925260608301919091521515608082015260a00161039d565b3480156104f8575f5ffd5b506103c5610507366004613f1f565b60196020525f908152604090205460ff1681565b348015610526575f5ffd5b506103936001545f54035f190190565b348015610541575f5ffd5b50610555610550366004613fa5565b610f80565b60405161039d9190613fe3565b34801561056d575f5ffd5b5061044061057c366004613f1f565b611087565b61044061058f366004614027565b611541565b34801561059f575f5ffd5b506103936105ae366004613f1f565b5f9081526009602052604090206001015490565b3480156105cd575f5ffd5b506103936105dc366004613f1f565b60166020525f908152604090205481565b3480156105f8575f5ffd5b50610440610607366004614077565b6116b2565b348015610617575f5ffd5b506104406106263660046140a1565b611758565b348015610636575f5ffd5b506103936106453660046140ff565b611782565b348015610655575f5ffd5b506104406106643660046140a1565b61179e565b348015610674575f5ffd5b506104406117d6565b61044061068b366004614027565b6117e8565b34801561069b575f5ffd5b506104406106aa366004614157565b611802565b3480156106ba575f5ffd5b506103936106c9366004613f1f565b60176020525f908152604090205481565b3480156106e5575f5ffd5b50600a5460ff166103c5565b3480156106fc575f5ffd5b5061041561070b366004613f1f565b611819565b34801561071b575f5ffd5b506103c561072a366004613f1f565b600f6020525f908152604090205460ff1681565b348015610749575f5ffd5b506103c5610758366004613f1f565b60106020525f908152604090205460ff1681565b348015610777575f5ffd5b50610393610786366004613e7d565b611823565b348015610796575f5ffd5b506103936107a5366004613f1f565b60126020525f908152604090205481565b3480156107c1575f5ffd5b506103936107d0366004614189565b611a69565b3480156107e0575f5ffd5b506103937f4d2e7a1e3f5dd6e203f087b15756ccf0e4ccd947fe1b639a38540089a1e47f6381565b348015610813575f5ffd5b50610440611aac565b348015610827575f5ffd5b50610830611abe565b60405161039d97969594939291906141dc565b34801561084e575f5ffd5b5061086261085d36600461424b565b611b00565b60405161039d91906142c9565b34801561087a575f5ffd5b50610393610889366004613f1f565b60146020525f908152604090205481565b3480156108a5575f5ffd5b506108626108b436600461424b565b611f72565b3480156108c4575f5ffd5b506103c56108d33660046140a1565b6123a9565b3480156108e3575f5ffd5b506103937f7e2428746ba19547783fa5b02cf073095822dfdcab967abd9d179be86d792b0981565b348015610916575f5ffd5b50610440610925366004613f1f565b6123d3565b348015610935575f5ffd5b506103e96123ee565b348015610949575f5ffd5b506104157f000000000000000000000000000000000000000000000000000000000000000081565b34801561097c575f5ffd5b5061044061098b366004613fa5565b6123fd565b34801561099b575f5ffd5b506103936109aa366004613f1f565b60156020525f908152604090205481565b3480156109c6575f5ffd5b506103935f81565b3480156109d9575f5ffd5b506104406109e83660046142e8565b612588565b3480156109f8575f5ffd5b506104157f000000000000000000000000000000000000000000000000000000000000000081565b348015610a2b575f5ffd5b50610440610a3a36600461431d565b6125f3565b610440610a4d36600461439b565b612701565b348015610a5d575f5ffd5b50610393610a6c366004613f1f565b60136020525f908152604090205481565b348015610a88575f5ffd5b506103935f5160206149e95f395f51905f5281565b348015610aa8575f5ffd5b506103e9610ab7366004613f1f565b61273c565b348015610ac7575f5ffd5b50610440610ad6366004614475565b6127b3565b348015610ae6575f5ffd5b50610393610af5366004613f1f565b60186020525f908152604090205481565b348015610b11575f5ffd5b50610440610b203660046140a1565b61289f565b348015610b30575f5ffd5b50610862610b3f3660046144a4565b6128c3565b348015610b4f575f5ffd5b50610440610b5e366004614524565b612a13565b348015610b6e575f5ffd5b50610440610b7d366004613f1f565b612a84565b348015610b8d575f5ffd5b506103c5610b9c366004614544565b6001600160a01b039182165f90815260076020908152604080832093909416825291909152205460ff1690565b348015610bd4575f5ffd5b506103937f97667070c54ef182b0f5858b034beac1b6f3089aa2d3188bb1e8929f4fa9b92981565b348015610c07575f5ffd5b50610393610c16366004613f1f565b60116020525f908152604090205481565b5f610c30612c90565b610c38612cb6565b6001600160a01b038216610c875760405162461bcd60e51b8152602060048201526011602482015270125b9d985b1a59081c9958da5c1a595b9d607a1b60448201526064015b60405180910390fd5b5f848152600e6020908152604091829020825160a08101845281546001600160a01b0381168252600160a01b81046001600160401b031693820193909352600160e01b90920463ffffffff16928201929092526001820154606082015260029091015460ff16151560808201819052610d125760405162461bcd60e51b8152600401610c7e9061456c565b5f848260600151610d2391906145ad565b90505f8111610d445760405162461bcd60e51b8152600401610c7e906145c4565b6040516323b872dd60e01b81526001600160a01b037f000000000000000000000000000000000000000000000000000000000000000016906323b872dd90610d94903390309086906004016145fb565b6020604051808303815f875af1158015610db0573d5f5f3e3d5ffd5b505050506040513d601f19601f82011682018060405250810190610dd4919061461f565b610df05760405162461bcd60e51b8152600401610c7e9061463a565b5f8681526012602052604081208054839290610e0d908490614668565b90915550505f54610e1e8587612ce0565b5f5b86811015610e4e578760115f610e368486614668565b815260208101919091526040015f2055600101610e20565b5060408051828152602081018890526001600160a01b0387169189915f516020614a095f395f51905f52910160405180910390a392505050610e906001600d55565b9392505050565b5f610ea182612d00565b92915050565b606060028054610eb69061467b565b80601f0160208091040260200160405190810160405280929190818152602001828054610ee29061467b565b8015610f2d5780601f10610f0457610100808354040283529160200191610f2d565b820191905f5260205f20905b815481529060010190602001808311610f1057829003601f168201915b5050505050905090565b5f610f4182612d34565b610f5557610f556333d1c03960e21b612d7e565b505f908152600660205260409020546001600160a01b031690565b610f7c82826001612d86565b5050565b60605f826001600160401b03811115610f9b57610f9b614387565b604051908082528060200260200182016040528015610fc4578160200160208202803683370190505b5090505f5b8381101561107f57610ff2858583818110610fe657610fe66146b3565b90506020020135612d34565b61101e575f828281518110611009576110096146b3565b91151560209283029190910190910152611077565b600f5f868684818110611033576110336146b3565b9050602002013581526020019081526020015f205f9054906101000a900460ff16828281518110611066576110666146b3565b911515602092830291909101909101525b600101610fc9565b509392505050565b61108f612cb6565b611097612c90565b5f818152600e6020908152604091829020825160a08101845281546001600160a01b038116808352600160a01b82046001600160401b031694830194909452600160e01b900463ffffffff1693810193909352600181015460608401526002015460ff161515608083015233146111505760405162461bcd60e51b815260206004820152601860248201527f4f6e6c79206f7267616e697a65722063616e20636c61696d00000000000000006044820152606401610c7e565b80602001516001600160401b031642116111a25760405162461bcd60e51b8152602060048201526013602482015272115d995b9d081b9bdd08195b991959081e595d606a1b6044820152606401610c7e565b5f8281526019602052604090205460ff16156111f85760405162461bcd60e51b8152602060048201526015602482015274119d5b991cc8185b1c9958591e4818db185a5b5959605a1b6044820152606401610c7e565b5f828152601960209081526040808320805460ff1916600117905560129091529020548061125e5760405162461bcd60e51b81526020600482015260136024820152724e6f20726576656e756520746f20636c61696d60681b6044820152606401610c7e565b5f838152601360205260408120546127109061127a90846145ad565b61128491906146c7565b5f85815260156020908152604080832054601890925282205492935090916112ac91906145ad565b5f868152601460209081526040808320546017909252909120546112d091906145ad565b6112da9190614668565b90505f6112e78284614668565b9050808410156113395760405162461bcd60e51b815260206004820181905260248201527f526576656e7565206973206c657373207468616e2073797374656d20666565736044820152606401610c7e565b5f61134482866146e6565b905080156114265760405163a9059cbb60e01b8152336004820152602481018290527f00000000000000000000000000000000000000000000000000000000000000006001600160a01b03169063a9059cbb906044016020604051808303815f875af11580156113b6573d5f5f3e3d5ffd5b505050506040513d601f19601f820116820180604052508101906113da919061461f565b6114265760405162461bcd60e51b815260206004820152601960248201527f4f7267616e697a6572207472616e73666572206661696c6564000000000000006044820152606401610c7e565b81156115205760405163a9059cbb60e01b81526001600160a01b037f000000000000000000000000000000000000000000000000000000000000000081166004830152602482018490527f0000000000000000000000000000000000000000000000000000000000000000169063a9059cbb906044016020604051808303815f875af11580156114b8573d5f5f3e3d5ffd5b505050506040513d601f19601f820116820180604052508101906114dc919061461f565b6115205760405162461bcd60e51b815260206004820152601560248201527410591b5a5b881d1c985b9cd9995c8819985a5b1959605a1b6044820152606401610c7e565b5050505f848152601260205260408120555061153e9150612cf99050565b50565b5f61154b82612e27565b6001600160a01b0394851694909150811684146115715761157162a1148160e81b612d7e565b5f828152600660205260409020805461159c8187335b6001600160a01b039081169116811491141790565b6115be576115aa8633610b9c565b6115be576115be632ce44b5f60e11b612d7e565b6115cb8686866001612ec0565b80156115d5575f82555b6001600160a01b038681165f9081526005602052604080822080545f19019055918716808252919020805460010190554260a01b17600160e11b175f85815260046020526040812091909155600160e11b8416900361166157600184015f81815260046020526040812054900361165f575f54811461165f575f8181526004602052604090208490555b505b6001600160a01b0385168481887fddf252ad1be2c89b69c2b068fc378daa952ba7f163c4a11628f55a4df523b3ef5f80a4805f036116a9576116a9633a954ecd60e21b612d7e565b50505050505050565b5f6116bc8161305a565b6116c4612c90565b5f838152600e60205260409020546001600160a01b031661171e5760405162461bcd60e51b8152602060048201526014602482015273115d995b9d08191bd95cc81b9bdd08195e1a5cdd60621b6044820152606401610c7e565b505f918252600e602052604090912080546001600160401b03909216600160a01b0267ffffffffffffffff60a01b19909216919091179055565b5f828152600960205260409020600101546117728161305a565b61177c8383613064565b50505050565b5f61178b612c90565b6117968484846130f5565b949350505050565b6001600160a01b03811633146117c75760405163334bd91960e11b815260040160405180910390fd5b6117d182826134be565b505050565b5f6117e08161305a565b61153e613529565b6117d183838360405180602001604052805f815250612701565b5f61180c8161305a565b601a61177c83858361473d565b5f610ea182612e27565b5f8061182e8161305a565b611836612c90565b61183e612cb6565b5f858152600e6020908152604091829020825160a08101845281546001600160a01b0381168252600160a01b81046001600160401b031693820193909352600160e01b90920463ffffffff16928201929092526001820154606082015260029091015460ff161515608082018190526118c95760405162461bcd60e51b8152600401610c7e9061456c565b5f8582606001516118da91906145ad565b90505f81116118fb5760405162461bcd60e51b8152600401610c7e906145c4565b6040516323b872dd60e01b81526001600160a01b037f000000000000000000000000000000000000000000000000000000000000000016906323b872dd9061194b903390309086906004016145fb565b6020604051808303815f875af1158015611967573d5f5f3e3d5ffd5b505050506040513d601f19601f8201168201806040525081019061198b919061461f565b6119a75760405162461bcd60e51b8152600401610c7e9061463a565b5f87815260126020526040812080548392906119c4908490614668565b90915550505f546119d58688612ce0565b5f5b87811015611a05578860115f6119ed8486614668565b815260208101919091526040015f20556001016119d7565b505f8881526017602052604081208054899290611a23908490614668565b909155505060408051828152602081018990526001600160a01b038816918a915f516020614a095f395f51905f52910160405180910390a39350505061107f6001600d55565b5f6001600160a01b038216611a8857611a886323d3ad8160e21b612d7e565b506001600160a01b03165f908152600560205260409020546001600160401b031690565b5f611ab68161305a565b61153e61357b565b5f6060805f5f5f6060611acf6135b8565b611ad76135ea565b604080515f80825260208201909252600f60f81b9b939a50919850469750309650945092509050565b6060611b0a612c90565b611b12612cb6565b84611b2f5760405162461bcd60e51b8152600401610c7e906147f6565b848314611b4e5760405162461bcd60e51b8152600401610c7e9061481c565b6001600160a01b038216611b985760405162461bcd60e51b8152602060048201526011602482015270125b9d985b1a59081c9958da5c1a595b9d607a1b6044820152606401610c7e565b5f80866001600160401b03811115611bb257611bb2614387565b604051908082528060200260200182016040528015611bdb578160200160208202803683370190505b5090505f5b87811015611d80575f898983818110611bfb57611bfb6146b3565b9050602002013590505f888884818110611c1757611c176146b3565b5f858152600e6020908152604091829020825160a08101845281546001600160a01b0381168252600160a01b81046001600160401b031682850152600160e01b900463ffffffff1693810193909352600181015460608401526002015460ff161515608083018190529202939093013593509050611cd75760405162461bcd60e51b815260206004820152601f60248201527f4f6e65206f6620746865206576656e7473206973206e6f7420616374697665006044820152606401610c7e565b5f8211611cf65760405162461bcd60e51b8152600401610c7e90614843565b5f828260600151611d0791906145ad565b90505f8111611d645760405162461bcd60e51b815260206004820152602360248201527f5072696365206e6f742073657420666f72206f6e65206f6620746865206576656044820152626e747360e81b6064820152608401610c7e565b611d6e8188614668565b96505060019093019250611be0915050565b506040516323b872dd60e01b81526001600160a01b037f000000000000000000000000000000000000000000000000000000000000000016906323b872dd90611dd1903390309087906004016145fb565b6020604051808303815f875af1158015611ded573d5f5f3e3d5ffd5b505050506040513d601f19601f82011682018060405250810190611e11919061461f565b611e2d5760405162461bcd60e51b8152600401610c7e9061463a565b5f5b87811015611f5b575f898983818110611e4a57611e4a6146b3565b9050602002013590505f888884818110611e6657611e666146b3565b5f858152600e60209081526040822060010154920293909301359350611e8e915083906145ad565b90508060125f8581526020019081526020015f205f828254611eb09190614668565b90915550505f54611ec18984612ce0565b5f5b83811015611ef1578460115f611ed98486614668565b815260208101919091526040015f2055600101611ec3565b5080868681518110611f0557611f056146b3565b602002602001018181525050886001600160a01b0316845f516020614a095f395f51905f528386604051611f43929190918252602082015260400190565b60405180910390a3505060019092019150611e2f9050565b50915050611f696001600d55565b95945050505050565b60605f611f7e8161305a565b611f86612c90565b611f8e612cb6565b85611fab5760405162461bcd60e51b8152600401610c7e906147f6565b858414611fca5760405162461bcd60e51b8152600401610c7e9061481c565b6001600160a01b0383166120185760405162461bcd60e51b8152602060048201526015602482015274496e76616c6964206275796572206164647265737360581b6044820152606401610c7e565b5f80876001600160401b0381111561203257612032614387565b60405190808252806020026020018201604052801561205b578160200160208202803683370190505b5090505f5b88811015612194575f8a8a8381811061207b5761207b6146b3565b9050602002013590505f898984818110612097576120976146b3565b5f858152600e6020908152604091829020825160a08101845281546001600160a01b0381168252600160a01b81046001600160401b031682850152600160e01b900463ffffffff1693810193909352600181015460608401526002015460ff1615156080830181905292029390930135935090506121275760405162461bcd60e51b8152600401610c7e9061456c565b5f82116121465760405162461bcd60e51b8152600401610c7e90614843565b5f82826060015161215791906145ad565b90505f81116121785760405162461bcd60e51b8152600401610c7e906145c4565b6121828188614668565b96505060019093019250612060915050565b506040516323b872dd60e01b81526001600160a01b037f000000000000000000000000000000000000000000000000000000000000000016906323b872dd906121e5903390309087906004016145fb565b6020604051808303815f875af1158015612201573d5f5f3e3d5ffd5b505050506040513d601f19601f82011682018060405250810190612225919061461f565b6122415760405162461bcd60e51b8152600401610c7e9061463a565b5f5b88811015612391575f8a8a8381811061225e5761225e6146b3565b9050602002013590505f89898481811061227a5761227a6146b3565b5f858152600e602090815260408220600101549202939093013593506122a2915083906145ad565b90508060125f8581526020019081526020015f205f8282546122c49190614668565b90915550505f83815260176020526040812080548492906122e6908490614668565b90915550505f546122f78a84612ce0565b5f5b83811015612327578460115f61230f8486614668565b815260208101919091526040015f20556001016122f9565b508086868151811061233b5761233b6146b3565b602002602001018181525050896001600160a01b0316845f516020614a095f395f51905f528386604051612379929190918252602082015260400190565b60405180910390a35050600190920191506122439050565b5092505061239f6001600d55565b5095945050505050565b5f9182526009602090815260408084206001600160a01b0393909316845291905290205460ff1690565b5f6123dd8161305a565b6123e5612c90565b610f7c82613617565b606060038054610eb69061467b565b7f97667070c54ef182b0f5858b034beac1b6f3089aa2d3188bb1e8929f4fa9b9296124278161305a565b61242f612c90565b5f5b82811015612547575f84848381811061244c5761244c6146b3565b602090810292909201355f81815260119093526040909220549192505080156124d3575f818152600e6020526040902054600160a01b90046001600160401b03164211156124d35760405162461bcd60e51b8152602060048201526014602482015273115d995b9d081d1a58dad95d08195e1c1a5c995960621b6044820152606401610c7e565b6124dc82612d34565b80156124f657505f828152600f602052604090205460ff16155b1561253d575f828152600f60205260409020805460ff19166001179055801561253d575f818152601860205260408120805460019290612537908490614668565b90915550505b5050600101612431565b507f0e862c2630b0e020ea8c569930ac577d3c103fdb452386c869484d2b2cb7388183834260405161257b93929190614885565b60405180910390a1505050565b335f8181526007602090815260408083206001600160a01b03871680855290835292819020805460ff191686151590811790915590519081529192917f17307eab39ab6107e8899845ad3d59bd9653f200f220920489ca2b5937696c31910160405180910390a35050565b5f6125fd8161305a565b612605612c90565b8382146126245760405162461bcd60e51b8152600401610c7e9061481c565b5f5b848110156126f9575f54612678878784818110612645576126456146b3565b905060200201602081019061265a9190614189565b86868581811061266c5761266c6146b3565b90506020020135612ce0565b86868381811061268a5761268a6146b3565b905060200201602081019061269f9190614189565b6001600160a01b03165f5f516020614a095f395f51905f52838888878181106126ca576126ca6146b3565b905060200201356040516126e8929190918252602082015260400190565b60405180910390a350600101612626565b505050505050565b61270c848484611541565b6001600160a01b0383163b1561177c5761272884848484613621565b61177c5761177c6368d2bf6b60e11b612d7e565b606061274782612d34565b61275b5761275b630a14c4b560e41b612d7e565b5f6127646136fc565b905080515f036127825760405180602001604052805f815250610e90565b8061278c8461370b565b60405160200161279d9291906148d8565b6040516020818303038152906040529392505050565b5f6127bd8161305a565b6127c5612c90565b5f858152600e60205260409020546001600160a01b031661281f5760405162461bcd60e51b8152602060048201526014602482015273115d995b9d08191bd95cc81b9bdd08195e1a5cdd60621b6044820152606401610c7e565b5f8581526019602052604090205460ff16156128755760405162461bcd60e51b8152602060048201526015602482015274119d5b991cc8185b1c9958591e4818db185a5b5959605a1b6044820152606401610c7e565b505f9384526013602090815260408086209490945560148152838520929092556015909152912055565b5f828152600960205260409020600101546128b98161305a565b61177c83836134be565b60606128cd612c90565b836128ea5760405162461bcd60e51b8152600401610c7e906147f6565b8382146129095760405162461bcd60e51b8152600401610c7e9061481c565b603284111561295a5760405162461bcd60e51b815260206004820152601860248201527f42617463682073697a652065786365656473206c696d697400000000000000006044820152606401610c7e565b5f846001600160401b0381111561297357612973614387565b60405190808252806020026020018201604052801561299c578160200160208202803683370190505b5090505f5b8581101561239f576129ee8787838181106129be576129be6146b3565b905061010002018686848181106129d7576129d76146b3565b90506020028101906129e991906148ec565b6130f5565b828281518110612a0057612a006146b3565b60209081029190910101526001016129a1565b612a1b612c90565b5f828152600e60205260409020546001600160a01b03163314612a705760405162461bcd60e51b815260206004820152600d60248201526c2737ba1037b933b0b734bd32b960991b6044820152606401610c7e565b5f918252600e602052604090912060010155565b7f97667070c54ef182b0f5858b034beac1b6f3089aa2d3188bb1e8929f4fa9b929612aae8161305a565b612ab6612c90565b5f828152601160205260409020548015612b2e575f818152600e6020526040902054600160a01b90046001600160401b0316421115612b2e5760405162461bcd60e51b8152602060048201526014602482015273115d995b9d081d1a58dad95d08195e1c1a5c995960621b6044820152606401610c7e565b612b3783612d34565b612b7b5760405162461bcd60e51b8152602060048201526015602482015274151a58dad95d08191bd95cc81b9bdd08195e1a5cdd605a1b6044820152606401610c7e565b5f838152600f602052604090205460ff1615612bcf5760405162461bcd60e51b8152602060048201526013602482015272151a58dad95d08185b1c9958591e481d5cd959606a1b6044820152606401610c7e565b5f838152600f60205260409020805460ff191660011790558015612c11575f818152601860205260408120805460019290612c0b908490614668565b90915550505b6040805160018082528183019092525f916020808301908036833701905050905083815f81518110612c4557612c456146b3565b6020026020010181815250507f0e862c2630b0e020ea8c569930ac577d3c103fdb452386c869484d2b2cb738818142604051612c8292919061492e565b60405180910390a150505050565b600a5460ff1615612cb45760405163d93c066560e01b815260040160405180910390fd5b565b6002600d5403612cd957604051633ee5aeb560e01b815260040160405180910390fd5b6002600d55565b610f7c828260405180602001604052805f81525061374e565b6001600d55565b5f6001600160e01b03198216637965db0b60e01b1480610ea157506301ffc9a760e01b6001600160e01b0319831614610ea1565b5f81600111612d79575f54821015612d79575f5b505f8281526004602052604081205490819003612d6f57612d688361494f565b9250612d48565b600160e01b161590505b919050565b805f5260045ffd5b5f612d9083611819565b9050818015612da85750336001600160a01b03821614155b15612dcb57612db78133610b9c565b612dcb57612dcb6367d9dca160e11b612d7e565b5f8381526006602052604080822080546001600160a01b0319166001600160a01b0388811691821790925591518693918516917f8c5be1e5ebec7d5bd14f71427d1e84f3dd0314c0f7b2291e5b200ac8c7c3b92591a450505050565b5f81600111612eb057505f81815260046020526040902054805f03612e9e575f548210612e5e57612e5e636f96cda160e11b612d7e565b5b505f19015f818152600460205260409020548015612e5f57600160e01b81165f03612e8957919050565b612e99636f96cda160e11b612d7e565b612e5f565b600160e01b81165f03612eb057919050565b612d79636f96cda160e11b612d7e565b612ec8612c90565b6001600160a01b03841615801590612ee857506001600160a01b03831615155b15613055575f612ef881866123a9565b80612f085750612f085f856123a9565b80612f255750612f255f5160206149e95f395f51905f52866123a9565b80612f425750612f425f5160206149e95f395f51905f52856123a9565b80612f5f5750612f5f5f5160206149e95f395f51905f52336123a9565b905080612fc95760405162461bcd60e51b815260206004820152603260248201527f5472616e73666572206c6f636b65643a204f6e6c79204f6666696369616c204d604482015271185c9ad95d1c1b1858d948185b1b1bddd95960721b6064820152608401610c7e565b5f5b8281101561305257600f5f612fe08387614668565b815260208101919091526040015f205460ff161561304a5760405162461bcd60e51b815260206004820152602160248201527f55736564207469636b65742063616e6e6f74206265207472616e7366657272656044820152601960fa1b6064820152608401610c7e565b600101612fcb565b50505b61177c565b61153e81336137ae565b5f61306f83836123a9565b6130ee575f8381526009602090815260408083206001600160a01b03861684529091529020805460ff191660011790556130a63390565b6001600160a01b0316826001600160a01b0316847f2f8788117e7eff1d82e926ec794901d17c78024a50270940304540a733656f0d60405160405180910390a4506001610ea1565b505f610ea1565b60e08301355f9081526010602052604081205460ff16156131585760405162461bcd60e51b815260206004820152601d60248201527f566f75636865722068617320616c7265616479206265656e20757365640000006044820152606401610c7e565b60e0840180355f908152601060209081526040808320805460ff19166001179055919261323a927f7e2428746ba19547783fa5b02cf073095822dfdcab967abd9d179be86d792b0992893592908a0135918a01359060608b01359060808c01359060a08d0135906131cc9060c08f01614964565b6040805160208101999099528801969096526060870194909452608086019290925260a085015260c084015260e0838101919091526001600160401b0390911661010083015287013561012082015261014001604051602081830303815290604052805190602001206137e7565b90505f61327c8286868080601f0160208091040260200160405190810160405280939291908181526020018383808284375f9201919091525061381392505050565b90506132885f826123a9565b6132d45760405162461bcd60e51b815260206004820152601c60248201527f496e76616c6964207369676e61747572652066726f6d2041646d696e000000006044820152606401610c7e565b85355f908152600e60205260409020546001600160a01b03166133a55785355f908152600e60205260409081902080546001600160a01b031916331781559087013560019091015561332c60e0870160c08801614964565b86355f908152600e6020908152604080832080546001600160401b0395909516600160a01b0267ffffffffffffffff60a01b199095169490941784556002909301805460ff191660011790556013815282822060608a013590556014815282822060808a01359055601590522060a08701359055613416565b85355f908152600e60205260409020546001600160a01b031633146134165760405162461bcd60e51b815260206004820152602160248201527f43616c6c6572206973206e6f7420746865206576656e74206f7267616e697a656044820152603960f91b6064820152608401610c7e565b5f54613426336020890135612ce0565b5f5b876020013581101561345b57873560115f6134438486614668565b815260208101919091526040015f2055600101613428565b5086355f90815260166020908152604082208054918a0135929091613481908490614668565b9091555050604080518281526020808a01359082015233918935915f516020614a095f395f51905f52910160405180910390a39695505050505050565b5f6134c983836123a9565b156130ee575f8381526009602090815260408083206001600160a01b0386168085529252808320805460ff1916905551339286917ff6391f5c32d9c69d2a47ea670b442974b53935d1edc7fd64eb21e047a839171b9190a4506001610ea1565b61353161383b565b600a805460ff191690557f5db9ee0a495bf2e6ff9c91a7834c1ba4fdd244a5e8aa4e537bd38aeae4b073aa335b6040516001600160a01b03909116815260200160405180910390a1565b613583612c90565b600a805460ff191660011790557f62e78cea01bee320cd4e420270b5ea74000d11b0c9f74754ebdbfc544b05a25861355e3390565b60606135e57f0000000000000000000000000000000000000000000000000000000000000000600b61385e565b905090565b60606135e57f0000000000000000000000000000000000000000000000000000000000000000600c61385e565b61153e815f613907565b604051630a85bd0160e11b81525f906001600160a01b0385169063150b7a029061365590339089908890889060040161497d565b6020604051808303815f875af192505050801561368f575060408051601f3d908101601f1916820190925261368c918101906149b9565b60015b6136e2573d8080156136bc576040519150601f19603f3d011682016040523d82523d5f602084013e6136c1565b606091505b5080515f036136da576136da6368d2bf6b60e11b612d7e565b805181602001fd5b6001600160e01b031916630a85bd0160e11b149050611796565b6060601a8054610eb69061467b565b606060a06040510180604052602081039150505f815280825b600183039250600a81066030018353600a9004806137245750819003601f19909101908152919050565b6137588383613a4b565b6001600160a01b0383163b156117d1575f548281035b6137805f868380600101945086613621565b613794576137946368d2bf6b60e11b612d7e565b81811061376e57815f54146137a7575f5ffd5b5050505050565b6137b882826123a9565b610f7c5760405163e2517d3f60e01b81526001600160a01b038216600482015260248101839052604401610c7e565b5f610ea16137f3613b11565b8360405161190160f01b8152600281019290925260228201526042902090565b5f5f5f5f6138218686613c3a565b9250925092506138318282613c83565b5090949350505050565b600a5460ff16612cb457604051638dfc202b60e01b815260040160405180910390fd5b606060ff83146138785761387183613d3b565b9050610ea1565b8180546138849061467b565b80601f01602080910402602001604051908101604052809291908181526020018280546138b09061467b565b80156138fb5780601f106138d2576101008083540402835291602001916138fb565b820191905f5260205f20905b8154815290600101906020018083116138de57829003601f168201915b50505050509050610ea1565b5f61391183612e27565b9050805f8061392d865f90815260066020526040902080549091565b91509150841561396457613942818433611587565b613964576139508333610b9c565b61396457613964632ce44b5f60e11b612d7e565b613971835f886001612ec0565b801561397b575f82555b6001600160a01b0383165f81815260056020526040902080546fffffffffffffffffffffffffffffffff0190554260a01b17600360e01b175f87815260046020526040812091909155600160e11b85169003613a0457600186015f818152600460205260408120549003613a02575f548114613a02575f8181526004602052604090208590555b505b60405186905f906001600160a01b038616907fddf252ad1be2c89b69c2b068fc378daa952ba7f163c4a11628f55a4df523b3ef908390a45050600180548101905550505050565b5f805490829003613a6657613a6663b562e8dd60e01b612d7e565b613a725f848385612ec0565b5f8181526004602090815260408083206001600160a01b0387164260a01b6001881460e11b17811790915580845260059092528220805468010000000000000001860201905590819003613acf57613acf622e076360e81b612d7e565b818301825b80835f7fddf252ad1be2c89b69c2b068fc378daa952ba7f163c4a11628f55a4df523b3ef5f5fa4818160010191508103613ad457505f5550505050565b5f306001600160a01b037f000000000000000000000000000000000000000000000000000000000000000016148015613b6957507f000000000000000000000000000000000000000000000000000000000000000046145b15613b9357507f000000000000000000000000000000000000000000000000000000000000000090565b6135e5604080517f8b73c3c69bb8fe3d512ecc4cf759cc79239f7b179b0ffacaa9a75d522b39400f60208201527f0000000000000000000000000000000000000000000000000000000000000000918101919091527f000000000000000000000000000000000000000000000000000000000000000060608201524660808201523060a08201525f9060c00160405160208183030381529060405280519060200120905090565b5f5f5f8351604103613c71576020840151604085015160608601515f1a613c6388828585613d78565b955095509550505050613c7c565b505081515f91506002905b9250925092565b5f826003811115613c9657613c966149d4565b03613c9f575050565b6001826003811115613cb357613cb36149d4565b03613cd15760405163f645eedf60e01b815260040160405180910390fd5b6002826003811115613ce557613ce56149d4565b03613d065760405163fce698f760e01b815260048101829052602401610c7e565b6003826003811115613d1a57613d1a6149d4565b03610f7c576040516335e2f38360e21b815260048101829052602401610c7e565b60605f613d4783613e40565b6040805160208082528183019092529192505f91906020820181803683375050509182525060208101929092525090565b5f80807f7fffffffffffffffffffffffffffffff5d576e7357a4501ddfe92f46681b20a0841115613db157505f91506003905082613e36565b604080515f808252602082018084528a905260ff891692820192909252606081018790526080810186905260019060a0016020604051602081039080840390855afa158015613e02573d5f5f3e3d5ffd5b5050604051601f1901519150506001600160a01b038116613e2d57505f925060019150829050613e36565b92505f91508190505b9450945094915050565b5f60ff8216601f811115610ea157604051632cd44ac360e21b815260040160405180910390fd5b80356001600160a01b0381168114612d79575f5ffd5b5f5f5f60608486031215613e8f575f5ffd5b8335925060208401359150613ea660408501613e67565b90509250925092565b6001600160e01b03198116811461153e575f5ffd5b5f60208284031215613ed4575f5ffd5b8135610e9081613eaf565b5f81518084528060208401602086015e5f602082860101526020601f19601f83011685010191505092915050565b602081525f610e906020830184613edf565b5f60208284031215613f2f575f5ffd5b5035919050565b5f5f60408385031215613f47575f5ffd5b613f5083613e67565b946020939093013593505050565b5f5f83601f840112613f6e575f5ffd5b5081356001600160401b03811115613f84575f5ffd5b6020830191508360208260051b8501011115613f9e575f5ffd5b9250929050565b5f5f60208385031215613fb6575f5ffd5b82356001600160401b03811115613fcb575f5ffd5b613fd785828601613f5e565b90969095509350505050565b602080825282518282018190525f918401906040840190835b8181101561401c5783511515835260209384019390920191600101613ffc565b509095945050505050565b5f5f5f60608486031215614039575f5ffd5b61404284613e67565b925061405060208501613e67565b929592945050506040919091013590565b80356001600160401b0381168114612d79575f5ffd5b5f5f60408385031215614088575f5ffd5b8235915061409860208401614061565b90509250929050565b5f5f604083850312156140b2575f5ffd5b8235915061409860208401613e67565b5f5f83601f8401126140d2575f5ffd5b5081356001600160401b038111156140e8575f5ffd5b602083019150836020828501011115613f9e575f5ffd5b5f5f5f838503610120811215614113575f5ffd5b610100811215614121575f5ffd5b508392506101008401356001600160401b0381111561413e575f5ffd5b61414a868287016140c2565b9497909650939450505050565b5f5f60208385031215614168575f5ffd5b82356001600160401b0381111561417d575f5ffd5b613fd7858286016140c2565b5f60208284031215614199575f5ffd5b610e9082613e67565b5f8151808452602084019350602083015f5b828110156141d25781518652602095860195909101906001016141b4565b5093949350505050565b60ff60f81b8816815260e060208201525f6141fa60e0830189613edf565b828103604084015261420c8189613edf565b606084018890526001600160a01b038716608085015260a0840186905283810360c0850152905061423d81856141a2565b9a9950505050505050505050565b5f5f5f5f5f6060868803121561425f575f5ffd5b85356001600160401b03811115614274575f5ffd5b61428088828901613f5e565b90965094505060208601356001600160401b0381111561429e575f5ffd5b6142aa88828901613f5e565b90945092506142bd905060408701613e67565b90509295509295909350565b602081525f610e9060208301846141a2565b801515811461153e575f5ffd5b5f5f604083850312156142f9575f5ffd5b61430283613e67565b91506020830135614312816142db565b809150509250929050565b5f5f5f5f60408587031215614330575f5ffd5b84356001600160401b03811115614345575f5ffd5b61435187828801613f5e565b90955093505060208501356001600160401b0381111561436f575f5ffd5b61437b87828801613f5e565b95989497509550505050565b634e487b7160e01b5f52604160045260245ffd5b5f5f5f5f608085870312156143ae575f5ffd5b6143b785613e67565b93506143c560208601613e67565b92506040850135915060608501356001600160401b038111156143e6575f5ffd5b8501601f810187136143f6575f5ffd5b80356001600160401b0381111561440f5761440f614387565b604051601f8201601f19908116603f011681016001600160401b038111828210171561443d5761443d614387565b604052818152828201602001891015614454575f5ffd5b816020840160208301375f6020838301015280935050505092959194509250565b5f5f5f5f60808587031215614488575f5ffd5b5050823594602084013594506040840135936060013592509050565b5f5f5f5f604085870312156144b7575f5ffd5b84356001600160401b038111156144cc575f5ffd5b8501601f810187136144dc575f5ffd5b80356001600160401b038111156144f1575f5ffd5b8760208260081b8401011115614505575f5ffd5b6020918201955093508501356001600160401b0381111561436f575f5ffd5b5f5f60408385031215614535575f5ffd5b50508035926020909101359150565b5f5f60408385031215614555575f5ffd5b61455e83613e67565b915061409860208401613e67565b6020808252601390820152724576656e74206973206e6f742061637469766560681b604082015260600190565b634e487b7160e01b5f52601160045260245ffd5b8082028115828204841417610ea157610ea1614599565b6020808252601e908201527f5072696365206e6f7420736574206f72207175616e74697479207a65726f0000604082015260600190565b6001600160a01b039384168152919092166020820152604081019190915260600190565b5f6020828403121561462f575f5ffd5b8151610e90816142db565b6020808252601490820152731554d115081d1c985b9cd9995c8819985a5b195960621b604082015260600190565b80820180821115610ea157610ea1614599565b600181811c9082168061468f57607f821691505b6020821081036146ad57634e487b7160e01b5f52602260045260245ffd5b50919050565b634e487b7160e01b5f52603260045260245ffd5b5f826146e157634e487b7160e01b5f52601260045260245ffd5b500490565b81810381811115610ea157610ea1614599565b601f8211156117d157805f5260205f20601f840160051c8101602085101561471e5750805b601f840160051c820191505b818110156137a7575f815560010161472a565b6001600160401b0383111561475457614754614387565b61476883614762835461467b565b836146f9565b5f601f841160018114614799575f85156147825750838201355b5f19600387901b1c1916600186901b1783556137a7565b5f83815260208120601f198716915b828110156147c857868501358255602094850194600190920191016147a8565b50868210156147e4575f1960f88860031b161c19848701351681555b505060018560011b0183555050505050565b6020808252600c908201526b456d7074792061727261797360a01b604082015260600190565b6020808252600d908201526c088c2e8c240dad2e6dac2e8c6d609b1b604082015260600190565b60208082526022908201527f5175616e74697479206d7573742062652067726561746572207468616e207a65604082015261726f60f01b606082015260800190565b604080825281018390525f6001600160fb1b038411156148a3575f5ffd5b8360051b808660608501376020830193909352500160600192915050565b5f81518060208401855e5f93019283525090919050565b5f6117966148e683866148c1565b846148c1565b5f5f8335601e19843603018112614901575f5ffd5b8301803591506001600160401b0382111561491a575f5ffd5b602001915036819003821315613f9e575f5ffd5b604081525f61494060408301856141a2565b90508260208301529392505050565b5f8161495d5761495d614599565b505f190190565b5f60208284031215614974575f5ffd5b610e9082614061565b6001600160a01b03858116825284166020820152604081018390526080606082018190525f906149af90830184613edf565b9695505050505050565b5f602082840312156149c9575f5ffd5b8151610e9081613eaf565b634e487b7160e01b5f52602160045260245ffdfe0ea61da3a8a09ad801432653699f8c1860b1ae9d2ea4a141fadfd63227717bc8fca299aba08069d2d3cb077242f16b2ee054dd28b704b3729fb9b3cb8aea0beea2646970667358221220c2100fc6c8c24edee9bcf59b64b30738681d177173b763eb1db806e5427dcff764736f6c634300081c0033",
  "linkReferences": {},
  "deployedLinkReferences": {},
  "immutableReferences": {
    "3796": [
      {
        "length": 32,
        "start": 15217
      }
    ],
    "3798": [
      {
        "length": 32,
        "start": 15175
      }
    ],
    "3800": [
      {
        "length": 32,
        "start": 15133
      }
    ],
    "3802": [
      {
        "length": 32,
        "start": 15298
      }
    ],
    "3804": [
      {
        "length": 32,
        "start": 15338
      }
    ],
    "3807": [
      {
        "length": 32,
        "start": 13759
      }
    ],
    "3810": [
      {
        "length": 32,
        "start": 13809
      }
    ],
    "10890": [
      {
        "length": 32,
        "start": 2558
      },
      {
        "length": 32,
        "start": 3419
      },
      {
        "length": 32,
        "start": 4968
      },
      {
        "length": 32,
        "start": 5234
      },
      {
        "length": 32,
        "start": 6418
      },
      {
        "length": 32,
        "start": 7576
      },
      {
        "length": 32,
        "start": 8620
      }
    ],
    "10892": [
      {
        "length": 32,
        "start": 2383
      },
      {
        "length": 32,
        "start": 5187
      }
    ]
  },
  "inputSourceName": "project/contracts/ShineTicket.sol",
  "buildInfoId": "solc-0_8_28-f71f683c7ac89a2a2d20dfd904839677727781cd"
}