{
  "_format": "hh3-artifact-1",
  "contractName": "ShineTicket",
  "sourceName": "contracts/ShineTicket.sol",
  "abi": [
    {
      "inputs": [
        {
          "internalType": "address",
          "name": "defaultAdmin",
          "type": "address"
        },
        {
          "internalType": "address",
          "name": "_usdtToken",
          "type": "address"
        }
      ],
      "stateMutability": "nonpayable",
      "type": "constructor"
    },
    {
      "inputs": [],
      "name": "AccessControlBadConfirmation",
      "type": "error"
    },
    {
      "inputs": [
        {
          "internalType": "address",
          "name": "account",
          "type": "address"
        },
        {
          "internalType": "bytes32",
          "name": "neededRole",
          "type": "bytes32"
        }
      ],
      "name": "AccessControlUnauthorizedAccount",
      "type": "error"
    },
    {
      "inputs": [],
      "name": "ApprovalCallerNotOwnerNorApproved",
      "type": "error"
    },
    {
      "inputs": [],
      "name": "ApprovalQueryForNonexistentToken",
      "type": "error"
    },
    {
      "inputs": [],
      "name": "BalanceQueryForZeroAddress",
      "type": "error"
    },
    {
      "inputs": [],
      "name": "ECDSAInvalidSignature",
      "type": "error"
    },
    {
      "inputs": [
        {
          "internalType": "uint256",
          "name": "length",
          "type": "uint256"
        }
      ],
      "name": "ECDSAInvalidSignatureLength",
      "type": "error"
    },
    {
      "inputs": [
        {
          "internalType": "bytes32",
          "name": "s",
          "type": "bytes32"
        }
      ],
      "name": "ECDSAInvalidSignatureS",
      "type": "error"
    },
    {
      "inputs": [],
      "name": "EnforcedPause",
      "type": "error"
    },
    {
      "inputs": [],
      "name": "ExpectedPause",
      "type": "error"
    },
    {
      "inputs": [],
      "name": "InvalidShortString",
      "type": "error"
    },
    {
      "inputs": [],
      "name": "MintERC2309QuantityExceedsLimit",
      "type": "error"
    },
    {
      "inputs": [],
      "name": "MintToZeroAddress",
      "type": "error"
    },
    {
      "inputs": [],
      "name": "MintZeroQuantity",
      "type": "error"
    },
    {
      "inputs": [],
      "name": "NotCompatibleWithSpotMints",
      "type": "error"
    },
    {
      "inputs": [],
      "name": "OwnerQueryForNonexistentToken",
      "type": "error"
    },
    {
      "inputs": [],
      "name": "OwnershipNotInitializedForExtraData",
      "type": "error"
    },
    {
      "inputs": [],
      "name": "ReentrancyGuardReentrantCall",
      "type": "error"
    },
    {
      "inputs": [],
      "name": "SequentialMintExceedsLimit",
      "type": "error"
    },
    {
      "inputs": [],
      "name": "SequentialUpToTooSmall",
      "type": "error"
    },
    {
      "inputs": [],
      "name": "SpotMintTokenIdTooSmall",
      "type": "error"
    },
    {
      "inputs": [
        {
          "internalType": "string",
          "name": "str",
          "type": "string"
        }
      ],
      "name": "StringTooLong",
      "type": "error"
    },
    {
      "inputs": [],
      "name": "TokenAlreadyExists",
      "type": "error"
    },
    {
      "inputs": [],
      "name": "TransferCallerNotOwnerNorApproved",
      "type": "error"
    },
    {
      "inputs": [],
      "name": "TransferFromIncorrectOwner",
      "type": "error"
    },
    {
      "inputs": [],
      "name": "TransferToNonERC721ReceiverImplementer",
      "type": "error"
    },
    {
      "inputs": [],
      "name": "TransferToZeroAddress",
      "type": "error"
    },
    {
      "inputs": [],
      "name": "URIQueryForNonexistentToken",
      "type": "error"
    },
    {
      "anonymous": false,
      "inputs": [
        {
          "indexed": true,
          "internalType": "address",
          "name": "owner",
          "type": "address"
        },
        {
          "indexed": true,
          "internalType": "address",
          "name": "approved",
          "type": "address"
        },
        {
          "indexed": true,
          "internalType": "uint256",
          "name": "tokenId",
          "type": "uint256"
        }
      ],
      "name": "Approval",
      "type": "event"
    },
    {
      "anonymous": false,
      "inputs": [
        {
          "indexed": true,
          "internalType": "address",
          "name": "owner",
          "type": "address"
        },
        {
          "indexed": true,
          "internalType": "address",
          "name": "operator",
          "type": "address"
        },
        {
          "indexed": false,
          "internalType": "bool",
          "name": "approved",
          "type": "bool"
        }
      ],
      "name": "ApprovalForAll",
      "type": "event"
    },
    {
      "anonymous": false,
      "inputs": [
        {
          "indexed": true,
          "internalType": "uint256",
          "name": "fromTokenId",
          "type": "uint256"
        },
        {
          "indexed": false,
          "internalType": "uint256",
          "name": "toTokenId",
          "type": "uint256"
        },
        {
          "indexed": true,
          "internalType": "address",
          "name": "from",
          "type": "address"
        },
        {
          "indexed": true,
          "internalType": "address",
          "name": "to",
          "type": "address"
        }
      ],
      "name": "ConsecutiveTransfer",
      "type": "event"
    },
    {
      "anonymous": false,
      "inputs": [],
      "name": "EIP712DomainChanged",
      "type": "event"
    },
    {
      "anonymous": false,
      "inputs": [
        {
          "indexed": false,
          "internalType": "address",
          "name": "account",
          "type": "address"
        }
      ],
      "name": "Paused",
      "type": "event"
    },
    {
      "anonymous": false,
      "inputs": [
        {
          "indexed": true,
          "internalType": "bytes32",
          "name": "role",
          "type": "bytes32"
        },
        {
          "indexed": true,
          "internalType": "bytes32",
          "name": "previousAdminRole",
          "type": "bytes32"
        },
        {
          "indexed": true,
          "internalType": "bytes32",
          "name": "newAdminRole",
          "type": "bytes32"
        }
      ],
      "name": "RoleAdminChanged",
      "type": "event"
    },
    {
      "anonymous": false,
      "inputs": [
        {
          "indexed": true,
          "internalType": "bytes32",
          "name": "role",
          "type": "bytes32"
        },
        {
          "indexed": true,
          "internalType": "address",
          "name": "account",
          "type": "address"
        },
        {
          "indexed": true,
          "internalType": "address",
          "name": "sender",
          "type": "address"
        }
      ],
      "name": "RoleGranted",
      "type": "event"
    },
    {
      "anonymous": false,
      "inputs": [
        {
          "indexed": true,
          "internalType": "bytes32",
          "name": "role",
          "type": "bytes32"
        },
        {
          "indexed": true,
          "internalType": "address",
          "name": "account",
          "type": "address"
        },
        {
          "indexed": true,
          "internalType": "address",
          "name": "sender",
          "type": "address"
        }
      ],
      "name": "RoleRevoked",
      "type": "event"
    },
    {
      "anonymous": false,
      "inputs": [
        {
          "indexed": false,
          "internalType": "uint256[]",
          "name": "tokenIds",
          "type": "uint256[]"
        },
        {
          "indexed": false,
          "internalType": "uint256",
          "name": "timestamp",
          "type": "uint256"
        }
      ],
      "name": "TicketsCheckedIn",
      "type": "event"
    },
    {
      "anonymous": false,
      "inputs": [
        {
          "indexed": true,
          "internalType": "address",
          "name": "from",
          "type": "address"
        },
        {
          "indexed": true,
          "internalType": "address",
          "name": "to",
          "type": "address"
        },
        {
          "indexed": true,
          "internalType": "uint256",
          "name": "tokenId",
          "type": "uint256"
        }
      ],
      "name": "Transfer",
      "type": "event"
    },
    {
      "anonymous": false,
      "inputs": [
        {
          "indexed": false,
          "internalType": "address",
          "name": "account",
          "type": "address"
        }
      ],
      "name": "Unpaused",
      "type": "event"
    },
    {
      "inputs": [],
      "name": "DEFAULT_ADMIN_ROLE",
      "outputs": [
        {
          "internalType": "bytes32",
          "name": "",
          "type": "bytes32"
        }
      ],
      "stateMutability": "view",
      "type": "function"
    },
    {
      "inputs": [],
      "name": "MARKETPLACE_ROLE",
      "outputs": [
        {
          "internalType": "bytes32",
          "name": "",
          "type": "bytes32"
        }
      ],
      "stateMutability": "view",
      "type": "function"
    },
    {
      "inputs": [],
      "name": "OPERATOR_ROLE",
      "outputs": [
        {
          "internalType": "bytes32",
          "name": "",
          "type": "bytes32"
        }
      ],
      "stateMutability": "view",
      "type": "function"
    },
    {
      "inputs": [],
      "name": "ORGANIZER_ROLE",
      "outputs": [
        {
          "internalType": "bytes32",
          "name": "",
          "type": "bytes32"
        }
      ],
      "stateMutability": "view",
      "type": "function"
    },
    {
      "inputs": [],
      "name": "VOUCHER_TYPEHASH",
      "outputs": [
        {
          "internalType": "bytes32",
          "name": "",
          "type": "bytes32"
        }
      ],
      "stateMutability": "view",
      "type": "function"
    },
    {
      "inputs": [],
      "name": "adminTreasury",
      "outputs": [
        {
          "internalType": "address",
          "name": "",
          "type": "address"
        }
      ],
      "stateMutability": "view",
      "type": "function"
    },
    {
      "inputs": [
        {
          "internalType": "address",
          "name": "to",
          "type": "address"
        },
        {
          "internalType": "uint256",
          "name": "tokenId",
          "type": "uint256"
        }
      ],
      "name": "approve",
      "outputs": [],
      "stateMutability": "payable",
      "type": "function"
    },
    {
      "inputs": [
        {
          "internalType": "address",
          "name": "owner",
          "type": "address"
        }
      ],
      "name": "balanceOf",
      "outputs": [
        {
          "internalType": "uint256",
          "name": "",
          "type": "uint256"
        }
      ],
      "stateMutability": "view",
      "type": "function"
    },
    {
      "inputs": [
        {
          "internalType": "uint256[]",
          "name": "tokenIds",
          "type": "uint256[]"
        }
      ],
      "name": "batchCheckIn",
      "outputs": [],
      "stateMutability": "nonpayable",
      "type": "function"
    },
    {
      "inputs": [
        {
          "internalType": "uint256",
          "name": "eventId",
          "type": "uint256"
        },
        {
          "internalType": "uint256",
          "name": "quantity",
          "type": "uint256"
        }
      ],
      "name": "buyTicket",
      "outputs": [],
      "stateMutability": "nonpayable",
      "type": "function"
    },
    {
      "inputs": [
        {
          "internalType": "uint256",
          "name": "tokenId",
          "type": "uint256"
        }
      ],
      "name": "checkIn",
      "outputs": [],
      "stateMutability": "nonpayable",
      "type": "function"
    },
    {
      "inputs": [
        {
          "internalType": "uint256",
          "name": "eventId",
          "type": "uint256"
        }
      ],
      "name": "claimFunds",
      "outputs": [],
      "stateMutability": "nonpayable",
      "type": "function"
    },
    {
      "inputs": [],
      "name": "eip712Domain",
      "outputs": [
        {
          "internalType": "bytes1",
          "name": "fields",
          "type": "bytes1"
        },
        {
          "internalType": "string",
          "name": "name",
          "type": "string"
        },
        {
          "internalType": "string",
          "name": "version",
          "type": "string"
        },
        {
          "internalType": "uint256",
          "name": "chainId",
          "type": "uint256"
        },
        {
          "internalType": "address",
          "name": "verifyingContract",
          "type": "address"
        },
        {
          "internalType": "bytes32",
          "name": "salt",
          "type": "bytes32"
        },
        {
          "internalType": "uint256[]",
          "name": "extensions",
          "type": "uint256[]"
        }
      ],
      "stateMutability": "view",
      "type": "function"
    },
    {
      "inputs": [
        {
          "internalType": "uint256",
          "name": "",
          "type": "uint256"
        }
      ],
      "name": "eventCheckedInCount",
      "outputs": [
        {
          "internalType": "uint256",
          "name": "",
          "type": "uint256"
        }
      ],
      "stateMutability": "view",
      "type": "function"
    },
    {
      "inputs": [
        {
          "internalType": "uint256",
          "name": "",
          "type": "uint256"
        }
      ],
      "name": "eventCheckinGasPerTicket",
      "outputs": [
        {
          "internalType": "uint256",
          "name": "",
          "type": "uint256"
        }
      ],
      "stateMutability": "view",
      "type": "function"
    },
    {
      "inputs": [
        {
          "internalType": "uint256",
          "name": "",
          "type": "uint256"
        }
      ],
      "name": "eventCommissionRateBps",
      "outputs": [
        {
          "internalType": "uint256",
          "name": "",
          "type": "uint256"
        }
      ],
      "stateMutability": "view",
      "type": "function"
    },
    {
      "inputs": [
        {
          "internalType": "uint256",
          "name": "",
          "type": "uint256"
        }
      ],
      "name": "eventMintedCount",
      "outputs": [
        {
          "internalType": "uint256",
          "name": "",
          "type": "uint256"
        }
      ],
      "stateMutability": "view",
      "type": "function"
    },
    {
      "inputs": [
        {
          "internalType": "uint256",
          "name": "",
          "type": "uint256"
        }
      ],
      "name": "eventRelayerGasPerTicket",
      "outputs": [
        {
          "internalType": "uint256",
          "name": "",
          "type": "uint256"
        }
      ],
      "stateMutability": "view",
      "type": "function"
    },
    {
      "inputs": [
        {
          "internalType": "uint256",
          "name": "",
          "type": "uint256"
        }
      ],
      "name": "eventRelayerSoldCount",
      "outputs": [
        {
          "internalType": "uint256",
          "name": "",
          "type": "uint256"
        }
      ],
      "stateMutability": "view",
      "type": "function"
    },
    {
      "inputs": [
        {
          "internalType": "uint256",
          "name": "",
          "type": "uint256"
        }
      ],
      "name": "eventRevenue",
      "outputs": [
        {
          "internalType": "uint256",
          "name": "",
          "type": "uint256"
        }
      ],
      "stateMutability": "view",
      "type": "function"
    },
    {
      "inputs": [
        {
          "internalType": "uint256",
          "name": "",
          "type": "uint256"
        }
      ],
      "name": "events",
      "outputs": [
        {
          "internalType": "address",
          "name": "organizer",
          "type": "address"
        },
        {
          "internalType": "uint64",
          "name": "expiryTime",
          "type": "uint64"
        },
        {
          "internalType": "uint32",
          "name": "maxCapacity",
          "type": "uint32"
        },
        {
          "internalType": "uint256",
          "name": "price",
          "type": "uint256"
        },
        {
          "internalType": "bool",
          "name": "isActive",
          "type": "bool"
        }
      ],
      "stateMutability": "view",
      "type": "function"
    },
    {
      "inputs": [
        {
          "internalType": "uint256",
          "name": "eventId",
          "type": "uint256"
        },
        {
          "internalType": "uint64",
          "name": "newExpiry",
          "type": "uint64"
        }
      ],
      "name": "extendEventExpiry",
      "outputs": [],
      "stateMutability": "nonpayable",
      "type": "function"
    },
    {
      "inputs": [
        {
          "internalType": "uint256",
          "name": "",
          "type": "uint256"
        }
      ],
      "name": "fundsClaimed",
      "outputs": [
        {
          "internalType": "bool",
          "name": "",
          "type": "bool"
        }
      ],
      "stateMutability": "view",
      "type": "function"
    },
    {
      "inputs": [
        {
          "internalType": "uint256",
          "name": "tokenId",
          "type": "uint256"
        }
      ],
      "name": "getApproved",
      "outputs": [
        {
          "internalType": "address",
          "name": "",
          "type": "address"
        }
      ],
      "stateMutability": "view",
      "type": "function"
    },
    {
      "inputs": [
        {
          "internalType": "uint256[]",
          "name": "tokenIds",
          "type": "uint256[]"
        }
      ],
      "name": "getBatchTicketStatus",
      "outputs": [
        {
          "internalType": "bool[]",
          "name": "",
          "type": "bool[]"
        }
      ],
      "stateMutability": "view",
      "type": "function"
    },
    {
      "inputs": [
        {
          "internalType": "bytes32",
          "name": "role",
          "type": "bytes32"
        }
      ],
      "name": "getRoleAdmin",
      "outputs": [
        {
          "internalType": "bytes32",
          "name": "",
          "type": "bytes32"
        }
      ],
      "stateMutability": "view",
      "type": "function"
    },
    {
      "inputs": [
        {
          "internalType": "bytes32",
          "name": "role",
          "type": "bytes32"
        },
        {
          "internalType": "address",
          "name": "account",
          "type": "address"
        }
      ],
      "name": "grantRole",
      "outputs": [],
      "stateMutability": "nonpayable",
      "type": "function"
    },
    {
      "inputs": [
        {
          "internalType": "bytes32",
          "name": "role",
          "type": "bytes32"
        },
        {
          "internalType": "address",
          "name": "account",
          "type": "address"
        }
      ],
      "name": "hasRole",
      "outputs": [
        {
          "internalType": "bool",
          "name": "",
          "type": "bool"
        }
      ],
      "stateMutability": "view",
      "type": "function"
    },
    {
      "inputs": [
        {
          "internalType": "address",
          "name": "owner",
          "type": "address"
        },
        {
          "internalType": "address",
          "name": "operator",
          "type": "address"
        }
      ],
      "name": "isApprovedForAll",
      "outputs": [
        {
          "internalType": "bool",
          "name": "",
          "type": "bool"
        }
      ],
      "stateMutability": "view",
      "type": "function"
    },
    {
      "inputs": [
        {
          "internalType": "address[]",
          "name": "recipients",
          "type": "address[]"
        },
        {
          "internalType": "uint256[]",
          "name": "quantities",
          "type": "uint256[]"
        }
      ],
      "name": "mintBatchUsers",
      "outputs": [],
      "stateMutability": "nonpayable",
      "type": "function"
    },
    {
      "inputs": [
        {
          "components": [
            {
              "internalType": "uint256",
              "name": "eventId",
              "type": "uint256"
            },
            {
              "internalType": "uint256",
              "name": "quantity",
              "type": "uint256"
            },
            {
              "internalType": "uint256",
              "name": "commissionRateBps",
              "type": "uint256"
            },
            {
              "internalType": "uint256",
              "name": "relayerGasPerTicket",
              "type": "uint256"
            },
            {
              "internalType": "uint256",
              "name": "checkinGasPerTicket",
              "type": "uint256"
            },
            {
              "internalType": "uint64",
              "name": "expiryTime",
              "type": "uint64"
            },
            {
              "internalType": "uint256",
              "name": "nonce",
              "type": "uint256"
            }
          ],
          "internalType": "struct ShineTicket.MintVoucher",
          "name": "voucher",
          "type": "tuple"
        },
        {
          "internalType": "bytes",
          "name": "signature",
          "type": "bytes"
        }
      ],
      "name": "mintEventTickets",
      "outputs": [],
      "stateMutability": "nonpayable",
      "type": "function"
    },
    {
      "inputs": [],
      "name": "name",
      "outputs": [
        {
          "internalType": "string",
          "name": "",
          "type": "string"
        }
      ],
      "stateMutability": "view",
      "type": "function"
    },
    {
      "inputs": [
        {
          "internalType": "uint256",
          "name": "tokenId",
          "type": "uint256"
        }
      ],
      "name": "ownerOf",
      "outputs": [
        {
          "internalType": "address",
          "name": "",
          "type": "address"
        }
      ],
      "stateMutability": "view",
      "type": "function"
    },
    {
      "inputs": [],
      "name": "pause",
      "outputs": [],
      "stateMutability": "nonpayable",
      "type": "function"
    },
    {
      "inputs": [],
      "name": "paused",
      "outputs": [
        {
          "internalType": "bool",
          "name": "",
          "type": "bool"
        }
      ],
      "stateMutability": "view",
      "type": "function"
    },
    {
      "inputs": [
        {
          "internalType": "uint256",
          "name": "eventId",
          "type": "uint256"
        },
        {
          "internalType": "uint256",
          "name": "quantity",
          "type": "uint256"
        },
        {
          "internalType": "address",
          "name": "buyerAddress",
          "type": "address"
        }
      ],
      "name": "relayerBuyTicket",
      "outputs": [],
      "stateMutability": "nonpayable",
      "type": "function"
    },
    {
      "inputs": [
        {
          "internalType": "bytes32",
          "name": "role",
          "type": "bytes32"
        },
        {
          "internalType": "address",
          "name": "callerConfirmation",
          "type": "address"
        }
      ],
      "name": "renounceRole",
      "outputs": [],
      "stateMutability": "nonpayable",
      "type": "function"
    },
    {
      "inputs": [
        {
          "internalType": "bytes32",
          "name": "role",
          "type": "bytes32"
        },
        {
          "internalType": "address",
          "name": "account",
          "type": "address"
        }
      ],
      "name": "revokeRole",
      "outputs": [],
      "stateMutability": "nonpayable",
      "type": "function"
    },
    {
      "inputs": [
        {
          "internalType": "uint256",
          "name": "tokenId",
          "type": "uint256"
        }
      ],
      "name": "revokeTicket",
      "outputs": [],
      "stateMutability": "nonpayable",
      "type": "function"
    },
    {
      "inputs": [
        {
          "internalType": "address",
          "name": "from",
          "type": "address"
        },
        {
          "internalType": "address",
          "name": "to",
          "type": "address"
        },
        {
          "internalType": "uint256",
          "name": "tokenId",
          "type": "uint256"
        }
      ],
      "name": "safeTransferFrom",
      "outputs": [],
      "stateMutability": "payable",
      "type": "function"
    },
    {
      "inputs": [
        {
          "internalType": "address",
          "name": "from",
          "type": "address"
        },
        {
          "internalType": "address",
          "name": "to",
          "type": "address"
        },
        {
          "internalType": "uint256",
          "name": "tokenId",
          "type": "uint256"
        },
        {
          "internalType": "bytes",
          "name": "_data",
          "type": "bytes"
        }
      ],
      "name": "safeTransferFrom",
      "outputs": [],
      "stateMutability": "payable",
      "type": "function"
    },
    {
      "inputs": [
        {
          "internalType": "address",
          "name": "operator",
          "type": "address"
        },
        {
          "internalType": "bool",
          "name": "approved",
          "type": "bool"
        }
      ],
      "name": "setApprovalForAll",
      "outputs": [],
      "stateMutability": "nonpayable",
      "type": "function"
    },
    {
      "inputs": [
        {
          "internalType": "string",
          "name": "baseURI",
          "type": "string"
        }
      ],
      "name": "setBaseURI",
      "outputs": [],
      "stateMutability": "nonpayable",
      "type": "function"
    },
    {
      "inputs": [
        {
          "internalType": "uint256",
          "name": "eventId",
          "type": "uint256"
        },
        {
          "internalType": "uint256",
          "name": "commissionRateBps",
          "type": "uint256"
        },
        {
          "internalType": "uint256",
          "name": "relayerGasPerTicket",
          "type": "uint256"
        },
        {
          "internalType": "uint256",
          "name": "checkinGasPerTicket",
          "type": "uint256"
        }
      ],
      "name": "setEventCostConfig",
      "outputs": [],
      "stateMutability": "nonpayable",
      "type": "function"
    },
    {
      "inputs": [
        {
          "internalType": "uint256",
          "name": "eventId",
          "type": "uint256"
        },
        {
          "internalType": "uint256",
          "name": "price",
          "type": "uint256"
        }
      ],
      "name": "setEventPrice",
      "outputs": [],
      "stateMutability": "nonpayable",
      "type": "function"
    },
    {
      "inputs": [
        {
          "internalType": "bytes4",
          "name": "interfaceId",
          "type": "bytes4"
        }
      ],
      "name": "supportsInterface",
      "outputs": [
        {
          "internalType": "bool",
          "name": "",
          "type": "bool"
        }
      ],
      "stateMutability": "view",
      "type": "function"
    },
    {
      "inputs": [],
      "name": "symbol",
      "outputs": [
        {
          "internalType": "string",
          "name": "",
          "type": "string"
        }
      ],
      "stateMutability": "view",
      "type": "function"
    },
    {
      "inputs": [
        {
          "internalType": "uint256",
          "name": "",
          "type": "uint256"
        }
      ],
      "name": "ticketToEvent",
      "outputs": [
        {
          "internalType": "uint256",
          "name": "",
          "type": "uint256"
        }
      ],
      "stateMutability": "view",
      "type": "function"
    },
    {
      "inputs": [
        {
          "internalType": "uint256",
          "name": "",
          "type": "uint256"
        }
      ],
      "name": "ticketUsed",
      "outputs": [
        {
          "internalType": "bool",
          "name": "",
          "type": "bool"
        }
      ],
      "stateMutability": "view",
      "type": "function"
    },
    {
      "inputs": [
        {
          "internalType": "uint256",
          "name": "tokenId",
          "type": "uint256"
        }
      ],
      "name": "tokenURI",
      "outputs": [
        {
          "internalType": "string",
          "name": "",
          "type": "string"
        }
      ],
      "stateMutability": "view",
      "type": "function"
    },
    {
      "inputs": [],
      "name": "totalSupply",
      "outputs": [
        {
          "internalType": "uint256",
          "name": "result",
          "type": "uint256"
        }
      ],
      "stateMutability": "view",
      "type": "function"
    },
    {
      "inputs": [
        {
          "internalType": "address",
          "name": "from",
          "type": "address"
        },
        {
          "internalType": "address",
          "name": "to",
          "type": "address"
        },
        {
          "internalType": "uint256",
          "name": "tokenId",
          "type": "uint256"
        }
      ],
      "name": "transferFrom",
      "outputs": [],
      "stateMutability": "payable",
      "type": "function"
    },
    {
      "inputs": [],
      "name": "unpause",
      "outputs": [],
      "stateMutability": "nonpayable",
      "type": "function"
    },
    {
      "inputs": [],
      "name": "usdtToken",
      "outputs": [
        {
          "internalType": "contract IERC20",
          "name": "",
          "type": "address"
        }
      ],
      "stateMutability": "view",
      "type": "function"
    },
    {
      "inputs": [
        {
          "internalType": "uint256",
          "name": "",
          "type": "uint256"
        }
      ],
      "name": "usedNonces",
      "outputs": [
        {
          "internalType": "bool",
          "name": "",
          "type": "bool"
        }
      ],
      "stateMutability": "view",
      "type": "function"
    }
  ],
  "bytecode": "0x6101a0604052348015610010575f5ffd5b5060405161427d38038061427d83398101604081905261002f91610372565b604080518082018252600b8082526a14da1a5b99551a58dad95d60aa1b60208084018290528451808601865260018152603160f81b818301528551808701875293845283820192909252845180860190955260058552645348494e4560d81b90850152919260026100a0838261043b565b5060036100ad828261043b565b505060015f55506100bf82600b61023d565b610120526100ce81600c61023d565b61014052815160208084019190912060e052815190820120610100524660a05261015a60e05161010051604080517f8b73c3c69bb8fe3d512ecc4cf759cc79239f7b179b0ffacaa9a75d522b39400f60208201529081019290925260608201524660808201523060a08201525f9060c00160405160208183030381529060405280519060200120905090565b60805250503060c0526001600d556001600160a01b0381166101c35760405162461bcd60e51b815260206004820152601460248201527f496e76616c69642055534454206164647265737300000000000000000000000060448201526064015b60405180910390fd5b6001600160a01b0382166102195760405162461bcd60e51b815260206004820152601560248201527f496e76616c69642061646d696e2061646472657373000000000000000000000060448201526064016101ba565b6102235f8361026f565b506001600160a01b0390811661016052166101805261054d565b5f602083511015610258576102518361031a565b9050610269565b81610263848261043b565b5060ff90505b92915050565b5f8281526009602090815260408083206001600160a01b038516845290915281205460ff16610313575f8381526009602090815260408083206001600160a01b03861684529091529020805460ff191660011790556102cb3390565b6001600160a01b0316826001600160a01b0316847f2f8788117e7eff1d82e926ec794901d17c78024a50270940304540a733656f0d60405160405180910390a4506001610269565b505f610269565b5f5f829050601f81511115610344578260405163305a27a960e01b81526004016101ba91906104f5565b805161034f8261052a565b179392505050565b80516001600160a01b038116811461036d575f5ffd5b919050565b5f5f60408385031215610383575f5ffd5b61038c83610357565b915061039a60208401610357565b90509250929050565b634e487b7160e01b5f52604160045260245ffd5b600181811c908216806103cb57607f821691505b6020821081036103e957634e487b7160e01b5f52602260045260245ffd5b50919050565b601f82111561043657805f5260205f20601f840160051c810160208510156104145750805b601f840160051c820191505b81811015610433575f8155600101610420565b50505b505050565b81516001600160401b03811115610454576104546103a3565b6104688161046284546103b7565b846103ef565b6020601f82116001811461049a575f83156104835750848201515b5f19600385901b1c1916600184901b178455610433565b5f84815260208120601f198516915b828110156104c957878501518255602094850194600190920191016104a9565b50848210156104e657868401515f19600387901b60f8161c191681555b50505050600190811b01905550565b602081525f82518060208401528060208501604085015e5f604082850101526040601f19601f83011684010191505092915050565b805160208083015191908110156103e9575f1960209190910360031b1b16919050565b60805160a05160c05160e0516101005161012051610140516101605161018051613ca86105d55f395f81816108d5015261113f01525f8181610984015281816110640152818161116e015281816114f30152611c4001525f612b4401525f612b1201525f612e3a01525f612e1201525f612d6d01525f612d9701525f612dc10152613ca85ff3fe608060405260043610610341575f3560e01c806370a08231116101bd578063a98ad46c116100f2578063d29ab4d111610092578063e95a644f1161006d578063e95a644f14610aca578063e985e9c514610ae9578063f5b541a614610b30578063f6ac04da14610b63575f5ffd5b8063d29ab4d114610a61578063d547741f14610a8c578063dc68cba514610aab575f5ffd5b8063b955e4ad116100cd578063b955e4ad146109d8578063c3439f3f14610a03578063c87b56dd14610a23578063cb0c800514610a42575f5ffd5b8063a98ad46c14610973578063afc573b1146109a6578063b88d4fde146109c5575f5ffd5b8063947e59b41161015d5780639b9ac6c3116101385780639b9ac6c3146108f7578063a1e234d314610916578063a217fddf14610941578063a22cb46514610954575f5ffd5b8063947e59b41461089157806395d89b41146108b057806396cad0db146108c4575f5ffd5b806384b0196e1161019857806384b0196e146107ed5780638bc1344b1461081457806391d148541461083f57806394739e871461085e575f5ffd5b806370a08231146107875780637909cb59146107a65780638456cb59146107d9575f5ffd5b80632b07ee8a1161029357806357b9bae811610233578063642b5f9b1161020e578063642b5f9b146106e15780636717e41c1461070f578063672342541461073d5780636fa605e31461075c575f5ffd5b806357b9bae8146106805780635c975abb146106ab5780636352211e146106c2575f5ffd5b80633f4ba83a1161026e5780633f4ba83a1461061b57806342842e0e1461062f57806353d49cc71461064257806355f804b314610661575f5ffd5b80632b07ee8a146105be5780632f2ff15d146105dd57806336568abe146105fc575f5ffd5b806318160ddd116102fe57806323b872dd116102d957806323b872dd14610533578063248a9ca31461054657806326abfeba14610574578063298ec2081461059f575f5ffd5b806318160ddd146104bf57806319fcf7cb146104e85780631b55e33814610514575f5ffd5b806301ffc9a71461034557806306fdde0314610379578063081812fc1461039a578063095ea7b3146103d15780630b791430146103e6578063157285b914610491575b5f5ffd5b348015610350575f5ffd5b5061036461035f36600461337f565b610b8e565b60405190151581526020015b60405180910390f35b348015610384575f5ffd5b5061038d610b9e565b60405161037091906133c8565b3480156103a5575f5ffd5b506103b96103b43660046133da565b610c2e565b6040516001600160a01b039091168152602001610370565b6103e46103df366004613407565b610c67565b005b3480156103f1575f5ffd5b5061044a6104003660046133da565b600e6020525f90815260409020805460018201546002909201546001600160a01b03821692600160a01b83046001600160401b031692600160e01b900463ffffffff169160ff1685565b604080516001600160a01b0390961686526001600160401b03909416602086015263ffffffff9092169284019290925260608301919091521515608082015260a001610370565b34801561049c575f5ffd5b506103646104ab3660046133da565b60196020525f908152604090205460ff1681565b3480156104ca575f5ffd5b506104da6001545f54035f190190565b604051908152602001610370565b3480156104f3575f5ffd5b50610507610502366004613476565b610c77565b60405161037091906134b4565b34801561051f575f5ffd5b506103e461052e3660046133da565b610d7e565b6103e46105413660046134f8565b61123d565b348015610551575f5ffd5b506104da6105603660046133da565b5f9081526009602052604090206001015490565b34801561057f575f5ffd5b506104da61058e3660046133da565b60166020525f908152604090205481565b3480156105aa575f5ffd5b506103e46105b9366004613532565b6113ae565b3480156105c9575f5ffd5b506103e46105d8366004613568565b611614565b3480156105e8575f5ffd5b506103e46105f7366004613592565b6116ba565b348015610607575f5ffd5b506103e4610616366004613592565b6116e4565b348015610626575f5ffd5b506103e461171c565b6103e461063d3660046134f8565b61172e565b34801561064d575f5ffd5b506103e461065c3660046135f0565b611748565b34801561066c575f5ffd5b506103e461067b366004613646565b611ad0565b34801561068b575f5ffd5b506104da61069a3660046133da565b60176020525f908152604090205481565b3480156106b6575f5ffd5b50600a5460ff16610364565b3480156106cd575f5ffd5b506103b96106dc3660046133da565b611ae7565b3480156106ec575f5ffd5b506103646106fb3660046133da565b600f6020525f908152604090205460ff1681565b34801561071a575f5ffd5b506103646107293660046133da565b60106020525f908152604090205460ff1681565b348015610748575f5ffd5b506103e4610757366004613678565b611af1565b348015610767575f5ffd5b506104da6107763660046133da565b60126020525f908152604090205481565b348015610792575f5ffd5b506104da6107a13660046136aa565b611d84565b3480156107b1575f5ffd5b506104da7f4d2e7a1e3f5dd6e203f087b15756ccf0e4ccd947fe1b639a38540089a1e47f6381565b3480156107e4575f5ffd5b506103e4611dc7565b3480156107f8575f5ffd5b50610801611dd9565b60405161037097969594939291906136fd565b34801561081f575f5ffd5b506104da61082e3660046133da565b60146020525f908152604090205481565b34801561084a575f5ffd5b50610364610859366004613592565b611e1b565b348015610869575f5ffd5b506104da7f747f22a7468bc4d84db260e0727783c637ad885a807bc25fd862064290d45b8c81565b34801561089c575f5ffd5b506103e46108ab3660046133da565b611e45565b3480156108bb575f5ffd5b5061038d611e60565b3480156108cf575f5ffd5b506103b97f000000000000000000000000000000000000000000000000000000000000000081565b348015610902575f5ffd5b506103e4610911366004613476565b611e6f565b348015610921575f5ffd5b506104da6109303660046133da565b60156020525f908152604090205481565b34801561094c575f5ffd5b506104da5f81565b34801561095f575f5ffd5b506103e461096e366004613779565b611ffa565b34801561097e575f5ffd5b506103b97f000000000000000000000000000000000000000000000000000000000000000081565b3480156109b1575f5ffd5b506103e46109c03660046137ae565b612065565b6103e46109d336600461382c565b612118565b3480156109e3575f5ffd5b506104da6109f23660046133da565b60136020525f908152604090205481565b348015610a0e575f5ffd5b506104da5f516020613c535f395f51905f5281565b348015610a2e575f5ffd5b5061038d610a3d3660046133da565b612153565b348015610a4d575f5ffd5b506103e4610a5c366004613906565b6121cb565b348015610a6c575f5ffd5b506104da610a7b3660046133da565b60186020525f908152604090205481565b348015610a97575f5ffd5b506103e4610aa6366004613592565b6122b7565b348015610ab6575f5ffd5b506103e4610ac5366004613532565b6122db565b348015610ad5575f5ffd5b506103e4610ae43660046133da565b61234c565b348015610af4575f5ffd5b50610364610b03366004613935565b6001600160a01b039182165f90815260076020908152604080832093909416825291909152205460ff1690565b348015610b3b575f5ffd5b506104da7f97667070c54ef182b0f5858b034beac1b6f3089aa2d3188bb1e8929f4fa9b92981565b348015610b6e575f5ffd5b506104da610b7d3660046133da565b60116020525f908152604090205481565b5f610b9882612558565b92915050565b606060028054610bad9061395d565b80601f0160208091040260200160405190810160405280929190818152602001828054610bd99061395d565b8015610c245780601f10610bfb57610100808354040283529160200191610c24565b820191905f5260205f20905b815481529060010190602001808311610c0757829003601f168201915b5050505050905090565b5f610c388261258c565b610c4c57610c4c6333d1c03960e21b6125d6565b505f908152600660205260409020546001600160a01b031690565b610c73828260016125de565b5050565b60605f826001600160401b03811115610c9257610c92613818565b604051908082528060200260200182016040528015610cbb578160200160208202803683370190505b5090505f5b83811015610d7657610ce9858583818110610cdd57610cdd613995565b9050602002013561258c565b610d15575f828281518110610d0057610d00613995565b91151560209283029190910190910152610d6e565b600f5f868684818110610d2a57610d2a613995565b9050602002013581526020019081526020015f205f9054906101000a900460ff16828281518110610d5d57610d5d613995565b911515602092830291909101909101525b600101610cc0565b509392505050565b610d8661267f565b610d8e6126a9565b5f818152600e6020908152604091829020825160a08101845281546001600160a01b038116808352600160a01b82046001600160401b031694830194909452600160e01b900463ffffffff1693810193909352600181015460608401526002015460ff16151560808301523314610e4c5760405162461bcd60e51b815260206004820152601860248201527f4f6e6c79206f7267616e697a65722063616e20636c61696d000000000000000060448201526064015b60405180910390fd5b80602001516001600160401b03164211610e9e5760405162461bcd60e51b8152602060048201526013602482015272115d995b9d081b9bdd08195b991959081e595d606a1b6044820152606401610e43565b5f8281526019602052604090205460ff1615610ef45760405162461bcd60e51b8152602060048201526015602482015274119d5b991cc8185b1c9958591e4818db185a5b5959605a1b6044820152606401610e43565b5f828152601960209081526040808320805460ff19166001179055601290915290205480610f5a5760405162461bcd60e51b81526020600482015260136024820152724e6f20726576656e756520746f20636c61696d60681b6044820152606401610e43565b5f8381526013602052604081205461271090610f7690846139bd565b610f8091906139d4565b5f8581526015602090815260408083205460189092528220549293509091610fa891906139bd565b5f86815260146020908152604080832054601790925290912054610fcc91906139bd565b610fd691906139f3565b90505f610fe382846139f3565b9050808410156110355760405162461bcd60e51b815260206004820181905260248201527f526576656e7565206973206c657373207468616e2073797374656d20666565736044820152606401610e43565b5f6110408286613a06565b905080156111225760405163a9059cbb60e01b8152336004820152602481018290527f00000000000000000000000000000000000000000000000000000000000000006001600160a01b03169063a9059cbb906044016020604051808303815f875af11580156110b2573d5f5f3e3d5ffd5b505050506040513d601f19601f820116820180604052508101906110d69190613a19565b6111225760405162461bcd60e51b815260206004820152601960248201527f4f7267616e697a6572207472616e73666572206661696c6564000000000000006044820152606401610e43565b811561121c5760405163a9059cbb60e01b81526001600160a01b037f000000000000000000000000000000000000000000000000000000000000000081166004830152602482018490527f0000000000000000000000000000000000000000000000000000000000000000169063a9059cbb906044016020604051808303815f875af11580156111b4573d5f5f3e3d5ffd5b505050506040513d601f19601f820116820180604052508101906111d89190613a19565b61121c5760405162461bcd60e51b815260206004820152601560248201527410591b5a5b881d1c985b9cd9995c8819985a5b1959605a1b6044820152606401610e43565b5050505f848152601260205260408120555061123a91506126cf9050565b50565b5f611247826126d6565b6001600160a01b03948516949091508116841461126d5761126d62a1148160e81b6125d6565b5f82815260066020526040902080546112988187335b6001600160a01b039081169116811491141790565b6112ba576112a68633610b03565b6112ba576112ba632ce44b5f60e11b6125d6565b6112c7868686600161276f565b80156112d1575f82555b6001600160a01b038681165f9081526005602052604080822080545f19019055918716808252919020805460010190554260a01b17600160e11b175f85815260046020526040812091909155600160e11b8416900361135d57600184015f81815260046020526040812054900361135b575f54811461135b575f8181526004602052604090208490555b505b6001600160a01b0385168481887fddf252ad1be2c89b69c2b068fc378daa952ba7f163c4a11628f55a4df523b3ef5f80a4805f036113a5576113a5633a954ecd60e21b6125d6565b50505050505050565b6113b66126a9565b6113be61267f565b5f828152600e6020908152604091829020825160a08101845281546001600160a01b0381168252600160a01b81046001600160401b031693820193909352600160e01b90920463ffffffff16928201929092526001820154606082015260029091015460ff1615156080820181905261146f5760405162461bcd60e51b81526020600482015260136024820152724576656e74206973206e6f742061637469766560681b6044820152606401610e43565b5f82826060015161148091906139bd565b90505f81116114d15760405162461bcd60e51b815260206004820152601e60248201527f5072696365206e6f7420736574206f72207175616e74697479207a65726f00006044820152606401610e43565b6040516323b872dd60e01b8152336004820152306024820152604481018290527f00000000000000000000000000000000000000000000000000000000000000006001600160a01b0316906323b872dd906064016020604051808303815f875af1158015611541573d5f5f3e3d5ffd5b505050506040513d601f19601f820116820180604052508101906115659190613a19565b6115a85760405162461bcd60e51b81526020600482015260146024820152731554d115081d1c985b9cd9995c8819985a5b195960621b6044820152606401610e43565b5f84815260126020526040812080548392906115c59084906139f3565b90915550505f546115d63385612909565b5f5b84811015611606578560115f6115ee84866139f3565b815260208101919091526040015f20556001016115d8565b50505050610c736001600d55565b5f61161e81612922565b6116266126a9565b5f838152600e60205260409020546001600160a01b03166116805760405162461bcd60e51b8152602060048201526014602482015273115d995b9d08191bd95cc81b9bdd08195e1a5cdd60621b6044820152606401610e43565b505f918252600e602052604090912080546001600160401b03909216600160a01b0267ffffffffffffffff60a01b19909216919091179055565b5f828152600960205260409020600101546116d481612922565b6116de838361292c565b50505050565b6001600160a01b038116331461170d5760405163334bd91960e11b815260040160405180910390fd5b61171782826129bd565b505050565b5f61172681612922565b61123a612a28565b61171783838360405180602001604052805f815250612118565b6117506126a9565b60c08301355f9081526010602052604090205460ff16156117b35760405162461bcd60e51b815260206004820152601d60248201527f566f75636865722068617320616c7265616479206265656e20757365640000006044820152606401610e43565b60c0830180355f908152601060209081526040808320805460ff191660011790559192611889927f747f22a7468bc4d84db260e0727783c637ad885a807bc25fd862064290d45b8c9288359290890135918901359060608a01359060808b0135906118219060a08d01613a34565b6040805160208101989098528701959095526060860193909352608085019190915260a084015260c0838101919091526001600160401b0390911660e08301528601356101008201526101200160405160208183030381529060405280519060200120612a7a565b90505f6118cb8285858080601f0160208091040260200160405190810160405280939291908181526020018383808284375f92019190915250612aa692505050565b90506118d75f82611e1b565b6119235760405162461bcd60e51b815260206004820152601c60248201527f496e76616c6964207369676e61747572652066726f6d2041646d696e000000006044820152606401610e43565b84355f908152600e60205260409020546001600160a01b03166119e75784355f908152600e6020526040902080546001600160a01b0319163317905561196f60c0860160a08701613a34565b85355f908152600e6020908152604080832080546001600160401b0395909516600160a01b0267ffffffffffffffff60a01b199095169490941784556002909301805460ff19166001179055601381528282208389013590556014815282822060608901359055601590522060808601359055611a58565b84355f908152600e60205260409020546001600160a01b03163314611a585760405162461bcd60e51b815260206004820152602160248201527f43616c6c6572206973206e6f7420746865206576656e74206f7267616e697a656044820152603960f91b6064820152608401610e43565b5f54611a68336020880135612909565b5f5b8660200135811015611a9d57863560115f611a8584866139f3565b815260208101919091526040015f2055600101611a6a565b5085355f9081526016602090815260408220805491890135929091611ac39084906139f3565b9091555050505050505050565b5f611ada81612922565b601a6116de838583613a91565b5f610b98826126d6565b5f611afb81612922565b611b036126a9565b611b0b61267f565b5f848152600e6020908152604091829020825160a08101845281546001600160a01b0381168252600160a01b81046001600160401b031693820193909352600160e01b90920463ffffffff16928201929092526001820154606082015260029091015460ff16151560808201819052611bbc5760405162461bcd60e51b81526020600482015260136024820152724576656e74206973206e6f742061637469766560681b6044820152606401610e43565b5f848260600151611bcd91906139bd565b90505f8111611c1e5760405162461bcd60e51b815260206004820152601e60248201527f5072696365206e6f7420736574206f72207175616e74697479207a65726f00006044820152606401610e43565b6040516323b872dd60e01b8152336004820152306024820152604481018290527f00000000000000000000000000000000000000000000000000000000000000006001600160a01b0316906323b872dd906064016020604051808303815f875af1158015611c8e573d5f5f3e3d5ffd5b505050506040513d601f19601f82011682018060405250810190611cb29190613a19565b611cf55760405162461bcd60e51b81526020600482015260146024820152731554d115081d1c985b9cd9995c8819985a5b195960621b6044820152606401610e43565b5f8681526012602052604081208054839290611d129084906139f3565b90915550505f54611d238587612909565b5f5b86811015611d53578760115f611d3b84866139f3565b815260208101919091526040015f2055600101611d25565b505f8781526017602052604081208054889290611d719084906139f3565b90915550506001600d55506116de915050565b5f6001600160a01b038216611da357611da36323d3ad8160e21b6125d6565b506001600160a01b03165f908152600560205260409020546001600160401b031690565b5f611dd181612922565b61123a612ace565b5f6060805f5f5f6060611dea612b0b565b611df2612b3d565b604080515f80825260208201909252600f60f81b9b939a50919850469750309650945092509050565b5f9182526009602090815260408084206001600160a01b0393909316845291905290205460ff1690565b5f611e4f81612922565b611e576126a9565b610c7382612b6a565b606060038054610bad9061395d565b7f97667070c54ef182b0f5858b034beac1b6f3089aa2d3188bb1e8929f4fa9b929611e9981612922565b611ea16126a9565b5f5b82811015611fb9575f848483818110611ebe57611ebe613995565b602090810292909201355f8181526011909352604090922054919250508015611f45575f818152600e6020526040902054600160a01b90046001600160401b0316421115611f455760405162461bcd60e51b8152602060048201526014602482015273115d995b9d081d1a58dad95d08195e1c1a5c995960621b6044820152606401610e43565b611f4e8261258c565b8015611f6857505f828152600f602052604090205460ff16155b15611faf575f828152600f60205260409020805460ff191660011790558015611faf575f818152601860205260408120805460019290611fa99084906139f3565b90915550505b5050600101611ea3565b507f0e862c2630b0e020ea8c569930ac577d3c103fdb452386c869484d2b2cb73881838342604051611fed93929190613b4a565b60405180910390a1505050565b335f8181526007602090815260408083206001600160a01b03871680855290835292819020805460ff191686151590811790915590519081529192917f17307eab39ab6107e8899845ad3d59bd9653f200f220920489ca2b5937696c31910160405180910390a35050565b5f61206f81612922565b6120776126a9565b8382146120b65760405162461bcd60e51b815260206004820152600d60248201526c088c2e8c240dad2e6dac2e8c6d609b1b6044820152606401610e43565b5f5b84811015612110576121088686838181106120d5576120d5613995565b90506020020160208101906120ea91906136aa565b8585848181106120fc576120fc613995565b90506020020135612909565b6001016120b8565b505050505050565b61212384848461123d565b6001600160a01b0383163b156116de5761213f84848484612b74565b6116de576116de6368d2bf6b60e11b6125d6565b606061215e8261258c565b61217257612172630a14c4b560e41b6125d6565b5f61217b612c53565b905080515f036121995760405180602001604052805f8152506121c4565b806121a384612c62565b6040516020016121b4929190613b9d565b6040516020818303038152906040525b9392505050565b5f6121d581612922565b6121dd6126a9565b5f858152600e60205260409020546001600160a01b03166122375760405162461bcd60e51b8152602060048201526014602482015273115d995b9d08191bd95cc81b9bdd08195e1a5cdd60621b6044820152606401610e43565b5f8581526019602052604090205460ff161561228d5760405162461bcd60e51b8152602060048201526015602482015274119d5b991cc8185b1c9958591e4818db185a5b5959605a1b6044820152606401610e43565b505f9384526013602090815260408086209490945560148152838520929092556015909152912055565b5f828152600960205260409020600101546122d181612922565b6116de83836129bd565b6122e36126a9565b5f828152600e60205260409020546001600160a01b031633146123385760405162461bcd60e51b815260206004820152600d60248201526c2737ba1037b933b0b734bd32b960991b6044820152606401610e43565b5f918252600e602052604090912060010155565b7f97667070c54ef182b0f5858b034beac1b6f3089aa2d3188bb1e8929f4fa9b92961237681612922565b61237e6126a9565b5f8281526011602052604090205480156123f6575f818152600e6020526040902054600160a01b90046001600160401b03164211156123f65760405162461bcd60e51b8152602060048201526014602482015273115d995b9d081d1a58dad95d08195e1c1a5c995960621b6044820152606401610e43565b6123ff8361258c565b6124435760405162461bcd60e51b8152602060048201526015602482015274151a58dad95d08191bd95cc81b9bdd08195e1a5cdd605a1b6044820152606401610e43565b5f838152600f602052604090205460ff16156124975760405162461bcd60e51b8152602060048201526013602482015272151a58dad95d08185b1c9958591e481d5cd959606a1b6044820152606401610e43565b5f838152600f60205260409020805460ff1916600117905580156124d9575f8181526018602052604081208054600192906124d39084906139f3565b90915550505b6040805160018082528183019092525f916020808301908036833701905050905083815f8151811061250d5761250d613995565b6020026020010181815250507f0e862c2630b0e020ea8c569930ac577d3c103fdb452386c869484d2b2cb73881814260405161254a929190613bb1565b60405180910390a150505050565b5f6001600160e01b03198216637965db0b60e01b1480610b9857506301ffc9a760e01b6001600160e01b0319831614610b98565b5f816001116125d1575f548210156125d1575f5b505f82815260046020526040812054908190036125c7576125c083613bd2565b92506125a0565b600160e01b161590505b919050565b805f5260045ffd5b5f6125e883611ae7565b90508180156126005750336001600160a01b03821614155b156126235761260f8133610b03565b612623576126236367d9dca160e11b6125d6565b5f8381526006602052604080822080546001600160a01b0319166001600160a01b0388811691821790925591518693918516917f8c5be1e5ebec7d5bd14f71427d1e84f3dd0314c0f7b2291e5b200ac8c7c3b92591a450505050565b6002600d54036126a257604051633ee5aeb560e01b815260040160405180910390fd5b6002600d55565b600a5460ff16156126cd5760405163d93c066560e01b815260040160405180910390fd5b565b6001600d55565b5f8160011161275f57505f81815260046020526040902054805f0361274d575f54821061270d5761270d636f96cda160e11b6125d6565b5b505f19015f81815260046020526040902054801561270e57600160e01b81165f0361273857919050565b612748636f96cda160e11b6125d6565b61270e565b600160e01b81165f0361275f57919050565b6125d1636f96cda160e11b6125d6565b6127776126a9565b6001600160a01b0384161580159061279757506001600160a01b03831615155b15612904575f6127a78186611e1b565b806127b757506127b75f85611e1b565b806127d457506127d45f516020613c535f395f51905f5286611e1b565b806127f157506127f15f516020613c535f395f51905f5285611e1b565b8061280e575061280e5f516020613c535f395f51905f5233611e1b565b9050806128785760405162461bcd60e51b815260206004820152603260248201527f5472616e73666572206c6f636b65643a204f6e6c79204f6666696369616c204d604482015271185c9ad95d1c1b1858d948185b1b1bddd95960721b6064820152608401610e43565b5f5b8281101561290157600f5f61288f83876139f3565b815260208101919091526040015f205460ff16156128f95760405162461bcd60e51b815260206004820152602160248201527f55736564207469636b65742063616e6e6f74206265207472616e7366657272656044820152601960fa1b6064820152608401610e43565b60010161287a565b50505b6116de565b610c73828260405180602001604052805f815250612ca5565b61123a8133612d05565b5f6129378383611e1b565b6129b6575f8381526009602090815260408083206001600160a01b03861684529091529020805460ff1916600117905561296e3390565b6001600160a01b0316826001600160a01b0316847f2f8788117e7eff1d82e926ec794901d17c78024a50270940304540a733656f0d60405160405180910390a4506001610b98565b505f610b98565b5f6129c88383611e1b565b156129b6575f8381526009602090815260408083206001600160a01b0386168085529252808320805460ff1916905551339286917ff6391f5c32d9c69d2a47ea670b442974b53935d1edc7fd64eb21e047a839171b9190a4506001610b98565b612a30612d3e565b600a805460ff191690557f5db9ee0a495bf2e6ff9c91a7834c1ba4fdd244a5e8aa4e537bd38aeae4b073aa335b6040516001600160a01b03909116815260200160405180910390a1565b5f610b98612a86612d61565b8360405161190160f01b8152600281019290925260228201526042902090565b5f5f5f5f612ab48686612e8a565b925092509250612ac48282612ed3565b5090949350505050565b612ad66126a9565b600a805460ff191660011790557f62e78cea01bee320cd4e420270b5ea74000d11b0c9f74754ebdbfc544b05a258612a5d3390565b6060612b387f0000000000000000000000000000000000000000000000000000000000000000600b612f8b565b905090565b6060612b387f0000000000000000000000000000000000000000000000000000000000000000600c612f8b565b61123a815f613034565b604051630a85bd0160e11b81525f906001600160a01b0385169063150b7a0290612ba8903390899088908890600401613be7565b6020604051808303815f875af1925050508015612be2575060408051601f3d908101601f19168201909252612bdf91810190613c23565b60015b612c35573d808015612c0f576040519150601f19603f3d011682016040523d82523d5f602084013e612c14565b606091505b5080515f03612c2d57612c2d6368d2bf6b60e11b6125d6565b805181602001fd5b6001600160e01b031916630a85bd0160e11b1490505b949350505050565b6060601a8054610bad9061395d565b606060a06040510180604052602081039150505f815280825b600183039250600a81066030018353600a900480612c7b5750819003601f19909101908152919050565b612caf8383613178565b6001600160a01b0383163b15611717575f548281035b612cd75f868380600101945086612b74565b612ceb57612ceb6368d2bf6b60e11b6125d6565b818110612cc557815f5414612cfe575f5ffd5b5050505050565b612d0f8282611e1b565b610c735760405163e2517d3f60e01b81526001600160a01b038216600482015260248101839052604401610e43565b600a5460ff166126cd57604051638dfc202b60e01b815260040160405180910390fd5b5f306001600160a01b037f000000000000000000000000000000000000000000000000000000000000000016148015612db957507f000000000000000000000000000000000000000000000000000000000000000046145b15612de357507f000000000000000000000000000000000000000000000000000000000000000090565b612b38604080517f8b73c3c69bb8fe3d512ecc4cf759cc79239f7b179b0ffacaa9a75d522b39400f60208201527f0000000000000000000000000000000000000000000000000000000000000000918101919091527f000000000000000000000000000000000000000000000000000000000000000060608201524660808201523060a08201525f9060c00160405160208183030381529060405280519060200120905090565b5f5f5f8351604103612ec1576020840151604085015160608601515f1a612eb38882858561323e565b955095509550505050612ecc565b505081515f91506002905b9250925092565b5f826003811115612ee657612ee6613c3e565b03612eef575050565b6001826003811115612f0357612f03613c3e565b03612f215760405163f645eedf60e01b815260040160405180910390fd5b6002826003811115612f3557612f35613c3e565b03612f565760405163fce698f760e01b815260048101829052602401610e43565b6003826003811115612f6a57612f6a613c3e565b03610c73576040516335e2f38360e21b815260048101829052602401610e43565b606060ff8314612fa557612f9e83613306565b9050610b98565b818054612fb19061395d565b80601f0160208091040260200160405190810160405280929190818152602001828054612fdd9061395d565b80156130285780601f10612fff57610100808354040283529160200191613028565b820191905f5260205f20905b81548152906001019060200180831161300b57829003601f168201915b50505050509050610b98565b5f61303e836126d6565b9050805f8061305a865f90815260066020526040902080549091565b9150915084156130915761306f818433611283565b6130915761307d8333610b03565b61309157613091632ce44b5f60e11b6125d6565b61309e835f88600161276f565b80156130a8575f82555b6001600160a01b0383165f81815260056020526040902080546fffffffffffffffffffffffffffffffff0190554260a01b17600360e01b175f87815260046020526040812091909155600160e11b8516900361313157600186015f81815260046020526040812054900361312f575f54811461312f575f8181526004602052604090208590555b505b60405186905f906001600160a01b038616907fddf252ad1be2c89b69c2b068fc378daa952ba7f163c4a11628f55a4df523b3ef908390a45050600180548101905550505050565b5f8054908290036131935761319363b562e8dd60e01b6125d6565b61319f5f84838561276f565b5f8181526004602090815260408083206001600160a01b0387164260a01b6001881460e11b178117909155808452600590925282208054680100000000000000018602019055908190036131fc576131fc622e076360e81b6125d6565b818301825b80835f7fddf252ad1be2c89b69c2b068fc378daa952ba7f163c4a11628f55a4df523b3ef5f5fa481816001019150810361320157505f5550505050565b5f80807f7fffffffffffffffffffffffffffffff5d576e7357a4501ddfe92f46681b20a084111561327757505f915060039050826132fc565b604080515f808252602082018084528a905260ff891692820192909252606081018790526080810186905260019060a0016020604051602081039080840390855afa1580156132c8573d5f5f3e3d5ffd5b5050604051601f1901519150506001600160a01b0381166132f357505f9250600191508290506132fc565b92505f91508190505b9450945094915050565b60605f61331283613343565b6040805160208082528183019092529192505f91906020820181803683375050509182525060208101929092525090565b5f60ff8216601f811115610b9857604051632cd44ac360e21b815260040160405180910390fd5b6001600160e01b03198116811461123a575f5ffd5b5f6020828403121561338f575f5ffd5b81356121c48161336a565b5f81518084528060208401602086015e5f602082860101526020601f19601f83011685010191505092915050565b602081525f6121c4602083018461339a565b5f602082840312156133ea575f5ffd5b5035919050565b80356001600160a01b03811681146125d1575f5ffd5b5f5f60408385031215613418575f5ffd5b613421836133f1565b946020939093013593505050565b5f5f83601f84011261343f575f5ffd5b5081356001600160401b03811115613455575f5ffd5b6020830191508360208260051b850101111561346f575f5ffd5b9250929050565b5f5f60208385031215613487575f5ffd5b82356001600160401b0381111561349c575f5ffd5b6134a88582860161342f565b90969095509350505050565b602080825282518282018190525f918401906040840190835b818110156134ed57835115158352602093840193909201916001016134cd565b509095945050505050565b5f5f5f6060848603121561350a575f5ffd5b613513846133f1565b9250613521602085016133f1565b929592945050506040919091013590565b5f5f60408385031215613543575f5ffd5b50508035926020909101359150565b80356001600160401b03811681146125d1575f5ffd5b5f5f60408385031215613579575f5ffd5b8235915061358960208401613552565b90509250929050565b5f5f604083850312156135a3575f5ffd5b82359150613589602084016133f1565b5f5f83601f8401126135c3575f5ffd5b5081356001600160401b038111156135d9575f5ffd5b60208301915083602082850101111561346f575f5ffd5b5f5f5f838503610100811215613604575f5ffd5b60e0811215613611575f5ffd5b5083925060e08401356001600160401b0381111561362d575f5ffd5b613639868287016135b3565b9497909650939450505050565b5f5f60208385031215613657575f5ffd5b82356001600160401b0381111561366c575f5ffd5b6134a8858286016135b3565b5f5f5f6060848603121561368a575f5ffd5b83359250602084013591506136a1604085016133f1565b90509250925092565b5f602082840312156136ba575f5ffd5b6121c4826133f1565b5f8151808452602084019350602083015f5b828110156136f35781518652602095860195909101906001016136d5565b5093949350505050565b60ff60f81b8816815260e060208201525f61371b60e083018961339a565b828103604084015261372d818961339a565b606084018890526001600160a01b038716608085015260a0840186905283810360c0850152905061375e81856136c3565b9a9950505050505050505050565b801515811461123a575f5ffd5b5f5f6040838503121561378a575f5ffd5b613793836133f1565b915060208301356137a38161376c565b809150509250929050565b5f5f5f5f604085870312156137c1575f5ffd5b84356001600160401b038111156137d6575f5ffd5b6137e28782880161342f565b90955093505060208501356001600160401b03811115613800575f5ffd5b61380c8782880161342f565b95989497509550505050565b634e487b7160e01b5f52604160045260245ffd5b5f5f5f5f6080858703121561383f575f5ffd5b613848856133f1565b9350613856602086016133f1565b92506040850135915060608501356001600160401b03811115613877575f5ffd5b8501601f81018713613887575f5ffd5b80356001600160401b038111156138a0576138a0613818565b604051601f8201601f19908116603f011681016001600160401b03811182821017156138ce576138ce613818565b6040528181528282016020018910156138e5575f5ffd5b816020840160208301375f6020838301015280935050505092959194509250565b5f5f5f5f60808587031215613919575f5ffd5b5050823594602084013594506040840135936060013592509050565b5f5f60408385031215613946575f5ffd5b61394f836133f1565b9150613589602084016133f1565b600181811c9082168061397157607f821691505b60208210810361398f57634e487b7160e01b5f52602260045260245ffd5b50919050565b634e487b7160e01b5f52603260045260245ffd5b634e487b7160e01b5f52601160045260245ffd5b8082028115828204841417610b9857610b986139a9565b5f826139ee57634e487b7160e01b5f52601260045260245ffd5b500490565b80820180821115610b9857610b986139a9565b81810381811115610b9857610b986139a9565b5f60208284031215613a29575f5ffd5b81516121c48161376c565b5f60208284031215613a44575f5ffd5b6121c482613552565b601f82111561171757805f5260205f20601f840160051c81016020851015613a725750805b601f840160051c820191505b81811015612cfe575f8155600101613a7e565b6001600160401b03831115613aa857613aa8613818565b613abc83613ab6835461395d565b83613a4d565b5f601f841160018114613aed575f8515613ad65750838201355b5f19600387901b1c1916600186901b178355612cfe565b5f83815260208120601f198716915b82811015613b1c5786850135825560209485019460019092019101613afc565b5086821015613b38575f1960f88860031b161c19848701351681555b505060018560011b0183555050505050565b604080825281018390525f6001600160fb1b03841115613b68575f5ffd5b8360051b808660608501376020830193909352500160600192915050565b5f81518060208401855e5f93019283525090919050565b5f612c4b613bab8386613b86565b84613b86565b604081525f613bc360408301856136c3565b90508260208301529392505050565b5f81613be057613be06139a9565b505f190190565b6001600160a01b03858116825284166020820152604081018390526080606082018190525f90613c199083018461339a565b9695505050505050565b5f60208284031215613c33575f5ffd5b81516121c48161336a565b634e487b7160e01b5f52602160045260245ffdfe0ea61da3a8a09ad801432653699f8c1860b1ae9d2ea4a141fadfd63227717bc8a264697066735822122049b5f4a8d2a47552d15adae54baa41c7a20ea7beb5ca1cf7f14c106454214e3d64736f6c634300081c0033",
  "linkReferences": {},
  "deployedLinkReferences": {},
  "immutableReferences": {
    "3531": [
      {
        "length": 32,
        "start": 11713
      }
    ],
    "3533": [
      {
        "length": 32,
        "start": 11671
      }
    ],
    "3535": [
      {
        "length": 32,
        "start": 11629
      }
    ],
    "3537": [
      {
        "length": 32,
        "start": 11794
      }
    ],
    "3539": [
      {
        "length": 32,
        "start": 11834
      }
    ],
    "3542": [
      {
        "length": 32,
        "start": 11026
      }
    ],
    "3545": [
      {
        "length": 32,
        "start": 11076
      }
    ],
    "9816": [
      {
        "length": 32,
        "start": 2436
      },
      {
        "length": 32,
        "start": 4196
      },
      {
        "length": 32,
        "start": 4462
      },
      {
        "length": 32,
        "start": 5363
      },
      {
        "length": 32,
        "start": 7232
      }
    ],
    "9818": [
      {
        "length": 32,
        "start": 2261
      },
      {
        "length": 32,
        "start": 4415
      }
    ]
  },
  "inputSourceName": "project/contracts/ShineTicket.sol",
  "buildInfoId": "solc-0_8_28-6227f770fb6f4c767ecfcc9b74b162e9d3c00b35"
}