{
  "_format": "hh3-artifact-1",
  "contractName": "ShineMarketplace",
  "sourceName": "contracts/ShineMarketplace.sol",
  "abi": [
    {
      "inputs": [
        {
          "internalType": "address",
          "name": "_shineTicket",
          "type": "address"
        },
        {
          "internalType": "address",
          "name": "_usdtToken",
          "type": "address"
        },
        {
          "internalType": "address",
          "name": "_adminTreasury",
          "type": "address"
        },
        {
          "internalType": "uint256",
          "name": "_platformFeeBps",
          "type": "uint256"
        }
      ],
      "stateMutability": "nonpayable",
      "type": "constructor"
    },
    {
      "inputs": [
        {
          "internalType": "address",
          "name": "owner",
          "type": "address"
        }
      ],
      "name": "OwnableInvalidOwner",
      "type": "error"
    },
    {
      "inputs": [
        {
          "internalType": "address",
          "name": "account",
          "type": "address"
        }
      ],
      "name": "OwnableUnauthorizedAccount",
      "type": "error"
    },
    {
      "inputs": [],
      "name": "ReentrancyGuardReentrantCall",
      "type": "error"
    },
    {
      "anonymous": false,
      "inputs": [
        {
          "indexed": true,
          "internalType": "address",
          "name": "previousOwner",
          "type": "address"
        },
        {
          "indexed": true,
          "internalType": "address",
          "name": "newOwner",
          "type": "address"
        }
      ],
      "name": "OwnershipTransferred",
      "type": "event"
    },
    {
      "anonymous": false,
      "inputs": [
        {
          "indexed": true,
          "internalType": "uint256",
          "name": "tokenId",
          "type": "uint256"
        },
        {
          "indexed": true,
          "internalType": "address",
          "name": "seller",
          "type": "address"
        }
      ],
      "name": "TicketCanceled",
      "type": "event"
    },
    {
      "anonymous": false,
      "inputs": [
        {
          "indexed": true,
          "internalType": "uint256",
          "name": "tokenId",
          "type": "uint256"
        },
        {
          "indexed": true,
          "internalType": "address",
          "name": "seller",
          "type": "address"
        },
        {
          "indexed": false,
          "internalType": "uint256",
          "name": "price",
          "type": "uint256"
        },
        {
          "indexed": false,
          "internalType": "address",
          "name": "fundReceiver",
          "type": "address"
        }
      ],
      "name": "TicketListed",
      "type": "event"
    },
    {
      "anonymous": false,
      "inputs": [
        {
          "indexed": true,
          "internalType": "uint256",
          "name": "tokenId",
          "type": "uint256"
        },
        {
          "indexed": true,
          "internalType": "address",
          "name": "buyerPrivy",
          "type": "address"
        },
        {
          "indexed": false,
          "internalType": "uint256",
          "name": "price",
          "type": "uint256"
        },
        {
          "indexed": false,
          "internalType": "address",
          "name": "fundReceiver",
          "type": "address"
        }
      ],
      "name": "TicketSold",
      "type": "event"
    },
    {
      "inputs": [],
      "name": "adminTreasury",
      "outputs": [
        {
          "internalType": "address",
          "name": "",
          "type": "address"
        }
      ],
      "stateMutability": "view",
      "type": "function"
    },
    {
      "inputs": [
        {
          "internalType": "uint256[]",
          "name": "tokenIds",
          "type": "uint256[]"
        },
        {
          "internalType": "address",
          "name": "destinationPrivyAddress",
          "type": "address"
        }
      ],
      "name": "batchBuyTicketsFor",
      "outputs": [],
      "stateMutability": "nonpayable",
      "type": "function"
    },
    {
      "inputs": [
        {
          "internalType": "uint256[]",
          "name": "tokenIds",
          "type": "uint256[]"
        }
      ],
      "name": "batchCancelListings",
      "outputs": [],
      "stateMutability": "nonpayable",
      "type": "function"
    },
    {
      "inputs": [
        {
          "internalType": "uint256[]",
          "name": "tokenIds",
          "type": "uint256[]"
        },
        {
          "internalType": "uint256[]",
          "name": "prices",
          "type": "uint256[]"
        },
        {
          "internalType": "address",
          "name": "fundReceiver",
          "type": "address"
        }
      ],
      "name": "batchListTickets",
      "outputs": [],
      "stateMutability": "nonpayable",
      "type": "function"
    },
    {
      "inputs": [
        {
          "internalType": "uint256",
          "name": "tokenId",
          "type": "uint256"
        },
        {
          "internalType": "address",
          "name": "destinationPrivyAddress",
          "type": "address"
        }
      ],
      "name": "buyTicketFor",
      "outputs": [],
      "stateMutability": "nonpayable",
      "type": "function"
    },
    {
      "inputs": [
        {
          "internalType": "uint256",
          "name": "tokenId",
          "type": "uint256"
        }
      ],
      "name": "cancelListing",
      "outputs": [],
      "stateMutability": "nonpayable",
      "type": "function"
    },
    {
      "inputs": [
        {
          "internalType": "uint256",
          "name": "tokenId",
          "type": "uint256"
        },
        {
          "internalType": "uint256",
          "name": "price",
          "type": "uint256"
        },
        {
          "internalType": "address",
          "name": "fundReceiver",
          "type": "address"
        }
      ],
      "name": "listTicket",
      "outputs": [],
      "stateMutability": "nonpayable",
      "type": "function"
    },
    {
      "inputs": [
        {
          "internalType": "uint256",
          "name": "",
          "type": "uint256"
        }
      ],
      "name": "listings",
      "outputs": [
        {
          "internalType": "address",
          "name": "seller",
          "type": "address"
        },
        {
          "internalType": "uint256",
          "name": "price",
          "type": "uint256"
        },
        {
          "internalType": "address",
          "name": "fundReceiver",
          "type": "address"
        }
      ],
      "stateMutability": "view",
      "type": "function"
    },
    {
      "inputs": [],
      "name": "owner",
      "outputs": [
        {
          "internalType": "address",
          "name": "",
          "type": "address"
        }
      ],
      "stateMutability": "view",
      "type": "function"
    },
    {
      "inputs": [],
      "name": "platformFeeBps",
      "outputs": [
        {
          "internalType": "uint256",
          "name": "",
          "type": "uint256"
        }
      ],
      "stateMutability": "view",
      "type": "function"
    },
    {
      "inputs": [],
      "name": "renounceOwnership",
      "outputs": [],
      "stateMutability": "nonpayable",
      "type": "function"
    },
    {
      "inputs": [
        {
          "internalType": "address",
          "name": "_adminTreasury",
          "type": "address"
        }
      ],
      "name": "setAdminTreasury",
      "outputs": [],
      "stateMutability": "nonpayable",
      "type": "function"
    },
    {
      "inputs": [
        {
          "internalType": "uint256",
          "name": "_platformFeeBps",
          "type": "uint256"
        }
      ],
      "name": "setPlatformFee",
      "outputs": [],
      "stateMutability": "nonpayable",
      "type": "function"
    },
    {
      "inputs": [],
      "name": "shineTicket",
      "outputs": [
        {
          "internalType": "contract IShineTicket",
          "name": "",
          "type": "address"
        }
      ],
      "stateMutability": "view",
      "type": "function"
    },
    {
      "inputs": [
        {
          "internalType": "address",
          "name": "newOwner",
          "type": "address"
        }
      ],
      "name": "transferOwnership",
      "outputs": [],
      "stateMutability": "nonpayable",
      "type": "function"
    },
    {
      "inputs": [],
      "name": "usdtToken",
      "outputs": [
        {
          "internalType": "contract IERC20",
          "name": "",
          "type": "address"
        }
      ],
      "stateMutability": "view",
      "type": "function"
    }
  ],
  "bytecode": "0x60c060405234801561000f575f5ffd5b506040516121f93803806121f983398101604081905261002e91610254565b60015f55338061005857604051631e4fbdf760e01b81525f60048201526024015b60405180910390fd5b610061816101e8565b506001600160a01b0384166100b85760405162461bcd60e51b815260206004820152601360248201527f496e76616c6964204e4654206164647265737300000000000000000000000000604482015260640161004f565b6001600160a01b03831661010e5760405162461bcd60e51b815260206004820152601460248201527f496e76616c696420555344542061646472657373000000000000000000000000604482015260640161004f565b6001600160a01b0382166101645760405162461bcd60e51b815260206004820152601560248201527f496e76616c69642061646d696e20616464726573730000000000000000000000604482015260640161004f565b6107d08111156101b65760405162461bcd60e51b815260206004820152601460248201527f46656520746f6f2068696768206d617820323025000000000000000000000000604482015260640161004f565b6001600160a01b0393841660805291831660a052600280546001600160a01b031916919093161790915560035561029c565b600180546001600160a01b038381166001600160a01b0319831681179093556040519116919082907f8be0079c531659141344cd1fd0a4f28419497f9722a3daafe3b4186f6b6457e0905f90a35050565b80516001600160a01b038116811461024f575f5ffd5b919050565b5f5f5f5f60808587031215610267575f5ffd5b61027085610239565b935061027e60208601610239565b925061028c60408601610239565b6060959095015193969295505050565b60805160a051611ec56103345f395f81816101ec01528181610a4101528181610c0e01528181610de00152818161129a015261137c01525f818161018901528181610330015281816103fc01528181610567015281816105fb0152818161097f01528181610cdd01528181611188015281816114580152818161161a015281816116db015281816117c901526118ed0152611ec55ff3fe608060405234801561000f575f5ffd5b50600436106100fb575f3560e01c80638da5cb5b11610093578063de74e57b11610063578063de74e57b14610221578063e719a63e14610284578063ee52520214610297578063f2fde38b146102aa575f5ffd5b80638da5cb5b146101c357806396cad0db146101d4578063a98ad46c146101e7578063c9e75cb51461020e575f5ffd5b80634ac5ad36116100ce5780634ac5ad3614610156578063656f1c3114610169578063715018a61461017c5780637b0509ee14610184575f5ffd5b806312e8e2c3146100ff57806317b875821461011457806322dcd13e14610127578063305a67a814610143575b5f5ffd5b61011261010d366004611b13565b6102bd565b005b610112610122366004611b3e565b610310565b61013060035481565b6040519081526020015b60405180910390f35b610112610151366004611b13565b61072d565b610112610164366004611bbc565b61080f565b610112610177366004611c04565b610ea8565b610112610ff5565b6101ab7f000000000000000000000000000000000000000000000000000000000000000081565b6040516001600160a01b03909116815260200161013a565b6001546001600160a01b03166101ab565b6002546101ab906001600160a01b031681565b6101ab7f000000000000000000000000000000000000000000000000000000000000000081565b61011261021c366004611c43565b611008565b61025a61022f366004611b13565b60046020525f90815260409020805460018201546002909201546001600160a01b0391821692911683565b604080516001600160a01b039485168152602081019390935292169181019190915260600161013a565b610112610292366004611c65565b611080565b6101126102a5366004611c93565b61152b565b6101126102b8366004611c43565b611a30565b6102c5611a6d565b6107d081111561030b5760405162461bcd60e51b815260206004820152600c60248201526b08ccaca40e8dede40d0d2ced60a31b60448201526064015b60405180910390fd5b600355565b6040516331a9108f60e11b81526004810184905233906001600160a01b037f00000000000000000000000000000000000000000000000000000000000000001690636352211e90602401602060405180830381865afa158015610375573d5f5f3e3d5ffd5b505050506040513d601f19601f820116820180604052508101906103999190611d16565b6001600160a01b0316146103e65760405162461bcd60e51b81526020600482015260146024820152732737ba103a3432903a34b1b5b2ba1037bbb732b960611b6044820152606401610302565b60405163642b5f9b60e01b8152600481018490527f00000000000000000000000000000000000000000000000000000000000000006001600160a01b03169063642b5f9b90602401602060405180830381865afa158015610449573d5f5f3e3d5ffd5b505050506040513d601f19601f8201168201806040525081019061046d9190611d31565b156104b65760405162461bcd60e51b81526020600482015260196024820152782a34b1b5b2ba1030b63932b0b23c9031b432b1b5b2b216b4b760391b6044820152606401610302565b5f82116104f95760405162461bcd60e51b815260206004820152601160248201527005072696365206d757374206265203e203607c1b6044820152606401610302565b6001600160a01b0381166105475760405162461bcd60e51b815260206004820152601560248201527424b73b30b634b210333ab732103932b1b2b4bb32b960591b6044820152606401610302565b60405163020604bf60e21b81526004810184905230906001600160a01b037f0000000000000000000000000000000000000000000000000000000000000000169063081812fc90602401602060405180830381865afa1580156105ac573d5f5f3e3d5ffd5b505050506040513d601f19601f820116820180604052508101906105d09190611d16565b6001600160a01b0316148061066c575060405163e985e9c560e01b81523360048201523060248201527f00000000000000000000000000000000000000000000000000000000000000006001600160a01b03169063e985e9c590604401602060405180830381865afa158015610648573d5f5f3e3d5ffd5b505050506040513d601f19601f8201168201806040525081019061066c9190611d31565b6106885760405162461bcd60e51b815260040161030290611d50565b604080516060810182523380825260208083018681526001600160a01b038681168587018181525f8b815260048652889020965187549084166001600160a01b03199182161788559351600188015551600290960180549690921695909216949094179093558351868152908101929092529185917f66eb4d19060d043b154f1383452a9c6c4b0b5b289a20b8c5a9aaf05f0c28f2f0910160405180910390a3505050565b5f81815260046020908152604091829020825160608101845281546001600160a01b039081168083526001840154948301949094526002909201549091169281019290925233146107b15760405162461bcd60e51b815260206004820152600e60248201526d2737ba103a34329039b2b63632b960911b6044820152606401610302565b5f8281526004602052604080822080546001600160a01b031990811682556001820184905560029091018054909116905551339184917f856f105c150817c7b4994960bcf1ff34f18912db8f0892ae56fb87470c8b9f3f9190a35050565b610817611a9a565b816108525760405162461bcd60e51b815260206004820152600b60248201526a456d70747920617272617960a81b6044820152606401610302565b6001600160a01b0381166108a85760405162461bcd60e51b815260206004820152601b60248201527f496e76616c69642064657374696e6174696f6e206164647265737300000000006044820152606401610302565b5f805b83811015610a29575f8585838181106108c6576108c6611da0565b602090810292909201355f81815260048452604090819020815160608101835281546001600160a01b039081168252600183015496820187905260029092015490911691810191909152909350911515905061095b5760405162461bcd60e51b8152602060048201526014602482015273151a58dad95d081a5cc81b9bdd081b1a5cdd195960621b6044820152606401610302565b80516040516331a9108f60e11b8152600481018490526001600160a01b03918216917f00000000000000000000000000000000000000000000000000000000000000001690636352211e90602401602060405180830381865afa1580156109c4573d5f5f3e3d5ffd5b505050506040513d601f19601f820116820180604052508101906109e89190611d16565b6001600160a01b031614610a0e5760405162461bcd60e51b815260040161030290611db4565b6020810151610a1d9085611e09565b935050506001016108ab565b506040516323b872dd60e01b81526001600160a01b037f000000000000000000000000000000000000000000000000000000000000000016906323b872dd90610a7a90339030908690600401611e22565b6020604051808303815f875af1158015610a96573d5f5f3e3d5ffd5b505050506040513d601f19601f82011682018060405250810190610aba9190611d31565b610b065760405162461bcd60e51b815260206004820152601a60248201527f5553445420746f74616c207472616e73666572206661696c65640000000000006044820152606401610302565b5f805b84811015610db0575f868683818110610b2457610b24611da0565b602090810292909201355f818152600484526040808220815160608101835281546001600160a01b0390811682526001830154978201889052600290920154909116918101919091526003549295509390925061271091610b8491611e46565b610b8e9190611e5d565b90505f818360200151610ba19190611e7c565b9050610bad8287611e09565b5f85815260046020819052604080832080546001600160a01b031990811682556001820194909455600201805490931690925585820151915163a9059cbb60e01b81526001600160a01b0392831691810191909152602481018490529197507f0000000000000000000000000000000000000000000000000000000000000000169063a9059cbb906044016020604051808303815f875af1158015610c54573d5f5f3e3d5ffd5b505050506040513d601f19601f82011682018060405250810190610c789190611d31565b610cc45760405162461bcd60e51b815260206004820152601b60248201527f555344542073656c6c6572207472616e73666572206661696c656400000000006044820152606401610302565b82516040516323b872dd60e01b81526001600160a01b037f000000000000000000000000000000000000000000000000000000000000000016916323b872dd91610d1591908c908990600401611e22565b5f604051808303815f87803b158015610d2c575f5ffd5b505af1158015610d3e573d5f5f3e3d5ffd5b50505050876001600160a01b0316847fc1a8263a2e16f42b0367c0ffc996d9e447557fac5e93c8587900052e4c0c1d2885602001518660400151604051610d989291909182526001600160a01b0316602082015260400190565b60405180910390a3505060019092019150610b099050565b508015610e985760025460405163a9059cbb60e01b81526001600160a01b039182166004820152602481018390527f00000000000000000000000000000000000000000000000000000000000000009091169063a9059cbb906044016020604051808303815f875af1158015610e28573d5f5f3e3d5ffd5b505050506040513d601f19601f82011682018060405250810190610e4c9190611d31565b610e985760405162461bcd60e51b815260206004820152601e60248201527f555344542061646d696e20666565207472616e73666572206661696c656400006044820152606401610302565b5050610ea360015f55565b505050565b80610ee35760405162461bcd60e51b815260206004820152600b60248201526a456d70747920617272617960a81b6044820152606401610302565b5f5b81811015610ea3575f838383818110610f0057610f00611da0565b602090810292909201355f81815260048452604090819020815160608101835281546001600160a01b03908116808352600184015497830197909752600290920154909116918101919091529093509133149050610f915760405162461bcd60e51b815260206004820152600e60248201526d2737ba103a34329039b2b63632b960911b6044820152606401610302565b5f8281526004602052604080822080546001600160a01b031990811682556001820184905560029091018054909116905551339184917f856f105c150817c7b4994960bcf1ff34f18912db8f0892ae56fb87470c8b9f3f9190a35050600101610ee5565b610ffd611a6d565b6110065f611ac2565b565b611010611a6d565b6001600160a01b03811661105e5760405162461bcd60e51b8152602060048201526015602482015274496e76616c69642061646d696e206164647265737360581b6044820152606401610302565b600280546001600160a01b0319166001600160a01b0392909216919091179055565b611088611a9a565b5f82815260046020908152604091829020825160608101845281546001600160a01b03908116825260018301549382018490526002909201549091169281019290925261110e5760405162461bcd60e51b8152602060048201526014602482015273151a58dad95d081a5cc81b9bdd081b1a5cdd195960621b6044820152606401610302565b6001600160a01b0382166111645760405162461bcd60e51b815260206004820152601b60248201527f496e76616c69642064657374696e6174696f6e206164647265737300000000006044820152606401610302565b80516040516331a9108f60e11b8152600481018590526001600160a01b03918216917f00000000000000000000000000000000000000000000000000000000000000001690636352211e90602401602060405180830381865afa1580156111cd573d5f5f3e3d5ffd5b505050506040513d601f19601f820116820180604052508101906111f19190611d16565b6001600160a01b0316146112175760405162461bcd60e51b815260040161030290611db4565b5f612710600354836020015161122d9190611e46565b6112379190611e5d565b90505f81836020015161124a9190611e7c565b5f86815260046020819052604080832080546001600160a01b03199081168255600182019490945560029081018054909416909355915491516323b872dd60e01b81529293506001600160a01b037f00000000000000000000000000000000000000000000000000000000000000008116936323b872dd936112d493339390911691889101611e22565b6020604051808303815f875af11580156112f0573d5f5f3e3d5ffd5b505050506040513d601f19601f820116820180604052508101906113149190611d31565b6113605760405162461bcd60e51b815260206004820152601860248201527f5553445420666565207472616e73666572206661696c656400000000000000006044820152606401610302565b60408084015190516323b872dd60e01b81526001600160a01b037f000000000000000000000000000000000000000000000000000000000000000016916323b872dd916113b39133918690600401611e22565b6020604051808303815f875af11580156113cf573d5f5f3e3d5ffd5b505050506040513d601f19601f820116820180604052508101906113f39190611d31565b61143f5760405162461bcd60e51b815260206004820152601b60248201527f555344542073656c6c6572207472616e73666572206661696c656400000000006044820152606401610302565b82516040516323b872dd60e01b81526001600160a01b037f000000000000000000000000000000000000000000000000000000000000000016916323b872dd91611490919088908a90600401611e22565b5f604051808303815f87803b1580156114a7575f5ffd5b505af11580156114b9573d5f5f3e3d5ffd5b50505050836001600160a01b0316857fc1a8263a2e16f42b0367c0ffc996d9e447557fac5e93c8587900052e4c0c1d28856020015186604001516040516115139291909182526001600160a01b0316602082015260400190565b60405180910390a350505061152760015f55565b5050565b8382146115735760405162461bcd60e51b8152602060048201526016602482015275082e4e4c2f240d8cadccee8d0e640dad2e6dac2e8c6d60531b6044820152606401610302565b836115af5760405162461bcd60e51b815260206004820152600c60248201526b456d7074792061727261797360a01b6044820152606401610302565b6001600160a01b0381166115fd5760405162461bcd60e51b815260206004820152601560248201527424b73b30b634b210333ab732103932b1b2b4bb32b960591b6044820152606401610302565b60405163e985e9c560e01b81523360048201523060248201525f907f00000000000000000000000000000000000000000000000000000000000000006001600160a01b03169063e985e9c590604401602060405180830381865afa158015611667573d5f5f3e3d5ffd5b505050506040513d601f19601f8201168201806040525081019061168b9190611d31565b90505f5b85811015611a27575f8787838181106116aa576116aa611da0565b9050602002013590505f8686848181106116c6576116c6611da0565b905060200201359050336001600160a01b03167f00000000000000000000000000000000000000000000000000000000000000006001600160a01b0316636352211e846040518263ffffffff1660e01b815260040161172791815260200190565b602060405180830381865afa158015611742573d5f5f3e3d5ffd5b505050506040513d601f19601f820116820180604052508101906117669190611d16565b6001600160a01b0316146117b35760405162461bcd60e51b81526020600482015260146024820152732737ba103a3432903a34b1b5b2ba1037bbb732b960611b6044820152606401610302565b60405163642b5f9b60e01b8152600481018390527f00000000000000000000000000000000000000000000000000000000000000006001600160a01b03169063642b5f9b90602401602060405180830381865afa158015611816573d5f5f3e3d5ffd5b505050506040513d601f19601f8201168201806040525081019061183a9190611d31565b156118835760405162461bcd60e51b81526020600482015260196024820152782a34b1b5b2ba1030b63932b0b23c9031b432b1b5b2b216b4b760391b6044820152606401610302565b5f81116118c65760405162461bcd60e51b815260206004820152601160248201527005072696365206d757374206265203e203607c1b6044820152606401610302565b8380611961575060405163020604bf60e21b81526004810183905230906001600160a01b037f0000000000000000000000000000000000000000000000000000000000000000169063081812fc90602401602060405180830381865afa158015611932573d5f5f3e3d5ffd5b505050506040513d601f19601f820116820180604052508101906119569190611d16565b6001600160a01b0316145b61197d5760405162461bcd60e51b815260040161030290611d50565b604080516060810182523380825260208083018581526001600160a01b038a81168587018181525f8a815260048652889020965187549084166001600160a01b03199182161788559351600188015551600290960180549690921695909216949094179093558351858152908101929092529184917f66eb4d19060d043b154f1383452a9c6c4b0b5b289a20b8c5a9aaf05f0c28f2f0910160405180910390a3505060010161168f565b50505050505050565b611a38611a6d565b6001600160a01b038116611a6157604051631e4fbdf760e01b81525f6004820152602401610302565b611a6a81611ac2565b50565b6001546001600160a01b031633146110065760405163118cdaa760e01b8152336004820152602401610302565b60025f5403611abc57604051633ee5aeb560e01b815260040160405180910390fd5b60025f55565b600180546001600160a01b038381166001600160a01b0319831681179093556040519116919082907f8be0079c531659141344cd1fd0a4f28419497f9722a3daafe3b4186f6b6457e0905f90a35050565b5f60208284031215611b23575f5ffd5b5035919050565b6001600160a01b0381168114611a6a575f5ffd5b5f5f5f60608486031215611b50575f5ffd5b83359250602084013591506040840135611b6981611b2a565b809150509250925092565b5f5f83601f840112611b84575f5ffd5b50813567ffffffffffffffff811115611b9b575f5ffd5b6020830191508360208260051b8501011115611bb5575f5ffd5b9250929050565b5f5f5f60408486031215611bce575f5ffd5b833567ffffffffffffffff811115611be4575f5ffd5b611bf086828701611b74565b9094509250506020840135611b6981611b2a565b5f5f60208385031215611c15575f5ffd5b823567ffffffffffffffff811115611c2b575f5ffd5b611c3785828601611b74565b90969095509350505050565b5f60208284031215611c53575f5ffd5b8135611c5e81611b2a565b9392505050565b5f5f60408385031215611c76575f5ffd5b823591506020830135611c8881611b2a565b809150509250929050565b5f5f5f5f5f60608688031215611ca7575f5ffd5b853567ffffffffffffffff811115611cbd575f5ffd5b611cc988828901611b74565b909650945050602086013567ffffffffffffffff811115611ce8575f5ffd5b611cf488828901611b74565b9094509250506040860135611d0881611b2a565b809150509295509295909350565b5f60208284031215611d26575f5ffd5b8151611c5e81611b2a565b5f60208284031215611d41575f5ffd5b81518015158114611c5e575f5ffd5b60208082526030908201527f4d61726b6574706c616365206e6f7420617070726f76656420746f207472616e60408201526f1cd9995c881d1a1a5cc81d1a58dad95d60821b606082015260800190565b634e487b7160e01b5f52603260045260245ffd5b60208082526021908201527f53656c6c6572206e6f206c6f6e676572206f776e732074686973207469636b656040820152601d60fa1b606082015260800190565b634e487b7160e01b5f52601160045260245ffd5b80820180821115611e1c57611e1c611df5565b92915050565b6001600160a01b039384168152919092166020820152604081019190915260600190565b8082028115828204841417611e1c57611e1c611df5565b5f82611e7757634e487b7160e01b5f52601260045260245ffd5b500490565b81810381811115611e1c57611e1c611df556fea2646970667358221220c33fc3017bd61c221d704ced319a1c1ab62a999040dda76a8471f998ea6110c364736f6c634300081c0033",
  "linkReferences": {},
  "deployedLinkReferences": {},
  "immutableReferences": {
    "476": [
      {
        "length": 32,
        "start": 393
      },
      {
        "length": 32,
        "start": 816
      },
      {
        "length": 32,
        "start": 1020
      },
      {
        "length": 32,
        "start": 1383
      },
      {
        "length": 32,
        "start": 1531
      },
      {
        "length": 32,
        "start": 2431
      },
      {
        "length": 32,
        "start": 3293
      },
      {
        "length": 32,
        "start": 4488
      },
      {
        "length": 32,
        "start": 5208
      },
      {
        "length": 32,
        "start": 5658
      },
      {
        "length": 32,
        "start": 5851
      },
      {
        "length": 32,
        "start": 6089
      },
      {
        "length": 32,
        "start": 6381
      }
    ],
    "479": [
      {
        "length": 32,
        "start": 492
      },
      {
        "length": 32,
        "start": 2625
      },
      {
        "length": 32,
        "start": 3086
      },
      {
        "length": 32,
        "start": 3552
      },
      {
        "length": 32,
        "start": 4762
      },
      {
        "length": 32,
        "start": 4988
      }
    ]
  },
  "inputSourceName": "project/contracts/ShineMarketplace.sol",
  "buildInfoId": "solc-0_8_28-25705ea01dd12ffa2460b0ba2560a4ffa3b741e2"
}