{
  "_format": "hh3-artifact-1",
  "contractName": "ShineTicket",
  "sourceName": "contracts/ShineTicket.sol",
  "abi": [
    {
      "inputs": [
        {
          "internalType": "address",
          "name": "defaultAdmin",
          "type": "address"
        },
        {
          "internalType": "address",
          "name": "_usdtToken",
          "type": "address"
        }
      ],
      "stateMutability": "nonpayable",
      "type": "constructor"
    },
    {
      "inputs": [],
      "name": "AccessControlBadConfirmation",
      "type": "error"
    },
    {
      "inputs": [
        {
          "internalType": "address",
          "name": "account",
          "type": "address"
        },
        {
          "internalType": "bytes32",
          "name": "neededRole",
          "type": "bytes32"
        }
      ],
      "name": "AccessControlUnauthorizedAccount",
      "type": "error"
    },
    {
      "inputs": [],
      "name": "ApprovalCallerNotOwnerNorApproved",
      "type": "error"
    },
    {
      "inputs": [],
      "name": "ApprovalQueryForNonexistentToken",
      "type": "error"
    },
    {
      "inputs": [],
      "name": "BalanceQueryForZeroAddress",
      "type": "error"
    },
    {
      "inputs": [],
      "name": "ECDSAInvalidSignature",
      "type": "error"
    },
    {
      "inputs": [
        {
          "internalType": "uint256",
          "name": "length",
          "type": "uint256"
        }
      ],
      "name": "ECDSAInvalidSignatureLength",
      "type": "error"
    },
    {
      "inputs": [
        {
          "internalType": "bytes32",
          "name": "s",
          "type": "bytes32"
        }
      ],
      "name": "ECDSAInvalidSignatureS",
      "type": "error"
    },
    {
      "inputs": [],
      "name": "EnforcedPause",
      "type": "error"
    },
    {
      "inputs": [],
      "name": "ExpectedPause",
      "type": "error"
    },
    {
      "inputs": [],
      "name": "InvalidShortString",
      "type": "error"
    },
    {
      "inputs": [],
      "name": "MintERC2309QuantityExceedsLimit",
      "type": "error"
    },
    {
      "inputs": [],
      "name": "MintToZeroAddress",
      "type": "error"
    },
    {
      "inputs": [],
      "name": "MintZeroQuantity",
      "type": "error"
    },
    {
      "inputs": [],
      "name": "NotCompatibleWithSpotMints",
      "type": "error"
    },
    {
      "inputs": [],
      "name": "OwnerQueryForNonexistentToken",
      "type": "error"
    },
    {
      "inputs": [],
      "name": "OwnershipNotInitializedForExtraData",
      "type": "error"
    },
    {
      "inputs": [],
      "name": "ReentrancyGuardReentrantCall",
      "type": "error"
    },
    {
      "inputs": [],
      "name": "SequentialMintExceedsLimit",
      "type": "error"
    },
    {
      "inputs": [],
      "name": "SequentialUpToTooSmall",
      "type": "error"
    },
    {
      "inputs": [],
      "name": "SpotMintTokenIdTooSmall",
      "type": "error"
    },
    {
      "inputs": [
        {
          "internalType": "string",
          "name": "str",
          "type": "string"
        }
      ],
      "name": "StringTooLong",
      "type": "error"
    },
    {
      "inputs": [],
      "name": "TokenAlreadyExists",
      "type": "error"
    },
    {
      "inputs": [],
      "name": "TransferCallerNotOwnerNorApproved",
      "type": "error"
    },
    {
      "inputs": [],
      "name": "TransferFromIncorrectOwner",
      "type": "error"
    },
    {
      "inputs": [],
      "name": "TransferToNonERC721ReceiverImplementer",
      "type": "error"
    },
    {
      "inputs": [],
      "name": "TransferToZeroAddress",
      "type": "error"
    },
    {
      "inputs": [],
      "name": "URIQueryForNonexistentToken",
      "type": "error"
    },
    {
      "anonymous": false,
      "inputs": [
        {
          "indexed": true,
          "internalType": "address",
          "name": "owner",
          "type": "address"
        },
        {
          "indexed": true,
          "internalType": "address",
          "name": "approved",
          "type": "address"
        },
        {
          "indexed": true,
          "internalType": "uint256",
          "name": "tokenId",
          "type": "uint256"
        }
      ],
      "name": "Approval",
      "type": "event"
    },
    {
      "anonymous": false,
      "inputs": [
        {
          "indexed": true,
          "internalType": "address",
          "name": "owner",
          "type": "address"
        },
        {
          "indexed": true,
          "internalType": "address",
          "name": "operator",
          "type": "address"
        },
        {
          "indexed": false,
          "internalType": "bool",
          "name": "approved",
          "type": "bool"
        }
      ],
      "name": "ApprovalForAll",
      "type": "event"
    },
    {
      "anonymous": false,
      "inputs": [
        {
          "indexed": true,
          "internalType": "uint256",
          "name": "fromTokenId",
          "type": "uint256"
        },
        {
          "indexed": false,
          "internalType": "uint256",
          "name": "toTokenId",
          "type": "uint256"
        },
        {
          "indexed": true,
          "internalType": "address",
          "name": "from",
          "type": "address"
        },
        {
          "indexed": true,
          "internalType": "address",
          "name": "to",
          "type": "address"
        }
      ],
      "name": "ConsecutiveTransfer",
      "type": "event"
    },
    {
      "anonymous": false,
      "inputs": [],
      "name": "EIP712DomainChanged",
      "type": "event"
    },
    {
      "anonymous": false,
      "inputs": [
        {
          "indexed": false,
          "internalType": "address",
          "name": "account",
          "type": "address"
        }
      ],
      "name": "Paused",
      "type": "event"
    },
    {
      "anonymous": false,
      "inputs": [
        {
          "indexed": true,
          "internalType": "bytes32",
          "name": "role",
          "type": "bytes32"
        },
        {
          "indexed": true,
          "internalType": "bytes32",
          "name": "previousAdminRole",
          "type": "bytes32"
        },
        {
          "indexed": true,
          "internalType": "bytes32",
          "name": "newAdminRole",
          "type": "bytes32"
        }
      ],
      "name": "RoleAdminChanged",
      "type": "event"
    },
    {
      "anonymous": false,
      "inputs": [
        {
          "indexed": true,
          "internalType": "bytes32",
          "name": "role",
          "type": "bytes32"
        },
        {
          "indexed": true,
          "internalType": "address",
          "name": "account",
          "type": "address"
        },
        {
          "indexed": true,
          "internalType": "address",
          "name": "sender",
          "type": "address"
        }
      ],
      "name": "RoleGranted",
      "type": "event"
    },
    {
      "anonymous": false,
      "inputs": [
        {
          "indexed": true,
          "internalType": "bytes32",
          "name": "role",
          "type": "bytes32"
        },
        {
          "indexed": true,
          "internalType": "address",
          "name": "account",
          "type": "address"
        },
        {
          "indexed": true,
          "internalType": "address",
          "name": "sender",
          "type": "address"
        }
      ],
      "name": "RoleRevoked",
      "type": "event"
    },
    {
      "anonymous": false,
      "inputs": [
        {
          "indexed": false,
          "internalType": "uint256[]",
          "name": "tokenIds",
          "type": "uint256[]"
        },
        {
          "indexed": false,
          "internalType": "uint256",
          "name": "timestamp",
          "type": "uint256"
        }
      ],
      "name": "TicketsCheckedIn",
      "type": "event"
    },
    {
      "anonymous": false,
      "inputs": [
        {
          "indexed": true,
          "internalType": "address",
          "name": "from",
          "type": "address"
        },
        {
          "indexed": true,
          "internalType": "address",
          "name": "to",
          "type": "address"
        },
        {
          "indexed": true,
          "internalType": "uint256",
          "name": "tokenId",
          "type": "uint256"
        }
      ],
      "name": "Transfer",
      "type": "event"
    },
    {
      "anonymous": false,
      "inputs": [
        {
          "indexed": false,
          "internalType": "address",
          "name": "account",
          "type": "address"
        }
      ],
      "name": "Unpaused",
      "type": "event"
    },
    {
      "inputs": [],
      "name": "DEFAULT_ADMIN_ROLE",
      "outputs": [
        {
          "internalType": "bytes32",
          "name": "",
          "type": "bytes32"
        }
      ],
      "stateMutability": "view",
      "type": "function"
    },
    {
      "inputs": [],
      "name": "MARKETPLACE_ROLE",
      "outputs": [
        {
          "internalType": "bytes32",
          "name": "",
          "type": "bytes32"
        }
      ],
      "stateMutability": "view",
      "type": "function"
    },
    {
      "inputs": [],
      "name": "OPERATOR_ROLE",
      "outputs": [
        {
          "internalType": "bytes32",
          "name": "",
          "type": "bytes32"
        }
      ],
      "stateMutability": "view",
      "type": "function"
    },
    {
      "inputs": [],
      "name": "ORGANIZER_ROLE",
      "outputs": [
        {
          "internalType": "bytes32",
          "name": "",
          "type": "bytes32"
        }
      ],
      "stateMutability": "view",
      "type": "function"
    },
    {
      "inputs": [],
      "name": "VOUCHER_TYPEHASH",
      "outputs": [
        {
          "internalType": "bytes32",
          "name": "",
          "type": "bytes32"
        }
      ],
      "stateMutability": "view",
      "type": "function"
    },
    {
      "inputs": [],
      "name": "adminTreasury",
      "outputs": [
        {
          "internalType": "address",
          "name": "",
          "type": "address"
        }
      ],
      "stateMutability": "view",
      "type": "function"
    },
    {
      "inputs": [
        {
          "internalType": "address",
          "name": "to",
          "type": "address"
        },
        {
          "internalType": "uint256",
          "name": "tokenId",
          "type": "uint256"
        }
      ],
      "name": "approve",
      "outputs": [],
      "stateMutability": "payable",
      "type": "function"
    },
    {
      "inputs": [
        {
          "internalType": "address",
          "name": "owner",
          "type": "address"
        }
      ],
      "name": "balanceOf",
      "outputs": [
        {
          "internalType": "uint256",
          "name": "",
          "type": "uint256"
        }
      ],
      "stateMutability": "view",
      "type": "function"
    },
    {
      "inputs": [
        {
          "internalType": "uint256[]",
          "name": "tokenIds",
          "type": "uint256[]"
        }
      ],
      "name": "batchCheckIn",
      "outputs": [],
      "stateMutability": "nonpayable",
      "type": "function"
    },
    {
      "inputs": [
        {
          "components": [
            {
              "internalType": "uint256",
              "name": "eventId",
              "type": "uint256"
            },
            {
              "internalType": "uint256",
              "name": "quantity",
              "type": "uint256"
            },
            {
              "internalType": "uint256",
              "name": "price",
              "type": "uint256"
            },
            {
              "internalType": "uint256",
              "name": "commissionRateBps",
              "type": "uint256"
            },
            {
              "internalType": "uint256",
              "name": "relayerGasPerTicket",
              "type": "uint256"
            },
            {
              "internalType": "uint256",
              "name": "checkinGasPerTicket",
              "type": "uint256"
            },
            {
              "internalType": "uint64",
              "name": "expiryTime",
              "type": "uint64"
            },
            {
              "internalType": "uint256",
              "name": "nonce",
              "type": "uint256"
            }
          ],
          "internalType": "struct ShineTicket.MintVoucher[]",
          "name": "vouchers",
          "type": "tuple[]"
        },
        {
          "internalType": "bytes[]",
          "name": "signatures",
          "type": "bytes[]"
        }
      ],
      "name": "batchMintEventTickets",
      "outputs": [],
      "stateMutability": "nonpayable",
      "type": "function"
    },
    {
      "inputs": [
        {
          "internalType": "uint256",
          "name": "eventId",
          "type": "uint256"
        },
        {
          "internalType": "uint256",
          "name": "quantity",
          "type": "uint256"
        },
        {
          "internalType": "address",
          "name": "recipient",
          "type": "address"
        }
      ],
      "name": "buyTicket",
      "outputs": [],
      "stateMutability": "nonpayable",
      "type": "function"
    },
    {
      "inputs": [
        {
          "internalType": "uint256",
          "name": "tokenId",
          "type": "uint256"
        }
      ],
      "name": "checkIn",
      "outputs": [],
      "stateMutability": "nonpayable",
      "type": "function"
    },
    {
      "inputs": [
        {
          "internalType": "uint256",
          "name": "eventId",
          "type": "uint256"
        }
      ],
      "name": "claimFunds",
      "outputs": [],
      "stateMutability": "nonpayable",
      "type": "function"
    },
    {
      "inputs": [],
      "name": "eip712Domain",
      "outputs": [
        {
          "internalType": "bytes1",
          "name": "fields",
          "type": "bytes1"
        },
        {
          "internalType": "string",
          "name": "name",
          "type": "string"
        },
        {
          "internalType": "string",
          "name": "version",
          "type": "string"
        },
        {
          "internalType": "uint256",
          "name": "chainId",
          "type": "uint256"
        },
        {
          "internalType": "address",
          "name": "verifyingContract",
          "type": "address"
        },
        {
          "internalType": "bytes32",
          "name": "salt",
          "type": "bytes32"
        },
        {
          "internalType": "uint256[]",
          "name": "extensions",
          "type": "uint256[]"
        }
      ],
      "stateMutability": "view",
      "type": "function"
    },
    {
      "inputs": [
        {
          "internalType": "uint256",
          "name": "",
          "type": "uint256"
        }
      ],
      "name": "eventCheckedInCount",
      "outputs": [
        {
          "internalType": "uint256",
          "name": "",
          "type": "uint256"
        }
      ],
      "stateMutability": "view",
      "type": "function"
    },
    {
      "inputs": [
        {
          "internalType": "uint256",
          "name": "",
          "type": "uint256"
        }
      ],
      "name": "eventCheckinGasPerTicket",
      "outputs": [
        {
          "internalType": "uint256",
          "name": "",
          "type": "uint256"
        }
      ],
      "stateMutability": "view",
      "type": "function"
    },
    {
      "inputs": [
        {
          "internalType": "uint256",
          "name": "",
          "type": "uint256"
        }
      ],
      "name": "eventCommissionRateBps",
      "outputs": [
        {
          "internalType": "uint256",
          "name": "",
          "type": "uint256"
        }
      ],
      "stateMutability": "view",
      "type": "function"
    },
    {
      "inputs": [
        {
          "internalType": "uint256",
          "name": "",
          "type": "uint256"
        }
      ],
      "name": "eventMintedCount",
      "outputs": [
        {
          "internalType": "uint256",
          "name": "",
          "type": "uint256"
        }
      ],
      "stateMutability": "view",
      "type": "function"
    },
    {
      "inputs": [
        {
          "internalType": "uint256",
          "name": "",
          "type": "uint256"
        }
      ],
      "name": "eventRelayerGasPerTicket",
      "outputs": [
        {
          "internalType": "uint256",
          "name": "",
          "type": "uint256"
        }
      ],
      "stateMutability": "view",
      "type": "function"
    },
    {
      "inputs": [
        {
          "internalType": "uint256",
          "name": "",
          "type": "uint256"
        }
      ],
      "name": "eventRelayerSoldCount",
      "outputs": [
        {
          "internalType": "uint256",
          "name": "",
          "type": "uint256"
        }
      ],
      "stateMutability": "view",
      "type": "function"
    },
    {
      "inputs": [
        {
          "internalType": "uint256",
          "name": "",
          "type": "uint256"
        }
      ],
      "name": "eventRevenue",
      "outputs": [
        {
          "internalType": "uint256",
          "name": "",
          "type": "uint256"
        }
      ],
      "stateMutability": "view",
      "type": "function"
    },
    {
      "inputs": [
        {
          "internalType": "uint256",
          "name": "",
          "type": "uint256"
        }
      ],
      "name": "events",
      "outputs": [
        {
          "internalType": "address",
          "name": "organizer",
          "type": "address"
        },
        {
          "internalType": "uint64",
          "name": "expiryTime",
          "type": "uint64"
        },
        {
          "internalType": "uint32",
          "name": "maxCapacity",
          "type": "uint32"
        },
        {
          "internalType": "uint256",
          "name": "price",
          "type": "uint256"
        },
        {
          "internalType": "bool",
          "name": "isActive",
          "type": "bool"
        }
      ],
      "stateMutability": "view",
      "type": "function"
    },
    {
      "inputs": [
        {
          "internalType": "uint256",
          "name": "eventId",
          "type": "uint256"
        },
        {
          "internalType": "uint64",
          "name": "newExpiry",
          "type": "uint64"
        }
      ],
      "name": "extendEventExpiry",
      "outputs": [],
      "stateMutability": "nonpayable",
      "type": "function"
    },
    {
      "inputs": [
        {
          "internalType": "uint256",
          "name": "",
          "type": "uint256"
        }
      ],
      "name": "fundsClaimed",
      "outputs": [
        {
          "internalType": "bool",
          "name": "",
          "type": "bool"
        }
      ],
      "stateMutability": "view",
      "type": "function"
    },
    {
      "inputs": [
        {
          "internalType": "uint256",
          "name": "tokenId",
          "type": "uint256"
        }
      ],
      "name": "getApproved",
      "outputs": [
        {
          "internalType": "address",
          "name": "",
          "type": "address"
        }
      ],
      "stateMutability": "view",
      "type": "function"
    },
    {
      "inputs": [
        {
          "internalType": "uint256[]",
          "name": "tokenIds",
          "type": "uint256[]"
        }
      ],
      "name": "getBatchTicketStatus",
      "outputs": [
        {
          "internalType": "bool[]",
          "name": "",
          "type": "bool[]"
        }
      ],
      "stateMutability": "view",
      "type": "function"
    },
    {
      "inputs": [
        {
          "internalType": "bytes32",
          "name": "role",
          "type": "bytes32"
        }
      ],
      "name": "getRoleAdmin",
      "outputs": [
        {
          "internalType": "bytes32",
          "name": "",
          "type": "bytes32"
        }
      ],
      "stateMutability": "view",
      "type": "function"
    },
    {
      "inputs": [
        {
          "internalType": "bytes32",
          "name": "role",
          "type": "bytes32"
        },
        {
          "internalType": "address",
          "name": "account",
          "type": "address"
        }
      ],
      "name": "grantRole",
      "outputs": [],
      "stateMutability": "nonpayable",
      "type": "function"
    },
    {
      "inputs": [
        {
          "internalType": "bytes32",
          "name": "role",
          "type": "bytes32"
        },
        {
          "internalType": "address",
          "name": "account",
          "type": "address"
        }
      ],
      "name": "hasRole",
      "outputs": [
        {
          "internalType": "bool",
          "name": "",
          "type": "bool"
        }
      ],
      "stateMutability": "view",
      "type": "function"
    },
    {
      "inputs": [
        {
          "internalType": "address",
          "name": "owner",
          "type": "address"
        },
        {
          "internalType": "address",
          "name": "operator",
          "type": "address"
        }
      ],
      "name": "isApprovedForAll",
      "outputs": [
        {
          "internalType": "bool",
          "name": "",
          "type": "bool"
        }
      ],
      "stateMutability": "view",
      "type": "function"
    },
    {
      "inputs": [
        {
          "internalType": "address[]",
          "name": "recipients",
          "type": "address[]"
        },
        {
          "internalType": "uint256[]",
          "name": "quantities",
          "type": "uint256[]"
        }
      ],
      "name": "mintBatchUsers",
      "outputs": [],
      "stateMutability": "nonpayable",
      "type": "function"
    },
    {
      "inputs": [
        {
          "components": [
            {
              "internalType": "uint256",
              "name": "eventId",
              "type": "uint256"
            },
            {
              "internalType": "uint256",
              "name": "quantity",
              "type": "uint256"
            },
            {
              "internalType": "uint256",
              "name": "price",
              "type": "uint256"
            },
            {
              "internalType": "uint256",
              "name": "commissionRateBps",
              "type": "uint256"
            },
            {
              "internalType": "uint256",
              "name": "relayerGasPerTicket",
              "type": "uint256"
            },
            {
              "internalType": "uint256",
              "name": "checkinGasPerTicket",
              "type": "uint256"
            },
            {
              "internalType": "uint64",
              "name": "expiryTime",
              "type": "uint64"
            },
            {
              "internalType": "uint256",
              "name": "nonce",
              "type": "uint256"
            }
          ],
          "internalType": "struct ShineTicket.MintVoucher",
          "name": "voucher",
          "type": "tuple"
        },
        {
          "internalType": "bytes",
          "name": "signature",
          "type": "bytes"
        }
      ],
      "name": "mintEventTickets",
      "outputs": [],
      "stateMutability": "nonpayable",
      "type": "function"
    },
    {
      "inputs": [],
      "name": "name",
      "outputs": [
        {
          "internalType": "string",
          "name": "",
          "type": "string"
        }
      ],
      "stateMutability": "view",
      "type": "function"
    },
    {
      "inputs": [
        {
          "internalType": "uint256",
          "name": "tokenId",
          "type": "uint256"
        }
      ],
      "name": "ownerOf",
      "outputs": [
        {
          "internalType": "address",
          "name": "",
          "type": "address"
        }
      ],
      "stateMutability": "view",
      "type": "function"
    },
    {
      "inputs": [],
      "name": "pause",
      "outputs": [],
      "stateMutability": "nonpayable",
      "type": "function"
    },
    {
      "inputs": [],
      "name": "paused",
      "outputs": [
        {
          "internalType": "bool",
          "name": "",
          "type": "bool"
        }
      ],
      "stateMutability": "view",
      "type": "function"
    },
    {
      "inputs": [
        {
          "internalType": "uint256",
          "name": "eventId",
          "type": "uint256"
        },
        {
          "internalType": "uint256",
          "name": "quantity",
          "type": "uint256"
        },
        {
          "internalType": "address",
          "name": "buyerAddress",
          "type": "address"
        }
      ],
      "name": "relayerBuyTicket",
      "outputs": [],
      "stateMutability": "nonpayable",
      "type": "function"
    },
    {
      "inputs": [
        {
          "internalType": "bytes32",
          "name": "role",
          "type": "bytes32"
        },
        {
          "internalType": "address",
          "name": "callerConfirmation",
          "type": "address"
        }
      ],
      "name": "renounceRole",
      "outputs": [],
      "stateMutability": "nonpayable",
      "type": "function"
    },
    {
      "inputs": [
        {
          "internalType": "bytes32",
          "name": "role",
          "type": "bytes32"
        },
        {
          "internalType": "address",
          "name": "account",
          "type": "address"
        }
      ],
      "name": "revokeRole",
      "outputs": [],
      "stateMutability": "nonpayable",
      "type": "function"
    },
    {
      "inputs": [
        {
          "internalType": "uint256",
          "name": "tokenId",
          "type": "uint256"
        }
      ],
      "name": "revokeTicket",
      "outputs": [],
      "stateMutability": "nonpayable",
      "type": "function"
    },
    {
      "inputs": [
        {
          "internalType": "address",
          "name": "from",
          "type": "address"
        },
        {
          "internalType": "address",
          "name": "to",
          "type": "address"
        },
        {
          "internalType": "uint256",
          "name": "tokenId",
          "type": "uint256"
        }
      ],
      "name": "safeTransferFrom",
      "outputs": [],
      "stateMutability": "payable",
      "type": "function"
    },
    {
      "inputs": [
        {
          "internalType": "address",
          "name": "from",
          "type": "address"
        },
        {
          "internalType": "address",
          "name": "to",
          "type": "address"
        },
        {
          "internalType": "uint256",
          "name": "tokenId",
          "type": "uint256"
        },
        {
          "internalType": "bytes",
          "name": "_data",
          "type": "bytes"
        }
      ],
      "name": "safeTransferFrom",
      "outputs": [],
      "stateMutability": "payable",
      "type": "function"
    },
    {
      "inputs": [
        {
          "internalType": "address",
          "name": "operator",
          "type": "address"
        },
        {
          "internalType": "bool",
          "name": "approved",
          "type": "bool"
        }
      ],
      "name": "setApprovalForAll",
      "outputs": [],
      "stateMutability": "nonpayable",
      "type": "function"
    },
    {
      "inputs": [
        {
          "internalType": "string",
          "name": "baseURI",
          "type": "string"
        }
      ],
      "name": "setBaseURI",
      "outputs": [],
      "stateMutability": "nonpayable",
      "type": "function"
    },
    {
      "inputs": [
        {
          "internalType": "uint256",
          "name": "eventId",
          "type": "uint256"
        },
        {
          "internalType": "uint256",
          "name": "commissionRateBps",
          "type": "uint256"
        },
        {
          "internalType": "uint256",
          "name": "relayerGasPerTicket",
          "type": "uint256"
        },
        {
          "internalType": "uint256",
          "name": "checkinGasPerTicket",
          "type": "uint256"
        }
      ],
      "name": "setEventCostConfig",
      "outputs": [],
      "stateMutability": "nonpayable",
      "type": "function"
    },
    {
      "inputs": [
        {
          "internalType": "uint256",
          "name": "eventId",
          "type": "uint256"
        },
        {
          "internalType": "uint256",
          "name": "price",
          "type": "uint256"
        }
      ],
      "name": "setEventPrice",
      "outputs": [],
      "stateMutability": "nonpayable",
      "type": "function"
    },
    {
      "inputs": [
        {
          "internalType": "bytes4",
          "name": "interfaceId",
          "type": "bytes4"
        }
      ],
      "name": "supportsInterface",
      "outputs": [
        {
          "internalType": "bool",
          "name": "",
          "type": "bool"
        }
      ],
      "stateMutability": "view",
      "type": "function"
    },
    {
      "inputs": [],
      "name": "symbol",
      "outputs": [
        {
          "internalType": "string",
          "name": "",
          "type": "string"
        }
      ],
      "stateMutability": "view",
      "type": "function"
    },
    {
      "inputs": [
        {
          "internalType": "uint256",
          "name": "",
          "type": "uint256"
        }
      ],
      "name": "ticketToEvent",
      "outputs": [
        {
          "internalType": "uint256",
          "name": "",
          "type": "uint256"
        }
      ],
      "stateMutability": "view",
      "type": "function"
    },
    {
      "inputs": [
        {
          "internalType": "uint256",
          "name": "",
          "type": "uint256"
        }
      ],
      "name": "ticketUsed",
      "outputs": [
        {
          "internalType": "bool",
          "name": "",
          "type": "bool"
        }
      ],
      "stateMutability": "view",
      "type": "function"
    },
    {
      "inputs": [
        {
          "internalType": "uint256",
          "name": "tokenId",
          "type": "uint256"
        }
      ],
      "name": "tokenURI",
      "outputs": [
        {
          "internalType": "string",
          "name": "",
          "type": "string"
        }
      ],
      "stateMutability": "view",
      "type": "function"
    },
    {
      "inputs": [],
      "name": "totalSupply",
      "outputs": [
        {
          "internalType": "uint256",
          "name": "result",
          "type": "uint256"
        }
      ],
      "stateMutability": "view",
      "type": "function"
    },
    {
      "inputs": [
        {
          "internalType": "address",
          "name": "from",
          "type": "address"
        },
        {
          "internalType": "address",
          "name": "to",
          "type": "address"
        },
        {
          "internalType": "uint256",
          "name": "tokenId",
          "type": "uint256"
        }
      ],
      "name": "transferFrom",
      "outputs": [],
      "stateMutability": "payable",
      "type": "function"
    },
    {
      "inputs": [],
      "name": "unpause",
      "outputs": [],
      "stateMutability": "nonpayable",
      "type": "function"
    },
    {
      "inputs": [],
      "name": "usdtToken",
      "outputs": [
        {
          "internalType": "contract IERC20",
          "name": "",
          "type": "address"
        }
      ],
      "stateMutability": "view",
      "type": "function"
    },
    {
      "inputs": [
        {
          "internalType": "uint256",
          "name": "",
          "type": "uint256"
        }
      ],
      "name": "usedNonces",
      "outputs": [
        {
          "internalType": "bool",
          "name": "",
          "type": "bool"
        }
      ],
      "stateMutability": "view",
      "type": "function"
    }
  ],
  "bytecode": "0x6101a0604052348015610010575f5ffd5b5060405161451238038061451283398101604081905261002f91610372565b604080518082018252600b8082526a14da1a5b99551a58dad95d60aa1b60208084018290528451808601865260018152603160f81b818301528551808701875293845283820192909252845180860190955260058552645348494e4560d81b90850152919260026100a0838261043b565b5060036100ad828261043b565b505060015f55506100bf82600b61023d565b610120526100ce81600c61023d565b61014052815160208084019190912060e052815190820120610100524660a05261015a60e05161010051604080517f8b73c3c69bb8fe3d512ecc4cf759cc79239f7b179b0ffacaa9a75d522b39400f60208201529081019290925260608201524660808201523060a08201525f9060c00160405160208183030381529060405280519060200120905090565b60805250503060c0526001600d556001600160a01b0381166101c35760405162461bcd60e51b815260206004820152601460248201527f496e76616c69642055534454206164647265737300000000000000000000000060448201526064015b60405180910390fd5b6001600160a01b0382166102195760405162461bcd60e51b815260206004820152601560248201527f496e76616c69642061646d696e2061646472657373000000000000000000000060448201526064016101ba565b6102235f8361026f565b506001600160a01b0390811661016052166101805261054d565b5f602083511015610258576102518361031a565b9050610269565b81610263848261043b565b5060ff90505b92915050565b5f8281526009602090815260408083206001600160a01b038516845290915281205460ff16610313575f8381526009602090815260408083206001600160a01b03861684529091529020805460ff191660011790556102cb3390565b6001600160a01b0316826001600160a01b0316847f2f8788117e7eff1d82e926ec794901d17c78024a50270940304540a733656f0d60405160405180910390a4506001610269565b505f610269565b5f5f829050601f81511115610344578260405163305a27a960e01b81526004016101ba91906104f5565b805161034f8261052a565b179392505050565b80516001600160a01b038116811461036d575f5ffd5b919050565b5f5f60408385031215610383575f5ffd5b61038c83610357565b915061039a60208401610357565b90509250929050565b634e487b7160e01b5f52604160045260245ffd5b600181811c908216806103cb57607f821691505b6020821081036103e957634e487b7160e01b5f52602260045260245ffd5b50919050565b601f82111561043657805f5260205f20601f840160051c810160208510156104145750805b601f840160051c820191505b81811015610433575f8155600101610420565b50505b505050565b81516001600160401b03811115610454576104546103a3565b6104688161046284546103b7565b846103ef565b6020601f82116001811461049a575f83156104835750848201515b5f19600385901b1c1916600184901b178455610433565b5f84815260208120601f198516915b828110156104c957878501518255602094850194600190920191016104a9565b50848210156104e657868401515f19600387901b60f8161c191681555b50505050600190811b01905550565b602081525f82518060208401528060208501604085015e5f604082850101526040601f19601f83011684010191505092915050565b805160208083015191908110156103e9575f1960209190910360031b1b16919050565b60805160a05160c05160e0516101005161012051610140516101605161018051613f3d6105d55f395f81816108ee015261142c01525f818161099d01528181610d5a015281816113510152818161145b015261194d01525f612cc801525f612c9601525f6132be01525f61329601525f6131f101525f61321b01525f6132450152613f3d5ff3fe60806040526004361061035a575f3560e01c80637909cb59116101bd578063afc573b1116100f2578063d547741f11610092578063e95a644f1161006d578063e95a644f14610b02578063e985e9c514610b21578063f5b541a614610b68578063f6ac04da14610b9b575f5ffd5b8063d547741f14610aa5578063dbf56d1914610ac4578063dc68cba514610ae3575f5ffd5b8063c3439f3f116100cd578063c3439f3f14610a1c578063c87b56dd14610a3c578063cb0c800514610a5b578063d29ab4d114610a7a575f5ffd5b8063afc573b1146109bf578063b88d4fde146109de578063b955e4ad146109f1575f5ffd5b806395d89b411161015d578063a1e234d311610138578063a1e234d31461092f578063a217fddf1461095a578063a22cb4651461096d578063a98ad46c1461098c575f5ffd5b806395d89b41146108c957806396cad0db146108dd5780639b9ac6c314610910575f5ffd5b80638bc1344b116101985780638bc1344b1461082d57806391d148541461085857806394739e8714610877578063947e59b4146108aa575f5ffd5b80637909cb59146107bf5780638456cb59146107f257806384b0196e14610806575f5ffd5b80632f2ff15d116102935780635c975abb116102335780636717e41c1161020e5780636717e41c1461072857806367234254146107565780636fa605e31461077557806370a08231146107a0575f5ffd5b80635c975abb146106c45780636352211e146106db578063642b5f9b146106fa575f5ffd5b80633f4ba83a1161026e5780633f4ba83a1461065357806342842e0e1461066757806355f804b31461067a57806357b9bae814610699575f5ffd5b80632f2ff15d146105f657806334c588611461061557806336568abe14610634575f5ffd5b806318160ddd116102fe57806323b872dd116102d957806323b872dd1461056b578063248a9ca31461057e57806326abfeba146105ac5780632b07ee8a146105d7575f5ffd5b806318160ddd146104f757806319fcf7cb146105205780631b55e3381461054c575f5ffd5b8063081812fc11610339578063081812fc146103d4578063095ea7b31461040b5780630b7914301461041e578063157285b9146104c9575f5ffd5b80628e68651461035e57806301ffc9a71461037f57806306fdde03146103b3575b5f5ffd5b348015610369575f5ffd5b5061037d610378366004613551565b610bc6565b005b34801561038a575f5ffd5b5061039e610399366004613598565b610e80565b60405190151581526020015b60405180910390f35b3480156103be575f5ffd5b506103c7610e90565b6040516103aa91906135e1565b3480156103df575f5ffd5b506103f36103ee3660046135f3565b610f20565b6040516001600160a01b0390911681526020016103aa565b61037d61041936600461360a565b610f59565b348015610429575f5ffd5b506104826104383660046135f3565b600e6020525f90815260409020805460018201546002909201546001600160a01b03821692600160a01b83046001600160401b031692600160e01b900463ffffffff169160ff1685565b604080516001600160a01b0390961686526001600160401b03909416602086015263ffffffff9092169284019290925260608301919091521515608082015260a0016103aa565b3480156104d4575f5ffd5b5061039e6104e33660046135f3565b60196020525f908152604090205460ff1681565b348015610502575f5ffd5b506105126001545f54035f190190565b6040519081526020016103aa565b34801561052b575f5ffd5b5061053f61053a366004613679565b610f69565b6040516103aa91906136b7565b348015610557575f5ffd5b5061037d6105663660046135f3565b611070565b61037d6105793660046136fb565b61152a565b348015610589575f5ffd5b506105126105983660046135f3565b5f9081526009602052604090206001015490565b3480156105b7575f5ffd5b506105126105c63660046135f3565b60166020525f908152604090205481565b3480156105e2575f5ffd5b5061037d6105f136600461374b565b61169b565b348015610601575f5ffd5b5061037d610610366004613775565b611741565b348015610620575f5ffd5b5061037d61062f3660046137d3565b61176b565b34801561063f575f5ffd5b5061037d61064e366004613775565b61177e565b34801561065e575f5ffd5b5061037d6117b1565b61037d6106753660046136fb565b6117c3565b348015610685575f5ffd5b5061037d61069436600461382b565b6117dd565b3480156106a4575f5ffd5b506105126106b33660046135f3565b60176020525f908152604090205481565b3480156106cf575f5ffd5b50600a5460ff1661039e565b3480156106e6575f5ffd5b506103f36106f53660046135f3565b6117f4565b348015610705575f5ffd5b5061039e6107143660046135f3565b600f6020525f908152604090205460ff1681565b348015610733575f5ffd5b5061039e6107423660046135f3565b60106020525f908152604090205460ff1681565b348015610761575f5ffd5b5061037d610770366004613551565b6117fe565b348015610780575f5ffd5b5061051261078f3660046135f3565b60126020525f908152604090205481565b3480156107ab575f5ffd5b506105126107ba36600461385d565b611a91565b3480156107ca575f5ffd5b506105127f4d2e7a1e3f5dd6e203f087b15756ccf0e4ccd947fe1b639a38540089a1e47f6381565b3480156107fd575f5ffd5b5061037d611ad4565b348015610811575f5ffd5b5061081a611ae6565b6040516103aa97969594939291906138b0565b348015610838575f5ffd5b506105126108473660046135f3565b60146020525f908152604090205481565b348015610863575f5ffd5b5061039e610872366004613775565b611b28565b348015610882575f5ffd5b506105127f7e2428746ba19547783fa5b02cf073095822dfdcab967abd9d179be86d792b0981565b3480156108b5575f5ffd5b5061037d6108c43660046135f3565b611b52565b3480156108d4575f5ffd5b506103c7611b6d565b3480156108e8575f5ffd5b506103f37f000000000000000000000000000000000000000000000000000000000000000081565b34801561091b575f5ffd5b5061037d61092a366004613679565b611b7c565b34801561093a575f5ffd5b506105126109493660046135f3565b60156020525f908152604090205481565b348015610965575f5ffd5b506105125f81565b348015610978575f5ffd5b5061037d61098736600461392c565b611d07565b348015610997575f5ffd5b506103f37f000000000000000000000000000000000000000000000000000000000000000081565b3480156109ca575f5ffd5b5061037d6109d9366004613961565b611d72565b61037d6109ec3660046139df565b611e25565b3480156109fc575f5ffd5b50610512610a0b3660046135f3565b60136020525f908152604090205481565b348015610a27575f5ffd5b506105125f516020613ee85f395f51905f5281565b348015610a47575f5ffd5b506103c7610a563660046135f3565b611e60565b348015610a66575f5ffd5b5061037d610a75366004613ab9565b611ed8565b348015610a85575f5ffd5b50610512610a943660046135f3565b60186020525f908152604090205481565b348015610ab0575f5ffd5b5061037d610abf366004613775565b611fc4565b348015610acf575f5ffd5b5061037d610ade366004613ae8565b611fe8565b348015610aee575f5ffd5b5061037d610afd366004613b68565b61211a565b348015610b0d575f5ffd5b5061037d610b1c3660046135f3565b61218b565b348015610b2c575f5ffd5b5061039e610b3b366004613b88565b6001600160a01b039182165f90815260076020908152604080832093909416825291909152205460ff1690565b348015610b73575f5ffd5b506105127f97667070c54ef182b0f5858b034beac1b6f3089aa2d3188bb1e8929f4fa9b92981565b348015610ba6575f5ffd5b50610512610bb53660046135f3565b60116020525f908152604090205481565b610bce612397565b610bd66123bd565b6001600160a01b038116610c255760405162461bcd60e51b8152602060048201526011602482015270125b9d985b1a59081c9958da5c1a595b9d607a1b60448201526064015b60405180910390fd5b5f838152600e6020908152604091829020825160a08101845281546001600160a01b0381168252600160a01b81046001600160401b031693820193909352600160e01b90920463ffffffff16928201929092526001820154606082015260029091015460ff16151560808201819052610cd65760405162461bcd60e51b81526020600482015260136024820152724576656e74206973206e6f742061637469766560681b6044820152606401610c1c565b5f838260600151610ce79190613bc4565b90505f8111610d385760405162461bcd60e51b815260206004820152601e60248201527f5072696365206e6f7420736574206f72207175616e74697479207a65726f00006044820152606401610c1c565b6040516323b872dd60e01b8152336004820152306024820152604481018290527f00000000000000000000000000000000000000000000000000000000000000006001600160a01b0316906323b872dd906064016020604051808303815f875af1158015610da8573d5f5f3e3d5ffd5b505050506040513d601f19601f82011682018060405250810190610dcc9190613bdb565b610e0f5760405162461bcd60e51b81526020600482015260146024820152731554d115081d1c985b9cd9995c8819985a5b195960621b6044820152606401610c1c565b5f8581526012602052604081208054839290610e2c908490613bf6565b90915550505f54610e3d84866123e7565b5f5b85811015610e6d578660115f610e558486613bf6565b815260208101919091526040015f2055600101610e3f565b50505050610e7b6001600d55565b505050565b5f610e8a82612407565b92915050565b606060028054610e9f90613c09565b80601f0160208091040260200160405190810160405280929190818152602001828054610ecb90613c09565b8015610f165780601f10610eed57610100808354040283529160200191610f16565b820191905f5260205f20905b815481529060010190602001808311610ef957829003601f168201915b5050505050905090565b5f610f2a8261243b565b610f3e57610f3e6333d1c03960e21b612485565b505f908152600660205260409020546001600160a01b031690565b610f658282600161248d565b5050565b60605f826001600160401b03811115610f8457610f846139cb565b604051908082528060200260200182016040528015610fad578160200160208202803683370190505b5090505f5b8381101561106857610fdb858583818110610fcf57610fcf613c41565b9050602002013561243b565b611007575f828281518110610ff257610ff2613c41565b91151560209283029190910190910152611060565b600f5f86868481811061101c5761101c613c41565b9050602002013581526020019081526020015f205f9054906101000a900460ff1682828151811061104f5761104f613c41565b911515602092830291909101909101525b600101610fb2565b509392505050565b6110786123bd565b611080612397565b5f818152600e6020908152604091829020825160a08101845281546001600160a01b038116808352600160a01b82046001600160401b031694830194909452600160e01b900463ffffffff1693810193909352600181015460608401526002015460ff161515608083015233146111395760405162461bcd60e51b815260206004820152601860248201527f4f6e6c79206f7267616e697a65722063616e20636c61696d00000000000000006044820152606401610c1c565b80602001516001600160401b0316421161118b5760405162461bcd60e51b8152602060048201526013602482015272115d995b9d081b9bdd08195b991959081e595d606a1b6044820152606401610c1c565b5f8281526019602052604090205460ff16156111e15760405162461bcd60e51b8152602060048201526015602482015274119d5b991cc8185b1c9958591e4818db185a5b5959605a1b6044820152606401610c1c565b5f828152601960209081526040808320805460ff191660011790556012909152902054806112475760405162461bcd60e51b81526020600482015260136024820152724e6f20726576656e756520746f20636c61696d60681b6044820152606401610c1c565b5f83815260136020526040812054612710906112639084613bc4565b61126d9190613c55565b5f85815260156020908152604080832054601890925282205492935090916112959190613bc4565b5f868152601460209081526040808320546017909252909120546112b99190613bc4565b6112c39190613bf6565b90505f6112d08284613bf6565b9050808410156113225760405162461bcd60e51b815260206004820181905260248201527f526576656e7565206973206c657373207468616e2073797374656d20666565736044820152606401610c1c565b5f61132d8286613c74565b9050801561140f5760405163a9059cbb60e01b8152336004820152602481018290527f00000000000000000000000000000000000000000000000000000000000000006001600160a01b03169063a9059cbb906044016020604051808303815f875af115801561139f573d5f5f3e3d5ffd5b505050506040513d601f19601f820116820180604052508101906113c39190613bdb565b61140f5760405162461bcd60e51b815260206004820152601960248201527f4f7267616e697a6572207472616e73666572206661696c6564000000000000006044820152606401610c1c565b81156115095760405163a9059cbb60e01b81526001600160a01b037f000000000000000000000000000000000000000000000000000000000000000081166004830152602482018490527f0000000000000000000000000000000000000000000000000000000000000000169063a9059cbb906044016020604051808303815f875af11580156114a1573d5f5f3e3d5ffd5b505050506040513d601f19601f820116820180604052508101906114c59190613bdb565b6115095760405162461bcd60e51b815260206004820152601560248201527410591b5a5b881d1c985b9cd9995c8819985a5b1959605a1b6044820152606401610c1c565b5050505f848152601260205260408120555061152791506124009050565b50565b5f6115348261252e565b6001600160a01b03948516949091508116841461155a5761155a62a1148160e81b612485565b5f82815260066020526040902080546115858187335b6001600160a01b039081169116811491141790565b6115a7576115938633610b3b565b6115a7576115a7632ce44b5f60e11b612485565b6115b486868660016125c7565b80156115be575f82555b6001600160a01b038681165f9081526005602052604080822080545f19019055918716808252919020805460010190554260a01b17600160e11b175f85815260046020526040812091909155600160e11b8416900361164a57600184015f818152600460205260408120549003611648575f548114611648575f8181526004602052604090208490555b505b6001600160a01b0385168481887fddf252ad1be2c89b69c2b068fc378daa952ba7f163c4a11628f55a4df523b3ef5f80a4805f0361169257611692633a954ecd60e21b612485565b50505050505050565b5f6116a581612761565b6116ad612397565b5f838152600e60205260409020546001600160a01b03166117075760405162461bcd60e51b8152602060048201526014602482015273115d995b9d08191bd95cc81b9bdd08195e1a5cdd60621b6044820152606401610c1c565b505f918252600e602052604090912080546001600160401b03909216600160a01b0267ffffffffffffffff60a01b19909216919091179055565b5f8281526009602052604090206001015461175b81612761565b611765838361276b565b50505050565b611773612397565b610e7b8383836127fc565b6001600160a01b03811633146117a75760405163334bd91960e11b815260040160405180910390fd5b610e7b8282612b95565b5f6117bb81612761565b611527612c00565b610e7b83838360405180602001604052805f815250611e25565b5f6117e781612761565b601a611765838583613ccb565b5f610e8a8261252e565b5f61180881612761565b611810612397565b6118186123bd565b5f848152600e6020908152604091829020825160a08101845281546001600160a01b0381168252600160a01b81046001600160401b031693820193909352600160e01b90920463ffffffff16928201929092526001820154606082015260029091015460ff161515608082018190526118c95760405162461bcd60e51b81526020600482015260136024820152724576656e74206973206e6f742061637469766560681b6044820152606401610c1c565b5f8482606001516118da9190613bc4565b90505f811161192b5760405162461bcd60e51b815260206004820152601e60248201527f5072696365206e6f7420736574206f72207175616e74697479207a65726f00006044820152606401610c1c565b6040516323b872dd60e01b8152336004820152306024820152604481018290527f00000000000000000000000000000000000000000000000000000000000000006001600160a01b0316906323b872dd906064016020604051808303815f875af115801561199b573d5f5f3e3d5ffd5b505050506040513d601f19601f820116820180604052508101906119bf9190613bdb565b611a025760405162461bcd60e51b81526020600482015260146024820152731554d115081d1c985b9cd9995c8819985a5b195960621b6044820152606401610c1c565b5f8681526012602052604081208054839290611a1f908490613bf6565b90915550505f54611a3085876123e7565b5f5b86811015611a60578760115f611a488486613bf6565b815260208101919091526040015f2055600101611a32565b505f8781526017602052604081208054889290611a7e908490613bf6565b90915550506001600d5550611765915050565b5f6001600160a01b038216611ab057611ab06323d3ad8160e21b612485565b506001600160a01b03165f908152600560205260409020546001600160401b031690565b5f611ade81612761565b611527612c52565b5f6060805f5f5f6060611af7612c8f565b611aff612cc1565b604080515f80825260208201909252600f60f81b9b939a50919850469750309650945092509050565b5f9182526009602090815260408084206001600160a01b0393909316845291905290205460ff1690565b5f611b5c81612761565b611b64612397565b610f6582612cee565b606060038054610e9f90613c09565b7f97667070c54ef182b0f5858b034beac1b6f3089aa2d3188bb1e8929f4fa9b929611ba681612761565b611bae612397565b5f5b82811015611cc6575f848483818110611bcb57611bcb613c41565b602090810292909201355f8181526011909352604090922054919250508015611c52575f818152600e6020526040902054600160a01b90046001600160401b0316421115611c525760405162461bcd60e51b8152602060048201526014602482015273115d995b9d081d1a58dad95d08195e1c1a5c995960621b6044820152606401610c1c565b611c5b8261243b565b8015611c7557505f828152600f602052604090205460ff16155b15611cbc575f828152600f60205260409020805460ff191660011790558015611cbc575f818152601860205260408120805460019290611cb6908490613bf6565b90915550505b5050600101611bb0565b507f0e862c2630b0e020ea8c569930ac577d3c103fdb452386c869484d2b2cb73881838342604051611cfa93929190613d84565b60405180910390a1505050565b335f8181526007602090815260408083206001600160a01b03871680855290835292819020805460ff191686151590811790915590519081529192917f17307eab39ab6107e8899845ad3d59bd9653f200f220920489ca2b5937696c31910160405180910390a35050565b5f611d7c81612761565b611d84612397565b838214611dc35760405162461bcd60e51b815260206004820152600d60248201526c088c2e8c240dad2e6dac2e8c6d609b1b6044820152606401610c1c565b5f5b84811015611e1d57611e15868683818110611de257611de2613c41565b9050602002016020810190611df7919061385d565b858584818110611e0957611e09613c41565b905060200201356123e7565b600101611dc5565b505050505050565b611e3084848461152a565b6001600160a01b0383163b1561176557611e4c84848484612cf8565b611765576117656368d2bf6b60e11b612485565b6060611e6b8261243b565b611e7f57611e7f630a14c4b560e41b612485565b5f611e88612dd7565b905080515f03611ea65760405180602001604052805f815250611ed1565b80611eb084612de6565b604051602001611ec1929190613dd7565b6040516020818303038152906040525b9392505050565b5f611ee281612761565b611eea612397565b5f858152600e60205260409020546001600160a01b0316611f445760405162461bcd60e51b8152602060048201526014602482015273115d995b9d08191bd95cc81b9bdd08195e1a5cdd60621b6044820152606401610c1c565b5f8581526019602052604090205460ff1615611f9a5760405162461bcd60e51b8152602060048201526015602482015274119d5b991cc8185b1c9958591e4818db185a5b5959605a1b6044820152606401610c1c565b505f9384526013602090815260408086209490945560148152838520929092556015909152912055565b5f82815260096020526040902060010154611fde81612761565b6117658383612b95565b611ff0612397565b8261202c5760405162461bcd60e51b815260206004820152600c60248201526b456d7074792061727261797360a01b6044820152606401610c1c565b82811461206b5760405162461bcd60e51b815260206004820152600d60248201526c088c2e8c240dad2e6dac2e8c6d609b1b6044820152606401610c1c565b60328311156120bc5760405162461bcd60e51b815260206004820152601860248201527f42617463682073697a652065786365656473206c696d697400000000000000006044820152606401610c1c565b5f5b838110156121135761210b8585838181106120db576120db613c41565b905061010002018484848181106120f4576120f4613c41565b90506020028101906121069190613deb565b6127fc565b6001016120be565b5050505050565b612122612397565b5f828152600e60205260409020546001600160a01b031633146121775760405162461bcd60e51b815260206004820152600d60248201526c2737ba1037b933b0b734bd32b960991b6044820152606401610c1c565b5f918252600e602052604090912060010155565b7f97667070c54ef182b0f5858b034beac1b6f3089aa2d3188bb1e8929f4fa9b9296121b581612761565b6121bd612397565b5f828152601160205260409020548015612235575f818152600e6020526040902054600160a01b90046001600160401b03164211156122355760405162461bcd60e51b8152602060048201526014602482015273115d995b9d081d1a58dad95d08195e1c1a5c995960621b6044820152606401610c1c565b61223e8361243b565b6122825760405162461bcd60e51b8152602060048201526015602482015274151a58dad95d08191bd95cc81b9bdd08195e1a5cdd605a1b6044820152606401610c1c565b5f838152600f602052604090205460ff16156122d65760405162461bcd60e51b8152602060048201526013602482015272151a58dad95d08185b1c9958591e481d5cd959606a1b6044820152606401610c1c565b5f838152600f60205260409020805460ff191660011790558015612318575f818152601860205260408120805460019290612312908490613bf6565b90915550505b6040805160018082528183019092525f916020808301908036833701905050905083815f8151811061234c5761234c613c41565b6020026020010181815250507f0e862c2630b0e020ea8c569930ac577d3c103fdb452386c869484d2b2cb738818142604051612389929190613e2d565b60405180910390a150505050565b600a5460ff16156123bb5760405163d93c066560e01b815260040160405180910390fd5b565b6002600d54036123e057604051633ee5aeb560e01b815260040160405180910390fd5b6002600d55565b610f65828260405180602001604052805f815250612e29565b6001600d55565b5f6001600160e01b03198216637965db0b60e01b1480610e8a57506301ffc9a760e01b6001600160e01b0319831614610e8a565b5f81600111612480575f54821015612480575f5b505f82815260046020526040812054908190036124765761246f83613e4e565b925061244f565b600160e01b161590505b919050565b805f5260045ffd5b5f612497836117f4565b90508180156124af5750336001600160a01b03821614155b156124d2576124be8133610b3b565b6124d2576124d26367d9dca160e11b612485565b5f8381526006602052604080822080546001600160a01b0319166001600160a01b0388811691821790925591518693918516917f8c5be1e5ebec7d5bd14f71427d1e84f3dd0314c0f7b2291e5b200ac8c7c3b92591a450505050565b5f816001116125b757505f81815260046020526040902054805f036125a5575f54821061256557612565636f96cda160e11b612485565b5b505f19015f81815260046020526040902054801561256657600160e01b81165f0361259057919050565b6125a0636f96cda160e11b612485565b612566565b600160e01b81165f036125b757919050565b612480636f96cda160e11b612485565b6125cf612397565b6001600160a01b038416158015906125ef57506001600160a01b03831615155b1561275c575f6125ff8186611b28565b8061260f575061260f5f85611b28565b8061262c575061262c5f516020613ee85f395f51905f5286611b28565b8061264957506126495f516020613ee85f395f51905f5285611b28565b8061266657506126665f516020613ee85f395f51905f5233611b28565b9050806126d05760405162461bcd60e51b815260206004820152603260248201527f5472616e73666572206c6f636b65643a204f6e6c79204f6666696369616c204d604482015271185c9ad95d1c1b1858d948185b1b1bddd95960721b6064820152608401610c1c565b5f5b8281101561275957600f5f6126e78387613bf6565b815260208101919091526040015f205460ff16156127515760405162461bcd60e51b815260206004820152602160248201527f55736564207469636b65742063616e6e6f74206265207472616e7366657272656044820152601960fa1b6064820152608401610c1c565b6001016126d2565b50505b611765565b6115278133612e82565b5f6127768383611b28565b6127f5575f8381526009602090815260408083206001600160a01b03861684529091529020805460ff191660011790556127ad3390565b6001600160a01b0316826001600160a01b0316847f2f8788117e7eff1d82e926ec794901d17c78024a50270940304540a733656f0d60405160405180910390a4506001610e8a565b505f610e8a565b60e08301355f9081526010602052604090205460ff161561285f5760405162461bcd60e51b815260206004820152601d60248201527f566f75636865722068617320616c7265616479206265656e20757365640000006044820152606401610c1c565b60e0830180355f908152601060209081526040808320805460ff191660011790559192612941927f7e2428746ba19547783fa5b02cf073095822dfdcab967abd9d179be86d792b099288359290890135918901359060608a01359060808b01359060a08c0135906128d39060c08e01613e63565b6040805160208101999099528801969096526060870194909452608086019290925260a085015260c084015260e0838101919091526001600160401b039091166101008301528601356101208201526101400160405160208183030381529060405280519060200120612ebb565b90505f6129838285858080601f0160208091040260200160405190810160405280939291908181526020018383808284375f92019190915250612ee792505050565b905061298f5f82611b28565b6129db5760405162461bcd60e51b815260206004820152601c60248201527f496e76616c6964207369676e61747572652066726f6d2041646d696e000000006044820152606401610c1c565b84355f908152600e60205260409020546001600160a01b0316612aac5784355f908152600e60205260409081902080546001600160a01b0319163317815590860135600190910155612a3360e0860160c08701613e63565b85355f908152600e6020908152604080832080546001600160401b0395909516600160a01b0267ffffffffffffffff60a01b199095169490941784556002909301805460ff1916600117905560138152828220606089013590556014815282822060808901359055601590522060a08601359055612b1d565b84355f908152600e60205260409020546001600160a01b03163314612b1d5760405162461bcd60e51b815260206004820152602160248201527f43616c6c6572206973206e6f7420746865206576656e74206f7267616e697a656044820152603960f91b6064820152608401610c1c565b5f54612b2d3360208801356123e7565b5f5b8660200135811015612b6257863560115f612b4a8486613bf6565b815260208101919091526040015f2055600101612b2f565b5085355f9081526016602090815260408220805491890135929091612b88908490613bf6565b9091555050505050505050565b5f612ba08383611b28565b156127f5575f8381526009602090815260408083206001600160a01b0386168085529252808320805460ff1916905551339286917ff6391f5c32d9c69d2a47ea670b442974b53935d1edc7fd64eb21e047a839171b9190a4506001610e8a565b612c08612f0f565b600a805460ff191690557f5db9ee0a495bf2e6ff9c91a7834c1ba4fdd244a5e8aa4e537bd38aeae4b073aa335b6040516001600160a01b03909116815260200160405180910390a1565b612c5a612397565b600a805460ff191660011790557f62e78cea01bee320cd4e420270b5ea74000d11b0c9f74754ebdbfc544b05a258612c353390565b6060612cbc7f0000000000000000000000000000000000000000000000000000000000000000600b612f32565b905090565b6060612cbc7f0000000000000000000000000000000000000000000000000000000000000000600c612f32565b611527815f612fdb565b604051630a85bd0160e11b81525f906001600160a01b0385169063150b7a0290612d2c903390899088908890600401613e7c565b6020604051808303815f875af1925050508015612d66575060408051601f3d908101601f19168201909252612d6391810190613eb8565b60015b612db9573d808015612d93576040519150601f19603f3d011682016040523d82523d5f602084013e612d98565b606091505b5080515f03612db157612db16368d2bf6b60e11b612485565b805181602001fd5b6001600160e01b031916630a85bd0160e11b1490505b949350505050565b6060601a8054610e9f90613c09565b606060a06040510180604052602081039150505f815280825b600183039250600a81066030018353600a900480612dff5750819003601f19909101908152919050565b612e33838361311f565b6001600160a01b0383163b15610e7b575f548281035b612e5b5f868380600101945086612cf8565b612e6f57612e6f6368d2bf6b60e11b612485565b818110612e4957815f5414612113575f5ffd5b612e8c8282611b28565b610f655760405163e2517d3f60e01b81526001600160a01b038216600482015260248101839052604401610c1c565b5f610e8a612ec76131e5565b8360405161190160f01b8152600281019290925260228201526042902090565b5f5f5f5f612ef5868661330e565b925092509250612f058282613357565b5090949350505050565b600a5460ff166123bb57604051638dfc202b60e01b815260040160405180910390fd5b606060ff8314612f4c57612f458361340f565b9050610e8a565b818054612f5890613c09565b80601f0160208091040260200160405190810160405280929190818152602001828054612f8490613c09565b8015612fcf5780601f10612fa657610100808354040283529160200191612fcf565b820191905f5260205f20905b815481529060010190602001808311612fb257829003601f168201915b50505050509050610e8a565b5f612fe58361252e565b9050805f80613001865f90815260066020526040902080549091565b91509150841561303857613016818433611570565b613038576130248333610b3b565b61303857613038632ce44b5f60e11b612485565b613045835f8860016125c7565b801561304f575f82555b6001600160a01b0383165f81815260056020526040902080546fffffffffffffffffffffffffffffffff0190554260a01b17600360e01b175f87815260046020526040812091909155600160e11b851690036130d857600186015f8181526004602052604081205490036130d6575f5481146130d6575f8181526004602052604090208590555b505b60405186905f906001600160a01b038616907fddf252ad1be2c89b69c2b068fc378daa952ba7f163c4a11628f55a4df523b3ef908390a45050600180548101905550505050565b5f80549082900361313a5761313a63b562e8dd60e01b612485565b6131465f8483856125c7565b5f8181526004602090815260408083206001600160a01b0387164260a01b6001881460e11b178117909155808452600590925282208054680100000000000000018602019055908190036131a3576131a3622e076360e81b612485565b818301825b80835f7fddf252ad1be2c89b69c2b068fc378daa952ba7f163c4a11628f55a4df523b3ef5f5fa48181600101915081036131a857505f5550505050565b5f306001600160a01b037f00000000000000000000000000000000000000000000000000000000000000001614801561323d57507f000000000000000000000000000000000000000000000000000000000000000046145b1561326757507f000000000000000000000000000000000000000000000000000000000000000090565b612cbc604080517f8b73c3c69bb8fe3d512ecc4cf759cc79239f7b179b0ffacaa9a75d522b39400f60208201527f0000000000000000000000000000000000000000000000000000000000000000918101919091527f000000000000000000000000000000000000000000000000000000000000000060608201524660808201523060a08201525f9060c00160405160208183030381529060405280519060200120905090565b5f5f5f8351604103613345576020840151604085015160608601515f1a6133378882858561344c565b955095509550505050613350565b505081515f91506002905b9250925092565b5f82600381111561336a5761336a613ed3565b03613373575050565b600182600381111561338757613387613ed3565b036133a55760405163f645eedf60e01b815260040160405180910390fd5b60028260038111156133b9576133b9613ed3565b036133da5760405163fce698f760e01b815260048101829052602401610c1c565b60038260038111156133ee576133ee613ed3565b03610f65576040516335e2f38360e21b815260048101829052602401610c1c565b60605f61341b83613514565b6040805160208082528183019092529192505f91906020820181803683375050509182525060208101929092525090565b5f80807f7fffffffffffffffffffffffffffffff5d576e7357a4501ddfe92f46681b20a084111561348557505f9150600390508261350a565b604080515f808252602082018084528a905260ff891692820192909252606081018790526080810186905260019060a0016020604051602081039080840390855afa1580156134d6573d5f5f3e3d5ffd5b5050604051601f1901519150506001600160a01b03811661350157505f92506001915082905061350a565b92505f91508190505b9450945094915050565b5f60ff8216601f811115610e8a57604051632cd44ac360e21b815260040160405180910390fd5b80356001600160a01b0381168114612480575f5ffd5b5f5f5f60608486031215613563575f5ffd5b833592506020840135915061357a6040850161353b565b90509250925092565b6001600160e01b031981168114611527575f5ffd5b5f602082840312156135a8575f5ffd5b8135611ed181613583565b5f81518084528060208401602086015e5f602082860101526020601f19601f83011685010191505092915050565b602081525f611ed160208301846135b3565b5f60208284031215613603575f5ffd5b5035919050565b5f5f6040838503121561361b575f5ffd5b6136248361353b565b946020939093013593505050565b5f5f83601f840112613642575f5ffd5b5081356001600160401b03811115613658575f5ffd5b6020830191508360208260051b8501011115613672575f5ffd5b9250929050565b5f5f6020838503121561368a575f5ffd5b82356001600160401b0381111561369f575f5ffd5b6136ab85828601613632565b90969095509350505050565b602080825282518282018190525f918401906040840190835b818110156136f057835115158352602093840193909201916001016136d0565b509095945050505050565b5f5f5f6060848603121561370d575f5ffd5b6137168461353b565b92506137246020850161353b565b929592945050506040919091013590565b80356001600160401b0381168114612480575f5ffd5b5f5f6040838503121561375c575f5ffd5b8235915061376c60208401613735565b90509250929050565b5f5f60408385031215613786575f5ffd5b8235915061376c6020840161353b565b5f5f83601f8401126137a6575f5ffd5b5081356001600160401b038111156137bc575f5ffd5b602083019150836020828501011115613672575f5ffd5b5f5f5f8385036101208112156137e7575f5ffd5b6101008112156137f5575f5ffd5b508392506101008401356001600160401b03811115613812575f5ffd5b61381e86828701613796565b9497909650939450505050565b5f5f6020838503121561383c575f5ffd5b82356001600160401b03811115613851575f5ffd5b6136ab85828601613796565b5f6020828403121561386d575f5ffd5b611ed18261353b565b5f8151808452602084019350602083015f5b828110156138a6578151865260209586019590910190600101613888565b5093949350505050565b60ff60f81b8816815260e060208201525f6138ce60e08301896135b3565b82810360408401526138e081896135b3565b606084018890526001600160a01b038716608085015260a0840186905283810360c085015290506139118185613876565b9a9950505050505050505050565b8015158114611527575f5ffd5b5f5f6040838503121561393d575f5ffd5b6139468361353b565b915060208301356139568161391f565b809150509250929050565b5f5f5f5f60408587031215613974575f5ffd5b84356001600160401b03811115613989575f5ffd5b61399587828801613632565b90955093505060208501356001600160401b038111156139b3575f5ffd5b6139bf87828801613632565b95989497509550505050565b634e487b7160e01b5f52604160045260245ffd5b5f5f5f5f608085870312156139f2575f5ffd5b6139fb8561353b565b9350613a096020860161353b565b92506040850135915060608501356001600160401b03811115613a2a575f5ffd5b8501601f81018713613a3a575f5ffd5b80356001600160401b03811115613a5357613a536139cb565b604051601f8201601f19908116603f011681016001600160401b0381118282101715613a8157613a816139cb565b604052818152828201602001891015613a98575f5ffd5b816020840160208301375f6020838301015280935050505092959194509250565b5f5f5f5f60808587031215613acc575f5ffd5b5050823594602084013594506040840135936060013592509050565b5f5f5f5f60408587031215613afb575f5ffd5b84356001600160401b03811115613b10575f5ffd5b8501601f81018713613b20575f5ffd5b80356001600160401b03811115613b35575f5ffd5b8760208260081b8401011115613b49575f5ffd5b6020918201955093508501356001600160401b038111156139b3575f5ffd5b5f5f60408385031215613b79575f5ffd5b50508035926020909101359150565b5f5f60408385031215613b99575f5ffd5b613ba28361353b565b915061376c6020840161353b565b634e487b7160e01b5f52601160045260245ffd5b8082028115828204841417610e8a57610e8a613bb0565b5f60208284031215613beb575f5ffd5b8151611ed18161391f565b80820180821115610e8a57610e8a613bb0565b600181811c90821680613c1d57607f821691505b602082108103613c3b57634e487b7160e01b5f52602260045260245ffd5b50919050565b634e487b7160e01b5f52603260045260245ffd5b5f82613c6f57634e487b7160e01b5f52601260045260245ffd5b500490565b81810381811115610e8a57610e8a613bb0565b601f821115610e7b57805f5260205f20601f840160051c81016020851015613cac5750805b601f840160051c820191505b81811015612113575f8155600101613cb8565b6001600160401b03831115613ce257613ce26139cb565b613cf683613cf08354613c09565b83613c87565b5f601f841160018114613d27575f8515613d105750838201355b5f19600387901b1c1916600186901b178355612113565b5f83815260208120601f198716915b82811015613d565786850135825560209485019460019092019101613d36565b5086821015613d72575f1960f88860031b161c19848701351681555b505060018560011b0183555050505050565b604080825281018390525f6001600160fb1b03841115613da2575f5ffd5b8360051b808660608501376020830193909352500160600192915050565b5f81518060208401855e5f93019283525090919050565b5f612dcf613de58386613dc0565b84613dc0565b5f5f8335601e19843603018112613e00575f5ffd5b8301803591506001600160401b03821115613e19575f5ffd5b602001915036819003821315613672575f5ffd5b604081525f613e3f6040830185613876565b90508260208301529392505050565b5f81613e5c57613e5c613bb0565b505f190190565b5f60208284031215613e73575f5ffd5b611ed182613735565b6001600160a01b03858116825284166020820152604081018390526080606082018190525f90613eae908301846135b3565b9695505050505050565b5f60208284031215613ec8575f5ffd5b8151611ed181613583565b634e487b7160e01b5f52602160045260245ffdfe0ea61da3a8a09ad801432653699f8c1860b1ae9d2ea4a141fadfd63227717bc8a26469706673582212209e3706ee93d9aac52087e9f8689b6936b035c1ecc697564fed77e610d95a20ea64736f6c634300081c0033",
  "linkReferences": {},
  "deployedLinkReferences": {},
  "immutableReferences": {
    "2853": [
      {
        "length": 32,
        "start": 12869
      }
    ],
    "2855": [
      {
        "length": 32,
        "start": 12827
      }
    ],
    "2857": [
      {
        "length": 32,
        "start": 12785
      }
    ],
    "2859": [
      {
        "length": 32,
        "start": 12950
      }
    ],
    "2861": [
      {
        "length": 32,
        "start": 12990
      }
    ],
    "2864": [
      {
        "length": 32,
        "start": 11414
      }
    ],
    "2867": [
      {
        "length": 32,
        "start": 11464
      }
    ],
    "9102": [
      {
        "length": 32,
        "start": 2461
      },
      {
        "length": 32,
        "start": 3418
      },
      {
        "length": 32,
        "start": 4945
      },
      {
        "length": 32,
        "start": 5211
      },
      {
        "length": 32,
        "start": 6477
      }
    ],
    "9104": [
      {
        "length": 32,
        "start": 2286
      },
      {
        "length": 32,
        "start": 5164
      }
    ]
  },
  "inputSourceName": "project/contracts/ShineTicket.sol",
  "buildInfoId": "solc-0_8_28-9120e7dd04a2d7b655a78c629decc240f1b5e372"
}