{
  "_format": "hh3-artifact-1",
  "contractName": "ShineTicket",
  "sourceName": "contracts/ShineTicket.sol",
  "abi": [
    {
      "inputs": [
        {
          "internalType": "address",
          "name": "defaultAdmin",
          "type": "address"
        },
        {
          "internalType": "address",
          "name": "_usdtToken",
          "type": "address"
        }
      ],
      "stateMutability": "nonpayable",
      "type": "constructor"
    },
    {
      "inputs": [],
      "name": "AccessControlBadConfirmation",
      "type": "error"
    },
    {
      "inputs": [
        {
          "internalType": "address",
          "name": "account",
          "type": "address"
        },
        {
          "internalType": "bytes32",
          "name": "neededRole",
          "type": "bytes32"
        }
      ],
      "name": "AccessControlUnauthorizedAccount",
      "type": "error"
    },
    {
      "inputs": [],
      "name": "ApprovalCallerNotOwnerNorApproved",
      "type": "error"
    },
    {
      "inputs": [],
      "name": "ApprovalQueryForNonexistentToken",
      "type": "error"
    },
    {
      "inputs": [],
      "name": "BalanceQueryForZeroAddress",
      "type": "error"
    },
    {
      "inputs": [],
      "name": "ECDSAInvalidSignature",
      "type": "error"
    },
    {
      "inputs": [
        {
          "internalType": "uint256",
          "name": "length",
          "type": "uint256"
        }
      ],
      "name": "ECDSAInvalidSignatureLength",
      "type": "error"
    },
    {
      "inputs": [
        {
          "internalType": "bytes32",
          "name": "s",
          "type": "bytes32"
        }
      ],
      "name": "ECDSAInvalidSignatureS",
      "type": "error"
    },
    {
      "inputs": [],
      "name": "EnforcedPause",
      "type": "error"
    },
    {
      "inputs": [],
      "name": "ExpectedPause",
      "type": "error"
    },
    {
      "inputs": [],
      "name": "InvalidShortString",
      "type": "error"
    },
    {
      "inputs": [],
      "name": "MintERC2309QuantityExceedsLimit",
      "type": "error"
    },
    {
      "inputs": [],
      "name": "MintToZeroAddress",
      "type": "error"
    },
    {
      "inputs": [],
      "name": "MintZeroQuantity",
      "type": "error"
    },
    {
      "inputs": [],
      "name": "NotCompatibleWithSpotMints",
      "type": "error"
    },
    {
      "inputs": [],
      "name": "OwnerQueryForNonexistentToken",
      "type": "error"
    },
    {
      "inputs": [],
      "name": "OwnershipNotInitializedForExtraData",
      "type": "error"
    },
    {
      "inputs": [],
      "name": "ReentrancyGuardReentrantCall",
      "type": "error"
    },
    {
      "inputs": [],
      "name": "SequentialMintExceedsLimit",
      "type": "error"
    },
    {
      "inputs": [],
      "name": "SequentialUpToTooSmall",
      "type": "error"
    },
    {
      "inputs": [],
      "name": "SpotMintTokenIdTooSmall",
      "type": "error"
    },
    {
      "inputs": [
        {
          "internalType": "string",
          "name": "str",
          "type": "string"
        }
      ],
      "name": "StringTooLong",
      "type": "error"
    },
    {
      "inputs": [],
      "name": "TokenAlreadyExists",
      "type": "error"
    },
    {
      "inputs": [],
      "name": "TransferCallerNotOwnerNorApproved",
      "type": "error"
    },
    {
      "inputs": [],
      "name": "TransferFromIncorrectOwner",
      "type": "error"
    },
    {
      "inputs": [],
      "name": "TransferToNonERC721ReceiverImplementer",
      "type": "error"
    },
    {
      "inputs": [],
      "name": "TransferToZeroAddress",
      "type": "error"
    },
    {
      "inputs": [],
      "name": "URIQueryForNonexistentToken",
      "type": "error"
    },
    {
      "anonymous": false,
      "inputs": [
        {
          "indexed": true,
          "internalType": "address",
          "name": "owner",
          "type": "address"
        },
        {
          "indexed": true,
          "internalType": "address",
          "name": "approved",
          "type": "address"
        },
        {
          "indexed": true,
          "internalType": "uint256",
          "name": "tokenId",
          "type": "uint256"
        }
      ],
      "name": "Approval",
      "type": "event"
    },
    {
      "anonymous": false,
      "inputs": [
        {
          "indexed": true,
          "internalType": "address",
          "name": "owner",
          "type": "address"
        },
        {
          "indexed": true,
          "internalType": "address",
          "name": "operator",
          "type": "address"
        },
        {
          "indexed": false,
          "internalType": "bool",
          "name": "approved",
          "type": "bool"
        }
      ],
      "name": "ApprovalForAll",
      "type": "event"
    },
    {
      "anonymous": false,
      "inputs": [
        {
          "indexed": true,
          "internalType": "uint256",
          "name": "fromTokenId",
          "type": "uint256"
        },
        {
          "indexed": false,
          "internalType": "uint256",
          "name": "toTokenId",
          "type": "uint256"
        },
        {
          "indexed": true,
          "internalType": "address",
          "name": "from",
          "type": "address"
        },
        {
          "indexed": true,
          "internalType": "address",
          "name": "to",
          "type": "address"
        }
      ],
      "name": "ConsecutiveTransfer",
      "type": "event"
    },
    {
      "anonymous": false,
      "inputs": [],
      "name": "EIP712DomainChanged",
      "type": "event"
    },
    {
      "anonymous": false,
      "inputs": [
        {
          "indexed": true,
          "internalType": "uint256",
          "name": "eventId",
          "type": "uint256"
        },
        {
          "indexed": true,
          "internalType": "address",
          "name": "organizer",
          "type": "address"
        }
      ],
      "name": "EventRegistered",
      "type": "event"
    },
    {
      "anonymous": false,
      "inputs": [
        {
          "indexed": true,
          "internalType": "uint256",
          "name": "eventId",
          "type": "uint256"
        },
        {
          "indexed": true,
          "internalType": "address",
          "name": "recipient",
          "type": "address"
        },
        {
          "indexed": false,
          "internalType": "uint256",
          "name": "startTokenId",
          "type": "uint256"
        },
        {
          "indexed": false,
          "internalType": "uint256",
          "name": "quantity",
          "type": "uint256"
        }
      ],
      "name": "EventTicketsMinted",
      "type": "event"
    },
    {
      "anonymous": false,
      "inputs": [
        {
          "indexed": false,
          "internalType": "address",
          "name": "account",
          "type": "address"
        }
      ],
      "name": "Paused",
      "type": "event"
    },
    {
      "anonymous": false,
      "inputs": [
        {
          "indexed": true,
          "internalType": "bytes32",
          "name": "role",
          "type": "bytes32"
        },
        {
          "indexed": true,
          "internalType": "bytes32",
          "name": "previousAdminRole",
          "type": "bytes32"
        },
        {
          "indexed": true,
          "internalType": "bytes32",
          "name": "newAdminRole",
          "type": "bytes32"
        }
      ],
      "name": "RoleAdminChanged",
      "type": "event"
    },
    {
      "anonymous": false,
      "inputs": [
        {
          "indexed": true,
          "internalType": "bytes32",
          "name": "role",
          "type": "bytes32"
        },
        {
          "indexed": true,
          "internalType": "address",
          "name": "account",
          "type": "address"
        },
        {
          "indexed": true,
          "internalType": "address",
          "name": "sender",
          "type": "address"
        }
      ],
      "name": "RoleGranted",
      "type": "event"
    },
    {
      "anonymous": false,
      "inputs": [
        {
          "indexed": true,
          "internalType": "bytes32",
          "name": "role",
          "type": "bytes32"
        },
        {
          "indexed": true,
          "internalType": "address",
          "name": "account",
          "type": "address"
        },
        {
          "indexed": true,
          "internalType": "address",
          "name": "sender",
          "type": "address"
        }
      ],
      "name": "RoleRevoked",
      "type": "event"
    },
    {
      "anonymous": false,
      "inputs": [
        {
          "indexed": false,
          "internalType": "uint256[]",
          "name": "tokenIds",
          "type": "uint256[]"
        },
        {
          "indexed": false,
          "internalType": "uint256",
          "name": "timestamp",
          "type": "uint256"
        }
      ],
      "name": "TicketsCheckedIn",
      "type": "event"
    },
    {
      "anonymous": false,
      "inputs": [
        {
          "indexed": true,
          "internalType": "address",
          "name": "from",
          "type": "address"
        },
        {
          "indexed": true,
          "internalType": "address",
          "name": "to",
          "type": "address"
        },
        {
          "indexed": true,
          "internalType": "uint256",
          "name": "tokenId",
          "type": "uint256"
        }
      ],
      "name": "Transfer",
      "type": "event"
    },
    {
      "anonymous": false,
      "inputs": [
        {
          "indexed": false,
          "internalType": "address",
          "name": "account",
          "type": "address"
        }
      ],
      "name": "Unpaused",
      "type": "event"
    },
    {
      "inputs": [],
      "name": "DEFAULT_ADMIN_ROLE",
      "outputs": [
        {
          "internalType": "bytes32",
          "name": "",
          "type": "bytes32"
        }
      ],
      "stateMutability": "view",
      "type": "function"
    },
    {
      "inputs": [],
      "name": "MARKETPLACE_ROLE",
      "outputs": [
        {
          "internalType": "bytes32",
          "name": "",
          "type": "bytes32"
        }
      ],
      "stateMutability": "view",
      "type": "function"
    },
    {
      "inputs": [],
      "name": "OPERATOR_ROLE",
      "outputs": [
        {
          "internalType": "bytes32",
          "name": "",
          "type": "bytes32"
        }
      ],
      "stateMutability": "view",
      "type": "function"
    },
    {
      "inputs": [],
      "name": "ORGANIZER_ROLE",
      "outputs": [
        {
          "internalType": "bytes32",
          "name": "",
          "type": "bytes32"
        }
      ],
      "stateMutability": "view",
      "type": "function"
    },
    {
      "inputs": [],
      "name": "VOUCHER_TYPEHASH",
      "outputs": [
        {
          "internalType": "bytes32",
          "name": "",
          "type": "bytes32"
        }
      ],
      "stateMutability": "view",
      "type": "function"
    },
    {
      "inputs": [],
      "name": "adminTreasury",
      "outputs": [
        {
          "internalType": "address",
          "name": "",
          "type": "address"
        }
      ],
      "stateMutability": "view",
      "type": "function"
    },
    {
      "inputs": [
        {
          "internalType": "address",
          "name": "to",
          "type": "address"
        },
        {
          "internalType": "uint256",
          "name": "tokenId",
          "type": "uint256"
        }
      ],
      "name": "approve",
      "outputs": [],
      "stateMutability": "payable",
      "type": "function"
    },
    {
      "inputs": [
        {
          "internalType": "address",
          "name": "owner",
          "type": "address"
        }
      ],
      "name": "balanceOf",
      "outputs": [
        {
          "internalType": "uint256",
          "name": "",
          "type": "uint256"
        }
      ],
      "stateMutability": "view",
      "type": "function"
    },
    {
      "inputs": [
        {
          "internalType": "uint256[]",
          "name": "eventIds",
          "type": "uint256[]"
        },
        {
          "internalType": "uint256[]",
          "name": "quantities",
          "type": "uint256[]"
        },
        {
          "internalType": "address",
          "name": "recipient",
          "type": "address"
        }
      ],
      "name": "batchBuyTickets",
      "outputs": [
        {
          "internalType": "uint256[]",
          "name": "",
          "type": "uint256[]"
        }
      ],
      "stateMutability": "nonpayable",
      "type": "function"
    },
    {
      "inputs": [
        {
          "internalType": "uint256[]",
          "name": "tokenIds",
          "type": "uint256[]"
        }
      ],
      "name": "batchCheckIn",
      "outputs": [],
      "stateMutability": "nonpayable",
      "type": "function"
    },
    {
      "inputs": [
        {
          "internalType": "uint256[]",
          "name": "onChainIds",
          "type": "uint256[]"
        }
      ],
      "name": "batchClaimFunds",
      "outputs": [],
      "stateMutability": "nonpayable",
      "type": "function"
    },
    {
      "inputs": [
        {
          "components": [
            {
              "internalType": "uint256",
              "name": "eventId",
              "type": "uint256"
            },
            {
              "internalType": "uint256",
              "name": "quantity",
              "type": "uint256"
            },
            {
              "internalType": "uint256",
              "name": "price",
              "type": "uint256"
            },
            {
              "internalType": "uint256",
              "name": "commissionRateBps",
              "type": "uint256"
            },
            {
              "internalType": "uint256",
              "name": "relayerGasPerTicket",
              "type": "uint256"
            },
            {
              "internalType": "uint256",
              "name": "checkinGasPerTicket",
              "type": "uint256"
            },
            {
              "internalType": "uint64",
              "name": "expiryTime",
              "type": "uint64"
            },
            {
              "internalType": "uint256",
              "name": "nonce",
              "type": "uint256"
            },
            {
              "internalType": "address",
              "name": "organizer",
              "type": "address"
            }
          ],
          "internalType": "struct ShineTicket.MintVoucher[]",
          "name": "vouchers",
          "type": "tuple[]"
        },
        {
          "internalType": "bytes[]",
          "name": "signatures",
          "type": "bytes[]"
        }
      ],
      "name": "batchRegisterEvents",
      "outputs": [],
      "stateMutability": "nonpayable",
      "type": "function"
    },
    {
      "inputs": [
        {
          "internalType": "uint256[]",
          "name": "eventIds",
          "type": "uint256[]"
        },
        {
          "internalType": "uint256[]",
          "name": "quantities",
          "type": "uint256[]"
        },
        {
          "internalType": "address",
          "name": "buyerAddress",
          "type": "address"
        }
      ],
      "name": "batchRelayerBuyTicket",
      "outputs": [
        {
          "internalType": "uint256[]",
          "name": "",
          "type": "uint256[]"
        }
      ],
      "stateMutability": "nonpayable",
      "type": "function"
    },
    {
      "inputs": [
        {
          "internalType": "uint256",
          "name": "eventId",
          "type": "uint256"
        },
        {
          "internalType": "uint256",
          "name": "quantity",
          "type": "uint256"
        },
        {
          "internalType": "address",
          "name": "recipient",
          "type": "address"
        }
      ],
      "name": "buyTicket",
      "outputs": [
        {
          "internalType": "uint256",
          "name": "",
          "type": "uint256"
        }
      ],
      "stateMutability": "nonpayable",
      "type": "function"
    },
    {
      "inputs": [
        {
          "internalType": "uint256",
          "name": "tokenId",
          "type": "uint256"
        }
      ],
      "name": "checkIn",
      "outputs": [],
      "stateMutability": "nonpayable",
      "type": "function"
    },
    {
      "inputs": [
        {
          "internalType": "uint256",
          "name": "eventId",
          "type": "uint256"
        }
      ],
      "name": "claimFunds",
      "outputs": [],
      "stateMutability": "nonpayable",
      "type": "function"
    },
    {
      "inputs": [],
      "name": "eip712Domain",
      "outputs": [
        {
          "internalType": "bytes1",
          "name": "fields",
          "type": "bytes1"
        },
        {
          "internalType": "string",
          "name": "name",
          "type": "string"
        },
        {
          "internalType": "string",
          "name": "version",
          "type": "string"
        },
        {
          "internalType": "uint256",
          "name": "chainId",
          "type": "uint256"
        },
        {
          "internalType": "address",
          "name": "verifyingContract",
          "type": "address"
        },
        {
          "internalType": "bytes32",
          "name": "salt",
          "type": "bytes32"
        },
        {
          "internalType": "uint256[]",
          "name": "extensions",
          "type": "uint256[]"
        }
      ],
      "stateMutability": "view",
      "type": "function"
    },
    {
      "inputs": [
        {
          "internalType": "uint256",
          "name": "",
          "type": "uint256"
        }
      ],
      "name": "eventCheckedInCount",
      "outputs": [
        {
          "internalType": "uint256",
          "name": "",
          "type": "uint256"
        }
      ],
      "stateMutability": "view",
      "type": "function"
    },
    {
      "inputs": [
        {
          "internalType": "uint256",
          "name": "",
          "type": "uint256"
        }
      ],
      "name": "eventCheckinGasPerTicket",
      "outputs": [
        {
          "internalType": "uint256",
          "name": "",
          "type": "uint256"
        }
      ],
      "stateMutability": "view",
      "type": "function"
    },
    {
      "inputs": [
        {
          "internalType": "uint256",
          "name": "",
          "type": "uint256"
        }
      ],
      "name": "eventCommissionRateBps",
      "outputs": [
        {
          "internalType": "uint256",
          "name": "",
          "type": "uint256"
        }
      ],
      "stateMutability": "view",
      "type": "function"
    },
    {
      "inputs": [
        {
          "internalType": "uint256",
          "name": "",
          "type": "uint256"
        }
      ],
      "name": "eventMintedCount",
      "outputs": [
        {
          "internalType": "uint256",
          "name": "",
          "type": "uint256"
        }
      ],
      "stateMutability": "view",
      "type": "function"
    },
    {
      "inputs": [
        {
          "internalType": "uint256",
          "name": "",
          "type": "uint256"
        }
      ],
      "name": "eventRelayerGasPerTicket",
      "outputs": [
        {
          "internalType": "uint256",
          "name": "",
          "type": "uint256"
        }
      ],
      "stateMutability": "view",
      "type": "function"
    },
    {
      "inputs": [
        {
          "internalType": "uint256",
          "name": "",
          "type": "uint256"
        }
      ],
      "name": "eventRelayerSoldCount",
      "outputs": [
        {
          "internalType": "uint256",
          "name": "",
          "type": "uint256"
        }
      ],
      "stateMutability": "view",
      "type": "function"
    },
    {
      "inputs": [
        {
          "internalType": "uint256",
          "name": "",
          "type": "uint256"
        }
      ],
      "name": "eventRevenue",
      "outputs": [
        {
          "internalType": "uint256",
          "name": "",
          "type": "uint256"
        }
      ],
      "stateMutability": "view",
      "type": "function"
    },
    {
      "inputs": [
        {
          "internalType": "uint256",
          "name": "",
          "type": "uint256"
        }
      ],
      "name": "events",
      "outputs": [
        {
          "internalType": "address",
          "name": "organizer",
          "type": "address"
        },
        {
          "internalType": "uint64",
          "name": "expiryTime",
          "type": "uint64"
        },
        {
          "internalType": "uint32",
          "name": "maxCapacity",
          "type": "uint32"
        },
        {
          "internalType": "uint256",
          "name": "price",
          "type": "uint256"
        },
        {
          "internalType": "bool",
          "name": "isActive",
          "type": "bool"
        }
      ],
      "stateMutability": "view",
      "type": "function"
    },
    {
      "inputs": [
        {
          "internalType": "uint256",
          "name": "eventId",
          "type": "uint256"
        },
        {
          "internalType": "uint64",
          "name": "newExpiry",
          "type": "uint64"
        }
      ],
      "name": "extendEventExpiry",
      "outputs": [],
      "stateMutability": "nonpayable",
      "type": "function"
    },
    {
      "inputs": [
        {
          "internalType": "uint256",
          "name": "",
          "type": "uint256"
        }
      ],
      "name": "fundsClaimed",
      "outputs": [
        {
          "internalType": "bool",
          "name": "",
          "type": "bool"
        }
      ],
      "stateMutability": "view",
      "type": "function"
    },
    {
      "inputs": [
        {
          "internalType": "uint256",
          "name": "tokenId",
          "type": "uint256"
        }
      ],
      "name": "getApproved",
      "outputs": [
        {
          "internalType": "address",
          "name": "",
          "type": "address"
        }
      ],
      "stateMutability": "view",
      "type": "function"
    },
    {
      "inputs": [
        {
          "internalType": "uint256[]",
          "name": "tokenIds",
          "type": "uint256[]"
        }
      ],
      "name": "getBatchTicketStatus",
      "outputs": [
        {
          "internalType": "bool[]",
          "name": "",
          "type": "bool[]"
        }
      ],
      "stateMutability": "view",
      "type": "function"
    },
    {
      "inputs": [
        {
          "internalType": "bytes32",
          "name": "role",
          "type": "bytes32"
        }
      ],
      "name": "getRoleAdmin",
      "outputs": [
        {
          "internalType": "bytes32",
          "name": "",
          "type": "bytes32"
        }
      ],
      "stateMutability": "view",
      "type": "function"
    },
    {
      "inputs": [
        {
          "internalType": "bytes32",
          "name": "role",
          "type": "bytes32"
        },
        {
          "internalType": "address",
          "name": "account",
          "type": "address"
        }
      ],
      "name": "grantRole",
      "outputs": [],
      "stateMutability": "nonpayable",
      "type": "function"
    },
    {
      "inputs": [
        {
          "internalType": "bytes32",
          "name": "role",
          "type": "bytes32"
        },
        {
          "internalType": "address",
          "name": "account",
          "type": "address"
        }
      ],
      "name": "hasRole",
      "outputs": [
        {
          "internalType": "bool",
          "name": "",
          "type": "bool"
        }
      ],
      "stateMutability": "view",
      "type": "function"
    },
    {
      "inputs": [
        {
          "internalType": "address",
          "name": "owner",
          "type": "address"
        },
        {
          "internalType": "address",
          "name": "operator",
          "type": "address"
        }
      ],
      "name": "isApprovedForAll",
      "outputs": [
        {
          "internalType": "bool",
          "name": "",
          "type": "bool"
        }
      ],
      "stateMutability": "view",
      "type": "function"
    },
    {
      "inputs": [
        {
          "internalType": "address[]",
          "name": "recipients",
          "type": "address[]"
        },
        {
          "internalType": "uint256[]",
          "name": "quantities",
          "type": "uint256[]"
        }
      ],
      "name": "mintBatchUsers",
      "outputs": [],
      "stateMutability": "nonpayable",
      "type": "function"
    },
    {
      "inputs": [],
      "name": "name",
      "outputs": [
        {
          "internalType": "string",
          "name": "",
          "type": "string"
        }
      ],
      "stateMutability": "view",
      "type": "function"
    },
    {
      "inputs": [
        {
          "internalType": "uint256",
          "name": "tokenId",
          "type": "uint256"
        }
      ],
      "name": "ownerOf",
      "outputs": [
        {
          "internalType": "address",
          "name": "",
          "type": "address"
        }
      ],
      "stateMutability": "view",
      "type": "function"
    },
    {
      "inputs": [],
      "name": "pause",
      "outputs": [],
      "stateMutability": "nonpayable",
      "type": "function"
    },
    {
      "inputs": [],
      "name": "paused",
      "outputs": [
        {
          "internalType": "bool",
          "name": "",
          "type": "bool"
        }
      ],
      "stateMutability": "view",
      "type": "function"
    },
    {
      "inputs": [
        {
          "components": [
            {
              "internalType": "uint256",
              "name": "eventId",
              "type": "uint256"
            },
            {
              "internalType": "uint256",
              "name": "quantity",
              "type": "uint256"
            },
            {
              "internalType": "uint256",
              "name": "price",
              "type": "uint256"
            },
            {
              "internalType": "uint256",
              "name": "commissionRateBps",
              "type": "uint256"
            },
            {
              "internalType": "uint256",
              "name": "relayerGasPerTicket",
              "type": "uint256"
            },
            {
              "internalType": "uint256",
              "name": "checkinGasPerTicket",
              "type": "uint256"
            },
            {
              "internalType": "uint64",
              "name": "expiryTime",
              "type": "uint64"
            },
            {
              "internalType": "uint256",
              "name": "nonce",
              "type": "uint256"
            },
            {
              "internalType": "address",
              "name": "organizer",
              "type": "address"
            }
          ],
          "internalType": "struct ShineTicket.MintVoucher",
          "name": "voucher",
          "type": "tuple"
        },
        {
          "internalType": "bytes",
          "name": "signature",
          "type": "bytes"
        }
      ],
      "name": "registerEvent",
      "outputs": [],
      "stateMutability": "nonpayable",
      "type": "function"
    },
    {
      "inputs": [
        {
          "internalType": "uint256",
          "name": "eventId",
          "type": "uint256"
        },
        {
          "internalType": "uint256",
          "name": "quantity",
          "type": "uint256"
        },
        {
          "internalType": "address",
          "name": "buyerAddress",
          "type": "address"
        }
      ],
      "name": "relayerBuyTicket",
      "outputs": [
        {
          "internalType": "uint256",
          "name": "",
          "type": "uint256"
        }
      ],
      "stateMutability": "nonpayable",
      "type": "function"
    },
    {
      "inputs": [
        {
          "internalType": "bytes32",
          "name": "role",
          "type": "bytes32"
        },
        {
          "internalType": "address",
          "name": "callerConfirmation",
          "type": "address"
        }
      ],
      "name": "renounceRole",
      "outputs": [],
      "stateMutability": "nonpayable",
      "type": "function"
    },
    {
      "inputs": [
        {
          "internalType": "bytes32",
          "name": "role",
          "type": "bytes32"
        },
        {
          "internalType": "address",
          "name": "account",
          "type": "address"
        }
      ],
      "name": "revokeRole",
      "outputs": [],
      "stateMutability": "nonpayable",
      "type": "function"
    },
    {
      "inputs": [
        {
          "internalType": "uint256",
          "name": "tokenId",
          "type": "uint256"
        }
      ],
      "name": "revokeTicket",
      "outputs": [],
      "stateMutability": "nonpayable",
      "type": "function"
    },
    {
      "inputs": [
        {
          "internalType": "address",
          "name": "from",
          "type": "address"
        },
        {
          "internalType": "address",
          "name": "to",
          "type": "address"
        },
        {
          "internalType": "uint256",
          "name": "tokenId",
          "type": "uint256"
        }
      ],
      "name": "safeTransferFrom",
      "outputs": [],
      "stateMutability": "payable",
      "type": "function"
    },
    {
      "inputs": [
        {
          "internalType": "address",
          "name": "from",
          "type": "address"
        },
        {
          "internalType": "address",
          "name": "to",
          "type": "address"
        },
        {
          "internalType": "uint256",
          "name": "tokenId",
          "type": "uint256"
        },
        {
          "internalType": "bytes",
          "name": "_data",
          "type": "bytes"
        }
      ],
      "name": "safeTransferFrom",
      "outputs": [],
      "stateMutability": "payable",
      "type": "function"
    },
    {
      "inputs": [
        {
          "internalType": "address",
          "name": "operator",
          "type": "address"
        },
        {
          "internalType": "bool",
          "name": "approved",
          "type": "bool"
        }
      ],
      "name": "setApprovalForAll",
      "outputs": [],
      "stateMutability": "nonpayable",
      "type": "function"
    },
    {
      "inputs": [
        {
          "internalType": "string",
          "name": "baseURI",
          "type": "string"
        }
      ],
      "name": "setBaseURI",
      "outputs": [],
      "stateMutability": "nonpayable",
      "type": "function"
    },
    {
      "inputs": [
        {
          "internalType": "uint256",
          "name": "eventId",
          "type": "uint256"
        },
        {
          "internalType": "uint256",
          "name": "commissionRateBps",
          "type": "uint256"
        },
        {
          "internalType": "uint256",
          "name": "relayerGasPerTicket",
          "type": "uint256"
        },
        {
          "internalType": "uint256",
          "name": "checkinGasPerTicket",
          "type": "uint256"
        }
      ],
      "name": "setEventCostConfig",
      "outputs": [],
      "stateMutability": "nonpayable",
      "type": "function"
    },
    {
      "inputs": [
        {
          "internalType": "uint256",
          "name": "eventId",
          "type": "uint256"
        },
        {
          "internalType": "uint256",
          "name": "price",
          "type": "uint256"
        }
      ],
      "name": "setEventPrice",
      "outputs": [],
      "stateMutability": "nonpayable",
      "type": "function"
    },
    {
      "inputs": [
        {
          "internalType": "bytes4",
          "name": "interfaceId",
          "type": "bytes4"
        }
      ],
      "name": "supportsInterface",
      "outputs": [
        {
          "internalType": "bool",
          "name": "",
          "type": "bool"
        }
      ],
      "stateMutability": "view",
      "type": "function"
    },
    {
      "inputs": [],
      "name": "symbol",
      "outputs": [
        {
          "internalType": "string",
          "name": "",
          "type": "string"
        }
      ],
      "stateMutability": "view",
      "type": "function"
    },
    {
      "inputs": [
        {
          "internalType": "uint256",
          "name": "",
          "type": "uint256"
        }
      ],
      "name": "ticketToEvent",
      "outputs": [
        {
          "internalType": "uint256",
          "name": "",
          "type": "uint256"
        }
      ],
      "stateMutability": "view",
      "type": "function"
    },
    {
      "inputs": [
        {
          "internalType": "uint256",
          "name": "",
          "type": "uint256"
        }
      ],
      "name": "ticketUsed",
      "outputs": [
        {
          "internalType": "bool",
          "name": "",
          "type": "bool"
        }
      ],
      "stateMutability": "view",
      "type": "function"
    },
    {
      "inputs": [
        {
          "internalType": "uint256",
          "name": "tokenId",
          "type": "uint256"
        }
      ],
      "name": "tokenURI",
      "outputs": [
        {
          "internalType": "string",
          "name": "",
          "type": "string"
        }
      ],
      "stateMutability": "view",
      "type": "function"
    },
    {
      "inputs": [],
      "name": "totalSupply",
      "outputs": [
        {
          "internalType": "uint256",
          "name": "result",
          "type": "uint256"
        }
      ],
      "stateMutability": "view",
      "type": "function"
    },
    {
      "inputs": [
        {
          "internalType": "address",
          "name": "from",
          "type": "address"
        },
        {
          "internalType": "address",
          "name": "to",
          "type": "address"
        },
        {
          "internalType": "uint256",
          "name": "tokenId",
          "type": "uint256"
        }
      ],
      "name": "transferFrom",
      "outputs": [],
      "stateMutability": "payable",
      "type": "function"
    },
    {
      "inputs": [],
      "name": "unpause",
      "outputs": [],
      "stateMutability": "nonpayable",
      "type": "function"
    },
    {
      "inputs": [],
      "name": "usdtToken",
      "outputs": [
        {
          "internalType": "contract IERC20",
          "name": "",
          "type": "address"
        }
      ],
      "stateMutability": "view",
      "type": "function"
    },
    {
      "inputs": [
        {
          "internalType": "uint256",
          "name": "",
          "type": "uint256"
        }
      ],
      "name": "usedNonces",
      "outputs": [
        {
          "internalType": "bool",
          "name": "",
          "type": "bool"
        }
      ],
      "stateMutability": "view",
      "type": "function"
    }
  ],
  "bytecode": "0x6101a0604052348015610010575f5ffd5b506040516154ef3803806154ef83398101604081905261002f91610372565b604080518082018252600b8082526a14da1a5b99551a58dad95d60aa1b60208084018290528451808601865260018152603160f81b818301528551808701875293845283820192909252845180860190955260058552645348494e4560d81b90850152919260026100a0838261043b565b5060036100ad828261043b565b505060015f55506100bf82600b61023d565b610120526100ce81600c61023d565b61014052815160208084019190912060e052815190820120610100524660a05261015a60e05161010051604080517f8b73c3c69bb8fe3d512ecc4cf759cc79239f7b179b0ffacaa9a75d522b39400f60208201529081019290925260608201524660808201523060a08201525f9060c00160405160208183030381529060405280519060200120905090565b60805250503060c0526001600d556001600160a01b0381166101c35760405162461bcd60e51b815260206004820152601460248201527f496e76616c69642055534454206164647265737300000000000000000000000060448201526064015b60405180910390fd5b6001600160a01b0382166102195760405162461bcd60e51b815260206004820152601560248201527f496e76616c69642061646d696e2061646472657373000000000000000000000060448201526064016101ba565b6102235f8361026f565b506001600160a01b0390811661016052166101805261054d565b5f602083511015610258576102518361031a565b9050610269565b81610263848261043b565b5060ff90505b92915050565b5f8281526009602090815260408083206001600160a01b038516845290915281205460ff16610313575f8381526009602090815260408083206001600160a01b03861684529091529020805460ff191660011790556102cb3390565b6001600160a01b0316826001600160a01b0316847f2f8788117e7eff1d82e926ec794901d17c78024a50270940304540a733656f0d60405160405180910390a4506001610269565b505f610269565b5f5f829050601f81511115610344578260405163305a27a960e01b81526004016101ba91906104f5565b805161034f8261052a565b179392505050565b80516001600160a01b038116811461036d575f5ffd5b919050565b5f5f60408385031215610383575f5ffd5b61038c83610357565b915061039a60208401610357565b90509250929050565b634e487b7160e01b5f52604160045260245ffd5b600181811c908216806103cb57607f821691505b6020821081036103e957634e487b7160e01b5f52602260045260245ffd5b50919050565b601f82111561043657805f5260205f20601f840160051c810160208510156104145750805b601f840160051c820191505b81811015610433575f8155600101610420565b50505b505050565b81516001600160401b03811115610454576104546103a3565b6104688161046284546103b7565b846103ef565b6020601f82116001811461049a575f83156104835750848201515b5f19600385901b1c1916600184901b178455610433565b5f84815260208120601f198516915b828110156104c957878501518255602094850194600190920191016104a9565b50848210156104e657868401515f19600387901b60f8161c191681555b50505050600190811b01905550565b602081525f82518060208401528060208501604085015e5f604082850101526040601f19601f83011684010191505092915050565b805160208083015191908110156103e9575f1960209190910360031b1b16919050565b60805160a05160c05160e0516101005161012051610140516101605161018051614ef76105f85f395f818161095a015281816114170152612ac301525f8181610a0901528181610d850152818161134001528181611446015281816118ca01528181611d6301528181612177015281816129ec0152612af201525f613a8c01525f613a5a01525f61408201525f61405a01525f613fb501525f613fdf01525f6140090152614ef75ff3fe60806040526004361061037b575f3560e01c80638456cb59116101d3578063afc573b1116100fd578063d29ab4d11161009d578063e95a644f1161006d578063e95a644f14610b8d578063e985e9c514610bac578063f5b541a614610bf3578063f6ac04da14610c26575f5ffd5b8063d29ab4d114610b05578063d547741f14610b30578063dc68cba514610b4f578063e3c4e21a14610b6e575f5ffd5b8063b955e4ad116100d8578063b955e4ad14610a7c578063c3439f3f14610aa7578063c87b56dd14610ac7578063cb0c800514610ae6575f5ffd5b8063afc573b114610a2b578063b0ce37d714610a4a578063b88d4fde14610a69575f5ffd5b8063947e59b411610173578063a1e234d311610143578063a1e234d31461099b578063a217fddf146109c6578063a22cb465146109d9578063a98ad46c146109f8575f5ffd5b8063947e59b41461091657806395d89b411461093557806396cad0db146109495780639b9ac6c31461097c575f5ffd5b80638bc1344b116101ae5780638bc1344b1461087a5780638d7dba3a146108a557806391d14854146108c457806394739e87146108e3575f5ffd5b80638456cb591461081357806384b0196e14610827578063874b4c8e1461084e575f5ffd5b80632f2ff15d116102b45780636352211e116102545780636a7bd8e6116102245780636a7bd8e6146107775780636fa605e31461079657806370a08231146107c15780637909cb59146107e0575f5ffd5b80636352211e146106dd578063642b5f9b146106fc5780636717e41c1461072a5780636723425414610758575f5ffd5b806342842e0e1161028f57806342842e0e1461066957806355f804b31461067c57806357b9bae81461069b5780635c975abb146106c6575f5ffd5b80632f2ff15d1461061757806336568abe146106365780633f4ba83a14610655575f5ffd5b806318160ddd1161031f57806323b872dd116102fa57806323b872dd1461058c578063248a9ca31461059f57806326abfeba146105cd5780632b07ee8a146105f8575f5ffd5b806318160ddd1461052657806319fcf7cb146105415780631b55e3381461056d575f5ffd5b8063081812fc1161035a578063081812fc14610401578063095ea7b3146104385780630b7914301461044d578063157285b9146104f8575f5ffd5b80628e68651461037f57806301ffc9a7146103b157806306fdde03146103e0575b5f5ffd5b34801561038a575f5ffd5b5061039e610399366004614315565b610c51565b6040519081526020015b60405180910390f35b3480156103bc575f5ffd5b506103d06103cb36600461435c565b610ec1565b60405190151581526020016103a8565b3480156103eb575f5ffd5b506103f4610ed1565b6040516103a891906143a5565b34801561040c575f5ffd5b5061042061041b3660046143b7565b610f61565b6040516001600160a01b0390911681526020016103a8565b61044b6104463660046143ce565b610f9a565b005b348015610458575f5ffd5b506104b16104673660046143b7565b600e6020525f90815260409020805460018201546002909201546001600160a01b03821692600160a01b83046001600160401b031692600160e01b900463ffffffff169160ff1685565b604080516001600160a01b0390961686526001600160401b03909416602086015263ffffffff9092169284019290925260608301919091521515608082015260a0016103a8565b348015610503575f5ffd5b506103d06105123660046143b7565b60196020525f908152604090205460ff1681565b348015610531575f5ffd5b5061039e6001545f54035f190190565b34801561054c575f5ffd5b5061056061055b36600461443d565b610faa565b6040516103a8919061447b565b348015610578575f5ffd5b5061044b6105873660046143b7565b6110b1565b61044b61059a3660046144bf565b611515565b3480156105aa575f5ffd5b5061039e6105b93660046143b7565b5f9081526009602052604090206001015490565b3480156105d8575f5ffd5b5061039e6105e73660046143b7565b60166020525f908152604090205481565b348015610603575f5ffd5b5061044b61061236600461450f565b611686565b348015610622575f5ffd5b5061044b610631366004614539565b61172c565b348015610641575f5ffd5b5061044b610650366004614539565b611756565b348015610660575f5ffd5b5061044b61178e565b61044b6106773660046144bf565b6117a0565b348015610687575f5ffd5b5061044b610696366004614597565b6117ba565b3480156106a6575f5ffd5b5061039e6106b53660046143b7565b60176020525f908152604090205481565b3480156106d1575f5ffd5b50600a5460ff166103d0565b3480156106e8575f5ffd5b506104206106f73660046143b7565b6117d1565b348015610707575f5ffd5b506103d06107163660046143b7565b600f6020525f908152604090205460ff1681565b348015610735575f5ffd5b506103d06107443660046143b7565b60106020525f908152604090205460ff1681565b348015610763575f5ffd5b5061039e610772366004614315565b6117db565b348015610782575f5ffd5b5061044b6107913660046145c9565b611a21565b3480156107a1575f5ffd5b5061039e6107b03660046143b7565b60126020525f908152604090205481565b3480156107cc575f5ffd5b5061039e6107db366004614621565b611a34565b3480156107eb575f5ffd5b5061039e7f4d2e7a1e3f5dd6e203f087b15756ccf0e4ccd947fe1b639a38540089a1e47f6381565b34801561081e575f5ffd5b5061044b611a77565b348015610832575f5ffd5b5061083b611a89565b6040516103a89796959493929190614674565b348015610859575f5ffd5b5061086d6108683660046146e3565b611acb565b6040516103a89190614761565b348015610885575f5ffd5b5061039e6108943660046143b7565b60146020525f908152604090205481565b3480156108b0575f5ffd5b5061086d6108bf3660046146e3565b611f3d565b3480156108cf575f5ffd5b506103d06108de366004614539565b612374565b3480156108ee575f5ffd5b5061039e7f57bcab053af5fa5d987eff92ce624d8442c42dcfa8d6a8466a046113ef7dca7381565b348015610921575f5ffd5b5061044b6109303660046143b7565b61239e565b348015610940575f5ffd5b506103f46123b9565b348015610954575f5ffd5b506104207f000000000000000000000000000000000000000000000000000000000000000081565b348015610987575f5ffd5b5061044b61099636600461443d565b6123c8565b3480156109a6575f5ffd5b5061039e6109b53660046143b7565b60156020525f908152604090205481565b3480156109d1575f5ffd5b5061039e5f81565b3480156109e4575f5ffd5b5061044b6109f3366004614780565b612553565b348015610a03575f5ffd5b506104207f000000000000000000000000000000000000000000000000000000000000000081565b348015610a36575f5ffd5b5061044b610a453660046147b5565b6125be565b348015610a55575f5ffd5b5061044b610a6436600461443d565b6126cc565b61044b610a77366004614833565b612bac565b348015610a87575f5ffd5b5061039e610a963660046143b7565b60136020525f908152604090205481565b348015610ab2575f5ffd5b5061039e5f516020614e825f395f51905f5281565b348015610ad2575f5ffd5b506103f4610ae13660046143b7565b612be7565b348015610af1575f5ffd5b5061044b610b0036600461490d565b612c5e565b348015610b10575f5ffd5b5061039e610b1f3660046143b7565b60186020525f908152604090205481565b348015610b3b575f5ffd5b5061044b610b4a366004614539565b612d4a565b348015610b5a575f5ffd5b5061044b610b6936600461493c565b612d6e565b348015610b79575f5ffd5b5061044b610b8836600461495c565b612ddf565b348015610b98575f5ffd5b5061044b610ba73660046143b7565b612ed2565b348015610bb7575f5ffd5b506103d0610bc63660046149dd565b6001600160a01b039182165f90815260076020908152604080832093909416825291909152205460ff1690565b348015610bfe575f5ffd5b5061039e7f97667070c54ef182b0f5858b034beac1b6f3089aa2d3188bb1e8929f4fa9b92981565b348015610c31575f5ffd5b5061039e610c403660046143b7565b60116020525f908152604090205481565b5f610c5a6130de565b610c62613104565b6001600160a01b038216610cb15760405162461bcd60e51b8152602060048201526011602482015270125b9d985b1a59081c9958da5c1a595b9d607a1b60448201526064015b60405180910390fd5b5f848152600e6020908152604091829020825160a08101845281546001600160a01b0381168252600160a01b81046001600160401b031693820193909352600160e01b90920463ffffffff16928201929092526001820154606082015260029091015460ff16151560808201819052610d3c5760405162461bcd60e51b8152600401610ca890614a05565b5f848260600151610d4d9190614a46565b90505f8111610d6e5760405162461bcd60e51b8152600401610ca890614a5d565b6040516323b872dd60e01b81526001600160a01b037f000000000000000000000000000000000000000000000000000000000000000016906323b872dd90610dbe90339030908690600401614a94565b6020604051808303815f875af1158015610dda573d5f5f3e3d5ffd5b505050506040513d601f19601f82011682018060405250810190610dfe9190614ab8565b610e1a5760405162461bcd60e51b8152600401610ca890614ad3565b5f8681526012602052604081208054839290610e37908490614b01565b90915550505f54610e48858761312e565b5f5b86811015610e78578760115f610e608486614b01565b815260208101919091526040015f2055600101610e4a565b5060408051828152602081018890526001600160a01b0387169189915f516020614ea25f395f51905f52910160405180910390a392505050610eba6001600d55565b9392505050565b5f610ecb8261314e565b92915050565b606060028054610ee090614b14565b80601f0160208091040260200160405190810160405280929190818152602001828054610f0c90614b14565b8015610f575780601f10610f2e57610100808354040283529160200191610f57565b820191905f5260205f20905b815481529060010190602001808311610f3a57829003601f168201915b5050505050905090565b5f610f6b82613182565b610f7f57610f7f6333d1c03960e21b6131cc565b505f908152600660205260409020546001600160a01b031690565b610fa6828260016131d4565b5050565b60605f826001600160401b03811115610fc557610fc561481f565b604051908082528060200260200182016040528015610fee578160200160208202803683370190505b5090505f5b838110156110a95761101c85858381811061101057611010614b4c565b90506020020135613182565b611048575f82828151811061103357611033614b4c565b911515602092830291909101909101526110a1565b600f5f86868481811061105d5761105d614b4c565b9050602002013581526020019081526020015f205f9054906101000a900460ff1682828151811061109057611090614b4c565b911515602092830291909101909101525b600101610ff3565b509392505050565b6110b9613104565b6110c16130de565b5f818152600e6020908152604091829020825160a08101845281546001600160a01b038116808352600160a01b82046001600160401b031694830194909452600160e01b900463ffffffff1693810193909352600181015460608401526002015460ff1615156080830152331461117a5760405162461bcd60e51b815260206004820152601860248201527f4f6e6c79206f7267616e697a65722063616e20636c61696d00000000000000006044820152606401610ca8565b5f8281526019602052604090205460ff16156111d05760405162461bcd60e51b8152602060048201526015602482015274119d5b991cc8185b1c9958591e4818db185a5b5959605a1b6044820152606401610ca8565b5f828152601960209081526040808320805460ff191660011790556012909152902054806112365760405162461bcd60e51b81526020600482015260136024820152724e6f20726576656e756520746f20636c61696d60681b6044820152606401610ca8565b5f83815260136020526040812054612710906112529084614a46565b61125c9190614b60565b5f85815260156020908152604080832054601890925282205492935090916112849190614a46565b5f868152601460209081526040808320546017909252909120546112a89190614a46565b6112b29190614b01565b90505f6112bf8284614b01565b9050808410156113115760405162461bcd60e51b815260206004820181905260248201527f526576656e7565206973206c657373207468616e2073797374656d20666565736044820152606401610ca8565b5f61131c8286614b7f565b905080156113fa5760405163a9059cbb60e01b8152336004820152602481018290527f00000000000000000000000000000000000000000000000000000000000000006001600160a01b03169063a9059cbb906044016020604051808303815f875af115801561138e573d5f5f3e3d5ffd5b505050506040513d601f19601f820116820180604052508101906113b29190614ab8565b6113fa5760405162461bcd60e51b815260206004820152601960248201527813dc99d85b9a5e995c881d1c985b9cd9995c8819985a5b1959603a1b6044820152606401610ca8565b81156114f45760405163a9059cbb60e01b81526001600160a01b037f000000000000000000000000000000000000000000000000000000000000000081166004830152602482018490527f0000000000000000000000000000000000000000000000000000000000000000169063a9059cbb906044016020604051808303815f875af115801561148c573d5f5f3e3d5ffd5b505050506040513d601f19601f820116820180604052508101906114b09190614ab8565b6114f45760405162461bcd60e51b815260206004820152601560248201527410591b5a5b881d1c985b9cd9995c8819985a5b1959605a1b6044820152606401610ca8565b5050505f848152601260205260408120555061151291506131479050565b50565b5f61151f82613275565b6001600160a01b0394851694909150811684146115455761154562a1148160e81b6131cc565b5f82815260066020526040902080546115708187335b6001600160a01b039081169116811491141790565b6115925761157e8633610bc6565b61159257611592632ce44b5f60e11b6131cc565b61159f868686600161330e565b80156115a9575f82555b6001600160a01b038681165f9081526005602052604080822080545f19019055918716808252919020805460010190554260a01b17600160e11b175f85815260046020526040812091909155600160e11b8416900361163557600184015f818152600460205260408120549003611633575f548114611633575f8181526004602052604090208490555b505b6001600160a01b0385168481887fddf252ad1be2c89b69c2b068fc378daa952ba7f163c4a11628f55a4df523b3ef5f80a4805f0361167d5761167d633a954ecd60e21b6131cc565b50505050505050565b5f611690816134a8565b6116986130de565b5f838152600e60205260409020546001600160a01b03166116f25760405162461bcd60e51b8152602060048201526014602482015273115d995b9d08191bd95cc81b9bdd08195e1a5cdd60621b6044820152606401610ca8565b505f918252600e602052604090912080546001600160401b03909216600160a01b0267ffffffffffffffff60a01b19909216919091179055565b5f82815260096020526040902060010154611746816134a8565b61175083836134b2565b50505050565b6001600160a01b038116331461177f5760405163334bd91960e11b815260040160405180910390fd5b6117898282613543565b505050565b5f611798816134a8565b6115126135ae565b61178983838360405180602001604052805f815250612bac565b5f6117c4816134a8565b601a611750838583614bd6565b5f610ecb82613275565b5f806117e6816134a8565b6117ee6130de565b6117f6613104565b5f858152600e6020908152604091829020825160a08101845281546001600160a01b0381168252600160a01b81046001600160401b031693820193909352600160e01b90920463ffffffff16928201929092526001820154606082015260029091015460ff161515608082018190526118815760405162461bcd60e51b8152600401610ca890614a05565b5f8582606001516118929190614a46565b90505f81116118b35760405162461bcd60e51b8152600401610ca890614a5d565b6040516323b872dd60e01b81526001600160a01b037f000000000000000000000000000000000000000000000000000000000000000016906323b872dd9061190390339030908690600401614a94565b6020604051808303815f875af115801561191f573d5f5f3e3d5ffd5b505050506040513d601f19601f820116820180604052508101906119439190614ab8565b61195f5760405162461bcd60e51b8152600401610ca890614ad3565b5f878152601260205260408120805483929061197c908490614b01565b90915550505f5461198d868861312e565b5f5b878110156119bd578860115f6119a58486614b01565b815260208101919091526040015f205560010161198f565b505f88815260176020526040812080548992906119db908490614b01565b909155505060408051828152602081018990526001600160a01b038816918a915f516020614ea25f395f51905f52910160405180910390a3935050506110a96001600d55565b611a296130de565b611789838383613600565b5f6001600160a01b038216611a5357611a536323d3ad8160e21b6131cc565b506001600160a01b03165f908152600560205260409020546001600160401b031690565b5f611a81816134a8565b611512613a16565b5f6060805f5f5f6060611a9a613a53565b611aa2613a85565b604080515f80825260208201909252600f60f81b9b939a50919850469750309650945092509050565b6060611ad56130de565b611add613104565b84611afa5760405162461bcd60e51b8152600401610ca890614c8f565b848314611b195760405162461bcd60e51b8152600401610ca890614cb5565b6001600160a01b038216611b635760405162461bcd60e51b8152602060048201526011602482015270125b9d985b1a59081c9958da5c1a595b9d607a1b6044820152606401610ca8565b5f80866001600160401b03811115611b7d57611b7d61481f565b604051908082528060200260200182016040528015611ba6578160200160208202803683370190505b5090505f5b87811015611d4b575f898983818110611bc657611bc6614b4c565b9050602002013590505f888884818110611be257611be2614b4c565b5f858152600e6020908152604091829020825160a08101845281546001600160a01b0381168252600160a01b81046001600160401b031682850152600160e01b900463ffffffff1693810193909352600181015460608401526002015460ff161515608083018190529202939093013593509050611ca25760405162461bcd60e51b815260206004820152601f60248201527f4f6e65206f6620746865206576656e7473206973206e6f7420616374697665006044820152606401610ca8565b5f8211611cc15760405162461bcd60e51b8152600401610ca890614cdc565b5f828260600151611cd29190614a46565b90505f8111611d2f5760405162461bcd60e51b815260206004820152602360248201527f5072696365206e6f742073657420666f72206f6e65206f6620746865206576656044820152626e747360e81b6064820152608401610ca8565b611d398188614b01565b96505060019093019250611bab915050565b506040516323b872dd60e01b81526001600160a01b037f000000000000000000000000000000000000000000000000000000000000000016906323b872dd90611d9c90339030908790600401614a94565b6020604051808303815f875af1158015611db8573d5f5f3e3d5ffd5b505050506040513d601f19601f82011682018060405250810190611ddc9190614ab8565b611df85760405162461bcd60e51b8152600401610ca890614ad3565b5f5b87811015611f26575f898983818110611e1557611e15614b4c565b9050602002013590505f888884818110611e3157611e31614b4c565b5f858152600e60209081526040822060010154920293909301359350611e5991508390614a46565b90508060125f8581526020019081526020015f205f828254611e7b9190614b01565b90915550505f54611e8c898461312e565b5f5b83811015611ebc578460115f611ea48486614b01565b815260208101919091526040015f2055600101611e8e565b5080868681518110611ed057611ed0614b4c565b602002602001018181525050886001600160a01b0316845f516020614ea25f395f51905f528386604051611f0e929190918252602082015260400190565b60405180910390a3505060019092019150611dfa9050565b50915050611f346001600d55565b95945050505050565b60605f611f49816134a8565b611f516130de565b611f59613104565b85611f765760405162461bcd60e51b8152600401610ca890614c8f565b858414611f955760405162461bcd60e51b8152600401610ca890614cb5565b6001600160a01b038316611fe35760405162461bcd60e51b8152602060048201526015602482015274496e76616c6964206275796572206164647265737360581b6044820152606401610ca8565b5f80876001600160401b03811115611ffd57611ffd61481f565b604051908082528060200260200182016040528015612026578160200160208202803683370190505b5090505f5b8881101561215f575f8a8a8381811061204657612046614b4c565b9050602002013590505f89898481811061206257612062614b4c565b5f858152600e6020908152604091829020825160a08101845281546001600160a01b0381168252600160a01b81046001600160401b031682850152600160e01b900463ffffffff1693810193909352600181015460608401526002015460ff1615156080830181905292029390930135935090506120f25760405162461bcd60e51b8152600401610ca890614a05565b5f82116121115760405162461bcd60e51b8152600401610ca890614cdc565b5f8282606001516121229190614a46565b90505f81116121435760405162461bcd60e51b8152600401610ca890614a5d565b61214d8188614b01565b9650506001909301925061202b915050565b506040516323b872dd60e01b81526001600160a01b037f000000000000000000000000000000000000000000000000000000000000000016906323b872dd906121b090339030908790600401614a94565b6020604051808303815f875af11580156121cc573d5f5f3e3d5ffd5b505050506040513d601f19601f820116820180604052508101906121f09190614ab8565b61220c5760405162461bcd60e51b8152600401610ca890614ad3565b5f5b8881101561235c575f8a8a8381811061222957612229614b4c565b9050602002013590505f89898481811061224557612245614b4c565b5f858152600e6020908152604082206001015492029390930135935061226d91508390614a46565b90508060125f8581526020019081526020015f205f82825461228f9190614b01565b90915550505f83815260176020526040812080548492906122b1908490614b01565b90915550505f546122c28a8461312e565b5f5b838110156122f2578460115f6122da8486614b01565b815260208101919091526040015f20556001016122c4565b508086868151811061230657612306614b4c565b602002602001018181525050896001600160a01b0316845f516020614ea25f395f51905f528386604051612344929190918252602082015260400190565b60405180910390a350506001909201915061220e9050565b5092505061236a6001600d55565b5095945050505050565b5f9182526009602090815260408084206001600160a01b0393909316845291905290205460ff1690565b5f6123a8816134a8565b6123b06130de565b610fa682613ab2565b606060038054610ee090614b14565b7f97667070c54ef182b0f5858b034beac1b6f3089aa2d3188bb1e8929f4fa9b9296123f2816134a8565b6123fa6130de565b5f5b82811015612512575f84848381811061241757612417614b4c565b602090810292909201355f818152601190935260409092205491925050801561249e575f818152600e6020526040902054600160a01b90046001600160401b031642111561249e5760405162461bcd60e51b8152602060048201526014602482015273115d995b9d081d1a58dad95d08195e1c1a5c995960621b6044820152606401610ca8565b6124a782613182565b80156124c157505f828152600f602052604090205460ff16155b15612508575f828152600f60205260409020805460ff191660011790558015612508575f818152601860205260408120805460019290612502908490614b01565b90915550505b50506001016123fc565b507f0e862c2630b0e020ea8c569930ac577d3c103fdb452386c869484d2b2cb7388183834260405161254693929190614d1e565b60405180910390a1505050565b335f8181526007602090815260408083206001600160a01b03871680855290835292819020805460ff191686151590811790915590519081529192917f17307eab39ab6107e8899845ad3d59bd9653f200f220920489ca2b5937696c31910160405180910390a35050565b5f6125c8816134a8565b6125d06130de565b8382146125ef5760405162461bcd60e51b8152600401610ca890614cb5565b5f5b848110156126c4575f5461264387878481811061261057612610614b4c565b90506020020160208101906126259190614621565b86868581811061263757612637614b4c565b9050602002013561312e565b86868381811061265557612655614b4c565b905060200201602081019061266a9190614621565b6001600160a01b03165f5f516020614ea25f395f51905f528388888781811061269557612695614b4c565b905060200201356040516126b3929190918252602082015260400190565b60405180910390a3506001016125f1565b505050505050565b6126d4613104565b6126dc6130de565b806127175760405162461bcd60e51b815260206004820152600b60248201526a456d70747920617272617960a81b6044820152606401610ca8565b5f80805b83811015612965575f85858381811061273657612736614b4c565b602090810292909201355f818152600e8452604090819020815160a08101835281546001600160a01b038116808352600160a01b82046001600160401b031697830197909752600160e01b900463ffffffff1692810192909252600181015460608301526002015460ff161515608082015290935091331490506127fc5760405162461bcd60e51b815260206004820152601c60248201527f4e6f74206f7267616e697a6572206f6620616c6c207469636b657473000000006044820152606401610ca8565b5f8281526019602052604090205460ff168061282357505f82815260126020526040902054155b1561282f57505061295d565b5f828152601960209081526040808320805460ff19166001179055601282528083205460139092528220549091906127109061286b9084614a46565b6128759190614b60565b5f858152601560209081526040808320546018909252822054929350909161289d9190614a46565b5f868152601460209081526040808320546017909252909120546128c19190614a46565b6128cb9190614b01565b90505f6128d88284614b01565b9050808410156129235760405162461bcd60e51b8152602060048201526016602482015275526576656e7565206c657373207468616e206665657360501b6044820152606401610ca8565b61292d8185614b7f565b612937908a614b01565b98506129438189614b01565b5f9687526012602052604087209690965550939550505050505b60010161271b565b505f82118061297357505f81115b6129ca5760405162461bcd60e51b815260206004820152602260248201527f4e6f2076616c696420726576656e756520746f20636c61696d20696e206261746044820152610c6d60f31b6064820152608401610ca8565b8115612aa65760405163a9059cbb60e01b8152336004820152602481018390527f00000000000000000000000000000000000000000000000000000000000000006001600160a01b03169063a9059cbb906044016020604051808303815f875af1158015612a3a573d5f5f3e3d5ffd5b505050506040513d601f19601f82011682018060405250810190612a5e9190614ab8565b612aa65760405162461bcd60e51b815260206004820152601960248201527813dc99d85b9a5e995c881d1c985b9cd9995c8819985a5b1959603a1b6044820152606401610ca8565b8015612ba05760405163a9059cbb60e01b81526001600160a01b037f000000000000000000000000000000000000000000000000000000000000000081166004830152602482018390527f0000000000000000000000000000000000000000000000000000000000000000169063a9059cbb906044016020604051808303815f875af1158015612b38573d5f5f3e3d5ffd5b505050506040513d601f19601f82011682018060405250810190612b5c9190614ab8565b612ba05760405162461bcd60e51b815260206004820152601560248201527410591b5a5b881d1c985b9cd9995c8819985a5b1959605a1b6044820152606401610ca8565b5050610fa66001600d55565b612bb7848484611515565b6001600160a01b0383163b1561175057612bd384848484613abc565b611750576117506368d2bf6b60e11b6131cc565b6060612bf282613182565b612c0657612c06630a14c4b560e41b6131cc565b5f612c0f613b9b565b905080515f03612c2d5760405180602001604052805f815250610eba565b80612c3784613baa565b604051602001612c48929190614d71565b6040516020818303038152906040529392505050565b5f612c68816134a8565b612c706130de565b5f858152600e60205260409020546001600160a01b0316612cca5760405162461bcd60e51b8152602060048201526014602482015273115d995b9d08191bd95cc81b9bdd08195e1a5cdd60621b6044820152606401610ca8565b5f8581526019602052604090205460ff1615612d205760405162461bcd60e51b8152602060048201526015602482015274119d5b991cc8185b1c9958591e4818db185a5b5959605a1b6044820152606401610ca8565b505f9384526013602090815260408086209490945560148152838520929092556015909152912055565b5f82815260096020526040902060010154612d64816134a8565b6117508383613543565b612d766130de565b5f828152600e60205260409020546001600160a01b03163314612dcb5760405162461bcd60e51b815260206004820152600d60248201526c2737ba1037b933b0b734bd32b960991b6044820152606401610ca8565b5f918252600e602052604090912060010155565b612de76130de565b82612e045760405162461bcd60e51b8152600401610ca890614c8f565b828114612e235760405162461bcd60e51b8152600401610ca890614cb5565b6032831115612e745760405162461bcd60e51b815260206004820152601860248201527f42617463682073697a652065786365656473206c696d697400000000000000006044820152606401610ca8565b5f5b83811015612ecb57612ec3858583818110612e9357612e93614b4c565b90506101200201848484818110612eac57612eac614b4c565b9050602002810190612ebe9190614d85565b613600565b600101612e76565b5050505050565b7f97667070c54ef182b0f5858b034beac1b6f3089aa2d3188bb1e8929f4fa9b929612efc816134a8565b612f046130de565b5f828152601160205260409020548015612f7c575f818152600e6020526040902054600160a01b90046001600160401b0316421115612f7c5760405162461bcd60e51b8152602060048201526014602482015273115d995b9d081d1a58dad95d08195e1c1a5c995960621b6044820152606401610ca8565b612f8583613182565b612fc95760405162461bcd60e51b8152602060048201526015602482015274151a58dad95d08191bd95cc81b9bdd08195e1a5cdd605a1b6044820152606401610ca8565b5f838152600f602052604090205460ff161561301d5760405162461bcd60e51b8152602060048201526013602482015272151a58dad95d08185b1c9958591e481d5cd959606a1b6044820152606401610ca8565b5f838152600f60205260409020805460ff19166001179055801561305f575f818152601860205260408120805460019290613059908490614b01565b90915550505b6040805160018082528183019092525f916020808301908036833701905050905083815f8151811061309357613093614b4c565b6020026020010181815250507f0e862c2630b0e020ea8c569930ac577d3c103fdb452386c869484d2b2cb7388181426040516130d0929190614dc7565b60405180910390a150505050565b600a5460ff16156131025760405163d93c066560e01b815260040160405180910390fd5b565b6002600d540361312757604051633ee5aeb560e01b815260040160405180910390fd5b6002600d55565b610fa6828260405180602001604052805f815250613bed565b6001600d55565b5f6001600160e01b03198216637965db0b60e01b1480610ecb57506301ffc9a760e01b6001600160e01b0319831614610ecb565b5f816001116131c7575f548210156131c7575f5b505f82815260046020526040812054908190036131bd576131b683614de8565b9250613196565b600160e01b161590505b919050565b805f5260045ffd5b5f6131de836117d1565b90508180156131f65750336001600160a01b03821614155b15613219576132058133610bc6565b613219576132196367d9dca160e11b6131cc565b5f8381526006602052604080822080546001600160a01b0319166001600160a01b0388811691821790925591518693918516917f8c5be1e5ebec7d5bd14f71427d1e84f3dd0314c0f7b2291e5b200ac8c7c3b92591a450505050565b5f816001116132fe57505f81815260046020526040902054805f036132ec575f5482106132ac576132ac636f96cda160e11b6131cc565b5b505f19015f8181526004602052604090205480156132ad57600160e01b81165f036132d757919050565b6132e7636f96cda160e11b6131cc565b6132ad565b600160e01b81165f036132fe57919050565b6131c7636f96cda160e11b6131cc565b6133166130de565b6001600160a01b0384161580159061333657506001600160a01b03831615155b156134a3575f6133468186612374565b8061335657506133565f85612374565b8061337357506133735f516020614e825f395f51905f5286612374565b8061339057506133905f516020614e825f395f51905f5285612374565b806133ad57506133ad5f516020614e825f395f51905f5233612374565b9050806134175760405162461bcd60e51b815260206004820152603260248201527f5472616e73666572206c6f636b65643a204f6e6c79204f6666696369616c204d604482015271185c9ad95d1c1b1858d948185b1b1bddd95960721b6064820152608401610ca8565b5f5b828110156134a057600f5f61342e8387614b01565b815260208101919091526040015f205460ff16156134985760405162461bcd60e51b815260206004820152602160248201527f55736564207469636b65742063616e6e6f74206265207472616e7366657272656044820152601960fa1b6064820152608401610ca8565b600101613419565b50505b611750565b6115128133613c46565b5f6134bd8383612374565b61353c575f8381526009602090815260408083206001600160a01b03861684529091529020805460ff191660011790556134f43390565b6001600160a01b0316826001600160a01b0316847f2f8788117e7eff1d82e926ec794901d17c78024a50270940304540a733656f0d60405160405180910390a4506001610ecb565b505f610ecb565b5f61354e8383612374565b1561353c575f8381526009602090815260408083206001600160a01b0386168085529252808320805460ff1916905551339286917ff6391f5c32d9c69d2a47ea670b442974b53935d1edc7fd64eb21e047a839171b9190a4506001610ecb565b6135b6613c7f565b600a805460ff191690557f5db9ee0a495bf2e6ff9c91a7834c1ba4fdd244a5e8aa4e537bd38aeae4b073aa335b6040516001600160a01b03909116815260200160405180910390a1565b60e08301355f9081526010602052604090205460ff16156136635760405162461bcd60e51b815260206004820152601d60248201527f566f75636865722068617320616c7265616479206265656e20757365640000006044820152606401610ca8565b60e0830180355f908152601060209081526040808320805460ff191660011790559192613767927f57bcab053af5fa5d987eff92ce624d8442c42dcfa8d6a8466a046113ef7dca739288359290890135918901359060608a01359060808b01359060a08c0135906136d79060c08e01614dfd565b8c60e001358d6101000160208101906136f09190614621565b60408051602081019b909b528a01989098526060890196909652608088019490945260a087019290925260c086015260e08501526001600160401b03166101008401526101208301526001600160a01b03166101408201526101600160405160208183030381529060405280519060200120613ca2565b90505f6137a98285858080601f0160208091040260200160405190810160405280939291908181526020018383808284375f92019190915250613cce92505050565b90506137b55f82612374565b6138015760405162461bcd60e51b815260206004820152601c60248201527f496e76616c6964207369676e61747572652066726f6d2041646d696e000000006044820152606401610ca8565b84355f908152600e60205260409020546001600160a01b0316613966575f61383161012087016101008801614621565b6001600160a01b0316036138935760405162461bcd60e51b8152602060048201526024808201527f496e76616c6964206f7267616e697a6572206164647265737320696e20766f7560448201526331b432b960e11b6064820152608401610ca8565b6138a561012086016101008701614621565b85355f908152600e60205260409081902080546001600160a01b0319166001600160a01b03939093169290921782558601356001909101556138ed60e0860160c08701614dfd565b85355f908152600e6020908152604080832080546001600160401b0395909516600160a01b0267ffffffffffffffff60a01b199095169490941784556002909301805460ff1916600117905560138152828220606089013590556014815282822060808901359055601590522060a086013590556139e2565b61397861012086016101008701614621565b85355f908152600e60205260409020546001600160a01b039081169116146139e25760405162461bcd60e51b815260206004820152601a60248201527f566f7563686572206f7267616e697a6572206d69736d617463680000000000006044820152606401610ca8565b60405133908635907f2f6a2e59731a2d3f31a79da136922c821491a83d5f7edec319c45855cf9585a2905f90a35050505050565b613a1e6130de565b600a805460ff191660011790557f62e78cea01bee320cd4e420270b5ea74000d11b0c9f74754ebdbfc544b05a2586135e33390565b6060613a807f0000000000000000000000000000000000000000000000000000000000000000600b613cf6565b905090565b6060613a807f0000000000000000000000000000000000000000000000000000000000000000600c613cf6565b611512815f613d9f565b604051630a85bd0160e11b81525f906001600160a01b0385169063150b7a0290613af0903390899088908890600401614e16565b6020604051808303815f875af1925050508015613b2a575060408051601f3d908101601f19168201909252613b2791810190614e52565b60015b613b7d573d808015613b57576040519150601f19603f3d011682016040523d82523d5f602084013e613b5c565b606091505b5080515f03613b7557613b756368d2bf6b60e11b6131cc565b805181602001fd5b6001600160e01b031916630a85bd0160e11b1490505b949350505050565b6060601a8054610ee090614b14565b606060a06040510180604052602081039150505f815280825b600183039250600a81066030018353600a900480613bc35750819003601f19909101908152919050565b613bf78383613ee3565b6001600160a01b0383163b15611789575f548281035b613c1f5f868380600101945086613abc565b613c3357613c336368d2bf6b60e11b6131cc565b818110613c0d57815f5414612ecb575f5ffd5b613c508282612374565b610fa65760405163e2517d3f60e01b81526001600160a01b038216600482015260248101839052604401610ca8565b600a5460ff1661310257604051638dfc202b60e01b815260040160405180910390fd5b5f610ecb613cae613fa9565b8360405161190160f01b8152600281019290925260228201526042902090565b5f5f5f5f613cdc86866140d2565b925092509250613cec828261411b565b5090949350505050565b606060ff8314613d1057613d09836141d3565b9050610ecb565b818054613d1c90614b14565b80601f0160208091040260200160405190810160405280929190818152602001828054613d4890614b14565b8015613d935780601f10613d6a57610100808354040283529160200191613d93565b820191905f5260205f20905b815481529060010190602001808311613d7657829003601f168201915b50505050509050610ecb565b5f613da983613275565b9050805f80613dc5865f90815260066020526040902080549091565b915091508415613dfc57613dda81843361155b565b613dfc57613de88333610bc6565b613dfc57613dfc632ce44b5f60e11b6131cc565b613e09835f88600161330e565b8015613e13575f82555b6001600160a01b0383165f81815260056020526040902080546fffffffffffffffffffffffffffffffff0190554260a01b17600360e01b175f87815260046020526040812091909155600160e11b85169003613e9c57600186015f818152600460205260408120549003613e9a575f548114613e9a575f8181526004602052604090208590555b505b60405186905f906001600160a01b038616907fddf252ad1be2c89b69c2b068fc378daa952ba7f163c4a11628f55a4df523b3ef908390a45050600180548101905550505050565b5f805490829003613efe57613efe63b562e8dd60e01b6131cc565b613f0a5f84838561330e565b5f8181526004602090815260408083206001600160a01b0387164260a01b6001881460e11b17811790915580845260059092528220805468010000000000000001860201905590819003613f6757613f67622e076360e81b6131cc565b818301825b80835f7fddf252ad1be2c89b69c2b068fc378daa952ba7f163c4a11628f55a4df523b3ef5f5fa4818160010191508103613f6c57505f5550505050565b5f306001600160a01b037f00000000000000000000000000000000000000000000000000000000000000001614801561400157507f000000000000000000000000000000000000000000000000000000000000000046145b1561402b57507f000000000000000000000000000000000000000000000000000000000000000090565b613a80604080517f8b73c3c69bb8fe3d512ecc4cf759cc79239f7b179b0ffacaa9a75d522b39400f60208201527f0000000000000000000000000000000000000000000000000000000000000000918101919091527f000000000000000000000000000000000000000000000000000000000000000060608201524660808201523060a08201525f9060c00160405160208183030381529060405280519060200120905090565b5f5f5f8351604103614109576020840151604085015160608601515f1a6140fb88828585614210565b955095509550505050614114565b505081515f91506002905b9250925092565b5f82600381111561412e5761412e614e6d565b03614137575050565b600182600381111561414b5761414b614e6d565b036141695760405163f645eedf60e01b815260040160405180910390fd5b600282600381111561417d5761417d614e6d565b0361419e5760405163fce698f760e01b815260048101829052602401610ca8565b60038260038111156141b2576141b2614e6d565b03610fa6576040516335e2f38360e21b815260048101829052602401610ca8565b60605f6141df836142d8565b6040805160208082528183019092529192505f91906020820181803683375050509182525060208101929092525090565b5f80807f7fffffffffffffffffffffffffffffff5d576e7357a4501ddfe92f46681b20a084111561424957505f915060039050826142ce565b604080515f808252602082018084528a905260ff891692820192909252606081018790526080810186905260019060a0016020604051602081039080840390855afa15801561429a573d5f5f3e3d5ffd5b5050604051601f1901519150506001600160a01b0381166142c557505f9250600191508290506142ce565b92505f91508190505b9450945094915050565b5f60ff8216601f811115610ecb57604051632cd44ac360e21b815260040160405180910390fd5b80356001600160a01b03811681146131c7575f5ffd5b5f5f5f60608486031215614327575f5ffd5b833592506020840135915061433e604085016142ff565b90509250925092565b6001600160e01b031981168114611512575f5ffd5b5f6020828403121561436c575f5ffd5b8135610eba81614347565b5f81518084528060208401602086015e5f602082860101526020601f19601f83011685010191505092915050565b602081525f610eba6020830184614377565b5f602082840312156143c7575f5ffd5b5035919050565b5f5f604083850312156143df575f5ffd5b6143e8836142ff565b946020939093013593505050565b5f5f83601f840112614406575f5ffd5b5081356001600160401b0381111561441c575f5ffd5b6020830191508360208260051b8501011115614436575f5ffd5b9250929050565b5f5f6020838503121561444e575f5ffd5b82356001600160401b03811115614463575f5ffd5b61446f858286016143f6565b90969095509350505050565b602080825282518282018190525f918401906040840190835b818110156144b45783511515835260209384019390920191600101614494565b509095945050505050565b5f5f5f606084860312156144d1575f5ffd5b6144da846142ff565b92506144e8602085016142ff565b929592945050506040919091013590565b80356001600160401b03811681146131c7575f5ffd5b5f5f60408385031215614520575f5ffd5b82359150614530602084016144f9565b90509250929050565b5f5f6040838503121561454a575f5ffd5b82359150614530602084016142ff565b5f5f83601f84011261456a575f5ffd5b5081356001600160401b03811115614580575f5ffd5b602083019150836020828501011115614436575f5ffd5b5f5f602083850312156145a8575f5ffd5b82356001600160401b038111156145bd575f5ffd5b61446f8582860161455a565b5f5f5f8385036101408112156145dd575f5ffd5b6101208112156145eb575f5ffd5b508392506101208401356001600160401b03811115614608575f5ffd5b6146148682870161455a565b9497909650939450505050565b5f60208284031215614631575f5ffd5b610eba826142ff565b5f8151808452602084019350602083015f5b8281101561466a57815186526020958601959091019060010161464c565b5093949350505050565b60ff60f81b8816815260e060208201525f61469260e0830189614377565b82810360408401526146a48189614377565b606084018890526001600160a01b038716608085015260a0840186905283810360c085015290506146d5818561463a565b9a9950505050505050505050565b5f5f5f5f5f606086880312156146f7575f5ffd5b85356001600160401b0381111561470c575f5ffd5b614718888289016143f6565b90965094505060208601356001600160401b03811115614736575f5ffd5b614742888289016143f6565b90945092506147559050604087016142ff565b90509295509295909350565b602081525f610eba602083018461463a565b8015158114611512575f5ffd5b5f5f60408385031215614791575f5ffd5b61479a836142ff565b915060208301356147aa81614773565b809150509250929050565b5f5f5f5f604085870312156147c8575f5ffd5b84356001600160401b038111156147dd575f5ffd5b6147e9878288016143f6565b90955093505060208501356001600160401b03811115614807575f5ffd5b614813878288016143f6565b95989497509550505050565b634e487b7160e01b5f52604160045260245ffd5b5f5f5f5f60808587031215614846575f5ffd5b61484f856142ff565b935061485d602086016142ff565b92506040850135915060608501356001600160401b0381111561487e575f5ffd5b8501601f8101871361488e575f5ffd5b80356001600160401b038111156148a7576148a761481f565b604051601f8201601f19908116603f011681016001600160401b03811182821017156148d5576148d561481f565b6040528181528282016020018910156148ec575f5ffd5b816020840160208301375f6020838301015280935050505092959194509250565b5f5f5f5f60808587031215614920575f5ffd5b5050823594602084013594506040840135936060013592509050565b5f5f6040838503121561494d575f5ffd5b50508035926020909101359150565b5f5f5f5f6040858703121561496f575f5ffd5b84356001600160401b03811115614984575f5ffd5b8501601f81018713614994575f5ffd5b80356001600160401b038111156149a9575f5ffd5b876020610120830284010111156149be575f5ffd5b6020918201955093508501356001600160401b03811115614807575f5ffd5b5f5f604083850312156149ee575f5ffd5b6149f7836142ff565b9150614530602084016142ff565b6020808252601390820152724576656e74206973206e6f742061637469766560681b604082015260600190565b634e487b7160e01b5f52601160045260245ffd5b8082028115828204841417610ecb57610ecb614a32565b6020808252601e908201527f5072696365206e6f7420736574206f72207175616e74697479207a65726f0000604082015260600190565b6001600160a01b039384168152919092166020820152604081019190915260600190565b5f60208284031215614ac8575f5ffd5b8151610eba81614773565b6020808252601490820152731554d115081d1c985b9cd9995c8819985a5b195960621b604082015260600190565b80820180821115610ecb57610ecb614a32565b600181811c90821680614b2857607f821691505b602082108103614b4657634e487b7160e01b5f52602260045260245ffd5b50919050565b634e487b7160e01b5f52603260045260245ffd5b5f82614b7a57634e487b7160e01b5f52601260045260245ffd5b500490565b81810381811115610ecb57610ecb614a32565b601f82111561178957805f5260205f20601f840160051c81016020851015614bb75750805b601f840160051c820191505b81811015612ecb575f8155600101614bc3565b6001600160401b03831115614bed57614bed61481f565b614c0183614bfb8354614b14565b83614b92565b5f601f841160018114614c32575f8515614c1b5750838201355b5f19600387901b1c1916600186901b178355612ecb565b5f83815260208120601f198716915b82811015614c615786850135825560209485019460019092019101614c41565b5086821015614c7d575f1960f88860031b161c19848701351681555b505060018560011b0183555050505050565b6020808252600c908201526b456d7074792061727261797360a01b604082015260600190565b6020808252600d908201526c088c2e8c240dad2e6dac2e8c6d609b1b604082015260600190565b60208082526022908201527f5175616e74697479206d7573742062652067726561746572207468616e207a65604082015261726f60f01b606082015260800190565b604080825281018390525f6001600160fb1b03841115614d3c575f5ffd5b8360051b808660608501376020830193909352500160600192915050565b5f81518060208401855e5f93019283525090919050565b5f613b93614d7f8386614d5a565b84614d5a565b5f5f8335601e19843603018112614d9a575f5ffd5b8301803591506001600160401b03821115614db3575f5ffd5b602001915036819003821315614436575f5ffd5b604081525f614dd9604083018561463a565b90508260208301529392505050565b5f81614df657614df6614a32565b505f190190565b5f60208284031215614e0d575f5ffd5b610eba826144f9565b6001600160a01b03858116825284166020820152604081018390526080606082018190525f90614e4890830184614377565b9695505050505050565b5f60208284031215614e62575f5ffd5b8151610eba81614347565b634e487b7160e01b5f52602160045260245ffdfe0ea61da3a8a09ad801432653699f8c1860b1ae9d2ea4a141fadfd63227717bc8fca299aba08069d2d3cb077242f16b2ee054dd28b704b3729fb9b3cb8aea0beea26469706673582212202c0bc11f9c0e7efa9b15943f1e4a9c4505db9763993bc4969e638c1151de874664736f6c634300081c0033",
  "linkReferences": {},
  "deployedLinkReferences": {},
  "immutableReferences": {
    "2853": [
      {
        "length": 32,
        "start": 16393
      }
    ],
    "2855": [
      {
        "length": 32,
        "start": 16351
      }
    ],
    "2857": [
      {
        "length": 32,
        "start": 16309
      }
    ],
    "2859": [
      {
        "length": 32,
        "start": 16474
      }
    ],
    "2861": [
      {
        "length": 32,
        "start": 16514
      }
    ],
    "2864": [
      {
        "length": 32,
        "start": 14938
      }
    ],
    "2867": [
      {
        "length": 32,
        "start": 14988
      }
    ],
    "9104": [
      {
        "length": 32,
        "start": 2569
      },
      {
        "length": 32,
        "start": 3461
      },
      {
        "length": 32,
        "start": 4928
      },
      {
        "length": 32,
        "start": 5190
      },
      {
        "length": 32,
        "start": 6346
      },
      {
        "length": 32,
        "start": 7523
      },
      {
        "length": 32,
        "start": 8567
      },
      {
        "length": 32,
        "start": 10732
      },
      {
        "length": 32,
        "start": 10994
      }
    ],
    "9106": [
      {
        "length": 32,
        "start": 2394
      },
      {
        "length": 32,
        "start": 5143
      },
      {
        "length": 32,
        "start": 10947
      }
    ]
  },
  "inputSourceName": "project/contracts/ShineTicket.sol",
  "buildInfoId": "solc-0_8_28-33edfada5d7866acfb1d16a3627c17f9f8583303"
}