{
  "_format": "hh3-artifact-1",
  "contractName": "ShineTicket",
  "sourceName": "contracts/ShineTicket.sol",
  "abi": [
    {
      "inputs": [
        {
          "internalType": "address",
          "name": "defaultAdmin",
          "type": "address"
        },
        {
          "internalType": "address",
          "name": "_usdtToken",
          "type": "address"
        }
      ],
      "stateMutability": "nonpayable",
      "type": "constructor"
    },
    {
      "inputs": [],
      "name": "AccessControlBadConfirmation",
      "type": "error"
    },
    {
      "inputs": [
        {
          "internalType": "address",
          "name": "account",
          "type": "address"
        },
        {
          "internalType": "bytes32",
          "name": "neededRole",
          "type": "bytes32"
        }
      ],
      "name": "AccessControlUnauthorizedAccount",
      "type": "error"
    },
    {
      "inputs": [],
      "name": "ApprovalCallerNotOwnerNorApproved",
      "type": "error"
    },
    {
      "inputs": [],
      "name": "ApprovalQueryForNonexistentToken",
      "type": "error"
    },
    {
      "inputs": [],
      "name": "BalanceQueryForZeroAddress",
      "type": "error"
    },
    {
      "inputs": [],
      "name": "ECDSAInvalidSignature",
      "type": "error"
    },
    {
      "inputs": [
        {
          "internalType": "uint256",
          "name": "length",
          "type": "uint256"
        }
      ],
      "name": "ECDSAInvalidSignatureLength",
      "type": "error"
    },
    {
      "inputs": [
        {
          "internalType": "bytes32",
          "name": "s",
          "type": "bytes32"
        }
      ],
      "name": "ECDSAInvalidSignatureS",
      "type": "error"
    },
    {
      "inputs": [],
      "name": "EnforcedPause",
      "type": "error"
    },
    {
      "inputs": [],
      "name": "ExpectedPause",
      "type": "error"
    },
    {
      "inputs": [],
      "name": "InvalidShortString",
      "type": "error"
    },
    {
      "inputs": [],
      "name": "MintERC2309QuantityExceedsLimit",
      "type": "error"
    },
    {
      "inputs": [],
      "name": "MintToZeroAddress",
      "type": "error"
    },
    {
      "inputs": [],
      "name": "MintZeroQuantity",
      "type": "error"
    },
    {
      "inputs": [],
      "name": "NotCompatibleWithSpotMints",
      "type": "error"
    },
    {
      "inputs": [],
      "name": "OwnerQueryForNonexistentToken",
      "type": "error"
    },
    {
      "inputs": [],
      "name": "OwnershipNotInitializedForExtraData",
      "type": "error"
    },
    {
      "inputs": [],
      "name": "ReentrancyGuardReentrantCall",
      "type": "error"
    },
    {
      "inputs": [],
      "name": "SequentialMintExceedsLimit",
      "type": "error"
    },
    {
      "inputs": [],
      "name": "SequentialUpToTooSmall",
      "type": "error"
    },
    {
      "inputs": [],
      "name": "SpotMintTokenIdTooSmall",
      "type": "error"
    },
    {
      "inputs": [
        {
          "internalType": "string",
          "name": "str",
          "type": "string"
        }
      ],
      "name": "StringTooLong",
      "type": "error"
    },
    {
      "inputs": [],
      "name": "TokenAlreadyExists",
      "type": "error"
    },
    {
      "inputs": [],
      "name": "TransferCallerNotOwnerNorApproved",
      "type": "error"
    },
    {
      "inputs": [],
      "name": "TransferFromIncorrectOwner",
      "type": "error"
    },
    {
      "inputs": [],
      "name": "TransferToNonERC721ReceiverImplementer",
      "type": "error"
    },
    {
      "inputs": [],
      "name": "TransferToZeroAddress",
      "type": "error"
    },
    {
      "inputs": [],
      "name": "URIQueryForNonexistentToken",
      "type": "error"
    },
    {
      "anonymous": false,
      "inputs": [
        {
          "indexed": true,
          "internalType": "address",
          "name": "owner",
          "type": "address"
        },
        {
          "indexed": true,
          "internalType": "address",
          "name": "approved",
          "type": "address"
        },
        {
          "indexed": true,
          "internalType": "uint256",
          "name": "tokenId",
          "type": "uint256"
        }
      ],
      "name": "Approval",
      "type": "event"
    },
    {
      "anonymous": false,
      "inputs": [
        {
          "indexed": true,
          "internalType": "address",
          "name": "owner",
          "type": "address"
        },
        {
          "indexed": true,
          "internalType": "address",
          "name": "operator",
          "type": "address"
        },
        {
          "indexed": false,
          "internalType": "bool",
          "name": "approved",
          "type": "bool"
        }
      ],
      "name": "ApprovalForAll",
      "type": "event"
    },
    {
      "anonymous": false,
      "inputs": [
        {
          "indexed": true,
          "internalType": "uint256",
          "name": "fromTokenId",
          "type": "uint256"
        },
        {
          "indexed": false,
          "internalType": "uint256",
          "name": "toTokenId",
          "type": "uint256"
        },
        {
          "indexed": true,
          "internalType": "address",
          "name": "from",
          "type": "address"
        },
        {
          "indexed": true,
          "internalType": "address",
          "name": "to",
          "type": "address"
        }
      ],
      "name": "ConsecutiveTransfer",
      "type": "event"
    },
    {
      "anonymous": false,
      "inputs": [],
      "name": "EIP712DomainChanged",
      "type": "event"
    },
    {
      "anonymous": false,
      "inputs": [
        {
          "indexed": false,
          "internalType": "address",
          "name": "account",
          "type": "address"
        }
      ],
      "name": "Paused",
      "type": "event"
    },
    {
      "anonymous": false,
      "inputs": [
        {
          "indexed": true,
          "internalType": "bytes32",
          "name": "role",
          "type": "bytes32"
        },
        {
          "indexed": true,
          "internalType": "bytes32",
          "name": "previousAdminRole",
          "type": "bytes32"
        },
        {
          "indexed": true,
          "internalType": "bytes32",
          "name": "newAdminRole",
          "type": "bytes32"
        }
      ],
      "name": "RoleAdminChanged",
      "type": "event"
    },
    {
      "anonymous": false,
      "inputs": [
        {
          "indexed": true,
          "internalType": "bytes32",
          "name": "role",
          "type": "bytes32"
        },
        {
          "indexed": true,
          "internalType": "address",
          "name": "account",
          "type": "address"
        },
        {
          "indexed": true,
          "internalType": "address",
          "name": "sender",
          "type": "address"
        }
      ],
      "name": "RoleGranted",
      "type": "event"
    },
    {
      "anonymous": false,
      "inputs": [
        {
          "indexed": true,
          "internalType": "bytes32",
          "name": "role",
          "type": "bytes32"
        },
        {
          "indexed": true,
          "internalType": "address",
          "name": "account",
          "type": "address"
        },
        {
          "indexed": true,
          "internalType": "address",
          "name": "sender",
          "type": "address"
        }
      ],
      "name": "RoleRevoked",
      "type": "event"
    },
    {
      "anonymous": false,
      "inputs": [
        {
          "indexed": false,
          "internalType": "uint256[]",
          "name": "tokenIds",
          "type": "uint256[]"
        },
        {
          "indexed": false,
          "internalType": "uint256",
          "name": "timestamp",
          "type": "uint256"
        }
      ],
      "name": "TicketsCheckedIn",
      "type": "event"
    },
    {
      "anonymous": false,
      "inputs": [
        {
          "indexed": true,
          "internalType": "address",
          "name": "from",
          "type": "address"
        },
        {
          "indexed": true,
          "internalType": "address",
          "name": "to",
          "type": "address"
        },
        {
          "indexed": true,
          "internalType": "uint256",
          "name": "tokenId",
          "type": "uint256"
        }
      ],
      "name": "Transfer",
      "type": "event"
    },
    {
      "anonymous": false,
      "inputs": [
        {
          "indexed": false,
          "internalType": "address",
          "name": "account",
          "type": "address"
        }
      ],
      "name": "Unpaused",
      "type": "event"
    },
    {
      "inputs": [],
      "name": "DEFAULT_ADMIN_ROLE",
      "outputs": [
        {
          "internalType": "bytes32",
          "name": "",
          "type": "bytes32"
        }
      ],
      "stateMutability": "view",
      "type": "function"
    },
    {
      "inputs": [],
      "name": "MARKETPLACE_ROLE",
      "outputs": [
        {
          "internalType": "bytes32",
          "name": "",
          "type": "bytes32"
        }
      ],
      "stateMutability": "view",
      "type": "function"
    },
    {
      "inputs": [],
      "name": "OPERATOR_ROLE",
      "outputs": [
        {
          "internalType": "bytes32",
          "name": "",
          "type": "bytes32"
        }
      ],
      "stateMutability": "view",
      "type": "function"
    },
    {
      "inputs": [],
      "name": "ORGANIZER_ROLE",
      "outputs": [
        {
          "internalType": "bytes32",
          "name": "",
          "type": "bytes32"
        }
      ],
      "stateMutability": "view",
      "type": "function"
    },
    {
      "inputs": [],
      "name": "VOUCHER_TYPEHASH",
      "outputs": [
        {
          "internalType": "bytes32",
          "name": "",
          "type": "bytes32"
        }
      ],
      "stateMutability": "view",
      "type": "function"
    },
    {
      "inputs": [],
      "name": "adminTreasury",
      "outputs": [
        {
          "internalType": "address",
          "name": "",
          "type": "address"
        }
      ],
      "stateMutability": "view",
      "type": "function"
    },
    {
      "inputs": [
        {
          "internalType": "address",
          "name": "to",
          "type": "address"
        },
        {
          "internalType": "uint256",
          "name": "tokenId",
          "type": "uint256"
        }
      ],
      "name": "approve",
      "outputs": [],
      "stateMutability": "payable",
      "type": "function"
    },
    {
      "inputs": [
        {
          "internalType": "address",
          "name": "owner",
          "type": "address"
        }
      ],
      "name": "balanceOf",
      "outputs": [
        {
          "internalType": "uint256",
          "name": "",
          "type": "uint256"
        }
      ],
      "stateMutability": "view",
      "type": "function"
    },
    {
      "inputs": [
        {
          "internalType": "uint256[]",
          "name": "eventIds",
          "type": "uint256[]"
        },
        {
          "internalType": "uint256[]",
          "name": "quantities",
          "type": "uint256[]"
        },
        {
          "internalType": "address",
          "name": "recipient",
          "type": "address"
        }
      ],
      "name": "batchBuyTickets",
      "outputs": [],
      "stateMutability": "nonpayable",
      "type": "function"
    },
    {
      "inputs": [
        {
          "internalType": "uint256[]",
          "name": "tokenIds",
          "type": "uint256[]"
        }
      ],
      "name": "batchCheckIn",
      "outputs": [],
      "stateMutability": "nonpayable",
      "type": "function"
    },
    {
      "inputs": [
        {
          "components": [
            {
              "internalType": "uint256",
              "name": "eventId",
              "type": "uint256"
            },
            {
              "internalType": "uint256",
              "name": "quantity",
              "type": "uint256"
            },
            {
              "internalType": "uint256",
              "name": "price",
              "type": "uint256"
            },
            {
              "internalType": "uint256",
              "name": "commissionRateBps",
              "type": "uint256"
            },
            {
              "internalType": "uint256",
              "name": "relayerGasPerTicket",
              "type": "uint256"
            },
            {
              "internalType": "uint256",
              "name": "checkinGasPerTicket",
              "type": "uint256"
            },
            {
              "internalType": "uint64",
              "name": "expiryTime",
              "type": "uint64"
            },
            {
              "internalType": "uint256",
              "name": "nonce",
              "type": "uint256"
            }
          ],
          "internalType": "struct ShineTicket.MintVoucher[]",
          "name": "vouchers",
          "type": "tuple[]"
        },
        {
          "internalType": "bytes[]",
          "name": "signatures",
          "type": "bytes[]"
        }
      ],
      "name": "batchMintEventTickets",
      "outputs": [],
      "stateMutability": "nonpayable",
      "type": "function"
    },
    {
      "inputs": [
        {
          "internalType": "uint256[]",
          "name": "eventIds",
          "type": "uint256[]"
        },
        {
          "internalType": "uint256[]",
          "name": "quantities",
          "type": "uint256[]"
        },
        {
          "internalType": "address",
          "name": "buyerAddress",
          "type": "address"
        }
      ],
      "name": "batchRelayerBuyTicket",
      "outputs": [],
      "stateMutability": "nonpayable",
      "type": "function"
    },
    {
      "inputs": [
        {
          "internalType": "uint256",
          "name": "eventId",
          "type": "uint256"
        },
        {
          "internalType": "uint256",
          "name": "quantity",
          "type": "uint256"
        },
        {
          "internalType": "address",
          "name": "recipient",
          "type": "address"
        }
      ],
      "name": "buyTicket",
      "outputs": [],
      "stateMutability": "nonpayable",
      "type": "function"
    },
    {
      "inputs": [
        {
          "internalType": "uint256",
          "name": "tokenId",
          "type": "uint256"
        }
      ],
      "name": "checkIn",
      "outputs": [],
      "stateMutability": "nonpayable",
      "type": "function"
    },
    {
      "inputs": [
        {
          "internalType": "uint256",
          "name": "eventId",
          "type": "uint256"
        }
      ],
      "name": "claimFunds",
      "outputs": [],
      "stateMutability": "nonpayable",
      "type": "function"
    },
    {
      "inputs": [],
      "name": "eip712Domain",
      "outputs": [
        {
          "internalType": "bytes1",
          "name": "fields",
          "type": "bytes1"
        },
        {
          "internalType": "string",
          "name": "name",
          "type": "string"
        },
        {
          "internalType": "string",
          "name": "version",
          "type": "string"
        },
        {
          "internalType": "uint256",
          "name": "chainId",
          "type": "uint256"
        },
        {
          "internalType": "address",
          "name": "verifyingContract",
          "type": "address"
        },
        {
          "internalType": "bytes32",
          "name": "salt",
          "type": "bytes32"
        },
        {
          "internalType": "uint256[]",
          "name": "extensions",
          "type": "uint256[]"
        }
      ],
      "stateMutability": "view",
      "type": "function"
    },
    {
      "inputs": [
        {
          "internalType": "uint256",
          "name": "",
          "type": "uint256"
        }
      ],
      "name": "eventCheckedInCount",
      "outputs": [
        {
          "internalType": "uint256",
          "name": "",
          "type": "uint256"
        }
      ],
      "stateMutability": "view",
      "type": "function"
    },
    {
      "inputs": [
        {
          "internalType": "uint256",
          "name": "",
          "type": "uint256"
        }
      ],
      "name": "eventCheckinGasPerTicket",
      "outputs": [
        {
          "internalType": "uint256",
          "name": "",
          "type": "uint256"
        }
      ],
      "stateMutability": "view",
      "type": "function"
    },
    {
      "inputs": [
        {
          "internalType": "uint256",
          "name": "",
          "type": "uint256"
        }
      ],
      "name": "eventCommissionRateBps",
      "outputs": [
        {
          "internalType": "uint256",
          "name": "",
          "type": "uint256"
        }
      ],
      "stateMutability": "view",
      "type": "function"
    },
    {
      "inputs": [
        {
          "internalType": "uint256",
          "name": "",
          "type": "uint256"
        }
      ],
      "name": "eventMintedCount",
      "outputs": [
        {
          "internalType": "uint256",
          "name": "",
          "type": "uint256"
        }
      ],
      "stateMutability": "view",
      "type": "function"
    },
    {
      "inputs": [
        {
          "internalType": "uint256",
          "name": "",
          "type": "uint256"
        }
      ],
      "name": "eventRelayerGasPerTicket",
      "outputs": [
        {
          "internalType": "uint256",
          "name": "",
          "type": "uint256"
        }
      ],
      "stateMutability": "view",
      "type": "function"
    },
    {
      "inputs": [
        {
          "internalType": "uint256",
          "name": "",
          "type": "uint256"
        }
      ],
      "name": "eventRelayerSoldCount",
      "outputs": [
        {
          "internalType": "uint256",
          "name": "",
          "type": "uint256"
        }
      ],
      "stateMutability": "view",
      "type": "function"
    },
    {
      "inputs": [
        {
          "internalType": "uint256",
          "name": "",
          "type": "uint256"
        }
      ],
      "name": "eventRevenue",
      "outputs": [
        {
          "internalType": "uint256",
          "name": "",
          "type": "uint256"
        }
      ],
      "stateMutability": "view",
      "type": "function"
    },
    {
      "inputs": [
        {
          "internalType": "uint256",
          "name": "",
          "type": "uint256"
        }
      ],
      "name": "events",
      "outputs": [
        {
          "internalType": "address",
          "name": "organizer",
          "type": "address"
        },
        {
          "internalType": "uint64",
          "name": "expiryTime",
          "type": "uint64"
        },
        {
          "internalType": "uint32",
          "name": "maxCapacity",
          "type": "uint32"
        },
        {
          "internalType": "uint256",
          "name": "price",
          "type": "uint256"
        },
        {
          "internalType": "bool",
          "name": "isActive",
          "type": "bool"
        }
      ],
      "stateMutability": "view",
      "type": "function"
    },
    {
      "inputs": [
        {
          "internalType": "uint256",
          "name": "eventId",
          "type": "uint256"
        },
        {
          "internalType": "uint64",
          "name": "newExpiry",
          "type": "uint64"
        }
      ],
      "name": "extendEventExpiry",
      "outputs": [],
      "stateMutability": "nonpayable",
      "type": "function"
    },
    {
      "inputs": [
        {
          "internalType": "uint256",
          "name": "",
          "type": "uint256"
        }
      ],
      "name": "fundsClaimed",
      "outputs": [
        {
          "internalType": "bool",
          "name": "",
          "type": "bool"
        }
      ],
      "stateMutability": "view",
      "type": "function"
    },
    {
      "inputs": [
        {
          "internalType": "uint256",
          "name": "tokenId",
          "type": "uint256"
        }
      ],
      "name": "getApproved",
      "outputs": [
        {
          "internalType": "address",
          "name": "",
          "type": "address"
        }
      ],
      "stateMutability": "view",
      "type": "function"
    },
    {
      "inputs": [
        {
          "internalType": "uint256[]",
          "name": "tokenIds",
          "type": "uint256[]"
        }
      ],
      "name": "getBatchTicketStatus",
      "outputs": [
        {
          "internalType": "bool[]",
          "name": "",
          "type": "bool[]"
        }
      ],
      "stateMutability": "view",
      "type": "function"
    },
    {
      "inputs": [
        {
          "internalType": "bytes32",
          "name": "role",
          "type": "bytes32"
        }
      ],
      "name": "getRoleAdmin",
      "outputs": [
        {
          "internalType": "bytes32",
          "name": "",
          "type": "bytes32"
        }
      ],
      "stateMutability": "view",
      "type": "function"
    },
    {
      "inputs": [
        {
          "internalType": "bytes32",
          "name": "role",
          "type": "bytes32"
        },
        {
          "internalType": "address",
          "name": "account",
          "type": "address"
        }
      ],
      "name": "grantRole",
      "outputs": [],
      "stateMutability": "nonpayable",
      "type": "function"
    },
    {
      "inputs": [
        {
          "internalType": "bytes32",
          "name": "role",
          "type": "bytes32"
        },
        {
          "internalType": "address",
          "name": "account",
          "type": "address"
        }
      ],
      "name": "hasRole",
      "outputs": [
        {
          "internalType": "bool",
          "name": "",
          "type": "bool"
        }
      ],
      "stateMutability": "view",
      "type": "function"
    },
    {
      "inputs": [
        {
          "internalType": "address",
          "name": "owner",
          "type": "address"
        },
        {
          "internalType": "address",
          "name": "operator",
          "type": "address"
        }
      ],
      "name": "isApprovedForAll",
      "outputs": [
        {
          "internalType": "bool",
          "name": "",
          "type": "bool"
        }
      ],
      "stateMutability": "view",
      "type": "function"
    },
    {
      "inputs": [
        {
          "internalType": "address[]",
          "name": "recipients",
          "type": "address[]"
        },
        {
          "internalType": "uint256[]",
          "name": "quantities",
          "type": "uint256[]"
        }
      ],
      "name": "mintBatchUsers",
      "outputs": [],
      "stateMutability": "nonpayable",
      "type": "function"
    },
    {
      "inputs": [
        {
          "components": [
            {
              "internalType": "uint256",
              "name": "eventId",
              "type": "uint256"
            },
            {
              "internalType": "uint256",
              "name": "quantity",
              "type": "uint256"
            },
            {
              "internalType": "uint256",
              "name": "price",
              "type": "uint256"
            },
            {
              "internalType": "uint256",
              "name": "commissionRateBps",
              "type": "uint256"
            },
            {
              "internalType": "uint256",
              "name": "relayerGasPerTicket",
              "type": "uint256"
            },
            {
              "internalType": "uint256",
              "name": "checkinGasPerTicket",
              "type": "uint256"
            },
            {
              "internalType": "uint64",
              "name": "expiryTime",
              "type": "uint64"
            },
            {
              "internalType": "uint256",
              "name": "nonce",
              "type": "uint256"
            }
          ],
          "internalType": "struct ShineTicket.MintVoucher",
          "name": "voucher",
          "type": "tuple"
        },
        {
          "internalType": "bytes",
          "name": "signature",
          "type": "bytes"
        }
      ],
      "name": "mintEventTickets",
      "outputs": [],
      "stateMutability": "nonpayable",
      "type": "function"
    },
    {
      "inputs": [],
      "name": "name",
      "outputs": [
        {
          "internalType": "string",
          "name": "",
          "type": "string"
        }
      ],
      "stateMutability": "view",
      "type": "function"
    },
    {
      "inputs": [
        {
          "internalType": "uint256",
          "name": "tokenId",
          "type": "uint256"
        }
      ],
      "name": "ownerOf",
      "outputs": [
        {
          "internalType": "address",
          "name": "",
          "type": "address"
        }
      ],
      "stateMutability": "view",
      "type": "function"
    },
    {
      "inputs": [],
      "name": "pause",
      "outputs": [],
      "stateMutability": "nonpayable",
      "type": "function"
    },
    {
      "inputs": [],
      "name": "paused",
      "outputs": [
        {
          "internalType": "bool",
          "name": "",
          "type": "bool"
        }
      ],
      "stateMutability": "view",
      "type": "function"
    },
    {
      "inputs": [
        {
          "internalType": "uint256",
          "name": "eventId",
          "type": "uint256"
        },
        {
          "internalType": "uint256",
          "name": "quantity",
          "type": "uint256"
        },
        {
          "internalType": "address",
          "name": "buyerAddress",
          "type": "address"
        }
      ],
      "name": "relayerBuyTicket",
      "outputs": [],
      "stateMutability": "nonpayable",
      "type": "function"
    },
    {
      "inputs": [
        {
          "internalType": "bytes32",
          "name": "role",
          "type": "bytes32"
        },
        {
          "internalType": "address",
          "name": "callerConfirmation",
          "type": "address"
        }
      ],
      "name": "renounceRole",
      "outputs": [],
      "stateMutability": "nonpayable",
      "type": "function"
    },
    {
      "inputs": [
        {
          "internalType": "bytes32",
          "name": "role",
          "type": "bytes32"
        },
        {
          "internalType": "address",
          "name": "account",
          "type": "address"
        }
      ],
      "name": "revokeRole",
      "outputs": [],
      "stateMutability": "nonpayable",
      "type": "function"
    },
    {
      "inputs": [
        {
          "internalType": "uint256",
          "name": "tokenId",
          "type": "uint256"
        }
      ],
      "name": "revokeTicket",
      "outputs": [],
      "stateMutability": "nonpayable",
      "type": "function"
    },
    {
      "inputs": [
        {
          "internalType": "address",
          "name": "from",
          "type": "address"
        },
        {
          "internalType": "address",
          "name": "to",
          "type": "address"
        },
        {
          "internalType": "uint256",
          "name": "tokenId",
          "type": "uint256"
        }
      ],
      "name": "safeTransferFrom",
      "outputs": [],
      "stateMutability": "payable",
      "type": "function"
    },
    {
      "inputs": [
        {
          "internalType": "address",
          "name": "from",
          "type": "address"
        },
        {
          "internalType": "address",
          "name": "to",
          "type": "address"
        },
        {
          "internalType": "uint256",
          "name": "tokenId",
          "type": "uint256"
        },
        {
          "internalType": "bytes",
          "name": "_data",
          "type": "bytes"
        }
      ],
      "name": "safeTransferFrom",
      "outputs": [],
      "stateMutability": "payable",
      "type": "function"
    },
    {
      "inputs": [
        {
          "internalType": "address",
          "name": "operator",
          "type": "address"
        },
        {
          "internalType": "bool",
          "name": "approved",
          "type": "bool"
        }
      ],
      "name": "setApprovalForAll",
      "outputs": [],
      "stateMutability": "nonpayable",
      "type": "function"
    },
    {
      "inputs": [
        {
          "internalType": "string",
          "name": "baseURI",
          "type": "string"
        }
      ],
      "name": "setBaseURI",
      "outputs": [],
      "stateMutability": "nonpayable",
      "type": "function"
    },
    {
      "inputs": [
        {
          "internalType": "uint256",
          "name": "eventId",
          "type": "uint256"
        },
        {
          "internalType": "uint256",
          "name": "commissionRateBps",
          "type": "uint256"
        },
        {
          "internalType": "uint256",
          "name": "relayerGasPerTicket",
          "type": "uint256"
        },
        {
          "internalType": "uint256",
          "name": "checkinGasPerTicket",
          "type": "uint256"
        }
      ],
      "name": "setEventCostConfig",
      "outputs": [],
      "stateMutability": "nonpayable",
      "type": "function"
    },
    {
      "inputs": [
        {
          "internalType": "uint256",
          "name": "eventId",
          "type": "uint256"
        },
        {
          "internalType": "uint256",
          "name": "price",
          "type": "uint256"
        }
      ],
      "name": "setEventPrice",
      "outputs": [],
      "stateMutability": "nonpayable",
      "type": "function"
    },
    {
      "inputs": [
        {
          "internalType": "bytes4",
          "name": "interfaceId",
          "type": "bytes4"
        }
      ],
      "name": "supportsInterface",
      "outputs": [
        {
          "internalType": "bool",
          "name": "",
          "type": "bool"
        }
      ],
      "stateMutability": "view",
      "type": "function"
    },
    {
      "inputs": [],
      "name": "symbol",
      "outputs": [
        {
          "internalType": "string",
          "name": "",
          "type": "string"
        }
      ],
      "stateMutability": "view",
      "type": "function"
    },
    {
      "inputs": [
        {
          "internalType": "uint256",
          "name": "",
          "type": "uint256"
        }
      ],
      "name": "ticketToEvent",
      "outputs": [
        {
          "internalType": "uint256",
          "name": "",
          "type": "uint256"
        }
      ],
      "stateMutability": "view",
      "type": "function"
    },
    {
      "inputs": [
        {
          "internalType": "uint256",
          "name": "",
          "type": "uint256"
        }
      ],
      "name": "ticketUsed",
      "outputs": [
        {
          "internalType": "bool",
          "name": "",
          "type": "bool"
        }
      ],
      "stateMutability": "view",
      "type": "function"
    },
    {
      "inputs": [
        {
          "internalType": "uint256",
          "name": "tokenId",
          "type": "uint256"
        }
      ],
      "name": "tokenURI",
      "outputs": [
        {
          "internalType": "string",
          "name": "",
          "type": "string"
        }
      ],
      "stateMutability": "view",
      "type": "function"
    },
    {
      "inputs": [],
      "name": "totalSupply",
      "outputs": [
        {
          "internalType": "uint256",
          "name": "result",
          "type": "uint256"
        }
      ],
      "stateMutability": "view",
      "type": "function"
    },
    {
      "inputs": [
        {
          "internalType": "address",
          "name": "from",
          "type": "address"
        },
        {
          "internalType": "address",
          "name": "to",
          "type": "address"
        },
        {
          "internalType": "uint256",
          "name": "tokenId",
          "type": "uint256"
        }
      ],
      "name": "transferFrom",
      "outputs": [],
      "stateMutability": "payable",
      "type": "function"
    },
    {
      "inputs": [],
      "name": "unpause",
      "outputs": [],
      "stateMutability": "nonpayable",
      "type": "function"
    },
    {
      "inputs": [],
      "name": "usdtToken",
      "outputs": [
        {
          "internalType": "contract IERC20",
          "name": "",
          "type": "address"
        }
      ],
      "stateMutability": "view",
      "type": "function"
    },
    {
      "inputs": [
        {
          "internalType": "uint256",
          "name": "",
          "type": "uint256"
        }
      ],
      "name": "usedNonces",
      "outputs": [
        {
          "internalType": "bool",
          "name": "",
          "type": "bool"
        }
      ],
      "stateMutability": "view",
      "type": "function"
    }
  ],
  "bytecode": "0x6101a0604052348015610010575f5ffd5b50604051614d28380380614d2883398101604081905261002f91610372565b604080518082018252600b8082526a14da1a5b99551a58dad95d60aa1b60208084018290528451808601865260018152603160f81b818301528551808701875293845283820192909252845180860190955260058552645348494e4560d81b90850152919260026100a0838261043b565b5060036100ad828261043b565b505060015f55506100bf82600b61023d565b610120526100ce81600c61023d565b61014052815160208084019190912060e052815190820120610100524660a05261015a60e05161010051604080517f8b73c3c69bb8fe3d512ecc4cf759cc79239f7b179b0ffacaa9a75d522b39400f60208201529081019290925260608201524660808201523060a08201525f9060c00160405160208183030381529060405280519060200120905090565b60805250503060c0526001600d556001600160a01b0381166101c35760405162461bcd60e51b815260206004820152601460248201527f496e76616c69642055534454206164647265737300000000000000000000000060448201526064015b60405180910390fd5b6001600160a01b0382166102195760405162461bcd60e51b815260206004820152601560248201527f496e76616c69642061646d696e2061646472657373000000000000000000000060448201526064016101ba565b6102235f8361026f565b506001600160a01b0390811661016052166101805261054d565b5f602083511015610258576102518361031a565b9050610269565b81610263848261043b565b5060ff90505b92915050565b5f8281526009602090815260408083206001600160a01b038516845290915281205460ff16610313575f8381526009602090815260408083206001600160a01b03861684529091529020805460ff191660011790556102cb3390565b6001600160a01b0316826001600160a01b0316847f2f8788117e7eff1d82e926ec794901d17c78024a50270940304540a733656f0d60405160405180910390a4506001610269565b505f610269565b5f5f829050601f81511115610344578260405163305a27a960e01b81526004016101ba91906104f5565b805161034f8261052a565b179392505050565b80516001600160a01b038116811461036d575f5ffd5b919050565b5f5f60408385031215610383575f5ffd5b61038c83610357565b915061039a60208401610357565b90509250929050565b634e487b7160e01b5f52604160045260245ffd5b600181811c908216806103cb57607f821691505b6020821081036103e957634e487b7160e01b5f52602260045260245ffd5b50919050565b601f82111561043657805f5260205f20601f840160051c810160208510156104145750805b601f840160051c820191505b81811015610433575f8155600101610420565b50505b505050565b81516001600160401b03811115610454576104546103a3565b6104688161046284546103b7565b846103ef565b6020601f82116001811461049a575f83156104835750848201515b5f19600385901b1c1916600184901b178455610433565b5f84815260208120601f198516915b828110156104c957878501518255602094850194600190920191016104a9565b50848210156104e657868401515f19600387901b60f8161c191681555b50505050600190811b01905550565b602081525f82518060208401528060208501604085015e5f604082850101526040601f19601f83011684010191505092915050565b805160208083015191908110156103e9575f1960209190910360031b1b16919050565b60805160a05160c05160e05161010051610120516101405161016051610180516147456105e35f395f818161094201526113ff01525f81816109f101528181610d4d015281816113240152818161142e015281816118bf01528181611ccb015261203b01525f61330d01525f6132db01525f61390301525f6138db01525f61383601525f61386001525f61388a01526147455ff3fe608060405260043610610370575f3560e01c80638456cb59116101c8578063a98ad46c116100fd578063d29ab4d11161009d578063e95a644f1161006d578063e95a644f14610b56578063e985e9c514610b75578063f5b541a614610bbc578063f6ac04da14610bef575f5ffd5b8063d29ab4d114610ace578063d547741f14610af9578063dbf56d1914610b18578063dc68cba514610b37575f5ffd5b8063b955e4ad116100d8578063b955e4ad14610a45578063c3439f3f14610a70578063c87b56dd14610a90578063cb0c800514610aaf575f5ffd5b8063a98ad46c146109e0578063afc573b114610a13578063b88d4fde14610a32575f5ffd5b8063947e59b4116101685780639b9ac6c3116101435780639b9ac6c314610964578063a1e234d314610983578063a217fddf146109ae578063a22cb465146109c1575f5ffd5b8063947e59b4146108fe57806395d89b411461091d57806396cad0db14610931575f5ffd5b80638bc1344b116101a35780638bc1344b146108625780638d7dba3a1461088d57806391d14854146108ac57806394739e87146108cb575f5ffd5b80638456cb591461080857806384b0196e1461081c578063874b4c8e14610843575f5ffd5b80632f2ff15d116102a95780635c975abb116102495780636723425411610219578063672342541461076c5780636fa605e31461078b57806370a08231146107b65780637909cb59146107d5575f5ffd5b80635c975abb146106da5780636352211e146106f1578063642b5f9b146107105780636717e41c1461073e575f5ffd5b80633f4ba83a116102845780633f4ba83a1461066957806342842e0e1461067d57806355f804b31461069057806357b9bae8146106af575f5ffd5b80632f2ff15d1461060c57806334c588611461062b57806336568abe1461064a575f5ffd5b806318160ddd1161031457806323b872dd116102ef57806323b872dd14610581578063248a9ca31461059457806326abfeba146105c25780632b07ee8a146105ed575f5ffd5b806318160ddd1461050d57806319fcf7cb146105365780631b55e33814610562575f5ffd5b8063081812fc1161034f578063081812fc146103ea578063095ea7b3146104215780630b79143014610434578063157285b9146104df575f5ffd5b80628e68651461037457806301ffc9a71461039557806306fdde03146103c9575b5f5ffd5b34801561037f575f5ffd5b5061039361038e366004613b96565b610c1a565b005b3480156103a0575f5ffd5b506103b46103af366004613bdd565b610e53565b60405190151581526020015b60405180910390f35b3480156103d4575f5ffd5b506103dd610e63565b6040516103c09190613c26565b3480156103f5575f5ffd5b50610409610404366004613c38565b610ef3565b6040516001600160a01b0390911681526020016103c0565b61039361042f366004613c4f565b610f2c565b34801561043f575f5ffd5b5061049861044e366004613c38565b600e6020525f90815260409020805460018201546002909201546001600160a01b03821692600160a01b83046001600160401b031692600160e01b900463ffffffff169160ff1685565b604080516001600160a01b0390961686526001600160401b03909416602086015263ffffffff9092169284019290925260608301919091521515608082015260a0016103c0565b3480156104ea575f5ffd5b506103b46104f9366004613c38565b60196020525f908152604090205460ff1681565b348015610518575f5ffd5b506105286001545f54035f190190565b6040519081526020016103c0565b348015610541575f5ffd5b50610555610550366004613cbe565b610f3c565b6040516103c09190613cfc565b34801561056d575f5ffd5b5061039361057c366004613c38565b611043565b61039361058f366004613d40565b6114fd565b34801561059f575f5ffd5b506105286105ae366004613c38565b5f9081526009602052604090206001015490565b3480156105cd575f5ffd5b506105286105dc366004613c38565b60166020525f908152604090205481565b3480156105f8575f5ffd5b50610393610607366004613d90565b61166e565b348015610617575f5ffd5b50610393610626366004613dba565b611714565b348015610636575f5ffd5b50610393610645366004613e18565b61173e565b348015610655575f5ffd5b50610393610664366004613dba565b611751565b348015610674575f5ffd5b50610393611784565b61039361068b366004613d40565b611796565b34801561069b575f5ffd5b506103936106aa366004613e70565b6117b0565b3480156106ba575f5ffd5b506105286106c9366004613c38565b60176020525f908152604090205481565b3480156106e5575f5ffd5b50600a5460ff166103b4565b3480156106fc575f5ffd5b5061040961070b366004613c38565b6117c7565b34801561071b575f5ffd5b506103b461072a366004613c38565b600f6020525f908152604090205460ff1681565b348015610749575f5ffd5b506103b4610758366004613c38565b60106020525f908152604090205460ff1681565b348015610777575f5ffd5b50610393610786366004613b96565b6117d1565b348015610796575f5ffd5b506105286107a5366004613c38565b60126020525f908152604090205481565b3480156107c1575f5ffd5b506105286107d0366004613ea2565b6119e3565b3480156107e0575f5ffd5b506105287f4d2e7a1e3f5dd6e203f087b15756ccf0e4ccd947fe1b639a38540089a1e47f6381565b348015610813575f5ffd5b50610393611a26565b348015610827575f5ffd5b50610830611a38565b6040516103c09796959493929190613ef5565b34801561084e575f5ffd5b5061039361085d366004613f64565b611a7a565b34801561086d575f5ffd5b5061052861087c366004613c38565b60146020525f908152604090205481565b348015610898575f5ffd5b506103936108a7366004613f64565b611e48565b3480156108b7575f5ffd5b506103b46108c6366004613dba565b6121db565b3480156108d6575f5ffd5b506105287f7e2428746ba19547783fa5b02cf073095822dfdcab967abd9d179be86d792b0981565b348015610909575f5ffd5b50610393610918366004613c38565b612205565b348015610928575f5ffd5b506103dd612220565b34801561093c575f5ffd5b506104097f000000000000000000000000000000000000000000000000000000000000000081565b34801561096f575f5ffd5b5061039361097e366004613cbe565b61222f565b34801561098e575f5ffd5b5061052861099d366004613c38565b60156020525f908152604090205481565b3480156109b9575f5ffd5b506105285f81565b3480156109cc575f5ffd5b506103936109db366004613fef565b6123ba565b3480156109eb575f5ffd5b506104097f000000000000000000000000000000000000000000000000000000000000000081565b348015610a1e575f5ffd5b50610393610a2d366004614024565b612425565b610393610a403660046140a2565b6124b0565b348015610a50575f5ffd5b50610528610a5f366004613c38565b60136020525f908152604090205481565b348015610a7b575f5ffd5b506105285f5160206146f05f395f51905f5281565b348015610a9b575f5ffd5b506103dd610aaa366004613c38565b6124eb565b348015610aba575f5ffd5b50610393610ac936600461417c565b612563565b348015610ad9575f5ffd5b50610528610ae8366004613c38565b60186020525f908152604090205481565b348015610b04575f5ffd5b50610393610b13366004613dba565b61264f565b348015610b23575f5ffd5b50610393610b323660046141ab565b612673565b348015610b42575f5ffd5b50610393610b5136600461422b565b61275f565b348015610b61575f5ffd5b50610393610b70366004613c38565b6127d0565b348015610b80575f5ffd5b506103b4610b8f36600461424b565b6001600160a01b039182165f90815260076020908152604080832093909416825291909152205460ff1690565b348015610bc7575f5ffd5b506105287f97667070c54ef182b0f5858b034beac1b6f3089aa2d3188bb1e8929f4fa9b92981565b348015610bfa575f5ffd5b50610528610c09366004613c38565b60116020525f908152604090205481565b610c226129dc565b610c2a612a02565b6001600160a01b038116610c795760405162461bcd60e51b8152602060048201526011602482015270125b9d985b1a59081c9958da5c1a595b9d607a1b60448201526064015b60405180910390fd5b5f838152600e6020908152604091829020825160a08101845281546001600160a01b0381168252600160a01b81046001600160401b031693820193909352600160e01b90920463ffffffff16928201929092526001820154606082015260029091015460ff16151560808201819052610d045760405162461bcd60e51b8152600401610c7090614273565b5f838260600151610d1591906142b4565b90505f8111610d365760405162461bcd60e51b8152600401610c70906142cb565b6040516323b872dd60e01b81526001600160a01b037f000000000000000000000000000000000000000000000000000000000000000016906323b872dd90610d8690339030908690600401614302565b6020604051808303815f875af1158015610da2573d5f5f3e3d5ffd5b505050506040513d601f19601f82011682018060405250810190610dc69190614326565b610de25760405162461bcd60e51b8152600401610c7090614341565b5f8581526012602052604081208054839290610dff90849061436f565b90915550505f54610e108486612a2c565b5f5b85811015610e40578660115f610e28848661436f565b815260208101919091526040015f2055600101610e12565b50505050610e4e6001600d55565b505050565b5f610e5d82612a4c565b92915050565b606060028054610e7290614382565b80601f0160208091040260200160405190810160405280929190818152602001828054610e9e90614382565b8015610ee95780601f10610ec057610100808354040283529160200191610ee9565b820191905f5260205f20905b815481529060010190602001808311610ecc57829003601f168201915b5050505050905090565b5f610efd82612a80565b610f1157610f116333d1c03960e21b612aca565b505f908152600660205260409020546001600160a01b031690565b610f3882826001612ad2565b5050565b60605f826001600160401b03811115610f5757610f5761408e565b604051908082528060200260200182016040528015610f80578160200160208202803683370190505b5090505f5b8381101561103b57610fae858583818110610fa257610fa26143ba565b90506020020135612a80565b610fda575f828281518110610fc557610fc56143ba565b91151560209283029190910190910152611033565b600f5f868684818110610fef57610fef6143ba565b9050602002013581526020019081526020015f205f9054906101000a900460ff16828281518110611022576110226143ba565b911515602092830291909101909101525b600101610f85565b509392505050565b61104b612a02565b6110536129dc565b5f818152600e6020908152604091829020825160a08101845281546001600160a01b038116808352600160a01b82046001600160401b031694830194909452600160e01b900463ffffffff1693810193909352600181015460608401526002015460ff1615156080830152331461110c5760405162461bcd60e51b815260206004820152601860248201527f4f6e6c79206f7267616e697a65722063616e20636c61696d00000000000000006044820152606401610c70565b80602001516001600160401b0316421161115e5760405162461bcd60e51b8152602060048201526013602482015272115d995b9d081b9bdd08195b991959081e595d606a1b6044820152606401610c70565b5f8281526019602052604090205460ff16156111b45760405162461bcd60e51b8152602060048201526015602482015274119d5b991cc8185b1c9958591e4818db185a5b5959605a1b6044820152606401610c70565b5f828152601960209081526040808320805460ff1916600117905560129091529020548061121a5760405162461bcd60e51b81526020600482015260136024820152724e6f20726576656e756520746f20636c61696d60681b6044820152606401610c70565b5f838152601360205260408120546127109061123690846142b4565b61124091906143ce565b5f858152601560209081526040808320546018909252822054929350909161126891906142b4565b5f8681526014602090815260408083205460179092529091205461128c91906142b4565b611296919061436f565b90505f6112a3828461436f565b9050808410156112f55760405162461bcd60e51b815260206004820181905260248201527f526576656e7565206973206c657373207468616e2073797374656d20666565736044820152606401610c70565b5f61130082866143ed565b905080156113e25760405163a9059cbb60e01b8152336004820152602481018290527f00000000000000000000000000000000000000000000000000000000000000006001600160a01b03169063a9059cbb906044016020604051808303815f875af1158015611372573d5f5f3e3d5ffd5b505050506040513d601f19601f820116820180604052508101906113969190614326565b6113e25760405162461bcd60e51b815260206004820152601960248201527f4f7267616e697a6572207472616e73666572206661696c6564000000000000006044820152606401610c70565b81156114dc5760405163a9059cbb60e01b81526001600160a01b037f000000000000000000000000000000000000000000000000000000000000000081166004830152602482018490527f0000000000000000000000000000000000000000000000000000000000000000169063a9059cbb906044016020604051808303815f875af1158015611474573d5f5f3e3d5ffd5b505050506040513d601f19601f820116820180604052508101906114989190614326565b6114dc5760405162461bcd60e51b815260206004820152601560248201527410591b5a5b881d1c985b9cd9995c8819985a5b1959605a1b6044820152606401610c70565b5050505f84815260126020526040812055506114fa9150612a459050565b50565b5f61150782612b73565b6001600160a01b03948516949091508116841461152d5761152d62a1148160e81b612aca565b5f82815260066020526040902080546115588187335b6001600160a01b039081169116811491141790565b61157a576115668633610b8f565b61157a5761157a632ce44b5f60e11b612aca565b6115878686866001612c0c565b8015611591575f82555b6001600160a01b038681165f9081526005602052604080822080545f19019055918716808252919020805460010190554260a01b17600160e11b175f85815260046020526040812091909155600160e11b8416900361161d57600184015f81815260046020526040812054900361161b575f54811461161b575f8181526004602052604090208490555b505b6001600160a01b0385168481887fddf252ad1be2c89b69c2b068fc378daa952ba7f163c4a11628f55a4df523b3ef5f80a4805f0361166557611665633a954ecd60e21b612aca565b50505050505050565b5f61167881612da6565b6116806129dc565b5f838152600e60205260409020546001600160a01b03166116da5760405162461bcd60e51b8152602060048201526014602482015273115d995b9d08191bd95cc81b9bdd08195e1a5cdd60621b6044820152606401610c70565b505f918252600e602052604090912080546001600160401b03909216600160a01b0267ffffffffffffffff60a01b19909216919091179055565b5f8281526009602052604090206001015461172e81612da6565b6117388383612db0565b50505050565b6117466129dc565b610e4e838383612e41565b6001600160a01b038116331461177a5760405163334bd91960e11b815260040160405180910390fd5b610e4e82826131da565b5f61178e81612da6565b6114fa613245565b610e4e83838360405180602001604052805f8152506124b0565b5f6117ba81612da6565b601a611738838583614444565b5f610e5d82612b73565b5f6117db81612da6565b6117e36129dc565b6117eb612a02565b5f848152600e6020908152604091829020825160a08101845281546001600160a01b0381168252600160a01b81046001600160401b031693820193909352600160e01b90920463ffffffff16928201929092526001820154606082015260029091015460ff161515608082018190526118765760405162461bcd60e51b8152600401610c7090614273565b5f84826060015161188791906142b4565b90505f81116118a85760405162461bcd60e51b8152600401610c70906142cb565b6040516323b872dd60e01b81526001600160a01b037f000000000000000000000000000000000000000000000000000000000000000016906323b872dd906118f890339030908690600401614302565b6020604051808303815f875af1158015611914573d5f5f3e3d5ffd5b505050506040513d601f19601f820116820180604052508101906119389190614326565b6119545760405162461bcd60e51b8152600401610c7090614341565b5f868152601260205260408120805483929061197190849061436f565b90915550505f546119828587612a2c565b5f5b868110156119b2578760115f61199a848661436f565b815260208101919091526040015f2055600101611984565b505f87815260176020526040812080548892906119d090849061436f565b90915550506001600d5550611738915050565b5f6001600160a01b038216611a0257611a026323d3ad8160e21b612aca565b506001600160a01b03165f908152600560205260409020546001600160401b031690565b5f611a3081612da6565b6114fa613297565b5f6060805f5f5f6060611a496132d4565b611a51613306565b604080515f80825260208201909252600f60f81b9b939a50919850469750309650945092509050565b611a826129dc565b611a8a612a02565b83611aa75760405162461bcd60e51b8152600401610c70906144fd565b838214611ac65760405162461bcd60e51b8152600401610c7090614523565b6001600160a01b038116611b105760405162461bcd60e51b8152602060048201526011602482015270125b9d985b1a59081c9958da5c1a595b9d607a1b6044820152606401610c70565b5f805b85811015611cb3575f878783818110611b2e57611b2e6143ba565b9050602002013590505f868684818110611b4a57611b4a6143ba565b5f858152600e6020908152604091829020825160a08101845281546001600160a01b0381168252600160a01b81046001600160401b031682850152600160e01b900463ffffffff1693810193909352600181015460608401526002015460ff161515608083018190529202939093013593509050611c0a5760405162461bcd60e51b815260206004820152601f60248201527f4f6e65206f6620746865206576656e7473206973206e6f7420616374697665006044820152606401610c70565b5f8211611c295760405162461bcd60e51b8152600401610c709061454a565b5f828260600151611c3a91906142b4565b90505f8111611c975760405162461bcd60e51b815260206004820152602360248201527f5072696365206e6f742073657420666f72206f6e65206f6620746865206576656044820152626e747360e81b6064820152608401610c70565b611ca1818761436f565b95505060019093019250611b13915050565b506040516323b872dd60e01b81526001600160a01b037f000000000000000000000000000000000000000000000000000000000000000016906323b872dd90611d0490339030908690600401614302565b6020604051808303815f875af1158015611d20573d5f5f3e3d5ffd5b505050506040513d601f19601f82011682018060405250810190611d449190614326565b611d605760405162461bcd60e51b8152600401610c7090614341565b5f5b85811015611e35575f878783818110611d7d57611d7d6143ba565b9050602002013590505f868684818110611d9957611d996143ba565b5f858152600e60209081526040822060010154920293909301359350611dc1915083906142b4565b90508060125f8581526020019081526020015f205f828254611de3919061436f565b90915550505f54611df48784612a2c565b5f5b83811015611e24578460115f611e0c848661436f565b815260208101919091526040015f2055600101611df6565b505060019093019250611d62915050565b5050611e416001600d55565b5050505050565b5f611e5281612da6565b611e5a6129dc565b611e62612a02565b84611e7f5760405162461bcd60e51b8152600401610c70906144fd565b848314611e9e5760405162461bcd60e51b8152600401610c7090614523565b6001600160a01b038216611eec5760405162461bcd60e51b8152602060048201526015602482015274496e76616c6964206275796572206164647265737360581b6044820152606401610c70565b5f805b86811015612023575f888883818110611f0a57611f0a6143ba565b9050602002013590505f878784818110611f2657611f266143ba565b5f858152600e6020908152604091829020825160a08101845281546001600160a01b0381168252600160a01b81046001600160401b031682850152600160e01b900463ffffffff1693810193909352600181015460608401526002015460ff161515608083018190529202939093013593509050611fb65760405162461bcd60e51b8152600401610c7090614273565b5f8211611fd55760405162461bcd60e51b8152600401610c709061454a565b5f828260600151611fe691906142b4565b90505f81116120075760405162461bcd60e51b8152600401610c70906142cb565b612011818761436f565b95505060019093019250611eef915050565b506040516323b872dd60e01b81526001600160a01b037f000000000000000000000000000000000000000000000000000000000000000016906323b872dd9061207490339030908690600401614302565b6020604051808303815f875af1158015612090573d5f5f3e3d5ffd5b505050506040513d601f19601f820116820180604052508101906120b49190614326565b6120d05760405162461bcd60e51b8152600401610c7090614341565b5f5b868110156121c7575f8888838181106120ed576120ed6143ba565b9050602002013590505f878784818110612109576121096143ba565b5f858152600e60209081526040822060010154920293909301359350612131915083906142b4565b90508060125f8581526020019081526020015f205f828254612153919061436f565b90915550505f838152601760205260408120805484929061217590849061436f565b90915550505f546121868884612a2c565b5f5b838110156121b6578460115f61219e848661436f565b815260208101919091526040015f2055600101612188565b5050600190930192506120d2915050565b50506121d36001600d55565b505050505050565b5f9182526009602090815260408084206001600160a01b0393909316845291905290205460ff1690565b5f61220f81612da6565b6122176129dc565b610f3882613333565b606060038054610e7290614382565b7f97667070c54ef182b0f5858b034beac1b6f3089aa2d3188bb1e8929f4fa9b92961225981612da6565b6122616129dc565b5f5b82811015612379575f84848381811061227e5761227e6143ba565b602090810292909201355f8181526011909352604090922054919250508015612305575f818152600e6020526040902054600160a01b90046001600160401b03164211156123055760405162461bcd60e51b8152602060048201526014602482015273115d995b9d081d1a58dad95d08195e1c1a5c995960621b6044820152606401610c70565b61230e82612a80565b801561232857505f828152600f602052604090205460ff16155b1561236f575f828152600f60205260409020805460ff19166001179055801561236f575f81815260186020526040812080546001929061236990849061436f565b90915550505b5050600101612263565b507f0e862c2630b0e020ea8c569930ac577d3c103fdb452386c869484d2b2cb738818383426040516123ad9392919061458c565b60405180910390a1505050565b335f8181526007602090815260408083206001600160a01b03871680855290835292819020805460ff191686151590811790915590519081529192917f17307eab39ab6107e8899845ad3d59bd9653f200f220920489ca2b5937696c31910160405180910390a35050565b5f61242f81612da6565b6124376129dc565b8382146124565760405162461bcd60e51b8152600401610c7090614523565b5f5b848110156121d3576124a8868683818110612475576124756143ba565b905060200201602081019061248a9190613ea2565b85858481811061249c5761249c6143ba565b90506020020135612a2c565b600101612458565b6124bb8484846114fd565b6001600160a01b0383163b15611738576124d78484848461333d565b611738576117386368d2bf6b60e11b612aca565b60606124f682612a80565b61250a5761250a630a14c4b560e41b612aca565b5f61251361341c565b905080515f036125315760405180602001604052805f81525061255c565b8061253b8461342b565b60405160200161254c9291906145df565b6040516020818303038152906040525b9392505050565b5f61256d81612da6565b6125756129dc565b5f858152600e60205260409020546001600160a01b03166125cf5760405162461bcd60e51b8152602060048201526014602482015273115d995b9d08191bd95cc81b9bdd08195e1a5cdd60621b6044820152606401610c70565b5f8581526019602052604090205460ff16156126255760405162461bcd60e51b8152602060048201526015602482015274119d5b991cc8185b1c9958591e4818db185a5b5959605a1b6044820152606401610c70565b505f9384526013602090815260408086209490945560148152838520929092556015909152912055565b5f8281526009602052604090206001015461266981612da6565b61173883836131da565b61267b6129dc565b826126985760405162461bcd60e51b8152600401610c70906144fd565b8281146126b75760405162461bcd60e51b8152600401610c7090614523565b60328311156127085760405162461bcd60e51b815260206004820152601860248201527f42617463682073697a652065786365656473206c696d697400000000000000006044820152606401610c70565b5f5b83811015611e4157612757858583818110612727576127276143ba565b90506101000201848484818110612740576127406143ba565b905060200281019061275291906145f3565b612e41565b60010161270a565b6127676129dc565b5f828152600e60205260409020546001600160a01b031633146127bc5760405162461bcd60e51b815260206004820152600d60248201526c2737ba1037b933b0b734bd32b960991b6044820152606401610c70565b5f918252600e602052604090912060010155565b7f97667070c54ef182b0f5858b034beac1b6f3089aa2d3188bb1e8929f4fa9b9296127fa81612da6565b6128026129dc565b5f82815260116020526040902054801561287a575f818152600e6020526040902054600160a01b90046001600160401b031642111561287a5760405162461bcd60e51b8152602060048201526014602482015273115d995b9d081d1a58dad95d08195e1c1a5c995960621b6044820152606401610c70565b61288383612a80565b6128c75760405162461bcd60e51b8152602060048201526015602482015274151a58dad95d08191bd95cc81b9bdd08195e1a5cdd605a1b6044820152606401610c70565b5f838152600f602052604090205460ff161561291b5760405162461bcd60e51b8152602060048201526013602482015272151a58dad95d08185b1c9958591e481d5cd959606a1b6044820152606401610c70565b5f838152600f60205260409020805460ff19166001179055801561295d575f81815260186020526040812080546001929061295790849061436f565b90915550505b6040805160018082528183019092525f916020808301908036833701905050905083815f81518110612991576129916143ba565b6020026020010181815250507f0e862c2630b0e020ea8c569930ac577d3c103fdb452386c869484d2b2cb7388181426040516129ce929190614635565b60405180910390a150505050565b600a5460ff1615612a005760405163d93c066560e01b815260040160405180910390fd5b565b6002600d5403612a2557604051633ee5aeb560e01b815260040160405180910390fd5b6002600d55565b610f38828260405180602001604052805f81525061346e565b6001600d55565b5f6001600160e01b03198216637965db0b60e01b1480610e5d57506301ffc9a760e01b6001600160e01b0319831614610e5d565b5f81600111612ac5575f54821015612ac5575f5b505f8281526004602052604081205490819003612abb57612ab483614656565b9250612a94565b600160e01b161590505b919050565b805f5260045ffd5b5f612adc836117c7565b9050818015612af45750336001600160a01b03821614155b15612b1757612b038133610b8f565b612b1757612b176367d9dca160e11b612aca565b5f8381526006602052604080822080546001600160a01b0319166001600160a01b0388811691821790925591518693918516917f8c5be1e5ebec7d5bd14f71427d1e84f3dd0314c0f7b2291e5b200ac8c7c3b92591a450505050565b5f81600111612bfc57505f81815260046020526040902054805f03612bea575f548210612baa57612baa636f96cda160e11b612aca565b5b505f19015f818152600460205260409020548015612bab57600160e01b81165f03612bd557919050565b612be5636f96cda160e11b612aca565b612bab565b600160e01b81165f03612bfc57919050565b612ac5636f96cda160e11b612aca565b612c146129dc565b6001600160a01b03841615801590612c3457506001600160a01b03831615155b15612da1575f612c4481866121db565b80612c545750612c545f856121db565b80612c715750612c715f5160206146f05f395f51905f52866121db565b80612c8e5750612c8e5f5160206146f05f395f51905f52856121db565b80612cab5750612cab5f5160206146f05f395f51905f52336121db565b905080612d155760405162461bcd60e51b815260206004820152603260248201527f5472616e73666572206c6f636b65643a204f6e6c79204f6666696369616c204d604482015271185c9ad95d1c1b1858d948185b1b1bddd95960721b6064820152608401610c70565b5f5b82811015612d9e57600f5f612d2c838761436f565b815260208101919091526040015f205460ff1615612d965760405162461bcd60e51b815260206004820152602160248201527f55736564207469636b65742063616e6e6f74206265207472616e7366657272656044820152601960fa1b6064820152608401610c70565b600101612d17565b50505b611738565b6114fa81336134c7565b5f612dbb83836121db565b612e3a575f8381526009602090815260408083206001600160a01b03861684529091529020805460ff19166001179055612df23390565b6001600160a01b0316826001600160a01b0316847f2f8788117e7eff1d82e926ec794901d17c78024a50270940304540a733656f0d60405160405180910390a4506001610e5d565b505f610e5d565b60e08301355f9081526010602052604090205460ff1615612ea45760405162461bcd60e51b815260206004820152601d60248201527f566f75636865722068617320616c7265616479206265656e20757365640000006044820152606401610c70565b60e0830180355f908152601060209081526040808320805460ff191660011790559192612f86927f7e2428746ba19547783fa5b02cf073095822dfdcab967abd9d179be86d792b099288359290890135918901359060608a01359060808b01359060a08c013590612f189060c08e0161466b565b6040805160208101999099528801969096526060870194909452608086019290925260a085015260c084015260e0838101919091526001600160401b039091166101008301528601356101208201526101400160405160208183030381529060405280519060200120613500565b90505f612fc88285858080601f0160208091040260200160405190810160405280939291908181526020018383808284375f9201919091525061352c92505050565b9050612fd45f826121db565b6130205760405162461bcd60e51b815260206004820152601c60248201527f496e76616c6964207369676e61747572652066726f6d2041646d696e000000006044820152606401610c70565b84355f908152600e60205260409020546001600160a01b03166130f15784355f908152600e60205260409081902080546001600160a01b031916331781559086013560019091015561307860e0860160c0870161466b565b85355f908152600e6020908152604080832080546001600160401b0395909516600160a01b0267ffffffffffffffff60a01b199095169490941784556002909301805460ff1916600117905560138152828220606089013590556014815282822060808901359055601590522060a08601359055613162565b84355f908152600e60205260409020546001600160a01b031633146131625760405162461bcd60e51b815260206004820152602160248201527f43616c6c6572206973206e6f7420746865206576656e74206f7267616e697a656044820152603960f91b6064820152608401610c70565b5f54613172336020880135612a2c565b5f5b86602001358110156131a757863560115f61318f848661436f565b815260208101919091526040015f2055600101613174565b5085355f90815260166020908152604082208054918901359290916131cd90849061436f565b9091555050505050505050565b5f6131e583836121db565b15612e3a575f8381526009602090815260408083206001600160a01b0386168085529252808320805460ff1916905551339286917ff6391f5c32d9c69d2a47ea670b442974b53935d1edc7fd64eb21e047a839171b9190a4506001610e5d565b61324d613554565b600a805460ff191690557f5db9ee0a495bf2e6ff9c91a7834c1ba4fdd244a5e8aa4e537bd38aeae4b073aa335b6040516001600160a01b03909116815260200160405180910390a1565b61329f6129dc565b600a805460ff191660011790557f62e78cea01bee320cd4e420270b5ea74000d11b0c9f74754ebdbfc544b05a25861327a3390565b60606133017f0000000000000000000000000000000000000000000000000000000000000000600b613577565b905090565b60606133017f0000000000000000000000000000000000000000000000000000000000000000600c613577565b6114fa815f613620565b604051630a85bd0160e11b81525f906001600160a01b0385169063150b7a0290613371903390899088908890600401614684565b6020604051808303815f875af19250505080156133ab575060408051601f3d908101601f191682019092526133a8918101906146c0565b60015b6133fe573d8080156133d8576040519150601f19603f3d011682016040523d82523d5f602084013e6133dd565b606091505b5080515f036133f6576133f66368d2bf6b60e11b612aca565b805181602001fd5b6001600160e01b031916630a85bd0160e11b1490505b949350505050565b6060601a8054610e7290614382565b606060a06040510180604052602081039150505f815280825b600183039250600a81066030018353600a9004806134445750819003601f19909101908152919050565b6134788383613764565b6001600160a01b0383163b15610e4e575f548281035b6134a05f86838060010194508661333d565b6134b4576134b46368d2bf6b60e11b612aca565b81811061348e57815f5414611e41575f5ffd5b6134d182826121db565b610f385760405163e2517d3f60e01b81526001600160a01b038216600482015260248101839052604401610c70565b5f610e5d61350c61382a565b8360405161190160f01b8152600281019290925260228201526042902090565b5f5f5f5f61353a8686613953565b92509250925061354a828261399c565b5090949350505050565b600a5460ff16612a0057604051638dfc202b60e01b815260040160405180910390fd5b606060ff83146135915761358a83613a54565b9050610e5d565b81805461359d90614382565b80601f01602080910402602001604051908101604052809291908181526020018280546135c990614382565b80156136145780601f106135eb57610100808354040283529160200191613614565b820191905f5260205f20905b8154815290600101906020018083116135f757829003601f168201915b50505050509050610e5d565b5f61362a83612b73565b9050805f80613646865f90815260066020526040902080549091565b91509150841561367d5761365b818433611543565b61367d576136698333610b8f565b61367d5761367d632ce44b5f60e11b612aca565b61368a835f886001612c0c565b8015613694575f82555b6001600160a01b0383165f81815260056020526040902080546fffffffffffffffffffffffffffffffff0190554260a01b17600360e01b175f87815260046020526040812091909155600160e11b8516900361371d57600186015f81815260046020526040812054900361371b575f54811461371b575f8181526004602052604090208590555b505b60405186905f906001600160a01b038616907fddf252ad1be2c89b69c2b068fc378daa952ba7f163c4a11628f55a4df523b3ef908390a45050600180548101905550505050565b5f80549082900361377f5761377f63b562e8dd60e01b612aca565b61378b5f848385612c0c565b5f8181526004602090815260408083206001600160a01b0387164260a01b6001881460e11b178117909155808452600590925282208054680100000000000000018602019055908190036137e8576137e8622e076360e81b612aca565b818301825b80835f7fddf252ad1be2c89b69c2b068fc378daa952ba7f163c4a11628f55a4df523b3ef5f5fa48181600101915081036137ed57505f5550505050565b5f306001600160a01b037f00000000000000000000000000000000000000000000000000000000000000001614801561388257507f000000000000000000000000000000000000000000000000000000000000000046145b156138ac57507f000000000000000000000000000000000000000000000000000000000000000090565b613301604080517f8b73c3c69bb8fe3d512ecc4cf759cc79239f7b179b0ffacaa9a75d522b39400f60208201527f0000000000000000000000000000000000000000000000000000000000000000918101919091527f000000000000000000000000000000000000000000000000000000000000000060608201524660808201523060a08201525f9060c00160405160208183030381529060405280519060200120905090565b5f5f5f835160410361398a576020840151604085015160608601515f1a61397c88828585613a91565b955095509550505050613995565b505081515f91506002905b9250925092565b5f8260038111156139af576139af6146db565b036139b8575050565b60018260038111156139cc576139cc6146db565b036139ea5760405163f645eedf60e01b815260040160405180910390fd5b60028260038111156139fe576139fe6146db565b03613a1f5760405163fce698f760e01b815260048101829052602401610c70565b6003826003811115613a3357613a336146db565b03610f38576040516335e2f38360e21b815260048101829052602401610c70565b60605f613a6083613b59565b6040805160208082528183019092529192505f91906020820181803683375050509182525060208101929092525090565b5f80807f7fffffffffffffffffffffffffffffff5d576e7357a4501ddfe92f46681b20a0841115613aca57505f91506003905082613b4f565b604080515f808252602082018084528a905260ff891692820192909252606081018790526080810186905260019060a0016020604051602081039080840390855afa158015613b1b573d5f5f3e3d5ffd5b5050604051601f1901519150506001600160a01b038116613b4657505f925060019150829050613b4f565b92505f91508190505b9450945094915050565b5f60ff8216601f811115610e5d57604051632cd44ac360e21b815260040160405180910390fd5b80356001600160a01b0381168114612ac5575f5ffd5b5f5f5f60608486031215613ba8575f5ffd5b8335925060208401359150613bbf60408501613b80565b90509250925092565b6001600160e01b0319811681146114fa575f5ffd5b5f60208284031215613bed575f5ffd5b813561255c81613bc8565b5f81518084528060208401602086015e5f602082860101526020601f19601f83011685010191505092915050565b602081525f61255c6020830184613bf8565b5f60208284031215613c48575f5ffd5b5035919050565b5f5f60408385031215613c60575f5ffd5b613c6983613b80565b946020939093013593505050565b5f5f83601f840112613c87575f5ffd5b5081356001600160401b03811115613c9d575f5ffd5b6020830191508360208260051b8501011115613cb7575f5ffd5b9250929050565b5f5f60208385031215613ccf575f5ffd5b82356001600160401b03811115613ce4575f5ffd5b613cf085828601613c77565b90969095509350505050565b602080825282518282018190525f918401906040840190835b81811015613d355783511515835260209384019390920191600101613d15565b509095945050505050565b5f5f5f60608486031215613d52575f5ffd5b613d5b84613b80565b9250613d6960208501613b80565b929592945050506040919091013590565b80356001600160401b0381168114612ac5575f5ffd5b5f5f60408385031215613da1575f5ffd5b82359150613db160208401613d7a565b90509250929050565b5f5f60408385031215613dcb575f5ffd5b82359150613db160208401613b80565b5f5f83601f840112613deb575f5ffd5b5081356001600160401b03811115613e01575f5ffd5b602083019150836020828501011115613cb7575f5ffd5b5f5f5f838503610120811215613e2c575f5ffd5b610100811215613e3a575f5ffd5b508392506101008401356001600160401b03811115613e57575f5ffd5b613e6386828701613ddb565b9497909650939450505050565b5f5f60208385031215613e81575f5ffd5b82356001600160401b03811115613e96575f5ffd5b613cf085828601613ddb565b5f60208284031215613eb2575f5ffd5b61255c82613b80565b5f8151808452602084019350602083015f5b82811015613eeb578151865260209586019590910190600101613ecd565b5093949350505050565b60ff60f81b8816815260e060208201525f613f1360e0830189613bf8565b8281036040840152613f258189613bf8565b606084018890526001600160a01b038716608085015260a0840186905283810360c08501529050613f568185613ebb565b9a9950505050505050505050565b5f5f5f5f5f60608688031215613f78575f5ffd5b85356001600160401b03811115613f8d575f5ffd5b613f9988828901613c77565b90965094505060208601356001600160401b03811115613fb7575f5ffd5b613fc388828901613c77565b9094509250613fd6905060408701613b80565b90509295509295909350565b80151581146114fa575f5ffd5b5f5f60408385031215614000575f5ffd5b61400983613b80565b9150602083013561401981613fe2565b809150509250929050565b5f5f5f5f60408587031215614037575f5ffd5b84356001600160401b0381111561404c575f5ffd5b61405887828801613c77565b90955093505060208501356001600160401b03811115614076575f5ffd5b61408287828801613c77565b95989497509550505050565b634e487b7160e01b5f52604160045260245ffd5b5f5f5f5f608085870312156140b5575f5ffd5b6140be85613b80565b93506140cc60208601613b80565b92506040850135915060608501356001600160401b038111156140ed575f5ffd5b8501601f810187136140fd575f5ffd5b80356001600160401b038111156141165761411661408e565b604051601f8201601f19908116603f011681016001600160401b03811182821017156141445761414461408e565b60405281815282820160200189101561415b575f5ffd5b816020840160208301375f6020838301015280935050505092959194509250565b5f5f5f5f6080858703121561418f575f5ffd5b5050823594602084013594506040840135936060013592509050565b5f5f5f5f604085870312156141be575f5ffd5b84356001600160401b038111156141d3575f5ffd5b8501601f810187136141e3575f5ffd5b80356001600160401b038111156141f8575f5ffd5b8760208260081b840101111561420c575f5ffd5b6020918201955093508501356001600160401b03811115614076575f5ffd5b5f5f6040838503121561423c575f5ffd5b50508035926020909101359150565b5f5f6040838503121561425c575f5ffd5b61426583613b80565b9150613db160208401613b80565b6020808252601390820152724576656e74206973206e6f742061637469766560681b604082015260600190565b634e487b7160e01b5f52601160045260245ffd5b8082028115828204841417610e5d57610e5d6142a0565b6020808252601e908201527f5072696365206e6f7420736574206f72207175616e74697479207a65726f0000604082015260600190565b6001600160a01b039384168152919092166020820152604081019190915260600190565b5f60208284031215614336575f5ffd5b815161255c81613fe2565b6020808252601490820152731554d115081d1c985b9cd9995c8819985a5b195960621b604082015260600190565b80820180821115610e5d57610e5d6142a0565b600181811c9082168061439657607f821691505b6020821081036143b457634e487b7160e01b5f52602260045260245ffd5b50919050565b634e487b7160e01b5f52603260045260245ffd5b5f826143e857634e487b7160e01b5f52601260045260245ffd5b500490565b81810381811115610e5d57610e5d6142a0565b601f821115610e4e57805f5260205f20601f840160051c810160208510156144255750805b601f840160051c820191505b81811015611e41575f8155600101614431565b6001600160401b0383111561445b5761445b61408e565b61446f836144698354614382565b83614400565b5f601f8411600181146144a0575f85156144895750838201355b5f19600387901b1c1916600186901b178355611e41565b5f83815260208120601f198716915b828110156144cf57868501358255602094850194600190920191016144af565b50868210156144eb575f1960f88860031b161c19848701351681555b505060018560011b0183555050505050565b6020808252600c908201526b456d7074792061727261797360a01b604082015260600190565b6020808252600d908201526c088c2e8c240dad2e6dac2e8c6d609b1b604082015260600190565b60208082526022908201527f5175616e74697479206d7573742062652067726561746572207468616e207a65604082015261726f60f01b606082015260800190565b604080825281018390525f6001600160fb1b038411156145aa575f5ffd5b8360051b808660608501376020830193909352500160600192915050565b5f81518060208401855e5f93019283525090919050565b5f6134146145ed83866145c8565b846145c8565b5f5f8335601e19843603018112614608575f5ffd5b8301803591506001600160401b03821115614621575f5ffd5b602001915036819003821315613cb7575f5ffd5b604081525f6146476040830185613ebb565b90508260208301529392505050565b5f81614664576146646142a0565b505f190190565b5f6020828403121561467b575f5ffd5b61255c82613d7a565b6001600160a01b03858116825284166020820152604081018390526080606082018190525f906146b690830184613bf8565b9695505050505050565b5f602082840312156146d0575f5ffd5b815161255c81613bc8565b634e487b7160e01b5f52602160045260245ffdfe0ea61da3a8a09ad801432653699f8c1860b1ae9d2ea4a141fadfd63227717bc8a26469706673582212207f5e90c25889ec53fd2c3bc2632d2b546d717382ba903469f17b9b625e3d07be64736f6c634300081c0033",
  "linkReferences": {},
  "deployedLinkReferences": {},
  "immutableReferences": {
    "2853": [
      {
        "length": 32,
        "start": 14474
      }
    ],
    "2855": [
      {
        "length": 32,
        "start": 14432
      }
    ],
    "2857": [
      {
        "length": 32,
        "start": 14390
      }
    ],
    "2859": [
      {
        "length": 32,
        "start": 14555
      }
    ],
    "2861": [
      {
        "length": 32,
        "start": 14595
      }
    ],
    "2864": [
      {
        "length": 32,
        "start": 13019
      }
    ],
    "2867": [
      {
        "length": 32,
        "start": 13069
      }
    ],
    "9102": [
      {
        "length": 32,
        "start": 2545
      },
      {
        "length": 32,
        "start": 3405
      },
      {
        "length": 32,
        "start": 4900
      },
      {
        "length": 32,
        "start": 5166
      },
      {
        "length": 32,
        "start": 6335
      },
      {
        "length": 32,
        "start": 7371
      },
      {
        "length": 32,
        "start": 8251
      }
    ],
    "9104": [
      {
        "length": 32,
        "start": 2370
      },
      {
        "length": 32,
        "start": 5119
      }
    ]
  },
  "inputSourceName": "project/contracts/ShineTicket.sol",
  "buildInfoId": "solc-0_8_28-573800cac2e7e3c81ab0dc6910eb152d465e90b2"
}